:020000040001F9
:10E2000018F09FE518F09FE518F09FE518F09FE5DE
:10E2100018F09FE518F09FE518F09FE518F09FE5CE
:10E2200084E2010040E2010044E2010048E2010012
:10E230004CE2010054E2010050E2010058E201000A
:10E24000820000EA830000EA840000EA850000EA18
:10E25000B20000EA850000EAA80000EA20094000B8
:10E260003C1E00000CB54000200000001CBC40001B
:10E27000F00100002CB54000F00600000CBE40008C
:10E28000F0010000DF00A0E300F021E130001FE515
:10E2900030101FE5003081E00040A0E103D0A0E194
:10E2A00084219FE5030054E104208434FCFFFF3AFD
:10E2B000D700A0E300F021E15C001FE55C101FE542
:10E2C000003081E00040A0E103D0A0E158219FE5AB
:10E2D000030054E104208434FCFFFF3ADB00A0E398
:10E2E00000F021E188001FE588101FE5003081E083
:10E2F0000040A0E103D0A0E12C219FE5030054E100
:10E3000004208434FCFFFF3AD200A0E300F021E1B6
:10E31000AC001FE5AC101FE5003081E00040A0E13B
:10E3200003D0A0E104219FE5030054E104208434DC
:10E33000FCFFFF3AD100A0E300F021E1C8001FE597
:10E34000C8101FE5003081E00040A0E103D0A0E14B
:10E35000DC209FE5030054E104208434FCFFFF3AF5
:10E360000080A0E30090A0E300A0A0E300B0A0E341
:10E3700000C0A0E3D300A0E300F021E110011FE5FD
:10E3800010111FE5003081E00040A0E103D0A0E1C2
:10E39000A0209FE5030054E104208434FCFFFF3AF1
:10E3A0000E0000EB170000EB0000A0E30010A0E35C
:10E3B0000020A0E30030A0E30040A0E30050A0E371
:10E3C0000060A0E30070A0E30080A0E30090A0E361
:10E3D00000A0A0E300B0A0E300C0A0E3250000EA95
:10E3E00054009FE554109FE554209FE50130A0E1C3
:10E3F000023083E0030051E1044090340440813452
:10E40000FBFFFF3A1EFF2FE138009FE538109FE524
:10E41000003081E00040A0E10020A0E3030054E1CF
:10E4200004208434FCFFFF3A1EFF2FE1AAAAAAAA07
:10E43000CCCCCCCCDDDDDDDDBBBBBBBB4490020076
:10E440000008400020010000200940003C1E0000A0
:10E4500004F01FE59D21000004F01FE59F2100004E
:10E4600004F01FE5A121000004F01FE5A321000036
:10E4700004F01FE5A521000004F01FE5D5E601002A
:10E48000000000000000000000000000000000008C
:10E49000000000000000000000000000000000007C
:10E4A000000000000000000000000000000000006C
:10E4B000000000000000000000000000000000005C
:10E4C000000000000000000000000000000000004C
:10E4D000000000000000000000000000000000003C
:10E4E000000000000000000000000000000000002C
:10E4F000000000000000000000000000000000001C
:10E500000F502DE99D0500FB0F50BDE804F05EE2C1
:10E5100000000000000000000000000000000000FB
:10E520000F502DE9820500FB0F50BDE804F05EE2BC
:10E5300008B500920B000200B149B2A001F078FBCF
:10E5400008BD1CB501930B00AD49009202000B31D0
:10E55000B5A001F06DFB1CBD1CB501930B00A849D3
:10E56000009202001831B0A001F062FB1CBD0B004C
:10E57000A349020010B52431B8A001F059FB10BD29
:10E5800010B504000100C1A001F052FBF9F79CECAA
:10E59000F9F7A4EC01F0F2FBC048844206D0C04871
:10E5A000844203D00A2001F0D5FCFEE710BD1CB563
:10E5B000BC490622684600F091FE68460078FF28B4
:10E5C00013D168464078FF280FD168468078FF282D
:10E5D0000BD16846C078FF2807D168460079FF282C
:10E5E00003D168464079FF2804D0AF480622694627
:10E5F000F9F734FC1CBD00F079FBFCE7AB4FAC4CE9
:10E6000000F074FBF9F760EC0600F9F768EC050020
:10E6100003F0ACFB05F0DAF83878012801D101F0FD
:10E620008BFC2078002811D000F07DFB810709D5F4
:10E6300001F0D9F9002807D12078032804D101F08E
:10E64000D8F903E0C00701D001F0FFF900F0ADF800
:10E65000002E01D1F9F74CEC002DD1D1F9F750EC97
:10E66000CEE7944801780170704710B592484C216C
:10E67000F9F70EFC91499048016091494160914938
:10E6800081609149C160914901619149416191491C
:10E6900081619149C1619149016291494162914908
:10E6A00081629149C16291490163914941639149F4
:10E6B00081639149C163914941649149816410BD6D
:10E6C0009049914801609149416091498160914927
:10E6D000C160704700B501208FB0F9F7B6FBFFF7B6
:10E6E000C0FF01F051F900F08DFC01F061FAFFF775
:10E6F000E7FF01F00EFAE120400201F0EEFA864851
:10E70000E3F73EFD00F056FDFFF751FF834814226A
:10E710000890834809A9099082480A906846F9F749
:10E720009DFB05A80FC8E3F790FD6348FFF79DFF29
:10E73000002000F060FA01F031F900F0A4FD7A4801
:10E7400001680212114301600321416001F096F853
:10E7500005F0ECF800F09CFB7D2174480122C90112
:10E7600007F0EEFEF9F7C4EBF9F7CAEB70A001F081
:10E770005FFA50480078C10702D000F0B7FAFCE712
:10E78000810703D508F028FA0FB000BD400702D575
:10E7900008F0E4FCF8E7FFF731FF01000020002952
:10E7A00001D0022900D158487047644810B500686C
:10E7B00000686349884203D062A001F028FAFBE7B1
:10E7C0006C48006800686C49884203D06BA001F077
:10E7D0001EFAFBE77548006800687549884203D057
:10E7E00074A001F014FAFBE77E48006800687E49D7
:10E7F000884203D07DA001F00AFAFBE710BD0000BB
:10E80000AE82020025732C636F6E646974696F6E4B
:10E810002025732C66696C652025732C6C696E65E8
:10E82000203D2025640D0A0025732C706172616DF6
:10E8300030203D2025642C706172616D31203D20B7
:10E8400025642C66696C65203D2025732C6C696EEF
:10E8500065203D2025640D0A0000000025732C640E
:10E86000617461203D2025642C6C656E677468209E
:10E870003D2025642C66696C65203D2025732C6C39
:10E88000696E65203D2025640D0A00006572726F77
:10E8900072203D2025780D0A00000000C3C3C3C3C9
:10E8A000A5A5A5A5E30004002400400054084000ED
:10E8B000730840003800400064014000D128020085
:10E8C00005290200372702002928020055280200E6
:10E8D000A7270200B9EB0100ADEC0100FDEC01003F
:10E8E000CFED010047EE01001DEE010029EE010011
:10E8F00081E5010031E5010043E50100DDFB010098
:10E900005FFD010095FD0100200940009FFD010011
:10E910005DFD010079FD010031FC0100D3F401002F
:10E9200001F501002FF6010040008000CC1C4000E2
:10E93000737461727420310D0A00000064E20100FA
:10E94000AAAAAAAA537461636B5F496E7465677261
:10E950006974795F436865636B20535441434B5F2F
:10E96000424153455F554E55534544206661696C9D
:10E97000210D0A0074E20100BBBBBBBB5374616391
:10E980006B5F496E746567726974795F436865632C
:10E990006B20535441434B5F424153455F535643B1
:10E9A000206661696C210D0A000000007CE2010014
:10E9B000DDDDDDDD537461636B5F496E7465677225
:10E9C0006974795F436865636B20535441434B5FBF
:10E9D000424153455F464951206661696C210D0AE9
:10E9E000000000006CE20100CCCCCCCC537461631D
:10E9F0006B5F496E746567726974795F43686563BC
:10EA00006B20535441434B5F424153455F49525140
:10EA1000206661696C210D0A0000000010B5E4F762
:10EA2000C5FB0020E7F78EFFE4F786FC0020EBF73C
:10EA3000FAF9EBF78CFA10BD70B5F9F746EA050064
:10EA4000F9F74CEA04000120C00781210904C861DC
:10EA5000C869C00FFCD1C8690A6A496A1018081849
:10EA6000F9F7F3F9E8F718F80120E7F76BFFE4F797
:10EA70009DFC0120EBF7D7F9E4F798FB002D01D1BD
:10EA8000F9F736EA002C01D1F9F73AEA70BD4148AE
:10EA90000068002801D000207047012070473D49E0
:10EAA00001200968002908D13A498968002904D160
:10EAB00038490969002900D1002070470822C27036
:10EAC000042282700B224270002202708120000416
:10EAD0004268120ECA704268120C8A704268120AAA
:10EAE0004A7040680870704770B5022681252D0471
:10EAF0002C69002C4DD0600703D50420A86100F0DC
:10EB00005AF9E00705D00120A86100F075F9EDF78A
:10EB10004CF9200603D58020A861EDF746F92007BF
:10EB20000CD50820A861A00702D50220A861B44333
:10EB30000020E9F769FE184801F01FFAE0050AD540
:10EB4000FF200130A861A00702D50220A861B443CC
:10EB50000120E9F759FEA00703D50220A861E9F7D3
:10EB60006EFEA00504D501204002A861EDF787F9EB
:10EB7000600603D54020A861E9F741FEE00603D511
:10EB80001020A861E8F784FBA006B1D52020A86179
:10EB9000AEE770BDF8044000FF3F000010B5002054
:10EBA000F3F7E1FA0020EFF706F80020F6F7ADF8EA
:10EBB0000020F7F7ACFE10BD10B50120F3F7D3FA33
:10EBC0000120EEF7F8FF0120F6F79FF80120F7F794
:10EBD0009EFE10BD0121C90781200004C161C169E9
:10EBE000C90FFCD1006AFF21D531884201D3012031
:10EBF0007047002070473EB500200121C90588619B
:10EC0000994D012469460C7028606860A860E8602E
:10EC1000E3F764FC57229549D2000020E3F718FD82
:10EC20009349A2020120E3F713FD572291491201F3
:10EC30000220E3F70DFD03228F4952020320E3F780
:10EC400007FD8E4801F03FFB0220FFF7A6FD010003
:10EC50008B4A0020F8F78BFFF7F7BFFEF9F75BF858
:10EC6000FFF79CFFFFF7DAFE0020ECF7E8FE11202B
:10EC700001AA6946E3F70EFB002810D16846007927
:10EC800000280CD0122002AA69466C73E3F702FB3D
:10EC9000002804D16846007A002800D0AC736C7359
:10ECA0001020AC73287303F079FE3EBD70B5F9F700
:10ECB0000CE90500F9F712E90400E3F725FCF7F782
:10ECC0009DFEFFF7B9FE0120ECF7B9FE6B48006826
:10ECD0008047002D01D1F9F70CE9002C01D1F9F79B
:10ECE00010E970BD10B5FFF7E9FE10BD5E4810B524
:10ECF000807AC00701D1E3F796FC10BD70B505001E
:10ED0000F9F7E2E80600F9F7EAE804005648418915
:10ED10002943002E418101D1F9F7EAE8002C01D105
:10ED2000F9F7EEE870BD38B5564800250090E3F7D6
:10ED30000BFC00283BD04C4C0125607B002836D0D2
:10ED40006089002833D1A07B002802D17D20C0013A
:10ED50000090FFF73FFF0028FBD0217B6846E4F7D7
:10ED6000D0F8002823D0FFF792FE002821D0217B85
:10ED70006846EDF77EF9002819D0F8F75FFF002804
:10ED800017D001F0A8F8002813D000986421C00221
:10ED9000F9F728F8A17B401EEAF740FD0120400268
:10EDA000FFF7ACFF3548806A804702200543280002
:10EDB00038BD0025FBE710B50120FFF79FFFEAF7FC
:10EDC0004DFDF8F72EFF304801F0D7F810BD70B5B3
:10EDD0000500F9F77AE80600F9F780E80400224810
:10EDE0004189A943002E418101D1F9F782E8002C25
:10EDF00001D1F9F786E870BD1B4810B5807AC007CD
:10EE00000BD0EAF739FD0220E3F7BAFB0120FFF748
:10EE1000DEFF01204002FFF7DAFF10BD10B51B49ED
:10EE2000C003F8F7DFFF10BD10B5FFF7F7FF0E497D
:10EE3000086010BD0C48408970470B48407B704704
:10EE40000948807B7047084B10B559680202891841
:10EE5000C20012188A18510A4C02121B5A601E2254
:10EE60005043401810BD00003009400000508100A0
:10EE7000C4528100D05681004C5C810030014000BA
:10EE80004508400080BB0000FF3F000040420F00EB
:10EE90004B48082101604B4901614B4941614B4995
:10EEA0008161816A1F22D20391438162816A0322B8
:10EEB00052041143816246480168C2021143016055
:10EEC0007047434881690322520211438161400423
:10EED000016A02229143016239498A6A02438A62C5
:10EEE000704737498A6A0120C00582438A62016AF5
:10EEF0000222114301623648816903225202914382
:10EF000081617047F8B5334F334C2D4E002523E017
:10EF10002B484030406831490004000C884202D937
:10EF200001210904401A2178A0225143A288C9195D
:10EF300052008852A088401C0004000C4F28A0807A
:10EF40000AD9A58004F05DF82078401C0006000E68
:10EF50000528207000D92570B06B4004D8D5F8BDC5
:10EF600070B51D4CA078002811D1042000F071FD6F
:10EF70000125A570FFF7A5FF04F032F80020A0805E
:10EF8000207060701648057416A000F051FE70BD28
:10EF9000114B10B59878012811D1FFF7A2FF00207E
:10EFA0000F49187058700874987004F031F804F024
:10EFB0000EF8012000F04DFD0EA000F039FE10BD4E
:10EFC000006C8000223AEB00223ABF8B1C75E6C928
:10EFD000400080004009400000084000FF7F000022
:10EFE000781C4000617564696F2073746172740DE0
:10EFF0000A000000617564696F2073746F700D0AF8
:10F00000000000000020044902007D23DB00401CBA
:10F0100004C19842FBDB704700408100FE4BD96978
:10F02000FF22F1320A400243981308400243FB4892
:10F0300008400243580301400A43DA611868002877
:10F04000FCDB7047F44801680029FCDBF4490160EF
:10F0500001680029FCDB00214A1E4260491C082986
:10F06000FBD300697047EC4801680029FCDBED49DF
:10F07000016001680029FCDB40690006000E704752
:10F0800070B50E000400FFF7DDFFE74D0100A86832
:10F09000814248D1E54AE04B811A90421AD008DCFF
:10F0A000E34940180ED0E349401810D0012809D197
:10F0B0000DE009208002081A04D0DF49401809D069
:10F0C000012807D0D8690F210903884305E0D869D2
:10F0D000DA4901E0D869DA490840D861002E22D027
:10F0E000022C20D8D869B1020122520211430843F0
:10F0F000D86118680028FCDBFFF7A4FFA9688842E4
:10F1000011D1012C02D0022C02D003E0CD4900E045
:10F11000CD49196018680028FCDB7D2000031860C9
:10F1200018680028FCDB70BDBF48C0498068421ADF
:10F13000884219D008DCC549401813D0C44940188A
:10F140000ED0012809D10BE009208002101A04D04A
:10F15000B949401808D0012806D0982101208FE72E
:10F16000BC4902E0AC21F9E7AC210220F7E7AE4848
:10F17000AE498068421A884219D008DCB349401869
:10F1800013D0B34940180ED0012809D10BE0092053
:10F190008002101A04D0A849401808D0012806D0CF
:10F1A0009C2101206CE7BC2102E0BC21F9E79421FD
:10F1B0000220F7E700B5FFF745FF9B4A9060FFF795
:10F1C00052FF9168994A8B1A914221D008DC9F4ADC
:10F1D000891819D09E4A891812D0012909D10FE047
:10F1E00009218902591A04D0934A891810D001299B
:10F1F0000ED09C2803D09C210120FFF741FF00BDC9
:10F20000BC28FCD0BC2106E0BC28F8D0BC21F3E728
:10F210009428F4D094210220EFE77F4AD069116846
:10F220000029FCDBC02101401023194303071B0FF9
:10F230000B430121490201400B43784901400B4334
:10F240000121890608400343D36177487F498068DC
:10F250004942884201D1804800E08048106010682F
:10F260000028FCDB704700B5FFF7D7FF6A48C1698B
:10F2700070229143C161C16910221143C1610168CB
:10F280000029FCDB00BD00B5FFF7DCFE66498860A5
:10F29000FFF7E9FF72480078C00701D0032000E0C3
:10F2A0000120FFF7BBFE00BD704710B504005E48AB
:10F2B0000179AB2911D14079BC280ED1FFF734FF79
:10F2C000554908680028FCDB2D20000604430C602B
:10F2D00008680028FCDBFFF74AFF10BDF7B51400F3
:10F2E0000D000026002A8AB039D04B490868002852
:10F2F000FCDB601E00274009401C089023E025200D
:10F300002900000601434448016001680029FCDB34
:10F31000002120356A46404883688800491C082936
:10F320001350F8D378012030A04203D20A988019F4
:10F33000202202E00A98A21B80196946F8F78EFD88
:10F34000089820367F1CB842D9D833487D2109035C
:10F35000016000214A1E4260491C0829FBD30DB000
:10F36000F0BDF7B5150000268AB0002A089179D0C3
:10F3700001208004814275D3274C20680028FCDBE3
:10F380002948C2218170FFF7CFFE681E002740097F
:10F39000401C099069E078012030A84203D20A9805
:10F3A000811920220AE00020411E6A468300401C89
:10F3B0000828D150FAD30A98AA1B81196846F8F791
:10F3C0004DFD1948D123C3700020203669468200C4
:10F3D0008A586260401C0828F9D313480178A6298E
:10F3E00016D14178B32913D121680029FCDB80783C
:10F3F000C2280AD1D12B08D108980121890488425A
:10F40000ADD30B2189060843206020680028FCDB6F
:10F4100008982030089026E00020800000FCFF03C0
:10F4200000D0073400D00723080840001340C8006C
:10F43000EDBFAEFF001D8FFF0024E8FFFF0FDFFFD1
:10F44000FF0FFEFE00D0076400D00767EDCEE3FF9C
:10F45000000E5AFF8C08000000D0073600D0073796
:10F460003800400012E009987F1CB84293D8FFF79B
:10F470007EFE7D2000032060B04800218170C170B5
:10F480000800491E6160401C0828FBD367E7AC48B0
:10F4900010B501680029FCDBC269A849A94B89683D
:10F4A000994215D0A84CA94BA14202D0641EA1429A
:10F4B00004D1510149090122120403E05101490913
:10F4C0000122D2041143C161036001680029FCDB01
:10F4D00010BDF8B58F18080A3C0A1E00000224026D
:10F4E000A04208D0651A2A001800FFF7F7FE210095
:10F4F0007A1A701900E01800FFF7F0FE0020F8BD3E
:10F50000FFB516000B0081B0FFF79CFD8B4CA16886
:10F51000884208D0FFF796FD01008DA000F088FB1F
:10F52000FF2005B0F0BDA6209F19190A3D0A2070E2
:10F5300009022D02B320A9420BD019006E1A607087
:10F5400004983200FFF70DFF049829007A1A8019F9
:10F5500003E06070049832001900FFF702FF0020FA
:10F5600020706070DDE7F0B5050001200C0016008A
:10F570000003814289B027D8002C25D0290B09032C
:10F580000F183800FFF791FE3005000D3F1819E005
:10F59000202C01DD202600E026000020009070488D
:10F5A0003200007A290001ABFFF793FF00200090A2
:10F5B0006B483200007A390001ABFFF7A1FFA41BB2
:10F5C000AD19BF19002CE3DC09B0F0BDF0B50500A2
:10F5D00001200C0016000003814289B0F4D8002CF1
:10F5E000F2D0290B09030F1A3800FFF75EFE300531
:10F5F000000D3F18202C01D9202600E02600002015
:10F60000009057483200007A290001ABFFF761FFF4
:10F610000020009052483200007A390001ABFFF719
:10F620006FFFA41BAD19BF19002CE3D1CCE7F8B5CF
:10F63000080B0F050B000003012109034418844641
:10F6400000203E4E0090AB2015003F0D3071FFF7BB
:10F65000F9FCB168884201D0FF20F8BD002F10D01E
:10F66000BC207071009A39006046FFF77CFF009A59
:10F6700039002000FFF7AAFF01200003C01B2D1A4C
:10F6800000E01C002D49BC202F130026487107E024
:10F690002000FFF70AFE0120000324182D1A761C13
:10F6A000BE42F5DB002D13D02449BC2001263603D1
:10F6B0004871771B601900223900FFF787FFA41BF0
:10F6C0002A0039002000FFF74EFF2000FFF7EDFD74
:10F6D0001A480021017141710800F8BD30B5FFB032
:10F6E000002082B0012201A90A54401CFF28FBDB44
:10F6F000FFF7A8FC01001BA000F09AFA00242125C6
:10F700006D03FF222900200001AB0094FFF7F8FEF3
:10F71000FF222900002041AB0094FFF7DAFE41AD43
:10F720002A5D210014A000F083FA641CFF2CF7DB93
:10F7300015A000F07DFA7FB002B030BD080840008F
:10F740000020800013311C001423C20000D00727C2
:10F75000666C617368203D20307825780D0A0000C2
:10F76000000D40006765745F666C6173685F4944B3
:10F770003D25780D0A0000006354656D70315B25EE
:10F78000645D3D25780D0A002F2A2A2A2A2A2A2A72
:10F790002A2A2A2A2A2A2A2A2A2A2A2A2A2A2A2AC9
:10F7A0002A2A2A2A2A2F0D0A00000000F7B502098A
:10F7B0009700704AD259166896466E4A1432D2594A
:10F7C00015680207120F012394461C00083294406A
:10F7D000624693401A04012914D0002916D0032947
:10F7E00017D09E4334431100294305072D0F0120F4
:10F7F000A840029B0006002B10D0012B12D0022B38
:10F8000015D112E03343A3431C0004E033431C43EF
:10F81000E9E733431C4329009143E6E7224382434F
:10F82000140004E09443044301E09443844370468D
:10F83000046050481430C0590160FEBD0109020740
:10F8400088004C49120F1431085800680004000E5B
:10F85000D040C007C00F704702099300454A10B559
:10F860001432D458226800070123000F8340002976
:10F8700001D01A4300E09A43226010BD704710B5D2
:10F8800004000121FFF7E8FF00212000FFF7E4FF5B
:10F8900010BD002802D03749091F0860704736485C
:10F8A00000218160491E016134480168821391433F
:10F8B00001603048001F0068002800D000477047F2
:10F8C00000B5002202212020FFF770FF0022022154
:10F8D0002020FFF76BFF002202212020FFF766FFA8
:10F8E000002202212020FFF761FF002202212020B8
:10F8F000FFF75CFF00BD20484038026820490A60DD
:10F9000082684A6002698A608269CA60026A0A6122
:10F91000426814310A60C2684A6042698A60C269FA
:10F92000CA60426A0A611749016041608160C16032
:10F93000016141618161C1610162416270471049A9
:10F940000D480A68403802604A6882608A6802612D
:10F95000CA68826109690162094914310A68426012
:10F960004A68C2608A684261CA68C26109694162C4
:10F9700070477047180840004065800040008000D4
:10F980000C0D4000FFFF000058480121017058494C
:10F990000978C90701D00021017070475548C16836
:10F9A000FF2212049143C160C16815221204114361
:10F9B000C160C168090C0904C160C168FF2210322E
:10F9C0001143C1604C4A41048A63FF22FA320A6043
:10F9D000C26902239A43C26100204860486B4022FA
:10F9E0001043486370474548407870474349487022
:10F9F0007047424810B5012101703E48C26990230A
:10FA00001A43C261FF23F93342041360C36902241D
:10FA10002343C361C3690B43C361C3690824234300
:10FA2000C361C36904242343C361516010BD3348DB
:10FA30000178012908D1002101702E499020C86168
:10FA4000FF20FA304904086070470120C105486072
:10FA50007047F0B52749CA6902239A43CA61284A08
:10FA6000284C294D00264904012810D0244B274F4B
:10FA70004033022811D0042603280ED0042805D1D3
:10FA800062626A624E60FF20FC300860F0BD626214
:10FA90006A624E60FF20FA30F7E763626B624E6085
:10FAA0000F60F0BDC9010143164880300161416912
:10FAB0000322120311434161FEE7134910B50A699D
:10FAC000104980310B6901242405A3430B618B0588
:10FAD0001A430C4B1A610A69C0010F23DB019A43D8
:10FAE0000A610A6902430A6110BD00003200400049
:10FAF00038004000400080007107000040084000CE
:10FB00000A3C207400148000C80D4000FB05000072
:10FB1000704725484168890889004160416803228F
:10FB200011434160016820221143016070471F4862
:10FB30001D498860704770B51B4EB568FFF777FFA9
:10FB400081200004016B0904C90F04D0016B10224D
:10FB5000914311430163A80603D52020044300F01C
:10FB60004AF9A80304D5012040040443FFF7CAF969
:10FB7000A80504D5012040020443FFF790FEB460BD
:10FB800070BD70B5084EB568FFF751FF280403D566
:10FB900030120443FEF7A8FF680502D50120800259
:10FBA0000443B46070BD000040008000FFFF00000F
:10FBB00070470949886070470748406870470649A0
:10FBC00008607047044810B5C0680006000E02D0F7
:10FBD0000220E2F7D5FC10BD00E00010C14AC04889
:10FBE0005178405C491C51707047BF48C06800069E
:10FBF000000E704710B5BC4A06E00378401C9468BC
:10FC0000A403E40FFBD0D360491EF6D210BD10B59B
:10FC10000024020003E0641C2406240E401C01782A
:10FC20000029F8D121001000FFF7E4FF200010BDEB
:10FC30000FB410B5AA480299543003AA07F0C6FEC3
:10FC40000400A7485430FFF7E2FF402C02D9A7A0D8
:10FC5000FFF7DDFF200010BC08BC04B018470020EF
:10FC6000704710B5040086B01422A4A16846F8F7C6
:10FC7000F5F8220968469B49825CC91C0A70220774
:10FC8000120F805C487000208870080006B010BD1C
:10FC900070B505009EA0FFF7BAFF0424E00029001C
:10FCA0000838C1400806000EFFF7DBFFFFF7AFFF83
:10FCB000641E2406240EF1D196A0FFF7A8FF70BDA4
:10FCC0007D2101B5C90003E00220401C8842FCD31D
:10FCD0000098421E0092F7D208BD012110B5C90557
:10FCE000CA6852085200CA60E1210902421A8842D9
:10FCF0000AD004DC8849401A06D0401A04E0501AA1
:10FD000002D08649C84201D0892000E010200102BB
:10FD100075481B31016082494160C22101610021A7
:10FD20008161804AC26180480268804B1A4002604B
:10FD3000036803221204134303600368141223436D
:10FD40000360436893434360654840308160C1600D
:10FD50007748016820221143016010BD704710B53B
:10FD6000614800E0C16881688902C90FFAD15C4826
:10FD70004021F8F78DF810BD012070475A4881697D
:10FD80000122120491431143816181688903C90FE3
:10FD9000FBD0704752484030C36082607047F0B477
:10FDA00004004F480D0640300CC02D0E4E49083857
:10FDB00005E08E68F60202D52678CE60641C2E001F
:10FDC0006D1E2D062D0E002EF3D1002A05D0002128
:10FDD00001604160F0BC18001047F0BC704700287B
:10FDE00001D04049C86070473E48C168002901D031
:10FDF0000021C1607047F8B53B4D6F696869394CA7
:10FE00008007C10F36480026002912D169694906CA
:10FE1000C90F0ED169690906C90F0AD10CE0EA6859
:10FE2000A1684318491CA1601A70A168402900D13B
:10FE3000A660A9688902F2D43E490A780121D30755
:10FE4000002B29D06A695206D20F15D00278012AF8
:10FE500009D14278E02A02D18078FC2808D0A06835
:10FE6000032800D9A170A078002804D0217003E0F5
:10FE70000220A070F7E7A660A07801280AD1A6604A
:10FE8000174940318A68C868002A03D08E60CE6066
:10FE900000219047A67016E0900701D5217012E06E
:10FEA0005007217006D5A06801060D48090E07F01D
:10FEB00056F907E0E268002A04D0A0680106084865
:10FEC000090E9047A66069693806000E090A090202
:10FED00001436961F8BD044880688003C00F704722
:10FEE000340D40004408400000638000627566667F
:10FEF0002066756C6C200D0A000000003031323332
:10FF00003435363738394142434445460000000015
:10FF1000307800000D0A00008025000000B2F3FFD9
:10FF2000011002000100700000658000FCFFFCFF72
:10FF300040008000380040000120C105C86116481B
:10FF40002D2149040160A521090401601349002005
:10FF50004870704700220121C905CA610E49086036
:10FF60002D235B04C3180B60A5231B04C018086075
:10FF70000A480121027041707047084949780129F7
:10FF800008D12D214904421803490A60A522120410
:10FF9000801808607047000000608000540840002E
:10FFA00070470020704781210904086B0722104325
:10FFB00008637047400876380006001670470068EE
:10FFC000704701607047DF494A6B52005208C00712
:10FFD00002434A63704710B5DB4C002305E0220062
:10FFE0000221491C9142FCDB5B1C8342F7DB10BD04
:10FFF000F8B5D64C20690121090508432061206924
:020000040002F8
:100000000F21C90108432061216901204004814377
:1000100021612069C009C0012061606901210903D3
:10002000084360610A20FFF7D6FF60690121490398
:10003000084360610A20FFF7CEFFC54DE968402004
:100040008143E960E868C14F803FF8600A20FFF70C
:10005000C2FFE86880210843E860E868F8600A2089
:10006000FFF7B9FF60690121090408436061C820F6
:10007000FFF7B1FFB54840388068C000C10C7D2053
:100080004002F7F7AFFEB14EC00540363168B14AC5
:10009000114031603168C00B014331606420FFF7CB
:1000A0009AFF616901200003814361616069012158
:1000B000490388436061E96880208143E960E8681A
:1000C000F8600A20FFF787FFE86840210843E860EE
:1000D000E868F8606169012000048143616120697A
:1000E0000121490408432061216901200005814361
:1000F00021613068012108433060C820FFF76BFFA1
:100100006420FFF768FFF8BD00B51420FFF763FF18
:100110008E49914A80390A608D4802608F4A4A6050
:1001200042608F4A8A6082608E4A1278D2071CD061
:100130008D4ACA60C2608D4A0A6102618C4A4A6176
:1001400042618C4A8A6182618B4ACA61C2618B4A70
:100150000A6202628A4A4A6242628A4A8A62826207
:10016000894ACA62C262894A1CE0894ACA60C2607E
:10017000884A0A610261884A4A6142617D4A1032B6
:100180008A618261854ACA61C261854A0A620262E5
:10019000844A4A624262844A8A628262834ACA62AA
:1001A000C262834A0A630263824A4A634263824AA2
:1001B0008A638263814ACA63C2631420FFF70BFF1C
:1001C00000BD10B51420FFF706FFFFF79DFF7C4927
:1001D0005E4801604B21490641600F21C9068160DC
:1001E00005214907C1605F490A78D10701D07549E7
:1001F00000E07549016100214161744B8361744BDA
:10020000C361744B0362744B4362744B83628123FA
:10021000DB00C3620163724B43638163C163714856
:10022000D30701D0704B01E06F4B5B1C0360416052
:100230008160C160016141618161C16101624162AE
:100240002523DB038362694BC362D30701D0684B6C
:1002500001E0674B1E33036341638163C1636148FF
:1002600001210906403001606249416062498160B4
:100270006249C160624901616249416162498161CB
:100280006249C161624901626249416262498162B7
:100290006249C162624901636249416362498163A3
:1002A0004916C1636148016903031943016141694A
:1002B00099434161D00702D0FFF79AFE10BDC820D4
:1002C000FFF789FE10BD5A490C220162594941626B
:1002D000594941612C210A545849816258490160A9
:1002E000584941605849C1616BE7002104E002228E
:1002F000521C0A2AFCDB491C8142F8DB70470021B2
:1003000004E00222521C322AFCDB491C8142F8DB49
:1003100070470F48416A0122920691434162426A46
:100320000A4980394A62026B01239B039A430263A4
:10033000026B0A63026B5B001A430263006B086383
:100340007047000040008100BC0C00008014800059
:10035000C80D4000FF00FEFF1032A0C300C195820F
:1003600000AF422F38004000629C5C6A335F917F8F
:1003700000752846008CD688E59F80180740B82F66
:10038000083C207025EC071C0C24DDD308D000802D
:1003900062D41C2AB75E937F40552848C7BF10001F
:1003A0000540D02D0A3C207427EC073C0C26FDD2DA
:1003B00008900080233F41845093300078E9263133
:1003C000D6BE898E82001E0082071E00050584109D
:1003D00000C9080010100101004E103C683D100ECD
:1003E00044C42C08C01480000000011048103422BE
:1003F000001CFF01020405070A0C0F12161A1E2228
:10040000262B30353A40454B51575D636970767CF9
:1004100083898F969CA2A8AEB4BABFC5CACFD4D9DF
:10042000DDE1E5E9EDF0F3F5F8FAFBFD40008000D1
:10043000BFFF0100C3FF0100A3FF0100A7FF0100F0
:10044000A1FF0100C7FF0100B5FF0100FFB50500D6
:100450008BB0149800270078401E012876D801211F
:100460002420E2F78FF904002421F7F711FD1498F6
:1004700000260078E07761E0072069460876149846
:10048000A17F80190700059040780822B040014301
:10049000A1771499F00041180019001D091DF7F704
:1004A000DDFC7878012805D16946087E08210843DB
:1004B00069460876E07F012805D96946087E102143
:1004C0000843694608760C9809A9028870000790CD
:1004D0000A520E991E221140AB8A039109A94018B5
:1004E000C34F002269468CC1C249052306AAF1F711
:1004F000D4FA07001CD1059A0799527809A8415AE5
:10050000012A01D0012200E00022891A0C9A491D1B
:1005100011800599497801290AD107990923405A80
:100520005B020022801C0004000C1900F1F788FD1A
:100530000720761C36066946360E08761498007831
:10054000B04205D9002F97D004E0FFE7812706E0ED
:10055000002F07D0002C02D02000E2F778F93800F5
:100560000FB0F0BD68462C61808C0C990880208308
:100570000E98C00702D00121C90300E000210D98A8
:1005800001432180A88A002160802420E882012084
:10059000E88199481C34AC606860A88AE2F734FBB3
:1005A000DDE770B5056904006869002801D0E2F74D
:1005B0004EF9002020612800E2F749F970BD00697A
:1005C00000224018427770470069002240184277A5
:1005D0007047F8B505000C00242002F053F9C37FE2
:1005E00000210A00AB422FD9018B05270BE0867F43
:1005F000D640F607F617BE1B7118491E0904521C97
:10060000090C1206120EAA42F1D3032C01D20819CA
:1006100016E0032C02D0042C08D014E0807FD040D8
:10062000C00710D0C91C0904090C0DE0012B0AD920
:10063000807FD040C007C0170422101A4018401E07
:100640000104090C00E000210800F8BD70B50C00A1
:1006500015000600002102F02BF902002102C12042
:10066000092300010831E2F775F904001220207017
:1006700002212800FFF7ADFFA0800120E080701963
:10068000807E20722000E2F77EF970BD5848283045
:100690007047F8B5040016000D00242002F0F2F8AF
:1006A000038B01008020002221E09F1CBC4201D866
:1006B000E01A15E08B7F3F043F0CD340DB0706D0E8
:1006C0007F1C3F043F0CBC4201D1032008E063467D
:1006D000012B08D97F1C3F043F0CBC4203D10420EE
:1006E00030700020F8BD7F1C3B041B0C521C2A708C
:1006F000CF7F1206120EBA42BC46F3D29C42D4D22D
:10070000F8BDF8B5242002F0BDF80400FF200090E9
:100710006069092281889202914220D1027B010006
:10072000009202000E32964622001A32D71C951D06
:100730000C3194460FE00E7801239340F65D1E4283
:1007400007D07346D65C6346D35C9E4201D00978DD
:1007500018E0521C2A702A78022AECD31EE0274A9D
:1007600091421BD1210002001D310C32CD1C8C4660
:1007700011E017786346CE5C0123BB401E4208D0CF
:100780003A06120E2000FFF761FF2878401C2870FF
:10079000F8BD491C297029780029EAD081880922EE
:1007A0009202002591420AD1C2880189134802238E
:1007B000401EE2F7CFF80099017045700AE00F4A39
:1007C000914209D1C28801890C480123401CE2F7FB
:1007D000C1F80570E2F7D7F86069E2F738F8002150
:1007E0002000656102F064F80021E2F70DFAF8BD1F
:1007F000DC8202000F180000448302000224000083
:10080000FFB581B003981F000C000226E2F731FA11
:1008100000282FD1242002F035F805002078012887
:1008200004D8EBF735FE9C49884212D19B48039AC5
:1008300002233900E2F78EF821780170217801292E
:1008400001D9402100E089214170E2F79CF800269F
:1008500010E0012603983100E2F7D6F9617822789A
:1008600028001D3011540C3C6C610020203528708C
:10087000FFF747FF300005B0F0BDFFB581B003982A
:100880001F000D000226E2F7F4F9002826D12420EB
:1008900001F0F8FF04002978C07F814212D2687805
:1008A00064280FD822001A32885401260398310098
:1008B000E2F7AAF90C3D6561002020342070FFF7B3
:1008C00020FF0BE07548039A01233900801CE2F7F2
:1008D00041F881210170E2F756F800263000CAE79E
:1008E000FFB583B0002568460571057008881700BC
:1008F0000E006A4601A9FFF7CCFE0400684806997D
:1009000006233A00E2F726F83188002C018005D151
:1009100069460978032907D0032445800471E2F76A
:1009200032F8002007B0F0BD02214180F6E7FFB5A4
:100930000F0083B00020694608700871069801AA6C
:10094000040A3888FFF7A5FE060011D1242001F023
:1009500099FFF9790500B8790902084369460979D0
:10096000032904D10121002810D0012816D08026A7
:100970004B48059A06990423801EE1F7EBFF39885E
:1009800001808670E1F7FFFF0020CBE76B461B7804
:100990002819427F99408A43427706E06B461B78CC
:1009A0002A19507F9940084350772100280001F010
:1009B00087FF01003948059A0223C01CE1F7CAFFEE
:1009C00029190470497F4170E1F7DDFFD0E7FFB5D9
:1009D00083B00020694608700871180A02900498D4
:1009E0001C00008801AAFFF754FE06000025242001
:1009F00001F048FF0700002E08D168460079022860
:100A000014D0032814D0042814D080262448059A32
:100A1000AB1D2100001FE1F79DFF04000498002E8C
:100A2000018821802671658006D028E00125EDE748
:100A30000225EBE70725E9E768460079022804D09C
:100A4000032808D0042812D019E068460078381826
:100A5000807E607113E00298694609783818407FFB
:100A6000C840C107C90F6171090AA17107E0684652
:100A70000078C000C119601D091D01F05FFF200052
:100A8000E1F781FF00204DE710B50878122801D169
:100A9000FFF737FE002010BDFFFF0000012400001B
:100AA000180C000030B503000120002103241A00B7
:100AB000CA40D20704D04D0022006D1CAA4010434A
:100AC000491C0906090E0929F1D330BDFFB585B0CF
:100AD0000E9F040038881D00FFF7E4FF04902800F3
:100AE0001E210840A18A4C4A0023019100930292E2
:100AF00003904A490698132304AAF0F7CEFF060094
:100B000022D101211420E1F73DFE206106990988D8
:100B100081813988C181E90701D00121C903079A80
:100B200011430180A18A41801421E1820121E181E8
:100B300001001231A1603A49001D6160E2F750FAEC
:100B4000A08A0021E2F760F8300009B0F0BD70B56E
:100B5000046905006068002805D0201DE2F784FACA
:100B6000E1F775FEF6E7002028612000E1F76FFE4F
:100B700070BD7047704728489830704730B5040002
:100B8000A289E4890920521C13041B0C00222500B1
:100B9000D540ED0707D05D1C8D4201D1100030BD5E
:100BA0009B1C1B041B0C521C1206120E092AEED3AE
:100BB00030BD10B503008089DB89401C0004000CA7
:100BC00000221C00D440E40708D0914203D1401C0D
:100BD0000004000C07E0801C0004000C521C1206EC
:100BE0001216092AEDDB092A00D1002010BD0200EF
:100BF0000020802901D98D207047062A06D0072AB7
:100C000007D0082AF8D10729F5D170470829F2D171
:100C100070470629EFD370474C8302000A18000082
:100C20000C840200FFB50C00142081B001F02AFEF4
:100C300021780700092931D2FFF7BBFF00282BD00C
:100C400061782078FFF7D3FF060028D17D680DE09A
:100C500028792178884208D100222900381DE2F73E
:100C60000DFA2800E1F7F3FD02E02D68002DEFD129
:100C7000607801210830E1F785FD05002078A11C8E
:100C80002871607868716278A81DF7F7E7F8290085
:100C9000381DE2F7A9F902E0822600E081265348D8
:100CA000039A04990223E1F755FE217801704670FA
:100CB000E1F769FE002005B0F0BDFFB5002081B06E
:100CC000009003980E00E1F7D4FF002802D001281D
:100CD0004CD04DE0142001F0D5FD31880700FFF71E
:100CE0004DFF05004248092D36D27C6803E021798A
:100CF000A94203D02468002CF9D117E0002C15D0AC
:100D00006379039A04999B1DE1F724FE050030885E
:100D1000A11D288000202871607968806279681D93
:100D2000F7F79CF82800E1F72EFE21E03D740498C7
:100D3000010A3800797401F0C3FD01002B48039AC1
:100D40000123401CE1F706FE0570E1F71CFE039845
:100D50000121E1F759FF0BE0039A04990623E1F71B
:100D6000F9FD3188018080210171DCE702200090CB
:100D70000098A0E7F8B517000D001000E1F779FF23
:100D8000012831D1142001F07DFD017C0400FFF722
:100D900010FF217C2A7806001548914214D1617C0D
:100DA0006B783A00090208319B1DE1F7D3FD04007E
:100DB0000680002020716878A91C60806A78601D18
:100DC000F7F74CF8200009E0617C06233A0009029D
:100DD0000831E1F7BFFD802106800171E1F7D3FD05
:100DE00000213800E1F710FF0020F8BD01140000D9
:100DF000140C0000F0B50500EE7E002004008E42C9
:100E00004DD9172A4BD2CE007619132A02D3777AFE
:100E10009F4244D9A88A08E0E7007F193F7A381832
:100E20000004641C000C2406240E8C42F4D3132A04
:100E30003AD2B18880180004000CCB070AD10F2ADF
:100E400003D9401F0004000C04E013000B3B042BEB
:100E500000D800208B070AD4122A03D9C01E000430
:100E6000000C04E01300103B022B00D800204B07BD
:100E70000AD40A2A03D9801E0004000C04E01300DF
:100E8000093B012B00D80020090708D4082A01D902
:100E9000801E02E0012A03D9401E0004000CF0BDB0
:100EA000012AFCD10020F0BDB17A08180004000C22
:100EB000002140240DE0C01C0004B788000C250070
:100EC0008D402F4202D0401C0004000C491C090632
:100ED000090E9942EFD3162A03D1B1889C402142D2
:100EE000E0D180181338D8E7FFB5002097B005008F
:100EF0001590209F01211C20E1F744FC0490002064
:100F000012901190089009900A900B9004981C215F
:100F1000F6F7BEFF3878002801D0022800D98125D5
:100F20000020F7E01A214843C0190E90C078082825
:100F300001D9812525E10E98807881060698890ED1
:100F4000C6000498039634180294A1800E980321D9
:100F5000C0786072FF209930E1F714FC069911AA5D
:100F6000890013915050FD2308A88351207AC01D99
:100F700020725058FC499822F6F770FF0E9880783E
:100F8000000712D5039908A84158FF2203321143E4
:100F9000039A815002980299007A801C08720E9878
:100FA0001399028B11A84058C2810E98807840078F
:100FB0000CD5039808A90858032252021043039A3B
:100FC000885002980299007A801C08720E988078E6
:100FD000C00719D0039908A841581F22D202114313
:100FE000039A815002980299007A401D08720E9867
:100FF0008078C00608D5139811A9085801224030FE
:10100000418CD202114341840E988078800719D513
:10101000039908A84158072212041143039A8150EA
:1010200002980299007AC01C08720E988078800697
:1010300008D5139911A84058012280304189D20265
:101040001143418102980026017A817253E0002009
:1010500003990F9008A80818B400210013314A0919
:1010600093000D90C2589C46CB06DB0E012199409F
:101070000A43210063461431C2504A099300C25802
:101080009C46CB06DB0E012199400A4321006346B2
:101090001531C2504A099300C2589C46CB06DB0E5C
:1010A000012199400A436346C25002980299007A8E
:1010B0002022C01C0872139811A90958E00098302A
:1010C0000818A9499831F6F7C9FE0E9880190179D8
:1010D0008907890F012925D0022945D0032946D047
:1010E0008125139911AA52587101A2310F98761CCB
:1010F0003606360E50520E98C078B042A7D80298E5
:10110000017A159808180006000E15900698401CE4
:101110000006000E0690397881422BD9002D00D1AF
:1011200000E72EE00921490216340F916109890078
:10113000E3060D9ADB0E01249C4052580D9B22437E
:101140005A500299029A097A491C11720299402256
:101150008988B2401143029A91800079C006C0D5B7
:101160000D2040020F90BCE707204002FAE705205F
:101170004002F7E7002D04D115991898F0F742FEC8
:101180000500189869460088888318980188049893
:10119000818239780498C176002069460400087578
:1011A00069E01A981E210840A20011A98958179ACF
:1011B0000023928A0390E60008A801923218009357
:1011C00002916A49332307A8F0F767FC05000498E9
:1011D000694630180290027A888B1018002D888397
:1011E00020D10498002303222100FFF703FE1A21D7
:1011F00061430022CE19330014330421F0F713FEAB
:1012000005000FD1B07800070ED5049800230822FE
:101210002100FFF7EFFD33001A3300220221F0F71F
:1012200002FE0500002618E0002618E08019017B68
:101230006A4633001175007921008007800F5075D0
:1012400004981522FFF7D6FD0022022105ABF0F726
:10125000EAFD761C05003606360E002D05D11A2053
:101260006043C019C178B142E0D802990120641CE2
:101270002406240EC8723878A04202D9002D90D0DE
:1012800001E0002D14D00498002801D0E1F7DFFA26
:10129000002411AEA0003058002801D0E1F7D7FAA1
:1012A000641C2406240E022CF4D328001BB0F0BDCD
:1012B0000499179801611A98C00701D00120C00352
:1012C00019990843049908801798818A04984180E5
:1012D00017992620C88217990120C8810498179968
:1012E0001A30886022481799486017980021808A30
:1012F000E1F78AFCCCE710B5016900220261080021
:10130000E1F7A5FA10BD704710B50269002003008F
:10131000490006E0C400A4186418401C0006000E32
:10132000E380D47E8442F5D810BD0F48B8307047B2
:10133000F0B58025AC46848A17251D7000251570F0
:1013400009E0F7003F183F7A3F198F4212D83C045A
:10135000240C761C16701678C77EBE4201D2A142BC
:10136000EFD26046F0BD00001484020012180000A5
:101370001C8502000026B446059E35701678F600DE
:101380003718BE7A36198E423ED9A14201D11D705E
:10139000E7E7BA88100706D5641C2404240CA14290
:1013A00001D1012048E0E41D2004000C0824814202
:1013B00002D8401A201A3FE0150706D5401C000449
:1013C000000C814201D11C70CBE7540707D5801C6B
:1013D0000004000C814202D8401A0B2108E0D40717
:1013E00008D0401D0004000C814203D8401A10218F
:1013F000081A21E09207B4D5C01C0004000C8142F9
:10140000AFD8411A13200AE03404059E240C17E0DB
:10141000E41C2404240CA14203D8611A1620401AAB
:101420000AE0B7884026AE40374207D0641C240447
:10143000240CA14202D11620187092E7059E6D1C63
:1014400035701678059DF60036182D78777ABD42EE
:10145000DED386E7F3B50C00262083B001F012FA44
:10146000002584460195607817222F002E00002861
:1014700004D002280CD0042811D10DE0217940209D
:101480001422884006042D27360C0120019006E026
:101490000C220827012602E01122082702262379C0
:1014A00021786046FFF7A6FC544900900880009818
:1014B000002804D06088B84216D98D2549E0002E56
:1014C00010D061462078C97E88420BD2C2006046A7
:1014D00010182179427A914204D28088304201D199
:1014E0008C2536E0812534E02078C100604608185C
:1014F000039949004118C988314201D18A2528E061
:10150000C27A01998A4204D00079400701D5892521
:101510001FE00399604601F0CBF9020060880830B3
:10152000030403981B0C0102C12000010831E1F7FC
:1015300011FA0600122030700098611DB08060889A
:10154000F080300062880830F6F788FC3000E1F760
:101550001AFA280005B005E7FFB50700002081B0A2
:10156000040000901600262001F08CF905000D2ED5
:1015700009D0122E09D0162E08D104994020884097
:101580000404240C02E0012400E0022402980A99D9
:101590007E00C000002904D0012907D080200090DF
:1015A000D8E740198019C188A14303E04019801988
:1015B000C1882143C1803900280001F079F9040075
:1015C0003900280001F07CF901000D4806232200B3
:1015D000E1F7C0F9010007700020C2004300521972
:1015E0009219D288401C5B180006000E02285A800F
:1015F000F3D30800E1F7C7F90098ABE756084000BD
:1016000008260000FFB51F000C000026262081B030
:1016100001F038F905002078012807D8EAF738FFEB
:10162000F749884206D12078012801D9402612E0E6
:10163000892610E000200BE023784100C200091940
:1016400052195B00D2184988401C0006000ED18058
:10165000E97E8142F0D8EB48039A02233900E1F792
:1016600079F9217801704670E1F78DF9002005B015
:10167000F0BDFFB581B003980D000027E1F7F9FA3E
:101680000400C00702D002273800F0E728780128BC
:1016900007D8EAF7FDFEDA498842287805D1012803
:1016A00001D9402606E0892604E0A91CFFF7D2FEF6
:1016B00006000CD0D348039A04990623801CE1F756
:1016C00049F9297801700671E1F75DF9DCE701203D
:1016D000044303982100E1F797FAD5E7FFB583B0FB
:1016E00005980D00E1F7C5FA019080076AD58026BC
:1016F000262001F0C7F80400A878002801D00600D1
:1017000026E06978E07D814223D12978A27D91424B
:101710001FD1687900220300F6F7FAEB05040608EA
:101720000A0C0D00142206E0072204E00C2202E05D
:101730000F2200E011222B7A29792000FFF75AFBB3
:10174000218B814204D1E07D002601280FD002E0E8
:10175000E07D01280DD0A07D059A04230102AA484E
:101760000831E1F7F7F8218B018086701DE0E888E9
:1017700000E000200090801D0304A07D059A1B0C52
:101780000102A1480831801EE1F7E4F80700208B30
:10179000002E38803E710098788005D12900009A8B
:1017A0000931781DF6F75AFB3800E1F7ECF8002014
:1017B000E0752083FF20A0750199FD200140059868
:1017C000E1F722FA002007B0F0BDFFB581B0039821
:1017D0000F00E1F74EFA060080073AD58025262053
:1017E00001F050F804007878002801D0050015E0D9
:1017F000E07D032812D13878A17D884211D1B978D3
:1018000000230A222000FFF7F5FA218B814205D13F
:10181000B978F8780025C9000919C872E07D012857
:1018200019D0A07D039A0423010277480831E1F71B
:1018300091F8218B01808570E1F7A5F80020E07513
:101840002083FF20A075FD20064003983100E1F7BA
:10185000DBF900200BE7A07D039A062301026A480A
:101860000831801EE1F776F8218B01800571E3E7EE
:10187000F0B51F0016000D00262085B001F002F81B
:1018800003A90091298801AB02AAFFF751FD0400CA
:101890005D48062332003900801CE1F75BF8298897
:1018A000002C018013D169460A7900210C3A1300FB
:1018B000F6F72EEB0B07090B070B07090B070B09B4
:1018C0000B00418003E00221FBE703244180047107
:1018D000E1F759F80020CAE6FFB5002087B005906F
:1018E00009980D00E1F7C5F9049080077ED40A98A5
:1018F000070A262000F0C6FF060002A800902988EB
:10190000300003AB01AAFFF713FD04000020B775F8
:10191000F0752888002C308316D16846027B0F2A88
:101920003ED008DC052A10D00A2A22D00C2A37D053
:101930000D2A08D174E0112A32D0122A70D0142A4C
:101940002ED0162A6CD0802480E03900300000F0C0
:10195000B7FF01002B48099A03230830E0F7FAFF8C
:101960006946077009794170A9798170E1F70BF830
:1019700062E03900300000F0A3FF01002148099A1D
:101980000423401DE0F7E6FF032407706946447016
:1019900009798170A979C170E0F7F5FFF4754EE01F
:1019A0003900300000F08CFF0100A888099A083047
:1019B000030414481B0CC01CE0F7CCFF077002277F
:1019C00004004770A888A91DA08068460079A0700F
:1019D0006846007AA071AA88E01DF6F73FFA6846CB
:1019E000007B0C2808D00F2808D000E03AE011282E
:1019F0000CD014280CD110E0E77009E0032006E0B9
:101A0000FFFF000001260000160C00000420E0701B
:101A10002000E0F7B8FFF77511E00020F7E7FFE7D7
:101A2000E979A8790902084300906846037A0179A8
:101A30003800FFF791FD0400F07D002806D00499DE
:101A4000022001430998E1F7DFF80DE07348099A95
:101A50000A990423E0F77EFF298801808470E0F76B
:101A600092FF01E00220059005980BB0F0BDFFB594
:101A700000208DB00A900F98E1F7FBF80B908007DB
:101A80006FD400266946340026208E8400F0FAFECA
:101A90000500109805AB000A029004A800900E986B
:101AA00003AA01882800FFF743FC07006CD16846B1
:101AB000017D1098000AC91F40000B00F6F728EAC4
:101AC000100F63633663093F630B630D4863106354
:101AD0005263022604E0032602E0042600E0012609
:101AE0000299280000F0ECFE01004D480F9A0823EF
:101AF000E0F730FF029901240170002144708180D9
:101B00006946097B81706946C670097C8171E0F77E
:101B10003AFF0298A875EC750E98008828830B99F7
:101B2000022001430F98E1F76FF845E06846007B1B
:101B3000C0004019C17A68460124818424E06946C6
:101B4000097BC900491908188079C007C00F16E041
:101B50006946097BC9004919081880798007C00FB8
:101B60000DE027E06946097BC90049190818694654
:101B70000A7CC08840219140084000D0012069467D
:101B80000224888400E0802724480F9A1099A31D1E
:101B9000801EE0F7DFFE05000E982200008809A9EC
:101BA00028802F71681D6C80F6F758F92800E0F73F
:101BB000EAFE01E002200A900A9811B0F0BDF8B5E3
:101BC000087816000D00122825D11C0A262000F0E6
:101BD00059FE0700032314220021FFF70BF91149D6
:101BE000098888420FD12100380000F069FE010009
:101BF0000B4806233200401EE0F7ACFE0470697803
:101C00000171E0F7C0FE3000E1F733F84108490008
:101C10003000E0F7F9FF0020F8BD0000160C0000CE
:101C20000426000056084000FFB505000020C04310
:101C300085B00E0004901F0001214420E0F7A2FDB2
:101C40000400286138001E210840A98AFB4A0023AD
:101C50000093029201910390F9490923300004AAEC
:101C6000F0F731F801000090F6A0FDF7E1FF3088B1
:101C700020813088093030800098002830D10E98BB
:101C80004078012811D1208907210022801C0004FE
:101C9000000C8902F0F7D4F9208907210022801D69
:101CA0000004000C8902F0F7CBF9208930800E98EF
:101CB000417840200155F80701D00120C003079961
:101CC00008432080A88A002160804720E882012004
:101CD000E881E2483C34AC606860A88AE0F794FF91
:101CE000009809B0F0BD70B5056904006868002867
:101CF00001D0E0F7ACFD002020612800E0F7A7FD4F
:101D000070BD0069002243182033490008185A7733
:101D1000C287704700690022431820334900081821
:101D20005A77C287704710B5CD4C0100A0691022C8
:101D3000401CA061000100190E30891CF6F78EF8D6
:101D40000120207710BD70B50D00BC49040058314A
:101D5000C4A0FDF76DFFC2492804000CC880002212
:101D60008C804A618A6101224A7770BDF8B5BC4F08
:101D700011243800416903003A7F8069A4030919DE
:101D80001E3305010024012A02D0022A0DD00AE0E8
:101D9000B34E2A0000200094FDF7B2FB7069B461D5
:101DA000401970613C770020F8BDAD4E2A0000203C
:101DB0000094FDF7A5FB7069B461401900257061BE
:101DC000AAA0FDF735FF6D1C0A2DF9DB0A203C7730
:101DD000FEF7C0F8FEE7A248002102224177027711
:101DE000A7480170080070477CB50C0093490600B5
:101DF0008C319CA0FDF71CFF472000F043FD05003F
:101E00006946A0A0FDF714FFA18868460170090A81
:101E10004170A1798170E088010A6846C170E1894A
:101E20000171090A41710021280000F041FD020002
:101E3000300208300104C120090C12230001E0F730
:101E400089FD002817D0122101702989891C818001
:101E500041800A21C1806946098801816946498813
:101E60004181218981816189C18169468988018295
:101E7000E0F789FD7CBD87A0FDF7DAFEFBE7F8B54A
:101E800006000C00472000F0FDFC05006946200A12
:101E90000C7048700021280000F00AFD020030029A
:101EA00008300104C120090C0A230001E0F752FDAB
:101EB000122101702989891D81800221C180694612
:101EC00009880181E0F75FFDF8BDF7B55B491400B3
:101ED000783188B063A0FDF7ABFE6079217900020C
:101EE000014368468180E079A57900020543684690
:101EF000C580607A227AE37A00020243A07A1B024C
:101F00001843070417430297E07BA67B00020643B1
:101F10006846C6816BA0FDF78BFE29006EA0FDF719
:101F200087FE390071A0FDF783FE310074A0FDF734
:101F30007FFE79490298794C01270025884230D1EB
:101F400077A06770FDF774FE7A491022002004AB79
:101F50000095FDF7BEFA6846C18B77A0FDF768FED5
:101F600006997BA0FDF764FE6846818A7DA0FDF797
:101F70005FFE6846C08881087FA0A180FDF758FEFB
:101F80006846818A808881424DD0A0887903884242
:101F900049D8002847D06846C08B864243D1277075
:101FA00004E17A49884228D10220607078A0FDF7C8
:101FB0003FFE7D491022002004AB0095FDF789FA11
:101FC000069963A0FDF734FE6846818A65A0FDF797
:101FD0002FFE6846C088810867A0A180FDF728FE13
:101FE0006846C189C08B81421DD0A0881F2149024B
:101FF000884218D80028D2D115E065704D491022CA
:10200000002004AB0095FDF764FA6846C18B4AA036
:10201000FDF70EFE06994EA0FDF70AFE6846818A7E
:1020200050A0FDF705FE2078012806D0089804A9E5
:10203000FFF7DAFE00200BB0F0BDB7E02485020008
:10204000C0FF00006372656174655F646220737431
:1020500061747573203D2025780D0A00F485020017
:10206000080E400025730D0A0000000077616974B6
:1020700020666F722072657365742121210D0A003C
:10208000310040006E6F746920203D203078257843
:102090000D0A00004B455F4D53475F414C4C4F4389
:1020A0005F44594E2047415454435F53454E445F6B
:1020B0004556545F434D4420203D3D204E554C4CE9
:1020C000200D0A0072784864722E766572203D20D9
:1020D0002578200D0A00000072784864722E6C6525
:1020E0006E203D202578200D0A000000727848649B
:1020F000722E756964203D202578200D0A000000AD
:1021000072784864722E726F6D5F766572203D2022
:102110002578200D0A000000424242425808400043
:10212000617070207061727420757067726164658F
:102130000D0A000010000200496D674864722E729B
:102140006F6D5F766572203D202578200D0A0000B6
:10215000496D674864722E756964203D202578209A
:102160000D0A0000496D674864722E766572203D45
:10217000202578200D0A00006F6164426C6B546F5B
:1021800074203D202578200D0A000000535353533E
:1021900061707020616E6420737461636B20757070
:1021A00067726164650D0A00E02000006548658083
:1021B00007700C216846257001800E214180FF21A7
:1021C0002D318580C18000F0DCFD08980021FFF7EB
:1021D00056FE2FE7F3B548780F785B4D0C000002F0
:1021E000074389B079D16978012905D002293BD00C
:1021F00056A0FDF71DFD6EE000205C49102201ABEA
:102200000090FDF766F9E079A679617C000206434B
:10221000207C090208430690E17AA07A627B0902D9
:102220000843217B1202114309040143721C6846D2
:1022300002810020E8804EA0FDF7FAFC0096AB88F2
:102240006A8800214DA0FDF7F3FC68460189320041
:1022500057A0FDF7EDFC688800283CD16846418A0C
:102260000698814237D139E000205849102201AB4D
:102270000090FDF72EF9E079A679617C0002064313
:10228000207C090208430690E17AA07A627B090269
:102290000843217B1202114309040143701C6A4662
:1022A00010810020E88032A0FDF7C2FC0096AB88C8
:1022B0006A88002131A0FDF7BBFC6A461189320013
:1022C0003BA0FDF7B5FC6888002804D16846418A28
:1022D0000698814202D10320ADE608E0A88881007B
:1022E00030001039FFF72FFD2000FFF71CFD698833
:1022F000B94217D1002911D0E888401CE88020009D
:10230000FFF711FDA888E988401E814206D130A060
:10231000FDF78EFC69880998FFF7B1FD6888401CBD
:10232000688002E00998FFF7AAFD6888A9888842BA
:1023300004D12BA0FDF77CFCFFF74DFD00207AE6D1
:102340002B48704731004000580840006F616449D5
:102350006D67426C6F636B57726974653A20554EB6
:102360004B4E4F574E205549440D0A0010000200B5
:10237000756964203D2025780D0A0000626C6B4E63
:10238000756D203D202578202C6F6164426C6B4E6A
:10239000756D2025782C6F6164426C6B546F7420CE
:1023A00025782C766572202578200D0A0000000023
:1023B000496D674864722E766572203D2025782C21
:1023C00020766572203D2025780D0A00E02000006F
:1023D0006C61737420626C6F636B200D0A000000E7
:1023E00075706461746520646F776E210D0A00005A
:1023F0006C850200F8B50C00A0491E001700A0A0D3
:10240000FDF716FC3800E0F734FC472000F03AFAFC
:1024100005002078012804D8EAF73AF89A4988425A
:1024200012D19A4802233A003100E0F793FA21785A
:1024300001702178012901D9402100E089214170F2
:10244000E0F7A1FA0020F8BDA17823782A003D32F8
:1024500099542278A1880C3C52005219D18701204E
:1024600000216C6040356970F8BD10B588A0FDF79B
:10247000CEFB022010BD814910B5183180A0FDF7B8
:10248000D7FB022010BDFFB5002081B007000090EF
:1024900003981D000C001E0AE0F7EBFB002805D096
:1024A0000398E0F7E6FB012871D074E0472000F0C4
:1024B000E9F900280CD0E279A179120211434022F7
:1024C000125CD2072AD0002906D0012904D025E0C9
:1024D00077A0FDF7ADFBFBE7028923889446D21C69
:1024E00093420ED1012906D0811920314A7F52082A
:1024F00052004A7712E0811920314A7F01231A43A2
:10250000F7E76246D21D934208D12A0A52000129F8
:1025100019D01118CA8F52085200CA87018922881F
:102520008B1C9A4214D10A3019210600F5F7B0FC31
:10253000A288A11D3000F5F791FCA188320000208F
:10254000FFF7C3FC15E01118CA8F01231A43E4E713
:10255000891D8A420DD1233019210600F5F798FC18
:10256000A288A11D3000F5F779FC31000020FFF7AB
:1025700031FE5448039A04232900E0F7EBF921883F
:10258000018000998170E0F7FEF904E0FFE74EA0BA
:10259000FDF74EFB0227380005B0F0BDFFB5002661
:1025A0003700472085B000F06DF9050000241421A4
:1025B0006846F5F76DFC0798E0F75BFB002805D04F
:1025C0000798E0F756FB01284ED051E006980188A5
:1025D0002889C21C914204D10224220029003D31E5
:1025E00016E0C21D914204D10224220029003E318E
:1025F0000EE0821C914204D11924220029000A31E4
:1026000006E0821D914207D11924220029002331BE
:102610006846F5F723FC11E0021D914203D10D2419
:1026200022002CA105E00830814206D10A242200B4
:102630002CA16846F5F712FC00E006262148079A0F
:102640000899A31D801EE0F785F90500448022004B
:10265000401D6946F5F702FC06980088288028008E
:102660002E71E0F790F903E021A0FDF7E1FA0227CF
:10267000380009B0F0BD002070470000FC85020062
:102680002573200D0A000000FFFF00000147000035
:102690006F6164735F666663315F7570645F7265F6
:1026A000715F68616E646C6572200D0A0000000045
:1026B0006F6164735F656E76203D3D206E756C6C56
:1026C0000D0A0000160C00004F4144535F42555361
:1026D000590D0A00496D67204964656E7469667911
:1026E00000000000496D6720426C6F636B000000C2
:1026F0006F616473204F4144535F42555359200D1D
:102700000A000000010009060020090E10B5142976
:1027100008D0242909D026290AD0472901D1FFF75A
:102720000FFE10BDFEF727FA10BDFDF7AFFF10BD7D
:10273000FEF7FBFD10BDF8B57F4E0025FF270028F2
:1027400019D00024182060438719F88AFFF7DAFFB0
:10275000002802D0416838008847FF20F8827D6059
:10276000BD60FD81387DE0F798FA641C2406240ED4
:102770000A2CE7D3F8BD002420001821484322008A
:1027800081190B320D618A82CF824D608D60CD81BF
:102790008D813550087DE0F7FBF9641C2406240E7A
:1027A0000A2CE9D3F8BDF3B505004088002681B0B6
:1027B000FFF7A8FF01000AD06A885F4F00201823A6
:1027C0004343DB19DB8A934203D142262AE04026A9
:1027D00028E0401C0006000E0A28F0D30024182030
:1027E0006043C019C08AFF2807D0641C2406240E49
:1027F0000A2CF4D30A2C14D014E0280008300090DE
:10280000182060430E68C01907006B78AA88A91DBC
:10281000B0470600EED16888F882B98A0298018034
:10282000E8E74B263000FEBDF8B5434E0700002414
:10283000182060438519E88AFFF764FF002803D059
:102840008268390028009047641C2406240E0A2C54
:10285000EED3F8BDF3B5384E0F00002481B0182038
:1028600060438519E88AFFF74DFF002804D0C3684C
:102870003A00019928009847641C2406240E0A2C6B
:10288000EDD3FEBD03002C4A002010B50100182432
:102890004C43A418E48A9C4204D118204143881870
:1028A000006910BD491C0906090E0A29EFD310BDA5
:1028B00042885004400CD20B01D0090208437047F3
:1028C00002885004400CD20B01D009020843704723
:1028D00030B5020A0406184BFF21240E00201825EB
:1028E0004543ED18AD8AA54204D118214843C018CC
:1028F000C18A04E0401C0006000E0A28EFD3100233
:10290000084330BD30B5020A04060B4BFF21240EEC
:10291000002018254543ED18ED8AA54204D1182161
:102920004843C018818A04E0401C0006000E0A28B3
:10293000EFD31002084330BDC80E40000A79027080
:102940004A7942700B8883701B0AC3708A790271BE
:1029500049884171090A817170470A880270120A18
:1029600042708A788270CA78C2700A7902714A7994
:1029700042718979817107207047437802781B0280
:102980001A430A8082788A70C278CA7002790A7102
:1029900042794A7180798871072070477CB5172188
:1029A0006846017010210171FE484021F5F770FA68
:1029B000FD490520E0F7ECF800210520E0F724F9B7
:1029C000F84C092002006071A01DF8A1F5F746FA45
:1029D000220018321600A12001A9DFF75BFC0028B5
:1029E0000ED00025F5F728FA61196D1C2D062D0E65
:1029F000102D0876F6D332001021A120DFF799FCC4
:102A0000E84AA22028326946DFF744FC002801D0BA
:102A1000E9A023E0EEA0FDF70BF9002560192030B6
:102A2000017AEFA0FDF704F96D1C102DF6D3EEA08E
:102A3000FDF7FEF8DB482030817FECA0FDF7F8F8C9
:102A4000F0A0FDF7F5F8002560192030017EE4A024
:102A5000FDF7EEF86D1C062DF6D3E3A0FDF7E8F8C0
:102A600001F054FE00F0DCFB00F025FC00F048FB18
:102A700001F070FD7CBD10B5CA4C0020E17804293E
:102A800008D08800C849103108588047E078401CB9
:102A9000E070012010BDC34810B5807802230522E4
:102AA0000102DD480A31DFF755FF012101701321D2
:102AB0004170DFF768FF10BDF0B505208BB0E0F77F
:102AC000D8F802287ED1D448522305220921F738AC
:102AD000DFF740FF0021417007210172A0218180B2
:102AE000C1800D210170012104004172CB480325F2
:102AF0000178002902D000210170A5721F20270053
:102B0000220020370C32E072F8721600511E0B20A2
:102B1000DFF7C0FB002822D0022020730120607361
:102B20000420A073607A012802D0022804D101E0B9
:102B3000062000E00520A073F01C0422B8A1E57275
:102B4000F5F78CF9E07A0422B7A1001D0006000E0B
:102B5000E0728019F5F782F9E07A001DE072E07A00
:102B60001D21081A05062D0E022D31D9F8206946BF
:102B70000872022004AA02A9DFF78CFB002806D005
:102B800008226846027289A104A8F5F767F9684629
:102B9000007A00281CD0A84200D2050069460D72B8
:102BA000E07A6D1C09218555E27A20000D30115420
:102BB000E17A401C081869460A7A04A9F5F74EF92B
:102BC000E27A00E02AE06946087A801C1018E07278
:102BD00022002C321500511E0C20DFF75BFB002871
:102BE00009D00020F87228000A2291A1F5F736F9E1
:102BF000F87A0A30F8722000DFF7C5FE8FA0FDF7E3
:102C000017F88548944A0521FD30E0F7DFF893482E
:102C1000FDF7A0F903210520DFF7F6FF0BB0F0BDAB
:102C200038B50520E0F725F802283BD17A48522331
:102C300005220921F738DFF78DFE040000206070BF
:102C4000072520212572A1800D20E1802070012020
:102C5000607201F076FD002817D0684605700F20DD
:102C60002200207009323C206946DFF713FB200068
:102C7000DFF789FE6848784A0521FD30E0F7A6F8BD
:102C80007648FDF767F976A006E020000C38DFF7FC
:102C9000A7FEFFF711FF7AA0FCF7CAFF032105206A
:102CA000DFF7B2FF38BD0EB5072069460870052072
:102CB000DFF7DFFF022814D101F043FD002810D018
:102CC00078A0FCF7B5FF3C2001AA6946DFF7E2FADD
:102CD0000299019802F02DFC504901200870FFF77D
:102CE000EBFE0EBD10B50520DFF7C3FF03281CD196
:102CF000494C0521FD342000E0F7DDF8002803D021
:102D000005212000E0F7ACF802210520DFF77CFF69
:102D10006D48012305220921DFF71CFE0221017005
:102D2000DFF731FE69490120087010BDFFB50700CB
:102D30001D000E00052081B0DFF79BFF03281ED188
:102D40001F2E1CD81F2D1AD85F48412305220921A8
:102D50000B30DFF7FFFD040010202070212066708B
:102D6000055532003900A01CF5F778F820000399CA
:102D70002A002230F5F772F82000DFF704FE05B0D4
:102D8000F0BDF8B5050007480E2380780522010242
:102D900021480A310A30DFF7DDFD040009202070E8
:102DA000298895E0B80F400030860200424B33344A
:102DB00033355243000000006E6F74204E5644536A
:102DC0005F5441475F504545525F49524B0D0A00E1
:102DD0006170706D2069726B2E6B6579203D2000EB
:102DE00030782578200000000D0A00006170706DB9
:102DF00020616464722074797065203D2025780D0F
:102E00000A0000006170706D20616464722E61645C
:102E10006472203D20000000040E000060084000A5
:102E200003031218000000000319C1030000000092
:102E30000908424B33343335524300006170706DE2
:102E40002073746172742061647665727469736949
:102E50006E670D0A00000000B80B0000FF3F000085
:102E60006170706D2073746172742064697265633F
:102E700074206164766572746973696E670D0A0007
:102E80006170706D2073746172742067656E657215
:102E9000616C206164766572746973696E670D0A8E
:102EA000000000006170706D5F73746172745F7711
:102EB000686974655F6C6973745F64766572746960
:102EC00073696E670D0A0000030D0000540840008E
:102ED00061806A885A4E5BA0A280AB88E380ED884F
:102EE00025816681A6810095FCF7A2FE2000DFF710
:102EF0004AFDF8BD10B5624C6279A11DF4F7AEFF32
:102F0000607910BD10B501F02FFCFFF7EBFE10BD8E
:102F100010B55C495CA0FCF78BFE5948807801F045
:102F20003EFC10BD5A4A002803D0012010705160A9
:102F300070470020107050607047554A121F51684A
:102F4000926806C0704710B5514C241F6278A17872
:102F50008A420FD014225143494A40328918142220
:102F6000F4F77CFFA078A021401CF4F73BFF012080
:102F7000A17010BD002010BD10B5454C241F627813
:102F8000A3789A4203D3A021891AC91800E0991A9C
:102F90000B061B0E022B11D314214A433849403132
:102FA0005318010014221800F4F758FF6078A0218C
:102FB000401CF4F717FF0120617010BD3548C1684F
:102FC000491CC16034A0FCF733FE002010BD30481E
:102FD00010B5001F8278417835A0FCF729FE10BD9E
:102FE00010B52B4C32A0241FA2786178FCF720FE8C
:102FF00000202849A07060704860C86088604874EC
:1030000010BD052210B533481100DFF7D5FC10BD07
:103010001F4910B5091F88784978884203D9A02232
:10302000101A401800E0081A1A4A000651689268FF
:10303000000E8B1A1B1A121827A0FCF7F9FD10BD01
:10304000FFFF0000696E74765F6D696E203D20257C
:10305000642C696E74765F6D6178203D2025642C48
:103060006C6174656E6379203D2025642C74696DF4
:10307000655F6F7574203D2025640D0A0000000017
:10308000B80F4000508602002573200D0A00000092
:1030900064084000781C4000627566662066756CA6
:1030A0006C2025642C2C307825782121210D0A00F4
:1030B00070627566665F7772697465203D2025646D
:1030C0002C70627566665F72656164203D202564C0
:1030D0000D0A0000060F0000746F74616C20656EAD
:1030E000636F646520636E742025642C73656E6461
:1030F0002025642C6C6F73732025640D0A0000007A
:1031000025480021017064214170704710B52348A3
:103110001C2305220921DFF71DFC1B210170002162
:10312000242241704280052282800122C1800272E5
:103130004272DFF728FC10BD10B504001648047079
:103140002420FFF7DFFB0100092004230522800271
:10315000DFF700FC00210470417032218170DFF73D
:1031600012FC10BD10B504002420FFF7CBFB0100BA
:103170000B4802230522DFF7EDFB002101704470AC
:10318000DFF701FC10BD00207047002070470020D1
:1031900070470020704700006C0840001B0D0000C5
:1031A00002240000F8B50E0009781800002425005C
:1031B0000B00F4F7AEEE0906091215181B0C1E0FD2
:1031C0002000092422A516E00A2424A513E00824DF
:1031D00025A510E0072427A50DE00A2427A50AE06D
:1031E000052429A507E0052429A504E005242AA52E
:1031F00001E006242AA501002B48A31CDFF7AAFB47
:1032000007003078002C38707C7004D02200290030
:10321000B81CF4F723FE3800DFF7B5FB0020F8BD3B
:10322000704710B521480A2305220921DFF792FBD8
:103230001B210170002114224170428005228280EE
:10324000FF223432C1800281DFF79DFB10BD0000F8
:1032500042454B454E20534153000000424B2D4206
:103260004C452D312E300000123456FFFE9ABCDE44
:1032700000000000025E044000000300312E302EEA
:10328000302E302D4C450000312E302E3000000005
:10329000362E312E32000000362E332E3000000044
:1032A000FFEEDDCCBBAA0000031400001B0D0000E4
:1032B000FC498874704710B5FA481421F4F7E8FD0A
:1032C000F84801214170817410BD70B5F6483E2365
:1032D00005220921DFF73EFB02001B2010700023AE
:1032E000262053705080052494800121D3801172D0
:1032F00008259472D5721175117302255175557395
:103300009475FD249173D475100008301E24D17378
:1033100004740172447445720324847432258172EA
:10332000C574C172FF21123181828375C47510008A
:10333000DFF729FB70BDFEB5DA4E050030702620A0
:10334000FFF7E0FA01001320062305224002DFF711
:1033500001FB040000210570C94368460180032772
:103360000221777001713A206A4601A9DEF792FFC7
:1033700068460088410600D57770690009194880C1
:103380002000DFF700FBFEBDFEB5C64E05007078DD
:103390000F00012871D003280FD004280CD1082079
:1033A00069460880488019208880C820C8806846FF
:1033B000FFF7E7FC03207070FEBD2620FFF7A2FA9E
:1033C0000100BA4810230522DFF7C4FA00210400E7
:1033D000082F0091019108D0022F25D0012F38D05D
:1033E00020000C38DFF7FCFAFEBD2A786846027030
:1033F0006A784270AA788270EA78C2702A7902717B
:103400006A794271AA798271EA79C2713078207042
:103410003078A070E1700820A1710200A080E01D4A
:103420006946F4F71BFD23E02A78684602706A7843
:103430004270307820703078A0700620E170A07162
:103440000220A08068460078E071684640782072CB
:103450000EE02A7868460270307820703078A070CC
:103460000820E170A0710120A08068460078E0711A
:103470002000DFF788FAFEBDFFE7FFF71DFBFAE744
:1034800071B5884D81B06978032903D088A0FCF715
:10349000CFFB7CBD00266846009600794107490FA6
:1034A000684601704179417081798170C179C1703C
:1034B0002620FFF727FA01007C480C230522DFF7BE
:1034C00049FA04002878694620702878A070022004
:1034D000E670A07104200200A080E01DF4F7BEFC9D
:1034E0002000DFF750FA7CBD30B56E4D04006978DE
:1034F00085B0032904D06EA0FCF79AFB05B030BD5F
:1035000014216846F4F7C4FC122221006846F4F73F
:10351000A5FC2620FFF7F6F9010064481A230522CE
:10352000DFF718FA04002878694620702878A07020
:103530000020E0700720A07112200200A080E01D92
:10354000F4F78CFC2000DFF71EFAD7E770B50C000B
:103550005E495FA0FCF76CFB524D207829788842C9
:1035600017D12620FFF7CEF9010050480A23052283
:10357000C01CDFF7EFF921780170022141700021B2
:1035800081702A780271FE224271C1800172DFF7D8
:10359000FAF9002070BD10B50C004C494CA01A314E
:1035A000FCF746FB3F48217802788A4213D1490054
:1035B00009198978490601D5032103E041780329D7
:1035C00001D10221417020780221400002193A20E5
:1035D000921CDEF7AEFE002010BDF8B5CB784A781D
:1035E0000C003A493CA03431FCF722FB60782F4DA7
:1035F00000260127ED1C012802D1E07801281BD00C
:10360000E078042835D0002877D02620FFF77AF913
:103610000100122305222800DFF79CF9050020781D
:10362000287020486F70AE7000782871E07868715B
:10363000E07802287AD086E02620FFF763F90100BF
:10364000F62305222800DFF785F9050015481F49F4
:103650000078EC3928706F70AE70A0782871EC207B
:103660006F71E8800200280009302E72F4F7F6FB33
:1036700072E02620FFF746F901000F2305222800FB
:10368000DFF768F905002078287006486F70AE7083
:1036900000782871E07868710520E880A07905211C
:1036A000287255E0781C40001B0D00000226000027
:1036B0006170705F6869645F656E762E73746174A3
:1036C00065203D20307825780D0A00008C870200A7
:1036D00025730D0A000000002573206F706572616C
:1036E00074696F6E203D2025782C74797065203DBB
:1036F0002025780D0A000000FFE72620FFF702F9D9
:103700000100122305222800DFF724F905002078A4
:1037100028705C486F70AE7000782871E07868712E
:10372000A079002803D0012803D004E019E0082084
:1037300000E00220E880A079022801D10520E8807D
:10374000A079062801D102200CE0A0790821287276
:1037500028000930F4F79CFB2800DFF714F900205B
:10376000F8BD0820E880F0E770B50D0046494748ED
:10377000FCF75EFA434C28782178454E884202D106
:103780006878032814D02620FFF7BCF80100042332
:1037900005223000DFF7DEF88021417021780170CA
:1037A00021788170E978C170DFF7EDF8002070BDF5
:1037B0002620FFF7A7F80100042305223000DFF7D9
:1037C000C9F82178017000214170E9E710B52D4C4E
:1037D000207C002812D0A07C00280FD02D48FFF7B5
:1037E000B2FB00280AD00020A0742A48A16801700A
:1037F000491CA1601321401C00F01BF810BD097981
:103800002048002901D0032141700121817400204A
:1038100070471D4910B51D482131FCF709FA0020F9
:1038200010BD194910B519483A31FCF701FA0020CA
:1038300010BD70B5134D06006978032903D016A09A
:10384000FCF7F6F970BD2620FFF75CF80100104880
:103850001B230522401FDFF77DF804002878310084
:1038600020702878A0700020E0700320A071132041
:103870000200A080E01DF4F7F1FA2000DFF783F8E2
:1038800070BD0000781C4000DD870200D0360200C9
:1038900007260000482740006170705F6869645F18
:1038A000656E762E7374617465203D2030782578BE
:1038B0000D0A0000002104E00222521C032AFCD35E
:1038C000491C8142F8D3704770B5FC4D0024285D37
:1038D0000121FBF7C1FF285D02220321FBF766FFF0
:1038E000641C2406240E052CF1D3F54800218160C8
:1038F000491E0161F348016882139143016070BD64
:1039000010B5FFF7E1FF0522EF481100DFF754F88B
:10391000ED4C0521A41E2000DFF7CDFA002804D1CC
:10392000052211002000DFF747F810BDF8B5E74881
:10393000FBF7AFFFE14D0024285D02220121FBF7D8
:1039400035FF285D0021FBF787FF641C2406240E49
:10395000052CF1D3D94F0024163F0022385D110009
:10396000FBF724FF641C2406240E032CF5D3D44E4D
:1039700000250124785D01090007C900000F09181E
:10398000200088403168014331603169084330616B
:103990000220FCF720FB785D01090007C900000F39
:1039A000091820008840B1680143B160C5490A6A1E
:1039B000104308626D1C2D062D0E032DDAD308006E
:1039C0000168821311430160BC4903202C39C8707F
:1039D000F8BDF8B5B94900202C39C8710A6A5208F7
:1039E00052000A620100B54A10325054491C0906BF
:1039F000090E0829F7D30021B04A133A5054491C44
:103A00000906090E0329F7D30021AC4A0020521DF4
:103A10005054491C0906090E0529F6D3AC4A002169
:103A20004B000020CB189B181C5C64001C54401CED
:103A30000006000E0328F7D3491C0906090E0529C4
:103A4000EED300259D4C0222605D0121FBF7AEFE06
:103A5000605D0021FBF700FF3220FFF72BFF0126FE
:103A6000AE4069009A48691800240F1800919348E5
:103A70001638005DFBF7E2FE002803D0385D4007F2
:103A800024D03AE08D482C38026A01210A430262B0
:103A90003A5D0A433A55D24352072ED102001C32F6
:103AA000135D3343042D135501D1012C03D02A009B
:103AB000224302D021E001711FE0426A521C782AA1
:103AC00042621AD900224262417116E07B481038E6
:103AD000015DB143042D015501D1012C03D0280013
:103AE000204305D009E0754900202C39087104E015
:103AF000724900202C394862487170481038005DC6
:103B0000304215D06D490098363140180A00035DE7
:103B10006239C879263A13540B3A535D5B1C5355EE
:103B2000183A135D5B1C0828135501D2401CC8715C
:103B3000641C2406240E032C99D3604C0121605D83
:103B4000FBF78AFE605D02220321FBF72FFE6D1C4E
:103B50002D062D0E052D00D274E7F8BDF0B557489F
:103B60002C38817A040005004B085B008372C2790F
:103B7000017A44343C358A4205D100210AE0665C72
:103B80006F5CBE4203D001210B43837204E0491CE9
:103B90000906090E9142F2D31B061B0ED9070FD05E
:103BA000FB210B40002183724172027204E06E5CC3
:103BB0006654491C0906090E9142F8D3D90704D16D
:103BC000002A02D0417A491C4172F0BDF0B53B4A4F
:103BD000F7202C3A937A03409372D079022814D9B3
:103BE000160000211936F51C705C022813D3002042
:103BF00001248C402F5C274208D0304F7F1D3F5C52
:103C0000022F03D3082003439372F0BD401C00062B
:103C1000000E0528EED3491C0906090E0329E3D33B
:103C2000F0BDFEB5254B02212C3B0191997A002075
:103C3000EF2211409972DC790BE020491031095CC8
:103C4000B82903D1997A102211439972401C0006B9
:103C5000000EA042F1D39D7A997BD87A0295DD7B44
:103C6000002262E11549154BFF202C3908731033EF
:103C700048739E5C01000500C72E00964DD033DCD2
:103C8000BB2E48D017DCB42E67D00CDCB12E60D030
:103C900004DC002E6FD0B02E6ED158E0B22E5AD078
:103CA000B32E69D135E0B53E3300F4F732E906585A
:103CB0005A90435C5E90BC3E0CE000009C084000C3
:103CC0004065800040008000070F000001390200BD
