:020000040001F9
:10E2000018F09FE518F09FE518F09FE518F09FE5DE
:10E2100018F09FE518F09FE518F09FE518F09FE5CE
:10E2200084E2010040E2010044E2010048E2010012
:10E230004CE2010054E2010050E2010058E201000A
:10E24000820000EA830000EA840000EA850000EA18
:10E25000B20000EA850000EAA80000EAE4084000F5
:10E26000280400000CB74000200000001CBC400047
:10E27000F00100002CB74000F00400000CBE40008C
:10E28000F0010000DF00A0E300F021E130001FE515
:10E2900030101FE5003081E00040A0E103D0A0E194
:10E2A00084219FE5030054E104208434FCFFFF3AFD
:10E2B000D700A0E300F021E15C001FE55C101FE542
:10E2C000003081E00040A0E103D0A0E158219FE5AB
:10E2D000030054E104208434FCFFFF3ADB00A0E398
:10E2E00000F021E188001FE588101FE5003081E083
:10E2F0000040A0E103D0A0E12C219FE5030054E100
:10E3000004208434FCFFFF3AD200A0E300F021E1B6
:10E31000AC001FE5AC101FE5003081E00040A0E13B
:10E3200003D0A0E104219FE5030054E104208434DC
:10E33000FCFFFF3AD100A0E300F021E1C8001FE597
:10E34000C8101FE5003081E00040A0E103D0A0E14B
:10E35000DC209FE5030054E104208434FCFFFF3AF5
:10E360000080A0E30090A0E300A0A0E300B0A0E341
:10E3700000C0A0E3D300A0E300F021E110011FE5FD
:10E3800010111FE5003081E00040A0E103D0A0E1C2
:10E39000A0209FE5030054E104208434FCFFFF3AF1
:10E3A0000E0000EB170000EB0000A0E30010A0E35C
:10E3B0000020A0E30030A0E30040A0E30050A0E371
:10E3C0000060A0E30070A0E30080A0E30090A0E361
:10E3D00000A0A0E300B0A0E300C0A0E3250000EA95
:10E3E00054009FE554109FE554209FE50130A0E1C3
:10E3F000023083E0030051E1044090340440813452
:10E40000FBFFFF3A1EFF2FE138009FE538109FE524
:10E41000003081E00040A0E10020A0E3030054E1CF
:10E4200004208434FCFFFF3A1EFF2FE1AAAAAAAA07
:10E43000CCCCCCCCDDDDDDDDBBBBBBBB644E020098
:10E4400000084000E4000000E40840002804000048
:10E4500004F01FE59D21000004F01FE59F2100004E
:10E4600004F01FE5A121000004F01FE5A321000036
:10E4700004F01FE5A521000004F01FE5C3E601003C
:10E48000000000000000000000000000000000008C
:10E49000000000000000000000000000000000007C
:10E4A000000000000000000000000000000000006C
:10E4B000000000000000000000000000000000005C
:10E4C000000000000000000000000000000000004C
:10E4D000000000000000000000000000000000003C
:10E4E000000000000000000000000000000000002C
:10E4F000000000000000000000000000000000001C
:10E500000F502DE9860500FB0F50BDE804F05EE2D8
:10E5100000000000000000000000000000000000FB
:10E520000F502DE95F0500FB0F50BDE804F05EE2DF
:10E5300008B500920B000200BA49BBA001F013FC21
:10E5400008BD1CB501930B00B649009202000B31C7
:10E55000BEA001F008FC1CBD1CB501930B00B14925
:10E56000009202001831B9A001F0FDFB1CBD0B00A8
:10E57000AC49020010B52431C1A001F0F4FB10BD7C
:10E5800010B504000100CAA001F0EDFBF9F79CEC06
:10E59000F9F7A4EC01F08DFCC948844206D0C948C3
:10E5A000844203D00A2001F07DFDFEE710BD1CB5BA
:10E5B000C5490622684600F0D9FF68460078FF2862
:10E5C00013D168464078FF280FD168468078FF282D
:10E5D0000BD16846C078FF2807D168460079FF282C
:10E5E00003D168464079FF2804D0B848062269461E
:10E5F000F9F734FC1CBD00F0A1FBFCE7B44E00F0C1
:10E600009DFBF9F762EC0500F9F768EC040003F0F4
:10E61000DFF83078012801D101F036FD00F0ABFBC6
:10E62000810706D500F08DFC002804D100F08FFC96
:10E6300003E0C00701D000F0D9FC00F0C9F8002DBC
:10E6400001D1F9F756EC002CD9D1F9F75AECD6E7FD
:10E65000A04801780170704710B59F484C21F9F728
:10E6600017FC9E499C4801609D4941609D4981601D
:10E670009D49C1609D4901619D4941619D498161FB
:10E680009D49C1619D4901629D4941629D498162E7
:10E690009D49C1629D4901639D4941639D498163D3
:10E6A0009D49C1639D4941649D49816410BD9D4957
:10E6B0009D4801609D4941609D4981609D49C160BF
:10E6C000704700B501208FB0F9F7BFFBFFF7C0FF1F
:10E6D00000F0FEFB01F05EF901F012FBFFF7E7FF2F
:10E6E00001F0D1F904F0B2FC0121080001F05EF95B
:10E6F000E120400201F08CFB8F4801F018FC02225F
:10E700000121132000F0E4FC02220121122000F07C
:10E71000DFFC0021132000F031FD0021122000F069
:10E720002DFD8648E3F72CFD00F08CFEFFF73FFF40
:10E73000834814220890834809A9099082480A90C6
:10E740006846F9F78BFB05A80FC8E3F77EFD624822
:10E75000FFF782FF002000F076FA00F0C3FB00F024
:10E76000DAFE04F073FC02220121132000F0B0FC59
:10E770007648016802121143016003214160F9F7F4
:10E78000B8EBF9F7BEEB53480078C10705D070A08D
:10E7900001F0E9FA00F0D2FAFCE7810706D571A092
:10E7A00001F0E1FA04F0D6FD0FB000BD400702D53C
:10E7B00005F092F8F8E770A001F0D5FAFFF71EFF18
:10E7C00001000020002901D0022900D156487047DD
:10E7D0006E4810B5006800686D49884203D06DA08E
:10E7E00001F0B0FAFBE77748006800687649884294
:10E7F00003D076A001F0A6FAFBE780480068006825
:10E800007F49884203D07FA001F09CFAFBE789484A
:10E81000006800688849884203D088A001F092FA15
:10E82000FBE710BD5248020025732C636F6E6469CC
:10E8300074696F6E2025732C66696C652025732CB6
:10E840006C696E65203D2025640D0A0025732C70CF
:10E850006172616D30203D2025642C706172616DA4
:10E8600031203D2025642C66696C65203D20257390
:10E870002C6C696E65203D2025640D0A00000000A7
:10E8800025732C64617461203D2025642C6C656EB9
:10E89000677468203D2025642C66696C65203D20E6
:10E8A00025732C6C696E65203D2025640D0A0000DF
:10E8B0006572726F72203D2025780D0A00000000FD
:10E8C000C3C3C3C3A5A5A5A5E3000400240040005D
:10E8D0005008400038004000640140006907020011
:10E8E0009D070200CF050200C1060200ED060200EE
:10E8F0003F06020089EA0100FDEC01004DED010038
:10E900001BEE010095EE010069EE010077EE0100BB
:10E9100081E5010031E5010043E501002DFD010025
:10E9200095FE0100CBFE0100E4084000D5FE010089
:10E9300093FE0100AFFE01002F32020067FD0100CF
:10E9400063F7010091F70100BFF80100400080006B
:10E95000445554204D6F64652053746172740D0AE0
:10E9600000000000464343204D6F646520537461EE
:10E9700072740D0A000000004E4F524D414C204D64
:10E980006F64652053746172740D0A0064E20100C3
:10E99000AAAAAAAA537461636B5F496E7465677211
:10E9A0006974795F436865636B20535441434B5FDF
:10E9B000424153455F554E55534544206661696C4D
:10E9C000210D0A0074E20100BBBBBBBB5374616341
:10E9D0006B5F496E746567726974795F43686563DC
:10E9E0006B20535441434B5F424153455F53564361
:10E9F000206661696C210D0A000000007CE20100C4
:10EA0000DDDDDDDD537461636B5F496E74656772D4
:10EA10006974795F436865636B20535441434B5F6E
:10EA2000424153455F464951206661696C210D0A98
:10EA3000000000006CE20100CCCCCCCC53746163CC
:10EA40006B5F496E746567726974795F436865636B
:10EA50006B20535441434B5F424153455F495251F0
:10EA6000206661696C210D0A0000000010B50020CD
:10EA7000F3F779FB0020EFF79EF80020F6F745F951
:10EA80000020F7F744FF10BD10B50120F3F76BFB32
:10EA90000120EFF790F80120F6F737F90120F7F79A
:10EAA00036FF10BD10B5E4F781FB0020E7F74AFF01
:10EAB000E4F742FC0020EBF7B6F9EBF748FA10BD9B
:10EAC00070B5F9F702EA0500F9F708EA0400012039
:10EAD000C00781210904C861C869C00FFCD1C86999
:10EAE0000A6A496A10180818F9F7AFF9E7F7D4FF6E
:10EAF0000120E7F727FFE4F759FC0120EBF793F932
:10EB0000E4F754FB002D01D1F9F7F2E9002C01D113
:10EB1000F9F7F6E970BD41480068002801D00020EF
:10EB20007047012070473D4901200968002908D13C
:10EB30003A498968002904D138490969002900D176
:10EB4000002070470822C270042282700B2242709B
:10EB500000220270812000044268120ECA704268CE
:10EB6000120C8A704268120A4A7040680870704736
:10EB700070B5022681252D042C69002C4DD060072C
:10EB800003D50420A86100F03CF9E00705D001207E
:10EB9000A86100F057F9EDF708F9200603D58020A9
:10EBA000A861EDF702F920070CD50820A861A0079D
:10EBB00002D50220A861B4430020E9F725FE1848D9
:10EBC00001F083FAE0050AD5FF200130A861A00713
:10EBD00002D50220A861B4430120E9F715FEA00781
:10EBE00003D50220A861E9F72AFEA00504D501207B
:10EBF0004002A861EDF743F9600603D54020A86103
:10EC0000E9F7FDFDE00603D51020A861E8F740FB19
:10EC1000A006B1D52020A861AEE770BDF804400081
:10EC2000FF3F00000121C90781200004C161C169C3
:10EC3000C90FFCD1006AFF21D531884201D30120E0
:10EC40007047002070473EB500200121C90588614A
:10EC5000964D012469460C7028606860A860E860E1
:10EC6000E3F73CFC57229249D2000020E3F7F0FC86
:10EC70009049A2020120E3F7EBFC57228E491201D2
:10EC80000220E3F7E5FC03228C4952020320E3F75C
:10EC9000DFFC8B4801F0D8FB0220FFF791FD01005B
:10ECA000884A0020F8F763FFF7F797FEF9F733F883
:10ECB000FFF7DCFEFFF7F6FE0020ECF7C0FE1120A8
:10ECC00001AA6946E3F7E6FA002810D16846007900
:10ECD00000280CD0122002AA69466C73E3F7DAFA16
:10ECE000002804D16846007A002800D0AC736C7309
:10ECF0001020AC73287303F067FA3EBD70B5F9F7C6
:10ED0000E4E80500F9F7EAE80400E3F7FDFBF7F7AC
:10ED100075FEFFF7D5FE0120ECF791FE684800680C
:10ED20008047002D01D1F9F7E4E8002C01D1F9F773
:10ED3000E8E870BD10B5FFF705FF10BD5B4810B5E2
:10ED4000807AC00701D1E3F76EFC10BD70B50500F5
:10ED5000F9F7BAE80600F9F7C2E804005348418918
:10ED60002943002E418101D1F9F7C2E8002C01D1DD
:10ED7000F9F7C6E870BD38B5534800250090E3F7B1
:10ED8000E3FB002839D0494C0125607B002834D0B2
:10ED90006089002831D1A07B002802D17D20C001EC
:10EDA0000090FFF73FFF0028FBD0217B6846E4F787
:10EDB000A8F8002821D0FFF7AEFE00281FD0217B45
:10EDC0006846EDF756F9002817D0F8F737FF002806
:10EDD00015D001F028F9002811D0009814214843DB
:10EDE000A17B401EEAF71AFD01204002FFF7AEFFAB
:10EDF0003348806A804702200543280038BD00253B
:10EE0000FBE710B50120FFF7A1FFEAF727FDF8F7B0
:10EE100008FF2E4801F059F910BD70B50500F9F74B
:10EE200054E80600F9F75AE8040020484189A9434C
:10EE3000002E418101D1F9F75CE8002C01D1F9F7EE
:10EE400060E870BD194810B5807AC0070BD0EAF7AA
:10EE500013FD0220E3F794FB0120FFF7DEFF012002
:10EE60004002FFF7DAFF10BD7D2110B54001C90057
:10EE7000F8F7B8FF10BD10B5FFF7F6FF0B490860B3
:10EE800010BD0A48408970470848407B70470748D2
:10EE9000807B7047054B10B559680A1891088C00A3
:10EEA000121B5A604201101A401810BDF4084000AD
:10EEB00000508100C4528100D05681004C5C81001A
:10EEC000300140004108400080BB0000FF3F0000CF
:10EED00074480121017074490978C90701D00021E3
:10EEE000017070477148C168FF2212049143C160EC
:10EEF000C168152212041143C160C168090C0904DC
:10EF0000C160C168FF2210321143C1606849694B7A
:10EF10000A6841049A4204D1674A8A63FF22B232E6
:10EF200003E0664A8A63FF22FA320A60C26902235A
:10EF30009A43C26100204860486B402210434863F6
:10EF400070475F48407870475D49487070475C483B
:10EF500010B5012202705548C16990231943C1615F
:10EF600001688313994301605149524C0B68410475
:10EF7000A34205D1FF239D330B604F4B303B04E090
:10EF8000FF23DD330B604D4B403B8B63C369022491
:10EF90002343C361C3691343C361C3690824234383
:10EFA000C361C36904242343C3614A6010BD44485C
:10EFB0000178012919D1002101703C489021C161DB
:10EFC000016882131143016039483A4A01680120FF
:10EFD000C005914204D138498163FF21B23103E079
:10EFE00036498163FF21FA31016070470120C10574
:10EFF00048607047F8B52D49CA6902239A43CA612F
:10F00000304A314C314D0026490401280BD02D4B9C
:10F01000294F4033663F022813D00426032810D01E
:10F02000042813D018E062626A624E602048214AC8
:10F030000068904202D1FF20B2300CE0FF20FA308D
:10F0400009E063626B624E600F6005E062626A62B3
:10F050004E60FF20FC30086001F072F8F8BDC90175
:10F0600001431948803001614169032212031143B1
:10F070004161FEE7154910B50A69134980310B69F2
:10F0800001242405A3430B618B051A430E4B1A611F
:10F090000A69C0010F23DB019A430A610A6902432E
:10F0A0000A6110BD3200400038004000400080007E
:10F0B0003808400013311C00610600007107000091
:10F0C000000840000A3C207400148000200A400020
:10F0D000F7B502099700704AD259166896466E4AEB
:10F0E0001432D25915680207120F012394461C00EE
:10F0F00008329440624693401A04012914D0002932
:10F1000016D0032917D09E43344311002943050725
:10F110002D0F0120A840029B0006002B10D0012BD0
:10F1200012D0022B15D112E03343A3431C0004E09C
:10F1300033431C43E9E733431C4329009143E6E78B
:10F1400022438243140004E09443044301E09443C7
:10F1500084437046046050481430C0590160FEBDBD
:10F160000109020788004C49120F14310858006841
:10F170000004000ED040C007C00F70470209930082
:10F18000454A10B51432D458226800070123000FF5
:10F190008340002901D01A4300E09A43226010BD49
:10F1A000704710B504000121FFF7E8FF002120009F
:10F1B000FFF7E4FF10BD002802D03749091F08609F
:10F1C0007047364800218160491E0161344801685A
:10F1D0008213914301603048001F0068002800D06E
:10F1E0000047704700B5002202212020FFF770FF82
:10F1F000002202212020FFF76BFF002202212020A5
:10F20000FFF766FF002202212020FFF761FF0022A6
:10F2100002212020FFF75CFF00BD20484038026833
:10F2200020490A6082684A6002698A608269CA600D
:10F23000026A0A61426814310A60C2684A6042691F
:10F240008A60C269CA60426A0A6117490160416006
:10F250008160C160016141618161C161016241629E
:10F26000704710490D480A68403802604A68826059
:10F270008A680261CA6882610969016209491431B8
:10F280000A6842604A68C2608A684261CA68C261AC
:10F290000969416270477047080840004065800076
:10F2A0004000800004094000FFFF0000FE4BD969C8
:10F2B000FF22F1320A400243981308400243FB4800
:10F2C00008400243580301400A43DA6118680028E5
:10F2D000FCDB7047F44801680029FCDBF44901605D
:10F2E00001680029FCDB00214A1E4260491C0829F4
:10F2F000FBD300697047EC4801680029FCDBED494D
:10F30000016001680029FCDB40690006000E7047BF
:10F3100070B50E000400FFF7DDFFE74D0100A8689F
:10F32000814248D1E54AE04B811A90421AD008DC6C
:10F33000E34940180ED0E349401810D0012809D104
:10F340000DE009208002081A04D0DF49401809D0D6
:10F35000012807D0D8690F210903884305E0D8693F
:10F36000DA4901E0D869DA490840D861002E22D094
:10F37000022C20D8D869B10201225202114308435D
:10F38000D86118680028FCDBFFF7A4FFA968884251
:10F3900011D1012C02D0022C02D003E0CD4900E0B3
:10F3A000CD49196018680028FCDB7D200003186037
:10F3B00018680028FCDB70BDBF48C0498068421A4D
:10F3C000884219D008DCC549401813D0C4494018F8
:10F3D0000ED0012809D10BE009208002101A04D0B8
:10F3E000B949401808D0012806D0982101208FE79C
:10F3F000BC4902E0AC21F9E7AC210220F7E7AE48B6
:10F40000AE498068421A884219D008DCB3494018D6
:10F4100013D0B34940180ED0012809D10BE00920C0
:10F420008002101A04D0A849401808D0012806D03C
:10F430009C2101206CE7BC2102E0BC21F9E794216A
:10F440000220F7E700B5FFF745FF9B4A9060FFF702
:10F4500052FF9168994A8B1A914221D008DC9F4A49
:10F46000891819D09E4A891812D0012909D10FE0B4
:10F4700009218902591A04D0934A891810D0012908
:10F480000ED09C2803D09C210120FFF741FF00BD36
:10F49000BC28FCD0BC2106E0BC28F8D0BC21F3E796
:10F4A0009428F4D094210220EFE77F4AD0691168B4
:10F4B0000029FCDBC02101401023194303071B0F67
:10F4C0000B430121490201400B43784901400B43A2
:10F4D0000121890608400343D36177487F4980684A
:10F4E0004942884201D1804800E08048106010689D
:10F4F0000028FCDB704700B5FFF7D7FF6A48C169F9
:10F5000070229143C161C16910221143C161016838
:10F510000029FCDB00BD00B5FFF7DCFE6649886012
:10F52000FFF7E9FF72480078C00701D0032000E030
:10F530000120FFF7BBFE00BD704710B504005E4818
:10F540000179AB2911D14079BC280ED1FFF734FFE6
:10F55000554908680028FCDB2D20000604430C6098
:10F5600008680028FCDBFFF74AFF10BDF7B5140060
:10F570000D000026002A8AB039D04B4908680028BF
:10F58000FCDB601E00274009401C089023E025207A
:10F590002900000601434448016001680029FCDBA2
:10F5A000002120356A46404883688800491C0829A4
:10F5B0001350F8D378012030A04203D20A98801962
:10F5C000202202E00A98A21B80196946F8F746FC3F
:10F5D000089820367F1CB842D9D833487D210903CA
:10F5E000016000214A1E4260491C0829FBD30DB06E
:10F5F000F0BDF7B5150000268AB0002A089179D031
:10F6000001208004814275D3274C20680028FCDB50
:10F610002948C2218170FFF7CFFE681E00274009EC
:10F62000401C099069E078012030A84203D20A9872
:10F63000811920220AE00020411E6A468300401CF6
:10F640000828D150FAD30A98AA1B81196846F8F7FE
:10F6500005FC1948D123C37000202036694682007A
:10F660008A586260401C0828F9D313480178A629FB
:10F6700016D14178B32913D121680029FCDB8078A9
:10F68000C2280AD1D12B08D10898012189048842C7
:10F69000ADD30B2189060843206020680028FCDBDD
:10F6A00008982030089026E00020800000FCFF032E
:10F6B00000D0073400D00723300840001340C800B2
:10F6C000EDBFAEFF001D8FFF0024E8FFFF0FDFFF3F
:10F6D000FF0FFEFE00D0076400D00767EDCEE3FF0A
:10F6E000000E5AFF8C08000000D0073600D0073704
:10F6F0003800400012E009987F1CB84293D8FFF709
:10F700007EFE7D2000032060984800218170C1703A
:10F710000800491E6160401C0828FBD367E7944835
:10F7200010B501680029FCDBC2699049914B8968DA
:10F73000994215D0904C914BA14202D0641EA14237
:10F7400004D1510149090122120403E05101490980
:10F750000122D2041143C161036001680029FCDB6E
:10F7600010BDF8B58F18080A3C0A1E0000022402DA
:10F77000A04208D0651A2A001800FFF7F7FE210002
:10F780007A1A701900E01800FFF7F0FE0020F8BDAB
:10F79000FFB516000B0081B0FFF79CFD734CA1680C
:10F7A000884208D0FFF796FD010075A000F0DBFA53
:10F7B000FF2005B0F0BDA6209F19190A3D0A207050
:10F7C00009022D02B320A9420BD019006E1A6070F5
:10F7D00004983200FFF70DFF049829007A1A801967
:10F7E00003E06070049832001900FFF702FF002068
:10F7F00020706070DDE7F0B5050001200C001600F8
:10F800000003814289B027D8002C25D0290B090399
:10F810000F183800FFF791FE3005000D3F1819E072
:10F82000202C01DD202600E0260000200090584812
:10F830003200007A290001ABFFF793FF002000900F
:10F8400053483200007A390001ABFFF7A1FFA41B37
:10F85000AD19BF19002CE3DC09B0F0BDF0B505000F
:10F8600001200C0016000003814289B0F4D8002C5E
:10F87000F2D0290B09030F1A3800FFF75EFE30059E
:10F88000000D3F18202C01D9202600E02600002082
:10F8900000903F483200007A290001ABFFF761FF7A
:10F8A000002000903A483200007A390001ABFFF79F
:10F8B0006FFFA41BAD19BF19002CE3D1CCE7F8B53D
:10F8C000080B0F050B0000030121090344188446AF
:10F8D0000020264E0090AB2015003F0D3071FFF741
:10F8E000F9FCB168884201D0FF20F8BD002F10D08C
:10F8F000BC207071009A39006046FFF77CFF009AC7
:10F9000039002000FFF7AAFF01200003C01B2D1AB9
:10F9100000E01C001549BC202F130026487107E0A9
:10F920002000FFF70AFE0120000324182D1A761C80
:10F93000BE42F5DB002D13D00C49BC200126360356
:10F940004871771B601900223900FFF787FFA41B5D
:10F950002A0039002000FFF74EFF2000FFF7EDFDE1
:10F9600002480021017141710800F8BD30084000D3
:10F970000020800013311C001423C20000D0072790
:10F98000666C617368203D20307825780D0A000090
:10F990002C0940000020044902007D23DB00401CAC
:10F9A00004C19842FBDB70470040810070B5040041
:10F9B0000D000120C00581684908490081600A21C5
:10F9C00081602000303000060222000E1100FFF797
:10F9D0007FFBE00028438021084321490860214A39
:10F9E0001043086008600A68C81302430A601E4991
:10F9F0000A6802430A6070BD19480168C2131143C6
:10FA000001601A49012048807047F8B5174E144C20
:10FA10000025758021688322114021602168C00083
:10FA2000401D01432160FF272D376D1C2D042D0C37
:10FA3000BD4205D80A2000F019FD70880028F4D0D6
:10FA40007088012806D160688003010C08A031800D
:10FA500000F089F92068C008C00020603088F8BD37
:10FA60000067800000061200400080003C08400053
:10FA7000675F6164635F76616C75653D25780D0A2B
:10FA800000000000704737484168890889004160DC
:10FA90004168032211434160334A01681143016008
:10FAA000704732482F4988607047F8B52D4FBD68C0
:10FAB000FFF77DFA81200004016B10260904C90FAD
:10FAC000002903D0016BB14331430163A80603D57C
:10FAD0002020044300F037FAA80504D50120400295
:10FAE0000443FFF76EFBA80703D50220044300F090
:10FAF000E5F8680703D50420044300F0DFF8280781
:10FB000003D50820044300F0D9F8E80602D53443B1
:10FB100000F0D4F8E80504D5FF2001300443FFF7D6
:10FB20006BFFBC60F8BD70B50E4E0024B568FFF7E2
:10FB30003EFA280402D53412FFF71AF8680502D5F8
:10FB4000012080020443A80504D50120400204439B
:10FB5000FFF737FBE80703D00120044300F0AEF8BD
:10FB6000B46070BD4000800020800000FFFF0000F6
:10FB700030B5002861D00378052B5ED8C188828813
:10FB800091425AD8417809078A0F0121012A05D0EC
:10FB9000574A94680D009D40AC4394600122D20501
:10FBA000536A04780D006400A540AB435362437868
:10FBB000DB0608D5546A03780D005B005B1C9D4092
:10FBC0002C43546207E0536A04780D006400641CFF
:10FBD000A540AB435362C28883881204D3180278CD
:10FBE000D400444AA418A360136804780F25A40025
:10FBF000A540AB4345782D072D0FA5402B4313603F
:10FC000042783D4B94073D4A0BD505788468AD009A
:10FC10005C5113680078052800D10D2081400B430A
:10FC20000AE005780024AD005C51136800780528CF
:10FC300000D10D2081408B43136030BD052806D8CC
:10FC40002C490A6883000120984002430A607047EB
:10FC500005280AD88200012001009140521C9040E2
:10FC60000143244802688A4302607047052807D888
:10FC700020490A6880000123401C83401A430A601F
:10FC80007047052807D81B490A6880000123401CDB
:10FC900083409A430A607047052801D900207047C5
:10FCA0001449C0004018C0680004000C70470528C3
:10FCB00003D8114A0021800011507047F8B50D4E4D
:10FCC0007568002401273800A040284207D00A4860
:10FCD000A1004158002902D02006000E8847641C6C
:10FCE000052CF0DB7560706828408006FAD1F8BDFD
:10FCF00000658000006180003809400040008000FD
:10FD0000704709498860704707484068704706494E
:10FD100008607047044810B5C0680006000E02D0A5
:10FD20000220E2F72DFC10BD00E00010C14AC048DF
:10FD30005178405C491C51707047BF48C06800064C
:10FD4000000E7047010010B5BB4A002007E0946820
:10FD5000E40204D5D360401C0006000E491C0B7859
:10FD6000002BF4D110BD0FB410B5B1480299543036
:10FD700003AA04F0FDF80400AD485430FFF7E2FF99
:10FD8000402C02D9ADA0FFF7DDFF200010BC08BC5D
:10FD900004B018470020704710B5040086B0142244
:10FDA000AAA16846F8F75AF822096846A149825C78
:10FDB000C91C0A702207120F805C487000208870EE
:10FDC000080006B010BD70B50500A5A0FFF7BAFF8A
:10FDD0000424E00029000838C1400806000EFFF79F
:10FDE000DBFFFFF7AFFF641E2406240EF1D19DA0B8
:10FDF000FFF7A8FF70BD7D2101B5C90003E0022017
:10FE0000401C8842FCD30098421E0092F7D208BDE5
:10FE1000012110B5C905CA6852085200CA60E12123
:10FE20000902421A88420AD004DC8F49401A06D0DF
:10FE3000401A04E0501A02D08C49C84201D08920EF
:10FE400000E0102001027C481B31016088494160BC
:10FE5000C221016100218161864AC261864802682F
:10FE6000864B1A40026003680322120413430360A6
:10FE700003681412234303604368934343606C4850
:10FE800040308160C1607E480168202211430160DA
:10FE900010BD704710B5684800E0C16881688902EC
:10FEA000C90FFAD162484021F7F7F2FF10BD0120D7
:10FEB00070476148816901221204914311438161B5
:10FEC00081688903C90FFBD0704759484030C3602F
:10FED00082607047F0B4040055480D0640300CC0F5
:10FEE0002D0E5549083805E08E68F60202D52678B1
:10FEF000CE60641C2E006D1E2D062D0E002EF3D13B
:10FF0000002A05D0002101604160F0BC18001047B4
:10FF1000F0BC704710B5484A06E00378401C94686E
:10FF2000A403E40FFBD0D360491EF6D210BD002815
:10FF300001D04049C86070473E48C168002901D0DF
:10FF40000021C1607047F8B53B4D6F696869394C55
:10FF50008007C10F36480026002912D16969490679
:10FF6000C90F0ED169690906C90F0AD10CE0EA6808
:10FF7000A1684318491CA1601A70A168402900D1EA
:10FF8000A660A9688902F2D43E490A780121D30704
:10FF9000002B29D06A695206D20F15D00278012AA7
:10FFA00009D14278E02A02D18078FC2808D0A068E4
:10FFB000032800D9A170A078002804D0217003E0A4
:10FFC0000220A070F7E7A660A07801280AD1A660F9
:10FFD000174940318A68C868002A03D08E60CE6015
:10FFE00000219047A67016E0900701D5217012E01D
:10FFF0005007217006D5A06801060D48090E03F0D0
:020000040002F8
:100000006CFC07E0E268002A04D0A06801060848FA
:10001000090E9047A66069693806000E090A0902B0
:1000200001436961F8BD044880688003C00F7047D0
:100030004C0940004008400000638000627566661D
:100040002066756C6C200D0A0000000030313233E0
:1000500034353637383941424344454600000000C4
:10006000307800000D0A00008025000000B2F3FF88
:10007000011002000100700000658000FCFFFCFF21
:1000800040008000380040000120C105C8611648CA
:100090002D2149040160A5210904016013490020B4
:1000A0004870704700220121C905CA610E490860E5
:1000B0002D235B04C3180B60A5231B04C018086024
:1000C0000A480121027041707047084949780129A6
:1000D00008D12D214904421803490A60A5221204BF
:1000E00080180860704700000060800050084000E1
:1000F00070470020704781210904086B07221043D4
:10010000086370474008763800060016704700689C
:10011000704701607047DF494A6B52005208C007C0
:1001200002434A63704710B5DB4C002305E0220010
:100130000221491C9142FCDB5B1C8342F7DB10BDB2
:10014000D648416A0122920691434162426AD449EB
:100150004A62026B01239B039A430263026B0A63A8
:10016000026B5B001A430263006B08637047F8B5CB
:10017000CB4C8034206901210905084320612069A6
:100180000F21C901084320612169012040048143F6
:1001900021612069C009C001206160690121090352
:1001A000084360610A20FFF7BEFF6069012149032F
:1001B000084360610A20FFF7B6FFB84DE9684020A8
:1001C0008143E960E868B64FF8600A20FFF7ABFFAB
:1001D000E86880210843E860E868F8600A20FFF7D3
:1001E000A2FF60690121090408436061C820FFF78C
:1001F0009AFFAB4840308068C000C10C7D204002AF
:10020000F7F7F0FDA64EC005C0363168A54A11408B
:1002100031603168C00B014331606420FFF783FF18
:100220006169012000038143616160690121490323
:1002300088436061E96880208143E960E868F8608C
:100240000A20FFF770FFE86840210843E860E8688B
:10025000F860616901200004814361612069012126
:10026000490408432061216901200005814321617F
:100270003068012108433060C820FFF754FF642034
:10028000FFF751FFF8BD00B51420FFF74CFF864A79
:1002900083490A6081480260844A4A604260844A15
:1002A0008A608260834A1278D2071CD0824ACA6070
:1002B000C260824A0A610261814A4A614261814A9E
:1002C0008A618261804ACA61C261804A0A620262AE
:1002D0007F4A4A6242627F4A8A6282627E4ACA6278
:1002E000C2627E4A1CE07E4ACA60C2607D4A0A61E0
:1002F00002617D4A4A614261724A10328A618261BA
:100300007A4ACA61C2617A4A0A620262794A4A62D8
:100310004262794A8A628262784ACA62C262784AD2
:100320000A630263774A4A634263774A8A63826355
:10033000764ACA63C2631420FFF7F5FE00BD10B50C
:100340001420FFF7F0FEFFF79EFF554870498030FC
:1003500001604B21490641600F21C90681600521DA
:100360004907C16053490A78D10701D0694900E0C3
:100370006949016100214161684B8361684BC36138
:10038000684B0362684B4362684B83628123DB00E6
:10039000C3620163664B43638163C1636548D307EE
:1003A00001D0654B01E0644B5B1C036041608160E0
:1003B000C160016141618161C161016241622523C6
:1003C000DB0383625D4BC362D30701D05C4B01E06A
:1003D0005B4B1E33036341638163C1635548012155
:1003E00009064030016057494160574981605749CB
:1003F000C160574901615749416157498161574976
:10040000C161574901625749416257498162574961
:10041000C16257490163574941635749816349168E
:10042000C163564801690303194301614169994356
:100430004161D00702D0FFF79AFE10BDFFF780FEA2
:10044000C820FFF770FE10BD4D490C2201624D49D6
:1004500041624D4941612C210A544C4981624C4909
:1004600001604C4941604C49C16168E7002104E0EA
:100470000222521C0A2AFCDB491C8142F8DB70472D
:10048000002104E00222521C322AFCDB491C81427A
:10049000F8DB704740008100BC0C0000200A4000DF
:1004A00000148000FF00FEFF1032A0C300C195823F
:1004B00000AF422F38004000629C5C6A335F917F3E
:1004C00000752846008CD688E59F80180740B82F15
:1004D000083C207025EC071C0C24DDD308D00080DC
:1004E00062D41C2AB75E937F40552848C7BF1000CE
:1004F0000540D02D0A3C207427EC073C0C26FDD289
:1005000008900080233F41845093300078E92631E1
:10051000D6BE898E82001E0082071E00050584104B
:1005200000C9080010100101004E103C683D100E7B
:1005300044C42C08C014800000000110481034226C
:10054000001CFF01020405070A0C0F12161A1E22D6
:10055000262B30353A40454B51575D636970767CA8
:1005600083898F969CA2A8AEB4BABFC5CACFD4D98E
:10057000DDE1E5E9EDF0F3F5F8FAFBFD4000800080
:100580000F01020013010200F3000200F700020055
:10059000F100020017010200050102000100090636
:1005A0000020090E10B514290BD024290CD04529A0
:1005B00004D0472901D101F0F5FB10BD00F03FFF49
:1005C00010BD00F042FD10BD00F0CAFA10BDF8B534
:1005D0007F4E0025FF27002819D0002418206043F3
:1005E0008719F88AFFF7DAFF002802D0416838003F
:1005F0008847FF20F8827D60BD60FD81387DE2F78D
:100600004CFB641C2406240E0A2CE7D3F8BD0024FE
:10061000200018214843220081190B320D618A8283
:10062000CF824D608D60CD818D813550087DE2F7A0
:10063000AFFA641C2406240E0A2CE9D3F8BDF3B5E6
:1006400005004088002681B0FFF7A8FF01000AD00E
:100650006A885F4F002018234343DB19DB8A9342EB
:1006600003D142262AE0402628E0401C0006000E66
:100670000A28F0D3002418206043C019C08AFF283C
:1006800007D0641C2406240E0A2CF4D30A2C14D0A0
:1006900014E0280008300090182060430E68C0194C
:1006A00007006B78AA88A91DB0470600EED16888BC
:1006B000F882B98A02980180E8E74B263000FEBD37
:1006C000F8B5434E07000024182060438519E88AD6
:1006D000FFF764FF002803D08268390028009047A4
:1006E000641C2406240E0A2CEED3F8BDF3B5384E54
:1006F0000F00002481B0182060438519E88AFFF7B5
:100700004DFF002804D0C3683A000199280098479B
:10071000641C2406240E0A2CEDD3FEBD03002C4AD3
:10072000002010B5010018244C43A418E48A9C4210
:1007300004D1182041438818006910BD491C0906DE
:10074000090E0A29EFD310BD42885004400CD20B89
:1007500001D009020843704702885004400CD20BB4
:1007600001D009020843704730B5020A0406184B4D
:10077000FF21240E002018254543ED18AD8AA5421F
:1007800004D118214843C018C18A04E0401C000667
:10079000000E0A28EFD31002084330BD30B5020A1C
:1007A00004060B4BFF21240E002018254543ED18AD
:1007B000ED8AA54204D118214843C018818A04E07B
:1007C000401C0006000E0A28EFD31002084330BD7B
:1007D000600A400000281BD000210122D20591624E
:1007E0004B4901220A604B4A4A60027843789206DC
:1007F0009B06920E1B0D1A438378C078DB06DB0B39
:1008000040071A43000B02438A600868C007FCD007
:1008100070473F48016801221143016070473C481E
:100820000168490849000160704730B5002401257E
:10083000ED05AC62364C002819D0012816D191057F
:100840004909E16034490B602168C0078907890FB5
:10085000000F01430520014321602E486060002BFA
:1008600004D02E480168C2121143016030BD002936
:10087000FCD00A784D7889789206AD06920E2D0D3F
:10088000C9062A43C90B0A43E260DBE72048016836
:1008900004221143016070471D48016804229143FE
:1008A00001607047002810D00178427889069206CE
:1008B000890E120D11438278C078D206D20B400700
:1008C0001143000B014312488160704700280DD08E
:1008D0000F4989688A06920E02700A05920E4270CC
:1008E000CA03D20E0903490F8270C17070470A49CA
:1008F00000200860704710B5054C2069C00704D07F
:1009000005480068002800D080470120206110BD04
:10091000006680007CFF7C0054084000400080009E
:10092000FFB505008BB0149800270078401E012801
:1009300076D801212420E1F725FF04002421F7F7D0
:10094000A7FA149800260078E07761E0072069464E
:1009500008761498A17F8019070005904078082236
:10096000B0400143A1771499F00041180019001D0F
:10097000091DF7F773FA7878012805D16946087ED2
:100980000821084369460876E07F012805D96946B1
:10099000087E10210843694608760C9809A9028848
:1009A000700007900A520E991E221140AB8A0391E3
:1009B00009A94018C34F002269468CC1C2490523CA
:1009C00006AAF1F76AF807001CD1059A0799527830
:1009D00009A8415A012A01D0012200E00022891A07
:1009E0000C9A491D11800599497801290AD1079966
:1009F0000923405A5B020022801C0004000C1900ED
:100A0000F1F71EFB0720761C36066946360E08767F
:100A100014980078B04205D9002F97D004E0FFE782
:100A2000812706E0002F07D0002C02D02000E1F73C
:100A30000EFF38000FB0F0BD68462C61808C0C9919
:100A4000088020830E98C00702D00121C90300E06E
:100A500000210D9801432180A88A00216080242074
:100A6000E8820120E88199481C34AC606860A88A5B
:100A7000E2F7CAF8DDE770B5056904006869002887
:100A800001D0E1F7E4FE002020612800E1F7DFFE5D
:100A900070BD00690022401842777047006900224B
:100AA000401842777047F8B505000C002420FFF786
:100AB00035FEC37F00210A00AB422FD9018B0527E9
:100AC0000BE0867FD640F607F617BE1B7118491E4D
:100AD0000904521C090C1206120EAA42F1D3032C6F
:100AE00001D2081916E0032C02D0042C08D014E01F
:100AF000807FD040C00710D0C91C0904090C0DE04C
:100B0000012B0AD9807FD040C007C0170422101AD9
:100B10004018401E0104090C00E000210800F8BD47
:100B200070B50C00150006000021FFF70DFE020055
:100B30002102C120092300010831E1F70BFF040065
:100B40001220207002212800FFF7ADFFA0800120B5
:100B5000E0807019807E20722000E1F714FF70BDE4
:100B6000584828307047F8B5040016000D002420BE
:100B7000FFF7D4FD038B01008020002221E09F1CA1
:100B8000BC4201D8E01A15E08B7F3F043F0CD340F4
:100B9000DB0706D07F1C3F043F0CBC4201D1032081
:100BA00008E06346012B08D97F1C3F043F0CBC4280
:100BB00003D1042030700020F8BD7F1C3B041B0CC7
:100BC000521C2A70CF7F1206120EBA42BC46F3D2D4
:100BD0009C42D4D2F8BDF8B52420FFF79FFD040055
:100BE000FF2000906069092281889202914220D101
:100BF000027B0100009202000E32964622001A3259
:100C0000D71C951D0C3194460FE00E7801239340BC
:100C1000F65D1E4207D07346D65C6346D35C9E42A7
:100C200001D0097818E0521C2A702A78022AECD3E5
:100C30001EE0274A91421BD1210002001D310C32D7
:100C4000CD1C8C4611E017786346CE5C0123BB4077
:100C50001E4208D03A06120E2000FFF761FF2878E6
:100C6000401C2870F8BD491C297029780029EAD059
:100C7000818809229202002591420AD1C288018905
:100C800013480223401EE1F765FE0099017045708C
:100C90000AE00F4A914209D1C28801890C48012318
:100CA000401CE1F757FE0570E1F76DFE6069E1F762
:100CB000CEFD002120006561FFF746FD0021E1F730
:100CC000A3FFF8BD804802000F180000E8480200AA
:100CD00002240000FFB581B003981F000C0002261B
:100CE000E1F7C7FF00282FD12420FFF717FD0500EB
:100CF0002078012804D8EBF7CBFB9C49884212D11D
:100D00009B48039A02233900E1F724FE2178017001
:100D10002178012901D9402100E089214170E1F7C2
:100D200032FE002610E0012603983100E1F76CFF47
:100D30006178227828001D3011540C3C6C61002031
:100D400020352870FFF747FF300005B0F0BDFFB534
:100D500081B003981F000D000226E1F78AFF0028EA
:100D600026D12420FFF7DAFC04002978C07F8142D5
:100D700012D2687864280FD822001A3288540126CB
:100D800003983100E1F740FF0C3D656100202034FD
:100D90002070FFF720FF0BE07548039A012339000C
:100DA000801CE1F7D7FD81210170E1F7ECFD002601
:100DB0003000CAE7FFB583B00025684605710570AD
:100DC000088817000E006A4601A9FFF7CCFE040050
:100DD0006848069906233A00E1F7BCFD3188002CEB
:100DE000018005D169460978032907D0032445808D
:100DF0000471E1F7C8FD002007B0F0BD0221418079
:100E0000F6E7FFB50F0083B000206946087008714F
:100E1000069801AA040A3888FFF7A5FE060011D13A
:100E20002420FFF77BFCF9790500B8790902084313
:100E300069460979032904D10121002810D001282D
:100E400016D080264B48059A06990423801EE1F7A8
:100E500081FD398801808670E1F795FD0020CBE7A0
:100E60006B461B782819427F99408A43427706E0F7
:100E70006B461B782A19507F994008435077210010
:100E80002800FFF769FC01003948059A0223C01CBD
:100E9000E1F760FD29190470497F4170E1F773FDA6
:100EA000D0E7FFB583B00020694608700871180AC2
:100EB000029004981C00008801AAFFF754FE060067
:100EC00000252420FFF72AFC0700002E08D16846E1
:100ED0000079022814D0032814D0042814D08026C6
:100EE0002448059AAB1D2100001FE1F733FD0400E3
:100EF0000498002E018821802671658006D028E0A4
:100F00000125EDE70225EBE70725E9E768460079CB
:100F1000022804D0032808D0042812D019E068461B
:100F200000783818807E607113E00298694609786D
:100F30003818407FC840C107C90F6171090AA17103
:100F400007E068460078C000C119601D091D01F066
:100F50000BF92000E1F717FD00204DE710B50878E8
:100F6000122801D1FFF737FE002010BDFFFF00005F
:100F700001240000180C000030B5030001200021FE
:100F800003241A00CA40D20704D04D0022006D1C71
:100F9000AA401043491C0906090E0929F1D330BDA6
:100FA000FFB585B00E9F040038881D00FFF7E4FFF1
:100FB000049028001E210840A18A4C4A0023019178
:100FC0000093029203904A490698132304AAF0F76B
:100FD00064FD060022D101211420E1F7D3FB20613A
:100FE0000699098881813988C181E90701D00121E9
:100FF000C903079A11430180A18A41801421E1822B
:101000000121E18101001231A1603A49001D6160B6
:10101000E1F7E6FFA08A0021E1F7F6FD300009B014
:10102000F0BD70B5046905006068002805D0201D7A
:10103000E2F71AF8E1F70BFCF6E700202861200040
:10104000E1F705FC70BD704770472848983070473D
:1010500030B50400A289E4890920521C13041B0C3A
:1010600000222500D540ED0707D05D1C8D4201D13F
:10107000100030BD9B1C1B041B0C521C1206120ED0
:10108000092AEED330BD10B503008089DB89401CEE
:101090000004000C00221C00D440E40708D0914258
:1010A00003D1401C0004000C07E0801C0004000C6D
:1010B000521C12061216092AEDDB092A00D1002063
:1010C00010BD02000020802901D98D207047062A1A
:1010D00006D0072A07D0082AF8D10729F5D170478A
:1010E0000829F2D170470629EFD37047F048020073
:1010F0000A180000B0490200FFB50C00142081B0AE
:10110000FFF70CFB21780700092931D2FFF7BBFF5D
:1011100000282BD061782078FFF7D3FF060028D174
:101120007D680DE028792178884208D100222900C5
:10113000381DE1F7A3FF2800E1F789FB02E02D68E5
:10114000002DEFD1607801210830E1F71BFB05008D
:101150002078A11C2871607868716278A81DF6F764
:101160007DFE2900381DE1F73FFF02E0822600E006
:1011700081265348039A04990223E1F7EBFB217877
:1011800001704670E1F7FFFB002005B0F0BDFFB530
:10119000002081B0009003980E00E1F76AFD00285E
:1011A00002D001284CD04DE01420FFF7B7FA318867
:1011B0000700FFF74DFF05004248092D36D27C6835
:1011C00003E02179A94203D02468002CF9D117E06B
:1011D000002C15D06379039A04999B1DE1F7BAFBA3
:1011E00005003088A11D2880002028716079688062
:1011F0006279681DF6F732FE2800E1F7C4FB21E0B2
:101200003D740498010A38007974FFF7A5FA0100CB
:101210002B48039A0123401CE1F79CFB0570E1F782
:10122000B2FB03980121E1F7EFFC0BE0039A04996C
:101230000623E1F78FFB3188018080210171DCE713
:10124000022000900098A0E7F8B517000D001000EC
:10125000E1F70FFD012831D11420FFF75FFA017C7F
:101260000400FFF710FF217C2A7806001548914200
:1012700014D1617C6B783A00090208319B1DE1F7BB
:1012800069FB04000680002020716878A91C60803A
:101290006A78601DF6F7E2FD200009E0617C062314
:1012A0003A0009020831E1F755FB802106800171FF
:1012B000E1F769FB00213800E1F7A6FC0020F8BD4A
:1012C00001140000140C0000FFB50500FF2087B0DA
:1012D000109F1E0001211130E1F754FAFF21040094
:1012E0001131F6F7D5FD3F2168460175E01DF93053
:1012F000027B7B781A4302737878012801D1684613
:1013000001750898694600885E4A0023088230000B
:101310001E210840A98A00930292019103905A4924
:10132000062305AA04A8F0F7B8FB0028009007D010
:10133000002C02D02000E1F78AFA00980BB0F0BD33
:101340007878012809D16846008A09214902001DE0
:101350000004000C0022F0F773FE68462C61008A3E
:10136000089908802081F00701D00120C003099965
:1013700008432080A88A002160804520E88201205F
:10138000FF34E88141480B34AC606860A88AE1F71B
:101390003BFCD2E770B5056904006868002801D0FD
:1013A000E1F755FA002020612800E1F750FA70BDFE
:1013B000006900224018FF300130C2727047006996
:1013C00000224018FF300130C272704710B504008F
:1013D0004520FFF7A3F90189052C03D20819000461
:1013E000000C10BD052C08D1FF300130007BC00778
:1013F00003D0491D0804000C10BD002010BD70B5BD
:101400000D000021FFF7A0F96B780200C120082130
:1014100000010833E1F79EFA040012202070042036
:10142000FFF7D4FFA0806878A91CE08020006A78CC
:101430000830F6F713FD2000E1F7A5FA70BD11485A
:101440003030704770B504000D004520FFF766F995
:1014500002898021131D9C4202D8A11A2970002103
:10146000FF300130007B1A04120CC00707D0521C59
:101470001004000C844202D10520002128700800CD
:1014800070BD0000B8490200F0FF0000204A0200D1
:1014900070B515000E0002241000E1F7EAFB0028E9
:1014A00010D14520FFF73AF9040001212800E1F7A7
:1014B000ABFB31002000FFF7A2FF00212800E1F77D
:1014C000A3FB0024200070BDFFB581B00026684654
:1014D000067008880D0017006946FFF7B3FF040087
:1014E0006848049906233A00E1F734FA2988002C69
:1014F000018005D169460978052907D00324468073
:101500000471E1F740FA002005B0F0BD02214180EE
:10151000F6E7FFB50C0081B000206946087004981A
:10152000050A2088FFF78EFF070013D14520FFF73B
:10153000F5F8E1790600A0790902084369460978BF
:10154000052902D0022932D003E0002828D0012842
:101550000ED080274B48039A04990423801EE1F79C
:10156000F9F9218801808770E1F70DFA0020CBE7B7
:101570007019FF300130C17A01221143C172290074
:101580003000FFF7E9F801003F48039A0223E1F732
:10159000E1F97119FF3101310570C97A41701CE020
:1015A0007019FF300130C17A49084900E6E7290087
:1015B0003000FFF7D1F801003348039A8223401C22
:1015C000E1F7C8F9A2880600A11DF6F747FC300034
:1015D00080304570217901703000E1F7D4F9B9E726
:1015E000FFB50F0083B00020694608700698000A16
:1015F00001903888FFF726FF050000244520FFF7FB
:101600008DF80600002D06D168460078042810D019
:10161000052810D080251B48059A0699A31D001F98
:10162000E1F798F93988002D01800571448004D0D4
:1016300017E08024EFE70224EDE7694609780429E2
:1016400002D0052903D00CE0B17A417109E001997B
:101650007118FF310131C97ACA07D20F4271120ADB
:101660008271E1F790F9002007B0F0BD10B51400C9
:101670001000E1F7FEFA410849002000E1F7C4FA42
:10168000002010BD180C000003450000FFB5050048
:101690000020C04385B00E0004901F0001214420AB
:1016A000E1F770F80400286138001E210840A98A7B
:1016B000FB4A00230093029201910390F949092308
:1016C000300004AAF0F7FFFA01000090F6A0FEF740
:1016D0004AFB30882081308809303080009800280B
:1016E00030D10E984078012811D12089072100229D
:1016F000801C0004000C8902F0F7A2FC208907215D
:101700000022801D0004000C8902F0F799FC20895A
:1017100030800E98417840200155F80701D0012013
:10172000C003079908432080A88A002160804720D1
:10173000E8820120E881E2483C34AC606860A88A15
:10174000E1F762FA009809B0F0BD70B505690400D0
:101750006868002801D0E1F77AF8002020612800AD
:10176000E1F775F870BD0069002243182033490085
:1017700008185A77C287704700690022431820333F
:10178000490008185A77C287704710B5CD4C010040
:10179000A0691022401CA061000100190E30891CB4
:1017A000F6F75CFB0120207710BD70B50D00BC4939
:1017B00004005831C4A0FEF7D6FAC2492804000C30
:1017C000C88000228C804A618A6101224A7770BDFC
:1017D000F8B5BC4F11243800416903003A7F806995
:1017E000A40309191E3305010024012A02D0022A8C
:1017F0000DD00AE0B34E2A0000200094FDF7C8FF88
:101800007069B461401970613C770020F8BDAD4E3D
:101810002A0000200094FDF7BBFF7069B4614019F5
:1018200000257061AAA0FEF79EFA6D1C0A2DF9DB57
:101830000A203C77FEF736FCFEE7A2480021022290
:1018400041770277A7480170080070477CB50C000B
:10185000934906008C319CA0FEF785FA4720FEF7DD
:101860005DFF05006946A0A0FEF77DFAA1886846E5
:101870000170090A4170A1798170E088010A684607
:10188000C170E1890171090A417100212800FEF748
:101890005BFF0200300208300104C120090C122352
:1018A0000001E1F757F8002817D0122101702989AB
:1018B000891C818041800A21C18069460988018193
:1018C000694649884181218981816189C18169464F
:1018D00089880182E1F757F87CBD87A0FEF743FABB
:1018E000FBE7F8B506000C004720FEF717FF0500E0
:1018F0006946200A0C70487000212800FEF724FF7A
:101900000200300208300104C120090C0A23000142
:10191000E1F720F8122101702989891D81800221B7
:10192000C180694609880181E1F72DF8F8BDF7B556
:101930005B491400783188B063A0FEF714FA60792F
:1019400021790002014368468180E079A57900028F
:1019500005436846C580607A227AE37A0002024332
:10196000A07A1B021843070417430297E07BA67B6B
:10197000000206436846C6816BA0FEF7F4F9290011
:101980006EA0FEF7F0F9390071A0FEF7ECF9310016
:1019900074A0FEF7E8F979490298794C01270025EF
:1019A000884230D177A06770FEF7DDF97A491022BE
:1019B000002004AB0095FDF7D4FE6846C18B77A0EC
:1019C000FEF7D1F906997BA0FEF7CDF96846818A2A
:1019D0007DA0FEF7C8F96846C08881087FA0A18075
:1019E000FEF7C1F96846818A808881424DD0A0887F
:1019F0007903884249D8002847D06846C08B864280
:101A000043D1277004E17A49884228D102206070CE
:101A100078A0FEF7A8F97D491022002004AB0095BC
:101A2000FDF79FFE069963A0FEF79DF96846818A3F
:101A300065A0FEF798F96846C088810867A0A18074
:101A4000FEF791F96846C189C08B81421DD0A088FC
:101A50001F214902884218D80028D2D115E06570AC
:101A60004D491022002004AB0095FDF77AFE684630
:101A7000C18B4AA0FEF777F906994EA0FEF773F9DD
:101A80006846818A50A0FEF76EF92078012806D0BA
:101A9000089804A9FFF7DAFE00200BB0F0BDB7E00C
:101AA000284A0200C0FF00006372656174655F64CC
:101AB0006220737461747573203D2025780D0A00CF
:101AC000F84A0200500B400025730D0A0000000088
:101AD0007761697420666F72207265736574212165
:101AE000210D0A00310040006E6F746920203D20F6
:101AF000307825780D0A00004B455F4D53475F4114
:101B00004C4C4F435F44594E2047415454435F531C
:101B1000454E445F4556545F434D4420203D3D2093
:101B20004E554C4C200D0A0072784864722E766532
:101B300072203D202578200D0A000000727848644C
:101B4000722E6C656E203D202578200D0A00000065
:101B500072784864722E756964203D202578200DC6
:101B60000A00000072784864722E726F6D5F7665AD
:101B700072203D202578200D0A000000424242429A
:101B80005808400061707020706172742075706731
:101B9000726164650D0A000010000200496D67481B
:101BA00064722E726F6D5F766572203D20257820FD
:101BB0000D0A0000496D674864722E756964203D06
:101BC000202578200D0A0000496D674864722E7642
:101BD0006572203D202578200D0A00006F61644267
:101BE0006C6B546F74203D202578200D0A00000096
:101BF0005353535361707020616E6420737461633A
:101C00006B20757067726164650D0A00E02000004A
:101C10006548658007700C216846257001800E219B
:101C20004180FF212D318580C18000F002FC0898A1
:101C30000021FFF756FE2FE7F3B548780F785B4D8C
:101C40000C000002074389B079D16978012905D0D9
:101C500002293BD056A0FEF786F86EE000205C49D2
:101C6000102201AB0090FDF77CFDE079A679617C44
:101C700000020643207C090208430690E17AA07A1C
:101C8000627B09020843217B1202114309040143CC
:101C9000721C684602810020E8804EA0FEF763F8BF
:101CA0000096AB886A8800214DA0FEF75CF8684674
:101CB0000189320057A0FEF756F8688800283CD109
:101CC0006846418A0698814237D139E00020584958
:101CD000102201AB0090FDF744FDE079A679617C0C
:101CE00000020643207C090208430690E17AA07AAC
:101CF000627B09020843217B12021143090401435C
:101D0000701C6A4610810020E88032A0FEF72BF894
:101D10000096AB886A88002131A0FEF724F86A4655
:101D2000118932003BA0FEF71EF86888002804D114
:101D30006846418A0698814202D10320ADE608E058
:101D4000A888810030001039FFF72FFD2000FFF731
:101D50001CFD6988B94217D1002911D0E888401CC0
:101D6000E8802000FFF711FDA888E988401E814225
:101D700006D130A0FDF7F7FF69880998FFF7B1FD9C
:101D80006888401C688002E00998FFF7AAFD68880F
:101D9000A988884204D12BA0FDF7E5FFFFF74DFD90
:101DA00000207AE62B487047310040005808400078
:101DB0006F6164496D67426C6F636B5772697465DC
:101DC0003A20554E4B4E4F574E205549440D0A0070
:101DD00010000200756964203D2025780D0A00007E
:101DE000626C6B4E756D203D202578202C6F6164F0
:101DF000426C6B4E756D2025782C6F6164426C6B64
:101E0000546F742025782C766572202578200D0A71
:101E100000000000496D674864722E766572203DAF
:101E20002025782C20766572203D2025780D0A002B
:101E3000E02000006C61737420626C6F636B200D96
:101E40000A00000075706461746520646F776E210C
:101E50000D0A0000704A0200F8B50C00A0491E00EF
:101E60001700A0A0FDF77FFF3800E0F702FF472032
:101E7000FEF754FC05002078012804D8EAF708FB97
:101E80009A49884212D19A4802233A003100E0F779
:101E900061FD217801702178012901D9402100E0FC
:101EA00089214170E0F76FFD0020F8BDA17823780B
:101EB0002A003D3299542278A1880C3C52005219D4
:101EC000D187012000216C6040356970F8BD10B5E4
:101ED00088A0FDF737FF022010BD814910B51831E9
:101EE00080A0FDF740FF022010BDFFB5002081B0AB
:101EF0000700009003981D000C001E0AE0F7B9FED1
:101F0000002805D00398E0F7B4FE012871D074E0F2
:101F10004720FEF703FC00280CD0E279A1791202D9
:101F200011434022125CD2072AD0002906D0012991
:101F300004D025E077A0FDF716FFFBE70289238890
:101F40009446D21C93420ED1012906D0811920312A
:101F50004A7F520852004A7712E0811920314A7FA5
:101F600001231A43F7E76246D21D934208D12A0A99
:101F70005200012919D01118CA8F52085200CA877D
:101F8000018922888B1C9A4214D10A30192106003B
:101F9000F5F77EFFA288A11D3000F5F75FFFA1884D
:101FA00032000020FFF7C3FC15E01118CA8F01238F
:101FB0001A43E4E7891D8A420DD123301921060016
:101FC000F5F766FFA288A11D3000F5F747FF310045
:101FD0000020FFF731FE5448039A04232900E0F75C
:101FE000B9FC2188018000998170E0F7CCFC04E005
:101FF000FFE74EA0FDF7B7FE0227380005B0F0BDA1
:10200000FFB500263700472085B0FEF787FB0500A7
:10201000002414216846F5F73BFF0798E0F729FEF6
:10202000002805D00798E0F724FE01284ED051E0A3
:10203000069801882889C21C914204D102242200FA
:1020400029003D3116E0C21D914204D10224220034
:1020500029003E310EE0821C914204D11924220055
:1020600029000A3106E0821D914207D1192422007D
:10207000290023316846F5F7F1FE11E0021D914277
:1020800003D10D2422002CA105E00830814206D1A5
:102090000A2422002CA16846F5F7E0FE00E006269F
:1020A0002148079A0899A31D801EE0F753FC0500FC
:1020B00044802200401D6946F5F7D0FE069800884E
:1020C000288028002E71E0F75EFC03E021A0FDF7D8
:1020D0004AFE0227380009B0F0BD0020704700001A
:1020E000004B02002573200D0A000000FFFF0000D6
:1020F000014700006F6164735F666663315F7570EE
:10210000645F7265715F68616E646C6572200D0A50
:10211000000000006F6164735F656E76203D3D20B6
:102120006E756C6C0D0A0000160C00004F41445394
:102130005F425553590D0A00496D67204964656E29
:102140007469667900000000496D6720426C6F6316
:102150006B0000006F616473204F4144535F425530
:102160005359200D0A0000000A7902704A79427022
:102170000B8883701B0AC3708A7902714988417188
:10218000090A817170470A880270120A42708A78BF
:102190008270CA78C2700A7902714A79427189796B
:1021A000817107207047437802781B021A430A8026
:1021B00082788A70C278CA7002790A7142794A714B
:1021C0008079887107207047F8B51020694608703B
:1021D000AD482821F5F75CFEAC490520E0F7D8FCB6
:1021E00000210520E0F710FDA74AA12018321600B3
:1021F0006946E0F74FF800280FD0A34D0024F5F70B
:102200001BFE2919641C2406240E102C0876F6D314
:1022100032001021A120E0F78CF800F013FA00F052
:1022200081F900F0E7FAF8BD10B5974C0020E1788D
:10223000042908D088009549103108588047E07873
:10224000401CE070012010BD8F4810B5807802233B
:10225000052201028E480A31E0F77CFB0121017062
:1022600013214170E0F78FFB10BDF0B505208BB056
:10227000E0F7FFFC02287DD1854852230522092181
:10228000F738E0F767FB0400002060700720207239
:102290002021A180E1800D20207001261F21250032
:1022A0002200667220350C32E172E9721700511E6D
:1022B0000B20DFF7EFFF002818D002202073042046
:1022C0006673A073607A012802D0022804D101E06D
:1022D000062000E00520A0730320E072F81C042211
:1022E0006CA1F5F7BBFDE07A001DE072E07A1D21DC
:1022F000081A0606360E022E2FD9F82069460871F4
:10230000022003AA01A9DFF7C5FF002806D00B228F
:102310006846027161A103A8F5F7A0FD684600793F
:1023200000281AD0B04200D2060069460E71E07A49
:10233000761C0921C655E27A20000D301154E17A4D
:10234000401C081869460A7903A9F5F787FD694614
:102350000879E27A801C1018E07222002C321600F4
:10236000511E0C20DFF796FF00280BD00020E872EA
:10237000300000E018E00D224BA1F5F76FFDE87A80
:102380000D30E8722000E0F7FEFA4BA0FDF7EBFC01
:102390005048FDF787FE03210520E0F735FC4E4845
:1023A0000A220521E0F712FD0BB0F0BD10B50520A3
:1023B000E0F75FFC032810D102210520E0F724FCA0
:1023C0004648012305220921E0F7C4FA02210170E1
:1023D000E0F7D9FA42490120087010BDFFB50700A7
:1023E0001D000E00052081B0E0F743FC03281ED13C
:1023F0001F2E1CD81F2D1AD8384841230522092129
:102400000B30E0F7A7FA040010202070212066703E
:10241000055532003900A01CF5F720FD2000039976
:102420002A002230F5F71AFD2000E0F7ACFA05B0DB
:10243000F0BDF8B5050014480E238078052201028E
:1024400013480A310A30E0F785FA040009202070A9
:102450002988244E24A061806A88A280AB88E3800A
:10246000ED8825816681A6810095FDF77CFC200022
:10247000E0F789FAF8BD10B5034C6279A11DF5F7B4
:10248000EDFC607910BD0000100C4000344B0200E0
:10249000040E00000303F0FF00000000424B333441
:1024A00033352D6A61636B000C084C494E5A454A1E
:1024B00049450000000000006170706D2073746178
:1024C0007274206164766572746973696E670D0A4F
:1024D00000000000FF3F0000040F0000030D00009B
:1024E00050084000FFFF0000696E74765F6D696EF2
:1024F000203D2025642C696E74765F6D6178203DE7
:102500002025642C6C6174656E6379203D20256400
:102510002C74696D655F6F7574203D2025640D0A0C
:1025200000000000254800210170642141707047BF
:1025300010B523481C2305220921E0F70BFA1B21C3
:1025400001700021242241704280052282800122F4
:10255000C18002724272E0F716FA10BD10B5040095
:10256000164804702420FEF719F9010009200423FD
:1025700005228002E0F7EEF900210470417032215B
:102580008170E0F700FA10BD10B504002420FEF7BA
:1025900005F901000B4802230522E0F7DBF90021D1
:1025A00001704470E0F7EFF910BD00207047002083
:1025B000704700207047002070470000600840000E
:1025C0001B0D000002240000F8B50E000978180069
:1025D000002425000B00F5F79CEC090609121518DC
:1025E0001B0C1E0F2000092421A516E00A2423A598
:1025F00013E0082424A510E0072426A50DE00A24F2
:1026000026A50AE0052428A507E0052428A504E05E
:10261000052429A501E0062429A501002A48A31CB8
:10262000E0F798F907003078002C38707C7004D0FF
:1026300022002900B81CF5F711FC3800E0F7A3F9D7
:102640000020F8BD704710B520480A230522092153
:10265000E0F780F91B2101700021142241704280B3
:10266000052282801A4AC1800281E0F78CF910BDF0
:1026700042454B454E20534153000000424B2D42F2
:102680004C452D312E300000123456FFFE9ABCDE30
:1026900000000000025E044000000300312E302ED6
:1026A000302E302D4C450000312E302E30000000F1
:1026B000362E312E32000000362E332E3000000030
:1026C000FFEEDDCCBBAA0000031400001B0D0000D0
:1026D000FF0100003A48002101704170704710B5B9
:1026E00038480A2305220921E0F734F91B2101703B
:1026F0000021452241704280052282800122C18052
:102700004272E0F740F910BD70B506000D0045209B
:10271000FEF744F801002C4882230522E0F71AF95D
:10272000040045702A003100801CF5F797FB20005B
:10273000E0F729F970BD70B50C004978150023A0A9
:10274000FDF711FB61782048001D002905D03222D9
:102750002900E0F73BFB002070BD2900E0F780FB7B
:10276000F9E700B50878A1B0002808D154228021EB
:102770006846F5F785FB01216846FFF7C5FF002095
:1027800021B000BD10B5174917A0FDF7ECFA0020E5
:1027900010BD080010B58031002309781A00FDF73C
:1027A00099FB002010BD00B51148A1B0FEF78EF8CE
:1027B000892280216846F5F763FB0020E0E70000EE
:1027C000620840001B0D000001450000706172614D
:1027D0006D2D3E6E74665F636667203D2025780D23
:1027E0000A000000BC4B020025730D0A0000000027
:1027F0003E0C40004E4800210170704710B54DA0BE
:10280000FDF7B1FA50480A2305220921E0F7A2F8A2
:1028100004001B202070002147206170608005208B
:10282000A080E180012102006172092147A0FDF72B
:102830009AFA2000E0F7A7F810BD10B504003C4854
:1028400004704720FDF7AAFF010047200623052258
:102850000002E0F77FF80021047041808180E0F7FA
:1028600092F810BD0020704770B5040040491D006B
:10287000160040A0FDF777FA2B00320021003FA0A0
:10288000FDF771FA002070BD10B50C00384939A071
:102890001A31FDF768FA6178A21C0020FFF747F8AB
:1028A000002010BD324910B5363132A0FDF75BFA79
:1028B000002010BD2E4910B552312EA0FDF753FA5D
:1028C0004720FDF76BFF010037481B230522E0F787
:1028D00041F81421417064218170E0F754F810BD73
:1028E000234910B5633123A0FDF73DFA4720FDF7DA
:1028F00055FF01002C481B230522001DE0F72AF894
:102900001421417032218170E0F73DF810BD184963
:1029100010B5743117A0FDF726FA002010BD144938
:1029200010B58E3113A0FDF71EFA002010BD000077
:10293000640840006170705F6F61645F6164645F30
:102940006F6164730D0A00001B0D00006170705F01
:102950006F61645F6164645F6F6164732064203DD4
:102960002025782C73203D2025780D0A00000000DA
:10297000104C020025730D0A000000006D7367699A
:1029800064203D203078253034782C646573746978
:1029900064203D20307825782C7372636964203D73
:1029A00020307825780D0A0004470000FEB5150098
:1029B0000C000179F24E17E00768CA00083ABA180D
:1029C00084CA00926A4601971288A24201D0B2429C
:1029D00007D1019E052229002000B0470006000E05
:1029E000FEBD491E0906090E0029E5D10020FEBDE5
:1029F00010B5E448012305220921DFF7ABFF0121CF
:102A00000170DFF7C0FF002010BD10B54A780C0040
:102A10000978DDA0FDF7A7F920780E2842D008DC60
:102A200001280DD0032836D00C283BD00D2842D1E8
:102A300038E00F2836D0102834D01B283BD125E0B1
:102A40006078002837D1CF48302305220921801C27
:102A5000DFF780FF0400032020700A2060701B2035
:102A60006084FF204930A0848320E0840120E07648
:102A70002000D24910220A30F5F7F0F9CF490020A2
:102A80001839C8702000DFF77EFF14E0FFF7CCFB99
:102A900000280AD00FE001210520E0F7B5F8FFF784
:102AA000C3FB08E06078452805D102210520E0F746
:102AB000ABF8FFF7DAFB002010BD70B50C00097809
:102AC000BF481D00002904D001290FD0022917D1C9
:102AD00018E01C232900DFF73DFF0500207828704F
:102AE000281DFFF7C8FC6880280007E00A2329009A
:102AF000DFF730FF2178017000214180DFF743FFCD
:102B0000002070BD0A232900DFF724FF217801701F
:102B1000082141800A218180B421C1804B21C90054
:102B20000181EBE710B518000C000100A448022356
:102B3000801CDFF70FFF4821417021780170DFF71B
:102B400022FF002010BD70B50E009E491C0015002C
:102B50009DA0FDF708F9200A984C183CFF28A070AA
:102B600022D031882C2305222180010294480A3189
:102B70000938DFF7EFFE002228210A54DFF703FFB0
:102B80002078FFF7EBFC04212800E0F73DF88C48A3
:102B900064220521F630E0F719F9894864220521FD
:102BA000F930E0F713F901E0FFF75FFB002070BD9B
:102BB00010B50C00097886A0FDF7D5F82078092813
:102BC00006D00A2812D00B2817D00C281DD106E0F9
:102BD0006078002801D088A015E08EA013E060780E
:102BE000002801D092A00EE098A00CE060780028A8
:102BF00001D09DA007E0A1A005E06078002801D0E9
:102C0000A3A000E0A9A0FDF7AEF8002010BD10B50C
:102C10008978ADA0FDF7A7F802210520DFF7F4FFC2
:102C2000B14901200870FFF720FB002010BD10B54E
:102C30001000E0F71EF8002010BD624910B52031E9
:102C400061A0FDF790F8002010BD30B40A0001002B
:102C5000040A0020242C11D007DC0C2C10D00E2CE0
:102C60000ED0142C0CD1A14804E0452C04D0472CE4
:102C700006D19F4830BC99E69E48FBE79E48F9E79D
:102C800030BC70471CB59DA0FDF76DF81421684657
:102C9000018028214180002181804B21C900C18011
:102CA000FFF7C7FB00201CBD10B50C0045499BA0D9
:102CB0003931FDF758F8A1889AA0FDF754F8E1885A
:102CC0009EA0FDF750F82188A1A0FDF74CF861887F
:102CD000A5A0FDF748F8002010BD10B50C0039493B
:102CE0008EA05631FDF73FF82188A4A0FDF73BF8F0
:102CF0006188A7A0FDF737F8A188AAA0FDF733F8EF
:102D0000002010BD10B50C002E4984A07531FDF7D0
:102D10002AF862882188A7A0FDF725F8002010BDB9
:102D200070B528491C00150093317CA0FDF71BF8F5
:102D3000E12006232A0021000001DFF70BFE1049E5
:102D40008180418001210170DFF71DFE002070BDF0
:102D50001CB500F0D5F91A480A220521F930E0F730
:102D600035F80920FCF751FE99494A7A0190F12083
:102D700000928B79CA79097A00F02CF900201CBDE9
:102D8000FFFF0000020D0000706172616D2D3E6F4B
:102D90007065726174696F6E203D20307825782CE3
:102DA00020706172616D2D3E737461747573203D86
:102DB0002030782578200D0A00000000280C400003
:102DC0000B0E0000404D020025730D0A00000000AC
:102DD000676170635F636D705F6576745F68616E75
:102DE000646C6572206F7065726174696F6E203DEE
:102DF0002025780D0A0000006761706320757064FB
:102E000061746520706172616D73206661696C2008
:102E1000210D0A006761706320757064617465201C
:102E2000706172616D73206F6B20210D0A000000CC
:102E30006761706320736563757269747920726568
:102E400071206661696C20210D0A00006761706362
:102E500020736563757269747920726571206F6B78
:102E600020210D0A000000006761706320626F6E10
:102E700064206661696C20210D0A0000676170633F
:102E800020626F6E64206F6B20210D0A000000002D
:102E90006761706320656E6372797074207374610A
:102EA0007274206661696C20210D0A00676170638D
:102EB00020656E6372797074207374617274206F10
:102EC0006B20210D0A000000646973636F6E6E65EC
:102ED0006374206C696E6B20726561736F6E203D48
:102EE00020307825780D0A0050084000844B0200FD
:102EF000084C0200B44B0200744B0200736C617604
:102F0000652073656E6420706172616D5F757064B9
:102F10006174655F7265710D0A0000002573200DF4
:102F20000A000000316D61785F72785F6F637465CD
:102F30007473203D2025640D0A000000316D617816
:102F40005F72785F74696D65203D2025640D0A000D
:102F5000316D61785F74785F6F6374657473203D61
:102F60002025640D0A000000316D61785F74785F80
:102F700074696D65203D2025640D0A00636F6E5FE6
:102F8000696E74657276616C203D2025640D0A00BF
:102F9000636F6E5F6C6174656E6379203D2025649C
:102FA0000D0A00007375705F746F203D2025640D5D
:102FB0000A000000696E642D3E6D7475203D202569
:102FC000642C736571203D2025640D0A000000000B
:102FD000380C40003FB41C4B01005868AA22027014
:102FE00042708170694649790A220024017169465C
:102FF000097941716946497A81716946097AC171D5
:103000006946497B01726946097B41726946497E7E
:1030100081726946097EC1726946497F01736946BA
:10302000097F41730E21C2700022855C521C12067A
:103030002C192406240E120E8A42F6D344541A6820
:1030400004B030BC491C104768084000724810B5F5
:103050000C210160017141710172C1718171417274
:10306000801DFDF7B7FBFDF7D4FB10BD10B50400C4
:1030700080070CD164212000F4F7B4FE002908D1A8
:10308000FF2191312000F4F7ADFE002901D000208E
:1030900010BD012010BD70B50D0016006421F4F7BD
:1030A000A1FE0006000E0C00132802D96434240689
:1030B000240EA00800190721F4F794FE5748891937
:1030C00040192038C07F4018A10702D1032D00D23B
:1030D000401E0721F4F786FE080070BD70B54E4C07
:1030E000059E049D2060217162712372E571A671B5
:1030F000FFF7D1FF6072A01DFDF76CFB002070BDD3
:10310000F8B5454CA01DFDF7E1FB454D607A2978E7
:10311000884233D028706C68FF27641C414E6E379C
:103120006C600FE03000FFF7A1FF002807D0FF2000
:103130006F30844201D3241A03E0761C04E0FF3C84
:103140006E3C761CBC42EDD2334F6C603E60002674
:103150000DE03868FFF78AFF002801D0012E0FD05C
:103160002E480C30805DA04203D8241A761C1C2CFB
:10317000EFD2761C6C60641C3E717C710020F8BD3F
:103180001D2CF6D31D3CF1E77047F8B52349244CBC
:10319000091F0968002000911F4902004D7A694605
:1031A0000834CD70910061580B78012B1BD14B79FD
:1031B0009D4218D16B469E780B799E420DD89E4257
:1031C00011D16E467678CF78BE4206D8BE420AD17B
:1031D0006E4636788F78BE4205D96E46B370CB788E
:1031E000737089783170521C1206120E052AD9D3D9
:1031F00069468978FF290ED069464978FF290AD0A7
:1032000069460978FF2906D00022074B100069465D
:10321000FDF70BFB0120F8BD380C4000FC4D02000F
:1032200070084000DA070000893102007047F8B5E5
:103230001B4B0D0006001B4C1A68002015E0315C8A
:1032400017040FD4570404D50A290AD10121C90350
:1032500012E00D290ED09704BF0C521CC72AE1556D
:1032600000D90022401C0006000EA842E7D300242B
:103270001A600AE0012189030A43F3E7315D0AA0DD
:10328000FCF771FD641C2406240EAC42F6D308A0A2
:10329000FCF769FD29003000FFF736FAF8BD0000A1
:1032A000AC084000440C4000307825782000000035
:1032B0000D0A0000002104E00222521C0A2AFCDB55
:1032C000491C8142F8DB70470200303A092A02D8D3
:1032D0001106090E0CE00200613A052A01D85738A0
:1032E00004E00200413A052A02D837380106090EE7
:1032F0000800704730B5040000780D00FFF7E4FFC8
:10330000030060782B280ED00320287060782228D4
:1033100007D0FFF7D9FF0A214B4318180006000E0B
:1033200030BD180030BD18000221297030BD0322C5
:1033300010B5C9015202BF4B8C1804431869A04252
:1033400006D05869000D000558610A20FFF7B2FF4A
:103350001C6110BDB84FB94EB94CB64D3878002835
:103360002FD0306811282CD9B6480178432928D1AC
:10337000316841182039C97F222922D1316841188A
:103380002039897F22291CD1316841182039497F91
:103390004E2905D0316840182038407F452810D18B
:1033A000A8481022A8A100F049FB002819D0ABA022
:1033B000FCF7D9FC002030603870A2488021F4F777
:1033C00067FD3878002875D030681B2872D9002036
:1033D00038709C48316841182039C97F222902D0B1
:1033E00005E0A3A0E4E797480078432801D0A5A012
:1033F00071E00020306093481122A7A100F01EFB6D
:1034000000286AD11120E0718E488D4911300831B1
:10341000FFF770FF2071E079217A40180006894992
:10342000000EE071081886490831FFF763FF6070ED
:10343000E079217A401800068249000EE0710818F0
:103440007F490831FFF756FFA070E079217A4018D4
:1034500000067C49000EE071081879490831FFF731
:1034600049FFE070E079217A401800067549000EA6
:10347000E071081872490831FFF73CFF6071E0798C
:10348000217A4018E0716078C00708D001202070D0
:103490000320207185A0FCF766FC89A01BE00220B8
:1034A0002070E178002906D02079012805D0002875
:1034B00010D012E017E08AA00DE0012904D0022903
:1034C00004D0032904D008E088A004E08BA002E027
:1034D0008EA000E091A0FCF746FC00203060594827
:1034E0008021F4F7D5FC2078012800D136E7E07878
:1034F000002817D02179012922D00029F6D160793E
:10350000002873D061788A48405CA071A178FFF7E9
:103510000EFF60784F21401C0006000EF4F762FC9D
:1035200061707AE069690720C0028143696181485E
:10353000FFF7C0FE686901218902084368610DE751
:10354000012816D0022833D00328CFD16079002873
:103550004DD061787648405CA071A178FFF7E7FE16
:1035600060784F21401C0006000EF4F73BFC6170B0
:1035700041E0607900280FD061786D48405CA0710F
:10358000A178FFF7D4FE60784F21401C0006000EA2
:10359000F4F728FC617003E0A1786078FFF7C7FEBC
:1035A00068690721C90208436861FF20A53028E047
:1035B000607900280FD061785D48405CA071A178E7
:1035C000FFF7B5FE60784F21401C0006000EF4F7AF
:1035D00009FC617003E0A1786078FFF7A8FE6869D4
:1035E0000721C9020843686153480AE011E0A17845
:1035F0006078FFF79CFE68690721C902084368618B
:103600004E48FFF757FE6869000D0005686149489C
:103610000DE0A1786078FFF78AFE464B1800FFF7AF
:1036200049FE686903210903084368611800FFF730
:1036300041FE93E6801480004008400048084000A6
:10364000B00840004C094000434D442B53494E57AD
:103650004156452B4F50454E0000000053696E67A0
:10366000657761766520436C6F73650D0A00000015
:1036700053696E676577617665204F70656E0D0AD8
:10368000000000005541525420436D642045727281
:103690006F720D0A00000000434D442B53494E57F2
:1036A0004156452B434F4E462B000000496E766134
:1036B0006C696420636F6D6D6D616E642E0A00002D
:1036C000506C656173652073656C65637420646F0D
:1036D00075626C65206368616E6E656C2E0A000011
:1036E0005258206D6F6465210A000000504E392049
:1036F000444831206D6F6465210A0000504E392026
:10370000444833206D6F6465210A0000504E392013
:10371000444835206D6F6465210A000053696E6767
:103720006C6577617665206D6F6465210A00000025
:10373000144E02007102000086060000540B0000C7
:1037400090488F49406801608F4941608F4981608E
:103750008F49C1608F4901618F4941618F49816102
:103760008F49C1618F4901628F4941628F498162EE
:103770008F49C1628F4901638F4941638F498163DA
:103780008F49C1638F4901648F494164FF21013131
:10379000816453210906C1640121C9040165002225
:1037A00042658265C2658949016642668266C26673
:1037B000026742678267C267854B010080310B60F8
:1037C0004B235B064B600F23DB068B6005235B07F7
:1037D000CB60804B0B6109239B024B617E4B8B615D
:1037E0007E4BCB617E4B0B627E4B4B627E4B8B6282
:1037F0008123DB00CB627D4B4B638A63CA637C4BC6
:103800000B644A648A64CA640A654A658A65CA6543
:103810000A664A660523DB038B66764BCB66764BDE
:103820000B674A678A67CA6701210906FF300130C2
:10383000016072494160724981607249C160724998
:10384000016172494161724981617249C161724984
:10385000016272494162724981627249C162724970
:10386000016372494163724981634916C1637047BC
:10387000704940004118434840688030016101218F
:10388000890241614169012252031143416170473C
:10389000C901400009183B4840688030891C01611B
:1038A0000321C90241610721C902416170473549BD
:1038B00001224968520280310028486901D0104332
:1038C00000E09043486170472E4A53685B6D036087
:1038D0005068806D08607047FEE77CB50400007892
:1038E00001282AD1042928D3FFF72AFF6078254D23
:1038F00031280ED0322815D033281ED128782C003C
:1039000000261D34012819D0022835D00721E01FD8
:1039100011E0012028702079FFF7AAFF194807213C
:103920000F3008E00220287020790021FFF7B0FF57
:10393000144807210830FCF7EDFA7CBD0120FFF7A1
:10394000B6FF01A96846FFF7BFFF0099002907D01D
:10395000394A01985043F4F745FAE071000A01E052
:10396000FE20E0712072074809211D30FCF7D2FAD1
:103970006868803046617CBDE6712672F3E700001E
:103980001032A0C3BC08400000C1958200AF422F96
:10399000629C5C6A335B917F00552848008CD68816
:1039A000E59F80180540B82F083C207035ED071CB6
:1039B0000C24DDD308D00080233F41845093300095
:1039C00078E926313534070020085217FF0100003E
:1039D000DCE59502820700400025201000C90800A0
:1039E00010100101004E107C6E3B081241C42A08E1
:1039F0000100011048300000003CFF0102040507EF
:103A00000A0C0F12161A1E22262B30353A40454B4F
:103A100051575D636970767C83898F969CA2A8AEAE
:103A2000B4BABFC5CACFD4D9DDE1E5E9EDF0F3F50D
:103A3000F8FAFBFD820700001027000030B50500F2
:103A40000020030000E05B1C934205D2EC5CC85CE4
:103A5000201A01D1002CF6D130BDF0B506001FB4FC
:103A6000002082B005004024019100901BE00199E4
:103A700022000F00300000F0F7F9049A059B801A2D
:103A8000994110D310001900220000F0DDF9361A18
:103A90008F410197009F22000120002100F0D4F9FE
:103AA00038184D4100902000641E0028DFDC019B87
:103AB00000982900320007B0F0BD0000F0B50E00FC
:103AC000070030005840C00F87B0049048005900EC
:103AD00040084908BC1A884105D2310038001E0050
:103AE00017000B0002005800400810434CD0300D66
:103AF000039040055900400D490D0590401A40289B
:103B0000029072DA18030121000B090508430190A5
:103B100004980092002805D0019952420020884163
:103B200000920190029840210A1A0199009800F031
:103B30008BF905000C006B4607CB00F0A6F9C01905
:103B4000039A71410E0D0023D71756401A007A4090
:103B5000164344D0049A002A2DD0029A012A039ACF
:103B600015DC1205C01A914101263605001C714171
:103B7000059ED20FD207009301922A0023000296DD
:103B800000F0A3F907B0F0BD38003100FAE71605E0
:103B9000224A0F00B218C01AB74101210905001CC2
:103BA0004F4100187F41110018187941E30F184365
:103BB0006D19644113E0E2076D0815436408C207FC
:103BC0001443039A01261205C01A91413605001CC0
:103BD0007141CE07400830434908C01851412A00BE
:103BE000230000F065F9CDE7FFE7049801224000CB
:103BF000C117121A002304988B41C4173100381AD8
:103C0000A141EEE730B40124E407634030BC55E73E
:103C100030B40124E407614030BC4FE70000E0FF0E
:103C2000F0B51FB488B000240B990998A646484007
:103C30000999C00F4900490809910B99C00749002B
:103C4000490800900B910999089808431CD00B99DA
:103C50000A98084318D0099801244000420D4800F2
:103C6000410D099824050003000B204309900B988F
:103C70000003000B20430B9050181C4900224018F1
:103C800014000190100005E0002001000DB0F0BD0F
:103C9000032801DA030000E00323C11A9C460AAEA0
:103CA0000AE05F0008ADED5B4F00F75B7D43002746
:103CB000AA187C41491C5B1E6145F2DD410004AB42
:103CC0005A522104120C0A43240C401C0828DFDB42
