:020000040001F9
:10E2000018F09FE518F09FE518F09FE518F09FE5DE
:10E2100018F09FE518F09FE518F09FE518F09FE5CE
:10E2200084E2010040E2010044E2010048E2010012
:10E230004CE2010054E2010050E2010058E201000A
:10E24000820000EA830000EA840000EA850000EA18
:10E25000B20000EA850000EAA80000EAA00C400035
:10E26000400400000CB74000200000001CBC40002F
:10E27000F00100002CB74000F00400000CBE40008C
:10E28000F0010000DF00A0E300F021E130001FE515
:10E2900030101FE5003081E00040A0E103D0A0E194
:10E2A00084219FE5030054E104208434FCFFFF3AFD
:10E2B000D700A0E300F021E15C001FE55C101FE542
:10E2C000003081E00040A0E103D0A0E158219FE5AB
:10E2D000030054E104208434FCFFFF3ADB00A0E398
:10E2E00000F021E188001FE588101FE5003081E083
:10E2F0000040A0E103D0A0E12C219FE5030054E100
:10E3000004208434FCFFFF3AD200A0E300F021E1B6
:10E31000AC001FE5AC101FE5003081E00040A0E13B
:10E3200003D0A0E104219FE5030054E104208434DC
:10E33000FCFFFF3AD100A0E300F021E1C8001FE597
:10E34000C8101FE5003081E00040A0E103D0A0E14B
:10E35000DC209FE5030054E104208434FCFFFF3AF5
:10E360000080A0E30090A0E300A0A0E300B0A0E341
:10E3700000C0A0E3D300A0E300F021E110011FE5FD
:10E3800010111FE5003081E00040A0E103D0A0E1C2
:10E39000A0209FE5030054E104208434FCFFFF3AF1
:10E3A0000E0000EB170000EB0000A0E30010A0E35C
:10E3B0000020A0E30030A0E30040A0E30050A0E371
:10E3C0000060A0E30070A0E30080A0E30090A0E361
:10E3D00000A0A0E300B0A0E300C0A0E3250000EA95
:10E3E00054009FE554109FE554209FE50130A0E1C3
:10E3F000023083E0030051E1044090340440813452
:10E40000FBFFFF3A1EFF2FE138009FE538109FE524
:10E41000003081E00040A0E10020A0E3030054E1CF
:10E4200004208434FCFFFF3A1EFF2FE1AAAAAAAA07
:10E43000CCCCCCCCDDDDDDDDBBBBBBBBB45F020037
:10E4400000084000A0040000A00C400040040000B0
:10E4500004F01FE59D21000004F01FE59F2100004E
:10E4600004F01FE5A121000004F01FE5A321000036
:10E4700004F01FE5A521000004F01FE5C7E6010038
:10E48000000000000000000000000000000000008C
:10E49000000000000000000000000000000000007C
:10E4A000000000000000000000000000000000006C
:10E4B000000000000000000000000000000000005C
:10E4C000000000000000000000000000000000004C
:10E4D000000000000000000000000000000000003C
:10E4E000000000000000000000000000000000002C
:10E4F000000000000000000000000000000000001C
:10E500000F502DE9810500FB0F50BDE804F05EE2DD
:10E5100000000000000000000000000000000000FB
:10E520000F502DE95A0500FB0F50BDE804F05EE2E4
:10E5300008B500920B000200BB49BCA001F009FC29
:10E5400008BD1CB501930B00B749009202000B31C6
:10E55000BFA001F0FEFB1CBD1CB501930B00B2492E
:10E56000009202001831BAA001F0F3FB1CBD0B00B1
:10E57000AD49020010B52431C2A001F0EAFB10BD84
:10E5800010B504000100CBA001F0E3FBF9F79CEC0F
:10E59000F9F7A4EC01F083FCCA48844206D0CA48CB
:10E5A000844203D00A2001F073FDFEE710BD1CB5C4
:10E5B000C6490622684600F0DBFF68460078FF285F
:10E5C00013D168464078FF280FD168468078FF282D
:10E5D0000BD16846C078FF2807D168460079FF282C
:10E5E00003D168464079FF2804D0B948062269461D
:10E5F000F9F734FC1CBD00F0A3FBFCE7B54E00F0BE
:10E600009FFB05F0CAFAF9F760EC0500F9F766EC34
:10E61000040003F0D3F83078012801D101F02AFD7D
:10E6200000F0ABFB810706D500F08DFC002804D17B
:10E6300000F08FFC03E0C00701D000F0D9FC00F02F
:10E64000C9F8002D01D1F9F754EC002CD7D1F9F716
:10E6500058ECD4E7A04801780170704710B59F4886
:10E660004C21F9F715FC9E499C4801609D49416089
:10E670009D4981609D49C1609D4901619D494161FC
:10E680009D4981619D49C1619D4901629D494162E8
:10E690009D4981629D49C1629D4901639D494163D4
:10E6A0009D4981639D49C1639D4941649D49816440
:10E6B00010BD9D499D4801609D4941609D49816013
:10E6C0009D49C160704700B501208FB0F9F7BDFBCF
:10E6D000FFF7C0FF00F0FEFB01F05EF901F006FB62
:10E6E000FFF7E7FF01F0C5F904F058FD012108002C
:10E6F00001F05EF9E120400201F080FB8F4801F05B
:10E700000CFC02220121132000F0E4FC0222012172
:10E71000122000F0DFFC0021132000F031FD002169
:10E72000122000F02DFD8648E3F72AFD00F08CFE54
:10E73000FFF73DFF834814220890834809A90990F8
:10E7400082480A906846F9F789FB05A80FC8E3F7E5
:10E750007CFD6248FFF782FF002000F076FA00F0AF
:10E76000C3FB00F0DAFE04F019FD022201211320A0
:10E7700000F0B0FC764801680212114301600321E9
:10E780004160F9F7B6EBF9F7BCEB53480078C107E5
:10E7900005D070A001F0DDFA00F0D2FAFCE78107A5
:10E7A00006D571A001F0D5FA05F0C0FD0FB000BD8F
:10E7B000400702D506F07CF8F8E770A001F0C9FA2E
:10E7C000FFF71CFF01000020002901D0022900D121
:10E7D000564870476E4810B5006800686D49884219
:10E7E00003D06DA001F0A4FAFBE777480068006849
:10E7F0007649884203D076A001F09AFAFBE7804878
:10E80000006800687F49884203D07FA001F090FA39
:10E81000FBE78948006800688849884203D088A0DF
:10E8200001F086FAFBE710BD2E58020025732C6319
:10E830006F6E646974696F6E2025732C66696C65F0
:10E840002025732C6C696E65203D2025640D0A001F
:10E8500025732C706172616D30203D2025642C7011
:10E860006172616D31203D2025642C66696C6520E4
:10E870003D2025732C6C696E65203D2025640D0AB2
:10E880000000000025732C64617461203D20256424
:10E890002C6C656E677468203D2025642C66696C5D
:10E8A00065203D2025732C6C696E65203D20256414
:10E8B0000D0A00006572726F72203D2025780D0AE6
:10E8C00000000000C3C3C3C3A5A5A5A5E3000400C1
:10E8D000240040005008400038004000640140001F
:10E8E0005507020089070200BB050200AD060200C1
:10E8F000D90602002B0602008DEA010001ED01009D
:10E9000051ED01001FEE010099EE01006DEE0100D6
:10E910007BEE010081E5010031E5010043E50100E6
:10E9200019FD010081FE0100B7FE0100A00C4000AE
:10E93000C1FE01007FFE01009BFE010007420200B4
:10E9400053FD010067F7010095F70100C3F80100CE
:10E9500040008000445554204D6F6465205374611D
:10E9600072740D0A00000000464343204D6F646539
:10E970002053746172740D0A000000004E4F524D16
:10E98000414C204D6F64652053746172740D0A0010
:10E9900064E20100AAAAAAAA537461636B5F496E7C
:10E9A000746567726974795F436865636B2053545B
:10E9B00041434B5F424153455F554E5553454420BB
:10E9C0006661696C210D0A0074E20100BBBBBBBB30
:10E9D000537461636B5F496E746567726974795FC4
:10E9E000436865636B20535441434B5F4241534539
:10E9F0005F535643206661696C210D0A00000000D8
:10EA00007CE20100DDDDDDDD537461636B5F496E27
:10EA1000746567726974795F436865636B205354EA
:10EA200041434B5F424153455F464951206661690E
:10EA30006C210D0A000000006CE20100CCCCCCCCB3
:10EA4000537461636B5F496E746567726974795F53
:10EA5000436865636B20535441434B5F42415345C8
:10EA60005F495251206661696C210D0A0000000067
:10EA700010B50020F3F777FB0020EFF79CF800209B
:10EA8000F6F743F90020F7F742FF10BD10B501205B
:10EA9000F3F769FB0120EFF78EF80120F6F735F95F
:10EAA0000120F7F734FF10BD10B5E4F77FFB00201D
:10EAB000E7F748FFE4F740FC0020EBF7B4F9EBF789
:10EAC00046FA10BD70B5F9F700EA0500F9F706EA55
:10EAD00004000120C00781210904C861C869C00F72
:10EAE000FCD1C8690A6A496A10180818F9F7ADF923
:10EAF000E7F7D2FF0120E7F725FFE4F757FC0120F5
:10EB0000EBF791F9E4F752FB002D01D1F9F7F0E9A9
:10EB1000002C01D1F9F7F4E970BD414800680028E4
:10EB200001D000207047012070473D49012009684D
:10EB3000002908D13A498968002904D1384909696E
:10EB4000002900D1002070470822C2700422827080
:10EB50000B22427000220270812000044268120ED3
:10EB6000CA704268120C8A704268120A4A70406881
:10EB70000870704770B5022681252D042C69002C81
:10EB80004DD0600703D50420A86100F03CF9E007F0
:10EB900005D00120A86100F057F9EDF706F920062D
:10EBA00003D58020A861EDF700F920070CD50820D7
:10EBB000A861A00702D50220A861B4430020E9F7AC
:10EBC00023FE184801F077FAE0050AD5FF2001304E
:10EBD000A861A00702D50220A861B4430120E9F78B
:10EBE00013FEA00703D50220A861E9F728FEA005BF
:10EBF00004D501204002A861EDF741F9600603D574
:10EC00004020A861E9F7FBFDE00603D51020A861CC
:10EC1000E8F73EFBA006B1D52020A861AEE770BDA5
:10EC2000F8044000FF3F00000121C90781200004D3
:10EC3000C161C169C90FFCD1006AFF21D531884289
:10EC400001D301207047002070473EB5002001210C
:10EC5000C9058861964D012469460C70286068607A
:10EC6000A860E860E3F73AFC57229249D2000020FE
:10EC7000E3F7EEFC9049A2020120E3F7E9FC5722FA
:10EC80008E4912010220E3F7E3FC03228C49520271
:10EC90000320E3F7DDFC8B4801F0CCFB0220FFF7FB
:10ECA00091FD0100884A0020F8F761FFF7F795FE13
:10ECB000F9F731F8FFF7DCFEFFF7F6FE0020ECF77E
:10ECC000BEFE112001AA6946E3F7E4FA002810D13C
:10ECD0006846007900280CD0122002AA69466C739D
:10ECE000E3F7D8FA002804D16846007A002800D05B
:10ECF000AC736C731020AC73287303F05BFA3EBDE9
:10ED000070B5F9F7E2E80500F9F7E8E80400E3F781
:10ED1000FBFBF7F773FEFFF7D5FE0120ECF78FFE44
:10ED2000684800688047002D01D1F9F7E2E8002C1F
:10ED300001D1F9F7E6E870BD10B5FFF705FF10BD8A
:10ED40005B4810B5807AC00701D1E3F76CFC10BDB9
:10ED500070B50500F9F7B8E80600F9F7C0E8040057
:10ED6000534841892943002E418101D1F9F7C0E878
:10ED7000002C01D1F9F7C4E870BD38B5534800251F
:10ED80000090E3F7E1FB002839D0494C0125607B76
:10ED9000002834D06089002831D1A07B002802D11E
:10EDA0007D20C0010090FFF73FFF0028FBD0217BB2
:10EDB0006846E4F7A6F8002821D0FFF7AEFE002849
:10EDC0001FD0217B6846EDF754F9002817D0F8F7DB
:10EDD00035FF002815D001F01CF9002811D000984B
:10EDE00014214843A17B401EEAF718FD0120400290
:10EDF000FFF7AEFF3348806A8047022005432800B2
:10EE000038BD0025FBE710B50120FFF7A1FFEAF7A9
:10EE100025FDF8F706FF2E4801F04DF910BD70B53D
:10EE20000500F9F752E80600F9F758E80400204811
:10EE30004189A943002E418101D1F9F75AE8002CFC
:10EE400001D1F9F75EE870BD194810B5807AC007A6
:10EE50000BD0EAF711FD0220E3F792FB0120FFF748
:10EE6000DEFF01204002FFF7DAFF10BD7D2110B563
:10EE70004001C900F8F7B6FF10BD10B5FFF7F6FF67
:10EE80000B49086010BD0A48408970470848407B1C
:10EE900070470748807B7047054B10B559680A18C2
:10EEA00091088C00121B5A604201101A401810BDC4
:10EEB000B00C400000508100C4528100D056810047
:10EEC0004C5C8100300140004108400080BB0000E4
:10EED000FF3F000074480121017074490978C90797
:10EEE00001D00021017070477148C168FF221204EF
:10EEF0009143C160C168152212041143C160C16809
:10EF0000090C0904C160C168FF2210321143C160BD
:10EF10006849694B0A6841049A4204D1674A8A6386
:10EF2000FF22B23203E0664A8A63FF22FA320A60A5
:10EF3000C26902239A43C26100204860486B4022A4
:10EF40001043486370475F48407870475D49487098
:10EF500070475C4810B5012202705548C169902382
:10EF60001943C16101688313994301605149524CAF
:10EF70000B684104A34205D1FF239D330B604F4B27
:10EF8000303B04E0FF23DD330B604D4B403B8B6394
:10EF9000C36902242343C361C3691343C361C369C3
:10EFA00008242343C361C36904242343C3614A6023
:10EFB00010BD44480178012919D1002101703C4855
:10EFC0009021C161016882131143016039483A4AB6
:10EFD00001680120C005914204D138498163FF21B5
:10EFE000B23103E036498163FF21FA310160704795
:10EFF0000120C10548607047F8B52D49CA69022350
:10F000009A43CA61304A314C314D002649040128E7
:10F010000BD02D4B294F4033663F022813D00426D6
:10F02000032810D0042813D018E062626A624E6090
:10F030002048214A0068904202D1FF20B2300CE003
:10F04000FF20FA3009E063626B624E600F6005E0FA
:10F0500062626A624E60FF20FC30086001F066F870
:10F06000F8BDC9010143194880300161416903229B
:10F07000120311434161FEE7154910B50A691349AE
:10F0800080310B6901242405A3430B618B051A43CE
:10F090000E4B1A610A69C0010F23DB019A430A6112
:10F0A0000A6902430A6110BD320040003800400086
:10F0B000400080003808400013311C006106000049
:10F0C00071070000000840000A3C20740014800012
:10F0D000DC0D4000F7B502099700704AD259166856
:10F0E00096466E4A1432D25915680207120F012350
:10F0F00094461C0008329440624693401A04012949
:10F1000014D0002916D0032917D09E433443110090
:10F11000294305072D0F0120A840029B0006002B64
:10F1200010D0012B12D0022B15D112E03343A34390
:10F130001C0004E033431C43E9E733431C4329002C
:10F140009143E6E722438243140004E094430443DE
:10F1500001E0944384437046046050481430C05921
:10F160000160FEBD0109020788004C49120F1431ED
:10F17000085800680004000ED040C007C00F704758
:10F1800002099300454A10B51432D458226800078A
:10F190000123000F8340002901D01A4300E09A4365
:10F1A000226010BD704710B504000121FFF7E8FF91
:10F1B00000212000FFF7E4FF10BD002802D03749EE
:10F1C000091F08607047364800218160491E0161AF
:10F1D000344801688213914301603048001F006881
:10F1E000002800D00047704700B5002202212020EF
:10F1F000FFF770FF002202212020FFF76BFF0022A3
:10F2000002212020FFF766FF002202212020FFF7C5
:10F2100061FF002202212020FFF75CFF00BD204893
:10F220004038026820490A6082684A6002698A6040
:10F230008269CA60026A0A61426814310A60C2685F
:10F240004A6042698A60C269CA60426A0A611749B3
:10F25000016041608160C160016141618161C161A2
:10F2600001624162704710490D480A6840380260E7
:10F270004A6882608A680261CA68826109690162BB
:10F28000094914310A6842604A68C2608A6842616A
:10F29000CA68C26109694162704770470808400046
:10F2A0004065800040008000C00C4000FFFF00006F
:10F2B000FE4BD969FF22F1320A40024398130840FD
:10F2C0000243FB4808400243580301400A43DA6105
:10F2D00018680028FCDB7047F44801680029FCDB53
:10F2E000F449016001680029FCDB00214A1E4260EC
:10F2F000491C0829FBD300697047EC4801680029C4
:10F30000FCDBED49016001680029FCDB4069000677
:10F31000000E704770B50E000400FFF7DDFFE74DEB
:10F320000100A868814248D1E54AE04B811A904229
:10F330001AD008DCE34940180ED0E349401810D039
:10F34000012809D10DE009208002081A04D0DF4904
:10F35000401809D0012807D0D8690F210903884334
:10F3600005E0D869DA4901E0D869DA490840D8618E
:10F37000002E22D0022C20D8D869B10201225202DC
:10F3800011430843D86118680028FCDBFFF7A4FF8D
:10F39000A968884211D1012C02D0022C02D003E0CE
:10F3A000CD4900E0CD49196018680028FCDB7D20BC
:10F3B0000003186018680028FCDB70BDBF48C04916
:10F3C0008068421A884219D008DCC549401813D019
:10F3D000C44940180ED0012809D10BE00920800251
:10F3E000101A04D0B949401808D0012806D0982135
:10F3F00001208FE7BC4902E0AC21F9E7AC210220F3
:10F40000F7E7AE48AE498068421A884219D008DC56
:10F41000B349401813D0B34940180ED0012809D180
:10F420000BE009208002101A04D0A849401808D027
:10F43000012806D09C2101206CE7BC2102E0BC2100
:10F44000F9E794210220F7E700B5FFF745FF9B4A53
:10F450009060FFF752FF9168994A8B1A914221D030
:10F4600008DC9F4A891819D09E4A891812D00129B0
:10F4700009D10FE009218902591A04D0934A891849
:10F4800010D001290ED09C2803D09C210120FFF729
:10F4900041FF00BDBC28FCD0BC2106E0BC28F8D050
:10F4A000BC21F3E79428F4D094210220EFE77F4AAF
:10F4B000D06911680029FCDBC021014010231943E9
:10F4C00003071B0F0B430121490201400B437849FD
:10F4D00001400B430121890608400343D36177486B
:10F4E0007F4980684942884201D1804800E08048D5
:10F4F000106010680028FCDB704700B5FFF7D7FFED
:10F500006A48C16970229143C161C16910221143E7
:10F51000C16101680029FCDB00BD00B5FFF7DCFE1E
:10F5200066498860FFF7E9FF72480078C00701D09C
:10F53000032000E00120FFF7BBFE00BD704710B5BF
:10F5400004005E480179AB2911D14079BC280ED165
:10F55000FFF734FF554908680028FCDB2D20000622
:10F5600004430C6008680028FCDBFFF74AFF10BD6D
:10F57000F7B514000D000026002A8AB039D04B4997
:10F5800008680028FCDB601E00274009401C08902A
:10F5900023E025202900000601434448016001685A
:10F5A0000029FCDB002120356A464048836888003A
:10F5B000491C08291350F8D378012030A04203D207
:10F5C0000A988019202202E00A98A21B8019694635
:10F5D000F8F744FC089820367F1CB842D9D8334845
:10F5E0007D210903016000214A1E4260491C08294F
:10F5F000FBD30DB0F0BDF7B5150000268AB0002A88
:10F60000089179D001208004814275D3274C20686D
:10F610000028FCDB2948C2218170FFF7CFFE681E5D
:10F6200000274009401C099069E078012030A84279
:10F6300003D20A98811920220AE00020411E6A465E
:10F640008300401C0828D150FAD30A98AA1B8119BC
:10F650006846F8F703FC1948D123C3700020203610
:10F66000694682008A586260401C0828F9D3134812
:10F670000178A62916D14178B32913D12168002930
:10F68000FCDB8078C2280AD1D12B08D1089801214F
:10F6900089048842ADD30B21890608432060206885
:10F6A0000028FCDB08982030089026E0002080002D
:10F6B00000FCFF0300D0073400D0072330084000CF
:10F6C0001340C800EDBFAEFF001D8FFF0024E8FF10
:10F6D000FF0FDFFFFF0FFEFE00D0076400D00767BB
:10F6E000EDCEE3FF000E5AFF8C08000000D0073675
:10F6F00000D007373800400012E009987F1CB8425C
:10F7000093D8FFF77EFE7D200003206098480021FB
:10F710008170C1700800491E6160401C0828FBD33D
:10F7200067E7944810B501680029FCDBC26990497D
:10F73000914B8968994215D0904C914BA14202D0CF
:10F74000641EA14204D1510149090122120403E0BF
:10F75000510149090122D2041143C16103600168CA
:10F760000029FCDB10BDF8B58F18080A3C0A1E0002
:10F7700000022402A04208D0651A2A001800FFF7F0
:10F78000F7FE21007A1A701900E01800FFF7F0FE6A
:10F790000020F8BDFFB516000B0081B0FFF79CFDFF
:10F7A000734CA168884208D0FFF796FD010075A050
:10F7B00000F0CFFAFF2005B0F0BDA6209F19190A6E
:10F7C0003D0A207009022D02B320A9420BD0190076
:10F7D0006E1A607004983200FFF70DFF049829003C
:10F7E0007A1A801903E06070049832001900FFF75C
:10F7F00002FF002020706070DDE7F0B505000120F9
:10F800000C0016000003814289B027D8002C25D0B7
:10F81000290B09030F183800FFF791FE3005000D82
:10F820003F1819E0202C01DD202600E026000020F2
:10F83000009058483200007A290001ABFFF793FF8F
:10F840000020009053483200007A390001ABFFF7E6
:10F85000A1FFA41BAD19BF19002CE3DC09B0F0BD5A
:10F86000F0B5050001200C0016000003814289B0AC
:10F87000F4D8002CF2D0290B09030F1A3800FFF737
:10F880005EFE3005000D3F18202C01D9202600E037
:10F890002600002000903F483200007A290001AB8A
:10F8A000FFF761FF002000903A483200007A3900EB
:10F8B00001ABFFF76FFFA41BAD19BF19002CE3D1FB
:10F8C000CCE7F8B5080B0F050B0000030121090375
:10F8D000441884460020264E0090AB2015003F0DB2
:10F8E0003071FFF7F9FCB168884201D0FF20F8BD04
:10F8F000002F10D0BC207071009A39006046FFF7CD
:10F900007CFF009A39002000FFF7AAFF01200003C6
:10F91000C01B2D1A00E01C001549BC202F13002627
:10F92000487107E02000FFF70AFE012000032418B9
:10F930002D1A761CBE42F5DB002D13D00C49BC20DD
:10F94000012636034871771B601900223900FFF742
:10F9500087FFA41B2A0039002000FFF74EFF20007C
:10F96000FFF7EDFD02480021017141710800F8BD6B
:10F97000300840000020800013311C001423C20016
:10F9800000D00727666C617368203D2030782578A9
:10F990000D0A0000E80C40000020044902007D230D
:10F9A000DB00401C04C19842FBDB70470040810033
:10F9B00070B504000D000120C005816849084900A8
:10F9C00081600A2181602000303000060222000E92
:10F9D0001100FFF77FFBE000284380210843204906
:10F9E0000860204A1043086008600A68C813024390
:10F9F0000A601D490A6802430A6070BD1848016820
:10FA0000C213114301601949012048807047F8B5BD
:10FA1000164E134C00257580216883221140216009
:10FA20002168C000401D01432160FF272D376D1C58
:10FA30002D042D0CBD4205D80A2000F00DFD708864
:10FA40000028F4D07088012803D160688003000C7E
:10FA500030802068C008C00020603088F8BD0000F9
:10FA60000067800000061200400080003C08400053
:10FA7000704737484168890889004160416803221E
:10FA800011434160334A01681143016070473248B5
:10FA90002F4988607047F8B52D4FBD68FFF789FA88
:10FAA00081200004016B10260904C90F002903D02E
:10FAB000016BB14331430163A80603D52020044301
:10FAC00000F037FAA80504D5012040020443FFF7EF
:10FAD0007AFBA80703D50220044300F0E5F8680785
:10FAE00003D50420044300F0DFF8280703D50820DD
:10FAF000044300F0D9F8E80602D5344300F0D4F806
:10FB0000E80504D5FF2001300443FFF777FFBC6010
:10FB1000F8BD70B50E4E0024B568FFF74AFA280408
:10FB200002D53412FFF726F8680502D501208002BD
:10FB30000443A80504D5012040020443FFF743FB1A
:10FB4000E80703D00120044300F0AEF8B46070BDB4
:10FB50004000800020800000FFFF000030B500283A
:10FB600061D00378052B5ED8C188828891425AD82B
:10FB7000417809078A0F0121012A05D0574A946864
:10FB80000D009D40AC4394600122D205536A047875
:10FB90000D006400A540AB4353624378DB0608D5F3
:10FBA000546A03780D005B005B1C9D402C4354623B
:10FBB00007E0536A04780D006400641CA540AB4361
:10FBC0005362C28883881204D3180278D400444A4E
:10FBD000A418A360136804780F25A400A540AB43C4
:10FBE00045782D072D0FA5402B43136042783D4BE0
:10FBF00094073D4A0BD505788468AD005C511368C5
:10FC00000078052800D10D2081400B430AE00578DB
:10FC10000024AD005C5113680078052800D10D2048
:10FC200081408B43136030BD052806D82C490A68F3
:10FC300083000120984002430A60704705280AD8D3
:10FC40008200012001009140521C90400143244851
:10FC500002688A4302607047052807D820490A686D
:10FC600080000123401C83401A430A607047052826
:10FC700007D81B490A6880000123401C83409A432F
:10FC80000A607047052801D9002070471449C00058
:10FC90004018C0680004000C7047052803D8114ABA
:10FCA0000021800011507047F8B50D4E7568002492
:10FCB00001273800A040284207D00A48A100415837
:10FCC000002902D02006000E8847641C052CF0DBBA
:10FCD0007560706828408006FAD1F8BD0065800024
:10FCE00000618000F40C400040008000704709492A
:10FCF0008860704707484068704706490860704749
:10FD0000044810B5C0680006000E02D00220E2F7D9
:10FD100037FC10BD00E00010C14AC0485178405C7B
:10FD2000491C51707047BF48C0680006000E7047FC
:10FD3000010010B5BB4A002007E09468E40204D536
:10FD4000D360401C0006000E491C0B78002BF4D138
:10FD500010BD0FB410B5B1480299543003AA05F094
:10FD6000F5F80400AD485430FFF7E2FF402C02D90B
:10FD7000ADA0FFF7DDFF200010BC08BC04B01847A1
:10FD80000020704710B5040086B01422AAA168466E
:10FD9000F8F764F822096846A149825CC91C0A7018
:10FDA0002207120F805C487000208870080006B09F
:10FDB00010BD70B50500A5A0FFF7BAFF0424E00050
:10FDC00029000838C1400806000EFFF7DBFFFFF7E7
:10FDD000AFFF641E2406240EF1D19DA0FFF7A8FFFB
:10FDE00070BD7D2101B5C90003E00220401C88429E
:10FDF000FCD30098421E0092F7D208BD012110B535
:10FE0000C905CA6852085200CA60E1210902421AB3
:10FE100088420AD004DC8F49401A06D0401A04E018
:10FE2000501A02D08C49C84201D0892000E010202D
:10FE300001027C481B31016088494160C221016197
:10FE400000218161864AC26186480268864B1A4059
:10FE50000260036803221204134303600368141250
:10FE6000234303604368934343606C4840308160A0
:10FE7000C1607E48016820221143016010BD7047B7
:10FE800010B5684800E0C16881688902C90FFAD1DD
:10FE900062484021F7F7FCFF10BD01207047614820
:10FEA00081690122120491431143816181688903B0
:10FEB000C90FFBD0704759484030C360826070471B
:10FEC000F0B4040055480D0640300CC02D0E5549C5
:10FED000083805E08E68F60202D52678CE60641CEC
:10FEE0002E006D1E2D062D0E002EF3D1002A05D0FA
:10FEF000002101604160F0BC18001047F0BC704761
:10FF000010B5484A06E00378401C9468A403E40F47
:10FF1000FBD0D360491EF6D210BD002801D0404965
:10FF2000C86070473E48C168002901D00021C16007
:10FF30007047F8B53B4D6F696869394C8007C10F50
:10FF400036480026002912D169694906C90F0ED129
:10FF500069690906C90F0AD10CE0EA68A16843186B
:10FF6000491CA1601A70A168402900D1A660A96847
:10FF70008902F2D43E490A780121D307002B29D007
:10FF80006A695206D20F15D00278012A09D1427847
:10FF9000E02A02D18078FC2808D0A068032800D984
:10FFA000A170A078002804D0217003E00220A07086
:10FFB000F7E7A660A07801280AD1A660174940316A
:10FFC0008A68C868002A03D08E60CE6000219047FE
:10FFD000A67016E0900701D5217012E0500721703D
:10FFE00006D5A06801060D48090E04F062FC07E082
:10FFF000E268002A04D0A06801060848090E90476C
:020000040002F8
:10000000A66069693806000E090A090201436961A0
:10001000F8BD044880688003C00F7047080D400099
:100020004008400000638000627566662066756C5B
:100030006C200D0A00000000303132333435363781
:100040003839414243444546000000003078000002
:100050000D0A00008025000000B2F3FF011002002D
:100060000100700000658000FCFFFCFF4000800084
:10007000380040000120C105C86116482D214904FF
:100080000160A521090401601349002048707047F0
:1000900000220121C905CA610E4908602D235B04B5
:1000A000C3180B60A5231B04C01808600A4801216F
:1000B00002704170704708494978012908D12D2103
:1000C0004904421803490A60A522120480180860F6
:1000D000704700000060800050084000704700201A
:1000E000704781210904086B072210430863704799
:1000F00040087638000600167047006870470160B7
:100100007047DF494A6B52005208C00702434A63F6
:10011000704710B5DB4C002305E022000221491C8A
:100120009142FCDB5B1C8342F7DB10BDD648416A81
:100130000122920691434162426AD4494A62026BAB
:1001400001239B039A430263026B0A63026B5B0009
:100150001A430263006B08637047F8B5CB4C8034D8
:100160002069012109050843206120690F21C90187
:1001700008432061216901204004814321612069F5
:10018000C009C00120616069012109030843606161
:100190000A20FFF7BEFF606901214903084360613F
:1001A0000A20FFF7B6FFB84DE96840208143E960B7
:1001B000E868B64FF8600A20FFF7ABFFE8688021D7
:1001C0000843E860E868F8600A20FFF7A2FF60696A
:1001D0000121090408436061C820FFF79AFFAB487A
:1001E00040308068C000C10C7D204002F7F7FAFD66
:1001F000A64EC005C0363168A54A1140316031684D
:10020000C00B014331606420FFF783FF6169012067
:100210000003814361616069012149038843606192
:10022000E96880208143E960E868F8600A20FFF708
:1002300070FFE86840210843E860E868F860616999
:1002400001200004814361612069012149040843C0
:10025000206121690120000581432161306801216D
:1002600008433060C820FFF754FF6420FFF751FFB8
:10027000F8BD00B51420FFF74CFF864A83490A6099
:1002800081480260844A4A604260844A8A6082608F
:10029000834A1278D2071CD0824ACA60C260824A5E
:1002A0000A610261814A4A614261814A8A618261CE
:1002B000804ACA61C261804A0A6202627F4A4A6217
:1002C00042627F4A8A6282627E4ACA62C2627E4A11
:1002D0001CE07E4ACA60C2607D4A0A6102617D4AB2
:1002E0004A614261724A10328A6182617A4ACA6105
:1002F000C2617A4A0A620262794A4A624262794A71
:100300008A628262784ACA62C262784A0A63026377
:10031000774A4A634263774A8A638263764ACA634A
:10032000C2631420FFF7F5FE00BD10B51420FFF7DF
:10033000F0FEFFF79EFF55487049803001604B2169
:10034000490641600F21C906816005214907C16046
:1003500053490A78D10701D0694900E06949016130
:1003600000214161684B8361684BC361684B036244
:10037000684B4362684B83628123DB00C362016385
:10038000664B43638163C1636548D30701D0654B06
:1003900001E0644B5B1C036041608160C1600161EE
:1003A00041618161C161016241622523DB03836296
:1003B0005D4BC362D30701D05C4B01E05B4B1E3346
:1003C000036341638163C1635548012109064030DD
:1003D000016057494160574981605749C160574999
:1003E000016157494161574981615749C161574985
:1003F000016257494162574981625749C162574971
:10040000016357494163574981634916C16356489F
:100410000169030319430161416999434161D007AF
:1004200002D0FFF79AFE10BDFFF780FEC820FFF74D
:1004300070FE10BD4D490C2201624D4941624D498B
:1004400041612C210A544C4981624C4901604C495C
:1004500041604C49C16168E7002104E00222521C5E
:100460000A2AFCDB491C8142F8DB7047002104E0CA
:100470000222521C322AFCDB491C8142F8DB704705
:1004800040008100BC0C0000DC0D40000014800026
:10049000FF00FEFF1032A0C300C1958200AF422FC3
:1004A00038004000629C5C6A335F917F007528468B
:1004B000008CD688E59F80180740B82F083C207034
:1004C00025EC071C0C24DDD308D0008062D41C2A44
:1004D000B75E937F40552848C7BF10000540D02D18
:1004E0000A3C207427EC073C0C26FDD208900080C3
:1004F000233F41845093300078E92631D6BE898E5F
:1005000082001E0082071E000505841000C9080035
:1005100010100101004E103C683D100E44C42C0820
:10052000C01480000000011048103422001CFF019C
:10053000020405070A0C0F12161A1E22262B30354C
:100540003A40454B51575D636970767C83898F963D
:100550009CA2A8AEB4BABFC5CACFD4D9DDE1E5E943
:10056000EDF0F3F5F8FAFBFD40008000FB0002001F
:10057000FF000200DF000200E3000200DD000200D5
:1005800003010200F1000200010009060020090E2B
:1005900010B514290BD024290CD0452904D04729A3
:1005A00001D101F0F5FB10BD00F03FFF10BD00F0E0
:1005B00042FD10BD00F0CAFA10BDF8B57F4E00250F
:1005C000FF27002819D00024182060438719F88AD3
:1005D000FFF7DAFF002802D0416838008847FF2083
:1005E000F8827D60BD60FD81387DE2F756FB641CBA
:1005F0002406240E0A2CE7D3F8BD0024200018217D
:100600004843220081190B320D618A82CF824D60EE
:100610008D60CD818D813550087DE2F7B9FA641C7B
:100620002406240E0A2CE9D3F8BDF3B50500408852
:10063000002681B0FFF7A8FF01000AD06A885F4F4B
:10064000002018234343DB19DB8A934203D142265F
:100650002AE0402628E0401C0006000E0A28F0D3BD
:10066000002418206043C019C08AFF2807D0641CEA
:100670002406240E0A2CF4D30A2C14D014E02800EB
:1006800008300090182060430E68C01907006B788E
:10069000AA88A91DB0470600EED16888F882B98AF9
:1006A00002980180E8E74B263000FEBDF8B5434EC6
:1006B00007000024182060438519E88AFFF764FFCB
:1006C000002803D08268390028009047641C240663
:1006D000240E0A2CEED3F8BDF3B5384E0F000024DB
:1006E00081B0182060438519E88AFFF74DFF002884
:1006F00004D0C3683A00019928009847641C240676
:10070000240E0A2CEDD3FEBD03002C4A002010B5A8
:10071000010018244C43A418E48A9C4204D11820F8
:1007200041438818006910BD491C0906090E0A29B1
:10073000EFD310BD42885004400CD20B01D0090207
:100740000843704702885004400CD20B01D00902C4
:100750000843704730B5020A0406184BFF21240EE7
:10076000002018254543ED18AD8AA54204D1182173
:100770004843C018C18A04E0401C0006000E0A2845
:10078000EFD31002084330BD30B5020A04060B4B0C
:10079000FF21240E002018254543ED18ED8AA542BF
:1007A00004D118214843C018818A04E0401C000687
:1007B000000E0A28EFD31002084330BD1C0E400083
:1007C00000281BD000210122D20591624B49012251
:1007D0000A604B4A4A600278437892069B06920E62
:1007E0001B0D1A438378C078DB06DB0B40071A43E6
:1007F000000B02438A600868C007FCD070473F487E
:10080000016801221143016070473C4801684908B2
:1008100049000160704730B500240125ED05AC6248
:10082000364C002819D0012816D191054909E160FC
:1008300034490B602168C0078907890F000F014305
:100840000520014321602E486060002B04D02E4813
:100850000168C2121143016030BD0029FCD00A7842
:100860004D7889789206AD06920E2D0DC9062A4361
:10087000C90B0A43E260DBE7204801680422114308
:10088000016070471D480168042291430160704770
:10089000002810D00178427889069206890E120D40
:1008A00011438278C078D206D20B40071143000B67
:1008B000014312488160704700280DD00F498968B4
:1008C0008A06920E02700A05920E4270CA03D20E78
:1008D0000903490F8270C17070470A4900200860FF
:1008E000704710B5054C2069C00704D00548006862
:1008F000002800D080470120206110BD00668000E4
:100900007CFF7C005408400040008000FFB50500DB
:100910008BB0149800270078401E012876D801215A
:100920002420E1F72FFF04002421F7F7B1FA1498EF
:1009300000260078E07761E0072069460876149881
:10094000A17F80190700059040780822B04001433C
:10095000A1771499F00041180019001D091DF7F73F
:100960007DFA7878012805D16946087E0821084378
:1009700069460876E07F012805D96946087E10217E
:100980000843694608760C9809A902887000079008
:100990000A520E991E221140AB8A039109A94018F0
:1009A000C34F002269468CC1C249052306AAF1F74C
:1009B00074F807001CD1059A0799527809A8415A82
:1009C000012A01D0012200E00022891A0C9A491D57
:1009D00011800599497801290AD107990923405ABC
:1009E0005B020022801C0004000C1900F1F728FBB8
:1009F0000720761C36066946360E0876149800786D
:100A0000B04205D9002F97D004E0FFE7812706E028
:100A1000002F07D0002C02D02000E1F718FF38008B
:100A20000FB0F0BD68462C61808C0C990880208343
:100A30000E98C00702D00121C90300E000210D98E3
:100A400001432180A88A002160802420E8820120BF
:100A5000E88199481C34AC606860A88AE2F7D4F851
:100A6000DDE770B5056904006869002801D0E1F789
:100A7000EEFE002020612800E1F7E9FE70BD00696C
:100A800000224018427770470069002240184277E0
:100A90007047F8B505000C002420FFF735FEC37F32
:100AA00000210A00AB422FD9018B05270BE0867F7E
:100AB000D640F607F617BE1B7118491E0904521CD2
:100AC000090C1206120EAA42F1D3032C01D2081906
:100AD00016E0032C02D0042C08D014E0807FD04014
:100AE000C00710D0C91C0904090C0DE0012B0AD95C
:100AF000807FD040C007C0170422101A4018401E43
:100B00000104090C00E000210800F8BD70B50C00DC
:100B1000150006000021FFF70DFE02002102C12092
:100B2000092300010831E1F715FF040012202070AD
:100B300002212800FFF7ADFFA0800120E08070199E
:100B4000807E20722000E1F71EFF70BD58482830DB
:100B50007047F8B5040016000D002420FFF7D4FDFF
:100B6000038B01008020002221E09F1CBC4201D8A1
:100B7000E01A15E08B7F3F043F0CD340DB0706D023
:100B80007F1C3F043F0CBC4201D1032008E06346B8
:100B9000012B08D97F1C3F043F0CBC4203D1042029
:100BA00030700020F8BD7F1C3B041B0C521C2A70C7
:100BB000CF7F1206120EBA42BC46F3D29C42D4D268
:100BC000F8BDF8B52420FFF79FFD0400FF2000903A
:100BD0006069092281889202914220D1027B010042
:100BE000009202000E32964622001A32D71C951D42
:100BF0000C3194460FE00E7801239340F65D1E42BF
:100C000007D07346D65C6346D35C9E4201D0097818
:100C100018E0521C2A702A78022AECD31EE0274AD8
:100C200091421BD1210002001D310C32CD1C8C469B
:100C300011E017786346CE5C0123BB401E4208D00A
:100C40003A06120E2000FFF761FF2878401C28703A
:100C5000F8BD491C297029780029EAD08188092229
:100C60009202002591420AD1C288018913480223C9
:100C7000401EE1F76FFE0099017045700AE00F4ACF
:100C8000914209D1C28801890C480123401CE1F737
:100C900061FE0570E1F777FE6069E1F7D8FD00219C
:100CA00020006561FFF746FD0021E1F7ADFFF8BDCB
:100CB0005C5802000F180000C45802000224000013
:100CC000FFB581B003981F000C000226E1F7D1FFA9
:100CD00000282FD12420FFF717FD050020780128D8
:100CE00004D8EBF7D5FB9C49884212D19B48039A64
:100CF00002233900E1F72EFE2178017021780129C5
:100D000001D9402100E089214170E1F73CFE002635
:100D100010E0012603983100E1F776FF6178227830
:100D200028001D3011540C3C6C61002020352870C7
:100D3000FFF747FF300005B0F0BDFFB581B0039865
:100D40001F000D000226E1F794FF002826D1242081
:100D5000FFF7DAFC04002978C07F814212D268785C
:100D600064280FD822001A328854012603983100D3
:100D7000E1F74AFF0C3D6561002020342070FFF749
:100D800020FF0BE07548039A01233900801CE1F72E
:100D9000E1FD81210170E1F7F6FD00263000CAE790
:100DA000FFB583B0002568460571057008881700F7
:100DB0000E006A4601A9FFF7CCFE040068480699B8
:100DC00006233A00E1F7C6FD3188002C018005D1E9
:100DD00069460978032907D0032445800471E1F7A7
:100DE000D2FD002007B0F0BD02214180F6E7FFB53B
:100DF0000F0083B00020694608700871069801AAA8
:100E0000040A3888FFF7A5FE060011D12420FFF759
:100E10007BFCF9790500B87909020843694609792C
:100E2000032904D10121002810D0012816D08026E2
:100E30004B48059A06990423801EE1F78BFD3988FB
:100E400001808670E1F79FFD0020CBE76B461B78A1
:100E50002819427F99408A43427706E06B461B7807
:100E60002A19507F99400843507721002800FFF746
:100E700069FC01003948059A0223C01CE1F76AFDAC
:100E800029190470497F4170E1F77DFDD0E7FFB576
:100E900083B00020694608700871180A029004980F
:100EA0001C00008801AAFFF754FE0600002524203C
:100EB000FFF72AFC0700002E08D1684600790228B7
:100EC00014D0032814D0042814D080262448059A6E
:100ED000AB1D2100001FE1F73DFD04000498002E2A
:100EE000018821802671658006D028E00125EDE784
:100EF0000225EBE70725E9E768460079022804D0D8
:100F0000032808D0042812D019E068460078381861
:100F1000807E607113E00298694609783818407F36
:100F2000C840C107C90F6171090AA17107E068468D
:100F30000078C000C119601D091D01F00BF92000E7
:100F4000E1F721FD00204DE710B50878122801D106
:100F5000FFF737FE002010BDFFFF00000124000056
:100F6000180C000030B503000120002103241A00F2
:100F7000CA40D20704D04D0022006D1CAA40104385
:100F8000491C0906090E0929F1D330BDFFB585B00A
:100F90000E9F040038881D00FFF7E4FF049028002E
:100FA0001E210840A18A4C4A00230191009302921D
:100FB00003904A490698132304AAF0F76EFD060031
:100FC00022D101211420E1F7DDFB20610699098877
:100FD00081813988C181E90701D00121C903079ABC
:100FE00011430180A18A41801421E1820121E18124
:100FF00001001231A1603A49001D6160E1F7F0FF84
:10100000A08A0021E1F700FE300009B0F0BD70B504
:10101000046905006068002805D0201DE2F724F867
:10102000E1F715FCF6E7002028612000E1F70FFC4E
:1010300070BD7047704728489830704730B504003D
:10104000A289E4890920521C13041B0C00222500EC
:10105000D540ED0707D05D1C8D4201D1100030BD99
:101060009B1C1B041B0C521C1206120E092AEED3E9
:1010700030BD10B503008089DB89401C0004000CE2
:1010800000221C00D440E40708D0914203D1401C48
:101090000004000C07E0801C0004000C521C120627
:1010A0001216092AEDDB092A00D1002010BD02002A
:1010B0000020802901D98D207047062A06D0072AF2
:1010C00007D0082AF8D10729F5D170470829F2D1AD
:1010D00070470629EFD37047CC5802000A18000069
:1010E0008C590200FFB50C00142081B0FFF70CFBF7
:1010F00021780700092931D2FFF7BBFF00282BD048
:1011000061782078FFF7D3FF060028D17D680DE0D5
:1011100028792178884208D100222900381DE1F77A
:10112000ADFF2800E1F793FB02E02D68002DEFD121
:10113000607801210830E1F725FB05002078A11C2B
:101140002871607868716278A81DF6F787FE29001B
:10115000381DE1F749FF02E0822600E0812653486E
:10116000039A04990223E1F7F5FB21780170467098
:10117000E1F709FC002005B0F0BDFFB5002081B00B
:10118000009003980E00E1F774FD002802D00128BA
:101190004CD04DE01420FFF7B7FA31880700FFF775
:1011A0004DFF05004248092D36D27C6803E02179C5
:1011B000A94203D02468002CF9D117E0002C15D0E7
:1011C0006379039A04999B1DE1F7C4FB05003088FD
:1011D000A11D288000202871607968806279681DCF
:1011E000F6F73CFE2800E1F7CEFB21E03D740498C1
:1011F000010A38007974FFF7A5FA01002B48039A19
:101200000123401CE1F7A6FB0570E1F7BCFB039846
:101210000121E1F7F9FC0BE0039A04990623E1F7B9
:1012200099FB3188018080210171DCE70220009068
:101230000098A0E7F8B517000D001000E1F719FDC0
:10124000012831D11420FFF75FFA017C0400FFF779
:1012500010FF217C2A7806001548914214D1617C48
:101260006B783A00090208319B1DE1F773FB04001B
:101270000680002020716878A91C60806A78601D53
:10128000F6F7ECFD200009E0617C06233A00090234
:101290000831E1F75FFB802106800171E1F773FB04
:1012A00000213800E1F7B0FC0020F8BD0114000077
:1012B000140C0000FFB50500FF2087B0109F1E0032
:1012C00001211130E1F75EFAFF2104001131F6F738
:1012D000DFFD3F2168460175E01DF930027B7B7818
:1012E0001A4302737878012801D16846017508987D
:1012F000694600885E4A0023088230001E210840AB
:10130000A98A00930292019103905A49062305AAE3
:1013100004A8F0F7C2FB0028009007D0002C02D0F0
:101320002000E1F794FA00980BB0F0BD787801281E
:1013300009D16846008A09214902001D0004000CF9
:101340000022F0F77DFE68462C61008A089908802B
:101350002081F00701D00120C003099908432080B3
:10136000A88A002160804520E8820120FF34E881BE
:1013700041480B34AC606860A88AE1F745FCD2E7CD
:1013800070B5056904006868002801D0E1F75FFACC
:10139000002020612800E1F75AFA70BD00690022A0
:1013A0004018FF300130C2727047006900224018B7
:1013B000FF300130C272704710B504004520FFF7BE
:1013C000A3F90189052C03D208190004000C10BDF3
:1013D000052C08D1FF300130007BC00703D0491D28
:1013E0000804000C10BD002010BD70B50D000021D8
:1013F000FFF7A0F96B780200C12008210001083333
:10140000E1F7A8FA0400122020700420FFF7D4FFAF
:10141000A0806878A91CE08020006A780830F6F780
:101420001DFD2000E1F7AFFA70BD11483030704764
:1014300070B504000D004520FFF766F90289802190
:10144000131D9C4202D8A11A29700021FF300130DF
:10145000007B1A04120CC00707D0521C1004000CA9
:10146000844202D1052000212870080070BD0000D0
:1014700094590200F0FF0000FC59020070B51500FD
:101480000E0002241000E1F7F4FB002810D14520E3
:10149000FFF73AF9040001212800E1F7B5FB31001C
:1014A0002000FFF7A2FF00212800E1F7ADFB002498
:1014B000200070BDFFB581B0002668460670088820
:1014C0000D0017006946FFF7B3FF04006848049950
:1014D00006233A00E1F73EFA2988002C018005D165
:1014E00069460978052907D0032446800471E1F78D
:1014F0004AFA002005B0F0BD02214180F6E7FFB5B1
:101500000C0081B00020694608700498050A208804
:10151000FFF78EFF070013D14520FFF7F5F8E179BB
:101520000600A0790902084369460978052902D016
:10153000022932D003E0002828D001280ED08027CD
:101540004B48039A04990423801EE1F703FA21888B
:1015500001808770E1F717FA0020CBE77019FF30A0
:101560000130C17A01221143C17229003000FFF716
:10157000E9F801003F48039A0223E1F7EBF97119FA
:10158000FF3101310570C97A41701CE07019FF30DC
:101590000130C17A49084900E6E729003000FFF729
:1015A000D1F801003348039A8223401CE1F7D2F9B5
:1015B000A2880600A11DF6F751FC3000803045706E
:1015C000217901703000E1F7DEF9B9E7FFB50F00CE
:1015D00083B00020694608700698000A0190388898
:1015E000FFF726FF050000244520FFF78DF80600D1
:1015F000002D06D168460078042810D0052810D0A8
:1016000080251B48059A0699A31D001FE1F7A2F942
:101610003988002D01800571448004D017E08024B2
:10162000EFE70224EDE769460978042902D005298D
:1016300003D00CE0B17A417109E001997118FF31D2
:101640000131C97ACA07D20F4271120A8271E1F7D9
:101650009AF9002007B0F0BD10B514001000E1F7B2
:1016600008FB410849002000E1F7CEFA002010BD38
:10167000180C000003450000FFB505000020C04322
:1016800085B00E0004901F0001214420E1F77AF894
:101690000400286138001E210840A98AFB4A002363
:1016A0000093029201910390F9490923300004AAA2
:1016B000F0F709FB01000090F6A0FEF74AFB308826
:1016C00020813088093030800098002830D10E9871
:1016D0004078012811D1208907210022801C0004B4
:1016E000000C8902F0F7ACFC208907210022801D44
:1016F0000004000C8902F0F7A3FC208930800E98CA
:10170000417840200155F80701D00120C003079916
:1017100008432080A88A002160804720E8820120B9
:10172000E881E2483C34AC606860A88AE1F76CFA72
:10173000009809B0F0BD70B505690400686800281C
:1017400001D0E1F784F8002020612800E1F77FF85C
:1017500070BD0069002243182033490008185A77E9
:10176000C2877047006900224318203349000818D7
:101770005A77C287704710B5CD4C0100A06910227E
:10178000401CA061000100190E30891CF6F766FBB1
:101790000120207710BD70B50D00BC490400583100
:1017A000C4A0FEF7D6FAC2492804000CC880002263
:1017B0008C804A618A6101224A7770BDF8B5BC4FBE
:1017C00011243800416903003A7F8069A403091994
:1017D0001E3305010024012A02D0022A0DD00AE09E
:1017E000B34E2A0000200094FDF7D4FF7069B46165
:1017F000401970613C770020F8BDAD4E2A000020F2
:101800000094FDF7C7FF7069B4614019002570614D
:10181000AAA0FEF79EFA6D1C0A2DF9DB0A203C7780
:10182000FEF736FCFEE7A24800210222417702774C
:10183000A7480170080070477CB50C00934906006A
:101840008C319CA0FEF785FA4720FEF75DFF05006E
:101850006946A0A0FEF77DFAA18868460170090AD2
:101860004170A1798170E088010A6846C170E18900
:101870000171090A417100212800FEF75BFF020097
:10188000300208300104C120090C12230001E1F7E5
:1018900061F8002817D0122101702989891C8180E4
:1018A00041800A21C18069460988018169464988C9
:1018B0004181218981816189C1816946898801824B
:1018C000E1F761F87CBD87A0FEF743FAFBE7F8B5C6
:1018D00006000C004720FEF717FF05006946200AA6
:1018E0000C70487000212800FEF724FF020030022F
:1018F00008300104C120090C0A230001E1F72AF88D
:10190000122101702989891D81800221C1806946C7
:1019100009880181E1F737F8F8BDF7B55B49140094
:10192000783188B063A0FEF714FA6079217900025B
:10193000014368468180E079A57900020543684645
:10194000C580607A227AE37A00020243A07A1B0201
:101950001843070417430297E07BA67B0002064367
:101960006846C6816BA0FEF7F4F929006EA0FEF769
:10197000F0F9390071A0FEF7ECF9310074A0FEF720
:10198000E8F979490298794C01270025884230D13D
:1019900077A06770FEF7DDF97A491022002004ABCA
:1019A0000095FDF7E0FE6846C18B77A0FEF7D1F900
:1019B00006997BA0FEF7CDF96846818A7DA0FEF7E7
:1019C000C8F96846C08881087FA0A180FEF7C1F9E8
:1019D0006846818A808881424DD0A08879038842F8
:1019E00049D8002847D06846C08B864243D127702B
:1019F00004E17A49884228D10220607078A0FEF77D
:101A0000A8F97D491022002004AB0095FDF7ABFE3C
:101A1000069963A0FEF79DF96846818A65A0FEF7E6
:101A200098F96846C088810867A0A180FEF791F9FF
:101A30006846C189C08B81421DD0A0881F21490200
:101A4000884218D80028D2D115E065704D4910227F
:101A5000002004AB0095FDF786FE6846C18B4AA0C6
:101A6000FEF777F906994EA0FEF773F96846818A6A
:101A700050A0FEF76EF92078012806D0089804A936
:101A8000FFF7DAFE00200BB0F0BDB7E0045A020009
:101A9000C0FF00006372656174655F6462207374E7
:101AA00061747573203D2025780D0A00D45A020018
:101AB0000C0F400025730D0A000000007761697467
:101AC00020666F722072657365742121210D0A00F2
:101AD000310040006E6F746920203D2030782578F9
:101AE0000D0A00004B455F4D53475F414C4C4F433F
:101AF0005F44594E2047415454435F53454E445F21
:101B00004556545F434D4420203D3D204E554C4C9E
:101B1000200D0A0072784864722E766572203D208E
:101B20002578200D0A00000072784864722E6C65DA
:101B30006E203D202578200D0A0000007278486450
:101B4000722E756964203D202578200D0A00000062
:101B500072784864722E726F6D5F766572203D20D8
:101B60002578200D0A0000004242424258084000F9
:101B70006170702070617274207570677261646545
:101B80000D0A000010000200496D674864722E7251
:101B90006F6D5F766572203D202578200D0A00006C
:101BA000496D674864722E756964203D2025782050
:101BB0000D0A0000496D674864722E766572203DFB
:101BC000202578200D0A00006F6164426C6B546F11
:101BD00074203D202578200D0A00000053535353F4
:101BE00061707020616E6420737461636B20757026
:101BF00067726164650D0A00E02000006548658039
:101C000007700C216846257001800E214180FF215C
:101C10002D318580C18000F002FC08980021FFF77B
:101C200056FE2FE7F3B548780F785B4D0C000002A5
:101C3000074389B079D16978012905D002293BD0C1
:101C400056A0FEF786F86EE000205C49102201AB3A
:101C50000090FDF788FDE079A679617C00020643DB
:101C6000207C090208430690E17AA07A627B09028F
:101C70000843217B1202114309040143721C684688
:101C800002810020E8804EA0FEF763F80096AB8842
:101C90006A8800214DA0FEF75CF868460189320091
:101CA00057A0FEF756F8688800283CD16846418A5C
:101CB0000698814237D139E000205849102201AB03
:101CC0000090FDF750FDE079A679617C00020643A3
:101CD000207C090208430690E17AA07A627B09021F
:101CE0000843217B1202114309040143701C6A4618
:101CF00010810020E88032A0FEF72BF80096AB8818
:101D00006A88002131A0FEF724F86A461189320062
:101D10003BA0FEF71EF86888002804D16846418A77
:101D20000698814202D10320ADE608E0A888810030
:101D300030001039FFF72FFD2000FFF71CFD6988E8
:101D4000B94217D1002911D0E888401CE880200052
:101D5000FFF711FDA888E988401E814206D130A016
:101D6000FDF7F7FF69880998FFF7B1FD6888401C07
:101D7000688002E00998FFF7AAFD6888A988884270
:101D800004D12BA0FDF7E5FFFFF74DFD00207AE61B
:101D90002B48704731004000580840006F6164498B
:101DA0006D67426C6F636B57726974653A20554E6C
:101DB0004B4E4F574E205549440D0A00100002006B
:101DC000756964203D2025780D0A0000626C6B4E19
:101DD000756D203D202578202C6F6164426C6B4E20
:101DE000756D2025782C6F6164426C6B546F742084
:101DF00025782C766572202578200D0A00000000D9
:101E0000496D674864722E766572203D2025782CD6
:101E100020766572203D2025780D0A00E020000024
:101E20006C61737420626C6F636B200D0A0000009C
:101E300075706461746520646F776E210D0A00000F
:101E40004C5A0200F8B50C00A0491E001700A0A0D3
:101E5000FDF77FFF3800E0F70CFF4720FEF754FC4A
:101E600005002078012804D8EAF712FB9A49884235
:101E700012D19A4802233A003100E0F76BFD217835
:101E800001702178012901D9402100E089214170A8
:101E9000E0F779FD0020F8BDA17823782A003D32D3
:101EA00099542278A1880C3C52005219D187012004
:101EB00000216C6040356970F8BD10B588A0FDF751
:101EC00037FF022010BD814910B5183180A0FDF701
:101ED00040FF022010BDFFB5002081B00700009038
:101EE00003981D000C001E0AE0F7C3FE002805D071
:101EF0000398E0F7BEFE012871D074E04720FEF79A
:101F000003FC00280CD0E279A1791202114340228F
:101F1000125CD2072AD0002906D0012904D025E07E
:101F200077A0FDF716FFFBE7028923889446D21CB1
:101F300093420ED1012906D0811920314A7F5208DF
:101F400052004A7712E0811920314A7F01231A4357
:101F5000F7E76246D21D934208D12A0A52000129AE
:101F600019D01118CA8F52085200CA8701892288D5
:101F70008B1C9A4214D10A3019210600F5F788FF0C
:101F8000A288A11D3000F5F769FFA188320000206A
:101F9000FFF7C3FC15E01118CA8F01231A43E4E7C9
:101FA000891D8A420DD1233019210600F5F770FFF3
:101FB000A288A11D3000F5F751FF31000020FFF786
:101FC00031FE5448039A04232900E0F7C3FC21881A
:101FD000018000998170E0F7D6FC04E0FFE74EA095
:101FE000FDF7B7FE0227380005B0F0BDFFB50026AB
:101FF0003700472085B0FEF787FB05000024142139
:102000006846F5F745FF0798E0F733FE002805D04E
:102010000798E0F72EFE01284ED051E0069801887F
:102020002889C21C914204D10224220029003D319A
:1020300016E0C21D914204D10224220029003E3143
:102040000EE0821C914204D11924220029000A3199
:1020500006E0821D914207D1192422002900233174
:102060006846F5F7FBFE11E0021D914203D10D24F5
:1020700022002CA105E00830814206D10A2422006A
:102080002CA16846F5F7EAFE00E006262148079AEB
:102090000899A31D801EE0F75DFC05004480220026
:1020A000401D6946F5F7DAFE06980088288028006A
:1020B0002E71E0F768FC03E021A0FDF74AFE02273D
:1020C000380009B0F0BD002070470000DC5A020063
:1020D0002573200D0A000000FFFF000001470000EB
:1020E0006F6164735F666663315F7570645F7265AC
:1020F000715F68616E646C6572200D0A00000000FB
:102100006F6164735F656E76203D3D206E756C6C0B
:102110000D0A0000160C00004F4144535F42555316
:10212000590D0A00496D67204964656E74696679C6
:1021300000000000496D6720426C6F636B00000077
:102140006F616473204F4144535F42555359200DD2
:102150000A0000000A7902704A7942700B88837085
:102160001B0AC3708A79027149884171090A817119
:1021700070470A880270120A42708A788270CA78A0
:10218000C2700A7902714A79427189798171072096
:102190007047437802781B021A430A8082788A705B
:1021A000C278CA7002790A7142794A71807988715D
:1021B00007207047F8B5102069460870AD484021E7
:1021C000F5F766FEAC490520E0F7E2FC00210520AA
:1021D000E0F71AFDA74AA120183216006946E0F779
:1021E00059F800280FD0A34D0024F5F725FE291932
:1021F000641C2406240E102C0876F6D3320010211D
:10220000A120E0F796F800F06FFA00F081F900F0F5
:1022100043FBF8BD10B5974C0020E178032908D0A6
:1022200088009549103108588047E078401CE070DC
:10223000012010BD8F4810B58078022305220102CD
:102240008E480A31E0F786FB0121017013214170AD
:10225000E0F799FB10BDF0B505208BB0E0F709FD64
:1022600002287DD18548522305220921F738E0F75D
:1022700071FB040000206070072020722021A180E3
:10228000E1800D20207001261F21250022006672AA
:1022900020350C32E172E9721700511E0B20DFF776
:1022A000F9FF002818D00220207304206673A07361
:1022B000607A012802D0022804D101E0062000E063
:1022C0000520A0730320E072F81C04226CA1F5F72E
:1022D000C5FDE07A001DE072E07A1D21081A0606AD
:1022E000360E022E2FD9F82069460871022003AA63
:1022F00001A9DFF7CFFF002806D008226846027147
:1023000061A103A8F5F7AAFD6846007900281AD054
:10231000B04200D2060069460E71E07A761C0921AF
:10232000C655E27A20000D301154E17A401C08189D
:1023300069460A7903A9F5F791FD69460879E27AB9
:10234000801C1018E07222002C321600511E0C2046
:10235000DFF7A0FF00280BD00020E872300000E07B
:1023600018E00D224BA1F5F779FDE87A0D30E872FF
:102370002000E0F708FB4BA0FDF7EBFC5048FDF711
:1023800087FE03210520E0F73FFC4E480A22052185
:10239000E0F71CFD0BB0F0BD10B50520E0F769FCBF
:1023A000032810D102210520E0F72EFC4648012326
:1023B00005220921E0F7CEFA02210170E0F7E3FAE5
:1023C00042490120087010BDFFB507001D000E0036
:1023D000052081B0E0F74DFC03281ED11F2E1CD82C
:1023E0001F2D1AD838484123052209210B30E0F768
:1023F000B1FA0400102020702120667005553200CB
:102400003900A01CF5F72AFD200003992A0022308C
:10241000F5F724FD2000E0F7B6FA05B0F0BDF8B5F9
:10242000050014480E2380780522010213480A3162
:102430000A30E0F78FFA0400092020702988244E22
:1024400024A061806A88A280AB88E380ED88258122
:102450006681A6810095FDF77CFC2000E0F793FAE9
:10246000F8BD10B5034C6279A11DF5F7F7FC607952
:1024700010BD0000CC0F4000105B0200040E0000F5
:1024800003034C00000000004C494E5A454A4945A0
:10249000000000000C084C494E5A454A49450000CE
:1024A000000000006170706D2073746172742061AF
:1024B00064766572746973696E670D0A00000000C6
:1024C000FF3F0000060F0000030D00005008400011
:1024D000FFFF0000696E74765F6D696E203D2025F8
:1024E000642C696E74765F6D6178203D2025642CC4
:1024F0006C6174656E6379203D2025642C74696D70
:10250000655F6F7574203D2025640D0A0000000092
:1025100030480021017064214170704710B52E4889
:102520001C2305220921E0F715FA1B210170002167
:10253000242241704280052282800122C1800272E1
:102540004272E0F720FA10BD10B504002148047073
:102550002420FEF719F90100092004230522800236
:10256000E0F7F8F900210470417032218170E0F742
:102570000AFA10BD10B504002420FEF705F9010089
:10258000164802230522E0F7E5F9002101704470A6
:10259000E0F7F9F910BD10B511A0FDF7DAFB002046
:1025A00010BD10B517A0FDF7D4FB002010BD10B56D
:1025B0001AA0FDF7CEFB002010BD10B51DA0FDF741
:1025C000C8FB002010BD10B521A0FDF7C2FB002004
:1025D00010BD0000600840001B0D00000224000038
:1025E000626173735F626174745F6C6576656C5F62
:1025F0006E74665F6366675F696E645F68616E6470
:102600006C657200626174745F6C6576656C5F7591
:1026100070645F68616E646C657200006261737300
:102620005F656E61626C655F7273705F68616E6436
:102630006C6572006170705F626174745F6D736766
:102640005F64666C745F68616E646C657200000044
:10265000626173735F626174745F6C6576656C5FF1
:102660007570645F68616E646C657200F8B50E0029
:1026700009781800002425000B00F5F74AEC09063C
:10268000091215181B0C1E0F2000092421A516E0A5
:102690000A2423A513E0082424A510E0072426A576
:1026A0000DE00A2426A50AE0052428A507E0052454
:1026B00028A504E0052429A501E0062429A5010098
:1026C0002A48A31CE0F746F907003078002C387040
:1026D0007C7004D022002900B81CF5F7BFFB38003D
:1026E000E0F751F90020F8BD704710B520480A23E3
:1026F00005220921E0F72EF91B2101700021142287
:1027000041704280052282801A4AC1800281E0F72E
:102710003AF910BD42454B454E205341530000004D
:10272000424B2D424C452D312E300000123456FFC5
:10273000FE9ABCDE00000000025E044000000300C0
:10274000312E302E302E302D4C450000312E302EC3
:1027500030000000362E312E32000000362E332E8F
:1027600030000000FFEEDDCCBBAA00000314000027
:102770001B0D0000FF0100003A480021017041706C
:10278000704710B538480A2305220921E0F7E2F81E
:102790001B21017000214522417042800522828068
:1027A0000122C1804272E0F7EEF810BD70B506005C
:1027B0000D004520FDF7E8FF01002C48822305228B
:1027C000E0F7C8F8040045702A003100801CF5F7D6
:1027D00045FB2000E0F7D7F870BD70B50C004978D4
:1027E000150023A0FDF7B5FA61782048001D0029E7
:1027F00005D032222900E0F7E9FA002070BD290057
:10280000E0F72EFBF9E700B50878A1B0002808D161
:10281000542280216846F5F733FB01216846FFF713
:10282000C5FF002021B000BD10B5174917A0FDF766
:1028300090FA002010BD080010B5803100230978FF
:102840001A00FDF73DFB002010BD00B51148A1B0F6
:10285000FEF732F8892280216846F5F711FB002047
:10286000E0E70000620840001B0D00000145000089
:10287000706172616D2D3E6E74665F636667203DA8
:102880002025780D0A0000009C5B020025730D0ACC
:1028900000000000121040004E48002101707047F7
:1028A00010B54DA0FDF755FA50480A23052209211D
:1028B000E0F750F804001B202070002147206170D1
:1028C00060800520A080E180012102006172092161
:1028D00047A0FDF73EFA2000E0F755F810BD10B50F
:1028E00004003C4804704720FDF74EFF01004720DC
:1028F000062305220002E0F72DF800210470418034
:102900008180E0F740F810BD0020704770B50400EA
:1029100040491D00160040A0FDF71BFA2B003200B5
:1029200021003FA0FDF715FA002070BD10B50C0086
:10293000384939A01A31FDF70CFA6178A21C002041
:10294000FEF7EBFF002010BD324910B5363132A042
:10295000FDF7FFF9002010BD2E4910B552312EA011
:10296000FDF7F7F94720FDF70FFF010037481B235C
:102970000522DFF7EFFF1421417064218170E0F739
:1029800002F810BD234910B5633123A0FDF7E1F92A
:102990004720FDF7F9FE01002C481B230522001DEE
:1029A000DFF7D8FF1421417032218170DFF7EBFF90
:1029B00010BD184910B5743117A0FDF7CAF90020F1
:1029C00010BD144910B58E3113A0FDF7C2F90020D7
:1029D00010BD0000640840006170705F6F61645F4B
:1029E0006164645F6F6164730D0A00001B0D000079
:1029F0006170705F6F61645F6164645F6F61647375
:102A00002064203D2025782C73203D2025780D0A58
:102A100000000000F05B020025730D0A00000000BA
:102A20006D73676964203D203078253034782C64DC
:102A30006573746964203D20307825782C73726347
:102A40006964203D20307825780D0A000447000095
:102A5000FEB515000C000179E74E17E00768CA00C3
:102A6000083ABA1884CA00926A4601971288A242AC
:102A700001D0B24207D1019E052229002000B047B3
:102A80000006000EFEBD491E0906090E0029E5D10B
:102A90000020FEBD10B5D948012305220921DFF72A
:102AA00059FF01210170DFF76EFF002010BD10B546
:102AB0004A780C000978D2A0FDF74BF920780E284F
:102AC00042D008DC01280DD0032836D00C283BD09A
:102AD0000D2842D138E00F2836D0102834D01B28DA
:102AE0003BD125E06078002837D1C4483023052247
:102AF0000921801CDFF72EFF0400032020700A202C
:102B000060701B206084FF204930A0848320E08413
:102B10000120E0762000C74910220A30F5F79EF91F
:102B2000C44900201839C8702000DFF72CFF14E0DA
:102B3000FFF770FB00280AD00FE001210520E0F725
:102B400063F8FFF767FB08E06078452805D10221AC
:102B50000520E0F759F8FFF77EFB002010BD70B5A7
:102B60000C000978B4481D00002904D001290FD0B9
:102B7000022917D118E01C232900DFF7EBFE05001E
:102B800020782870281DFFF76CFC6880280007E07B
:102B90000A232900DFF7DEFE217801700021418041
:102BA000DFF7F1FE002070BD0A232900DFF7D2FE17
:102BB00021780170082141800A218180B421C180DF
:102BC0004B21C9000181EBE710B518000C00010092
:102BD00099480223801CDFF7BDFE4821417021780F
:102BE0000170DFF7D0FE002010BD70B50E009349D4
:102BF0001C00150092A0FDF7ACF8200A8D4C183C83
:102C0000FF28A07022D031882C23052221800102C8
:102C100089480A310938DFF79DFE002228210A542D
:102C2000DFF7B1FE2078FFF78FFC04212800DFF7E3
:102C3000EBFF814864220521F630E0F7C7F87E48B3
:102C400064220521FB30E0F7C1F801E0FFF703FB48
:102C5000002070BD10B50C0009787BA0FDF779F855
:102C60002078092806D00A2812D00B2817D00C2863
:102C70001DD106E06078002801D07DA015E083A07A
:102C800013E06078002801D087A00EE08DA00CE052
:102C90006078002801D092A007E096A005E0607857
:102CA000002801D098A000E09EA0FDF752F8002077
:102CB00010BD10B58978A2A0FDF74BF802210520C0
:102CC000DFF7A2FFA64901200870FFF7C4FA002031
:102CD00010BD10B51000DFF7CCFF002010BD574924
:102CE00010B5203156A0FDF734F8002010BD30B4E7
:102CF0000A000100040A0020242C11D007DC0C2C4F
:102D000010D00E2C0ED0142C0CD1964804E0452C7B
:102D100004D0472C06D1944830BC99E69348FBE791
:102D20009348F9E730BC70471CB592A0FDF711F845
:102D300014216846018028214180002181804B2197
:102D4000C900C180FFF76BFB00201CBD10B50C0053
:102D50003A4990A03931FCF7FCFFA1888FA0FCF71D
:102D6000F8FFE18893A0FCF7F4FF218896A0FCF718
:102D7000F0FF61889AA0FCF7ECFF002010BD10B5B1
:102D80000C002E4983A05631FCF7E3FF218899A05F
:102D9000FCF7DFFF61889CA0FCF7DBFFA1889FA008
:102DA000FCF7D7FF002010BD10B50C00234979A017
:102DB0007531FCF7CEFF628821889CA0FCF7C9FF23
:102DC000002010BD70B51D491C001500933171A085
:102DD000FCF7BFFFE12006232A0021000001DFF7F6
:102DE000B9FD05498180418001210170DFF7CBFDEC
:102DF000002070BD00207047FFFF0000020D0000A2
:102E0000706172616D2D3E6F7065726174696F6E75
:102E1000203D20307825782C20706172616D2D3E28
:102E2000737461747573203D2030782578200D0A05
:102E300000000000E40F40000B0E0000205D0200C7
:102E400025730D0A00000000676170635F636D7099
:102E50005F6576745F68616E646C6572206F706523
:102E6000726174696F6E203D2025780D0A000000A4
:102E70006761706320757064617465207061726150
:102E80006D73206661696C20210D0A0067617063B3
:102E90002075706461746520706172616D73206F5C
:102EA0006B20210D0A000000676170632073656369
:102EB000757269747920726571206661696C202170
:102EC0000D0A000067617063207365637572697431
:102ED0007920726571206F6B20210D0A00000000BF
:102EE0006761706320626F6E64206661696C202187
:102EF0000D0A00006761706320626F6E64206F6B63
:102F000020210D0A000000006761706320656E6378
:102F100072797074207374617274206661696C20B8
:102F2000210D0A006761706320656E6372797074A9
:102F3000207374617274206F6B20210D0A000000F1
:102F4000646973636F6E6E656374206C696E6B2069
:102F5000726561736F6E203D20307825780D0A0010
:102F600050084000645B0200E85B0200945B0200D2
:102F7000545B0200736C6176652073656E6420702B
:102F80006172616D5F7570646174655F7265710D0A
:102F90000A0000002573200D0A000000316D6178E1
:102FA0005F72785F6F6374657473203D2025640DD4
:102FB0000A000000316D61785F72785F74696D6539
:102FC000203D2025640D0A00316D61785F74785FC3
:102FD0006F6374657473203D2025640D0A00000042
:102FE000316D61785F74785F74696D65203D20256F
:102FF000640D0A00636F6E5F696E74657276616C52
:10300000203D2025640D0A00636F6E5F6C6174655E
:103010006E6379203D2025640D0A00007375705F92
:10302000746F203D2025640D0A000000696E642D38
:103030003E6D7475203D2025642C736571203D2004
:1030400025640D0A000000003FB41C4B01005868C5
:10305000AA22027042708170694649790A220024CE
:1030600001716946097941716946497A81716946F8
:10307000097AC1716946497B01726946097B4172CF
:103080006946497E81726946097EC1726946497FF7
:1030900001736946097F41730E21C2700022855C6D
:1030A000521C12062C192406240E120E8A42F6D344
:1030B00044541A6804B030BC491C104768084000EA
:1030C00086B000246846112104734173611E018299
:1030D0006421418203A8FCF741FD0020FCF7A4FD18
:1030E00001210800FCF764FCF4F702EFF4F708EFA5
:1030F000022201211320FBF7EDFF02220121122001
:10310000FBF7E8FF002211000520FBF7E3FF012198
:103110001320FCF735F801211220FCF731F80021CB
:103120000520FCF72DF81221684681721E2141729C
:1031300003210472C17202A8FDF742FBFDF75FFB99
:103140000820FCF764FC05240520FCF70BF8002898
:1031500005D001211320FCF713F8012104E0002120
:103160001320FCF70DF800211220FCF709F802A843
:10317000FDF7A2FB6846C07A019400906846037A86
:10318000427A817AF120FFF75FFFDDE70248C168EC
:1031900008225140C160704700658000724810B538
:1031A0000C210160017141710172C1718171417223
:1031B000801DFDF705FBFDF722FB10BD10B50400D7
:1031C00080070CD164212000F4F70CFE002908D1FF
:1031D000FF2191312000F4F705FE002901D00020E5
:1031E00010BD012010BD70B50D0016006421F4F76C
:1031F000F9FD0006000E0C00132802D964342406E1
:10320000240EA00800190721F4F7ECFD574889198E
:1032100040192038C07F4018A10702D1032D00D2E9
:10322000401E0721F4F7DEFD080070BD70B54E4C5E
:10323000059E049D2060217162712372E571A67163
:10324000FFF7D1FF6072A01DFDF7BAFA002070BD34
:10325000F8B5454CA01DFDF72FFB454D607A297848
:10326000884233D028706C68FF27641C414E6E374B
:103270006C600FE03000FFF7A1FF002807D0FF20AF
:103280006F30844201D3241A03E0761C04E0FF3C33
:103290006E3C761CBC42EDD2334F6C603E60002623
:1032A0000DE03868FFF78AFF002801D0012E0FD00B
:1032B0002E480C30805DA04203D8241A761C1C2CAA
:1032C000EFD2761C6C60641C3E717C710020F8BDEE
:1032D0001D2CF6D31D3CF1E77047F8B52349244C6B
:1032E000091F0968002000911F4902004D7A6946B4
:1032F0000834CD70910061580B78012B1BD14B79AC
:103300009D4218D16B469E780B799E420DD89E4205
:1033100011D16E467678CF78BE4206D8BE420AD129
:103320006E4636788F78BE4205D96E46B370CB783C
:10333000737089783170521C1206120E052AD9D387
:1033400069468978FF290ED069464978FF290AD055
:1033500069460978FF2906D00022074B100069460C
:10336000FDF759FA0120F8BD0C104000DC5D0200A9
:1033700070084000DA070000D932020070B58CB046
:1033800004001E236A4602A900F07CFD002801907B
:1033900071D16846007826183D4C002568460570B6
:1033A000684600788000215802A800F0E9FC002857
:1033B00007D069460878401C0006000E07280870F0
:1033C000EED368460078334C0300F4F7A2ED07050E
:1033D000053A5A605F5E54002FA0FCF7BAFC2FA09C
:1033E000FCF7B7FC3DA0FCF7B4FC4CA0FCF7B1FC2B
:1033F0005AA0FCF7AEFC69A0FCF7ABFC77A0FCF789
:10340000A8FC84A0FCF7A5FC89A0FCF7A2FC8EA078
:10341000FCF79FFC92A0FCF79CFC97A0FCF799FCA2
:103420009CA0FCF796FCA2A0FCF793FCAEA0FCF7D6
:1034300090FCBBA0FCF78DFCC6A0FCF78AFCD2A0D8
:103440001AE015A0FCF785FCDFA0FCF782FC6846BB
:1034500005700AE02168C000001D0958EAA0FCF7C9
:1034600078FC69460878401C08706846217D007821
:103470008142EFD851E252E2FCF76BFC00200CB025
:1034800070BD05A0FCF765FCC2E124E202E2E1E1C7
:10349000AC084000180940000D0A00002D2D2D2D0C
:1034A0002D2D2D2D2D2D2D2D2D2D2D2D2D2D2D2D4C
:1034B0002D2D2D2D55534D4152542056332E312D47
:1034C0002D2D2D2D2D2D2D2D2D2D2D2D2D2D2D2D2C
:1034D0002D2D2D2D2D2D2D200D0A000020202020FA
:1034E00055534D415254CAC7D3C9414C49454E5416
:1034F000454BBFAAB7A2B5C4D2BBB8F6C1E9C7C98C
:10350000B5C4B4AEBFDAB5F7CAD4BBA5BDBBD7E965
:10351000BCFE2CCDA8B9FD200D0A0000CBFC2CC4AC
:10352000E3BFC9D2D4CDA8B9FDB4AEBFDAD6FACACA
:10353000D6B5F7D3C3B3CCD0F2C0EFC3E6B5C4C899
:10354000CEBACEBAAFCAFD2CB2A2D6B4D0D02ED24B
:10355000F2B4CB2CC4E3BFC90D0A0000D2D4CBE631
:10356000D2E2B8FCB8C4BAAFCAFDB5C4CAE4C8EB6D
:10357000B2CECAFD28D6A7B3D6CAFDD7D6283130D9
:103580002F3136BDF8D6C629A1A2D7D6B7FBB4AE27
:10359000A1A2BAAFCAFDC8EB0D0A0000BFDAB5D8C8
:1035A000D6B7B5C8D7F7CEAAB2CECAFD292CB5A5D5
:1035B000B8F6BAAFCAFDD7EEB6E0D6A7B3D631306B
:1035C000B8F6CAE4C8EBB2CECAFD2CB2A2D6A7B3F5
:1035D000D6BAAFCAFDB7B5200D0A0000BBD8D6B524
:1035E000CFD4CABE2ED0C2D4F6B2CECAFDCFD4CA72
:1035F000BEBDF8D6C6C9E8D6C3B9A6C4DC2CD0C2B5
:10360000D4F6BDF8D6C6D7AABBBBB9A6C4DC2E0D6E
:103610000A000000BCBCCAF5D6A7B3D63A777777C4
:103620002E6F70656E6564762E636F6D0D0A0000F7
:1036300055534D415254D3D037B8F6CFB5CDB3C35F
:10364000FCC1EE3A0D0A00003F3A20202020202045
:10365000BBF1C8A1B0EFD6FAD0C5CFA20D0A0000C9
:1036600068656C703A202020BBF1C8A1B0EFD6FA93
:10367000D0C5CFA20D0A00006C6973743A202020D7
:10368000BFC9D3C3B5C4BAAFCAFDC1D0B1ED0D0A2D
:103690000A00000069643A2020202020BFC9D3C35B
:1036A000BAAFCAFDB5C44944C1D0B1ED0D0A0A0094
:1036B0006865783A20202020B2CECAFD3136BDF8A8
:1036C000D6C6CFD4CABE2CBAF3B8FABFD5B8F12B40
:1036D000CAFDD7D6BCB4D6B4D0D0BDF8D6C6D7AA0A
:1036E000BBBB0D0A0A0000006465633A202020205D
:1036F000B2CECAFD3130BDF8D6C6CFD4CABE2CBAC0
:10370000F3B8FABFD5B8F12BCAFDD7D6BCB4D6B43E
:10371000D0D0BDF8D6C6D7AABBBB0D0A0A000000A0
:1037200072756E74696D653A312CBFAAC6F4BAAF72
:10373000CAFDD4CBD0D0BCC6CAB13B302CB9D8B1AD
:10374000D5BAAFCAFDD4CBD0D0BCC6CAB13B0D0AE6
:103750000A000000C7EBB0B4D5D5B3CCD0F2B1E0CD
:10376000D0B4B8F1CABDCAE4C8EBBAAFCAFDC3FB56
:10377000BCB0B2CECAFDB2A2D2D4BBD8B3B5BCFCE9
:10378000BDE1CAF82E0D0A002D2D2D2D2D2D2D2D2C
:103790002D2D2D2D2D2D2D2D2D2D2D2D2D2D2D2D59
:1037A0002D2D414C49454E54454B2D2D2D2D2D2D64
:1037B0002D2D2D2D2D2D2D2D2D2D2D2D2D2D2D2D39
:1037C0002D2D2D200D0A00002D2D2D2D2D2D2D2DD3
:1037D0002D2D2D2D2D2D2D2D2D2D2D2D2D2D2D2D19
:1037E0002DBAAFCAFDC7E5B5A52D2D2D2D2D2D2D3B
:1037F0002D2D2D2D2D2D2D2D2D2D2D2D2D2D2D2DF9
:103800002D2D2D2D200D0A0025730D0A000000001E
:10381000F5A0FCF79EFA6846057015E02168C00027
:10382000001D08580BAB0AAA02A900F04CFB694620
:1038300009782068C900425802A9FBA0FCF789FA60
:1038400069460878401C08706846217D00788142EE
:10385000E4D862E0F9A0FCF77CFA30006A4602A9DD
:1038600000F0F9FB68460078002848D101A902A8B9
:1038700000F0B2FA69460028087002D004283ED150
:1038800002E00199EEA01EE0F0A0FCF762FA012030
:10389000E07542E0E9A0FCF75CFA30006A4602A954
:1038A00000F0D9FB68460078002828D101A902A8B9
:1038B00000F092FA69460028087002D004281ED150
:1038C00004E00199E6A0FCF744FA26E0E7A0FCF743
:1038D00040FAE57521E0D9A0FCF73BFA30006A46D2
:1038E00002A900F0B8FB68460078002807D101A9BA
:1038F00002A800F071FA69460028087001D0022081
:10390000BDE50198DE490006000E0028087201D0CE
:10391000DCA000E0E2A0FCF71CFAC8A0ACE50120A6
:10392000ADE5D74900204039C8647047D4484038D5
:10393000C06C704770477047E0490120C8757047F8
:1039400030B595B0050013AB6A4603A900F0BBFA89
:10395000002823D16946D94C087114E02168C000C1
:10396000001D085813AB02AA0BA900F0ACFA0028FE
:1039700014D103A90BA800F003FA002810D069465F
:103980000879401C08716846217D00798142E5D89C
:103990006946207D097988420DD1042015B030BDDB
:1039A0006846017A0078814201D90220F6E768462C
:1039B0000079A075ECE7280001A900F0B4FB00280D
:1039C000ECD16846007960750020E7E7F0B5BB4CA4
:1039D0000025A07D217D9BB081427FD92168C60052
:1039E000301D085811AB10AA12A900F06CFA12A9E8
:1039F000B3A0FCF7AEF9002739E00121A069B94076
:103A000008421AD02221B0A0FCF7A3F9380000F038
:103A100079FB800001192831ACA0FCF79AF922212A
:103A2000A9A0FCF796F9380000F06CFB80000019A3
:103A3000BA00283006A988500EE0380000F062FB7A
:103A400080000019816ABA0006A88150E07D002834
:103A500023D09FA0FCF77DF910A80078401E874274
:103A600002D09DA0FCF775F97F1C3F063F0E10A801
:103A700000788742C1D399A0FCF76BF9804F0020F2
:103A8000403FF864607D0300F4F742EA0B090D2A19
:103A900030363C444E58626E120091A0DAE720683E
:103AA0008059804703E020688159069888470500BF
:103AB00010A80079012865D08AA0FCF74AF970485F
:103AC000007A00280AD0F86C0A21F4F78BF90A0072
:103AD000010000E002E084A0FCF73BF91BB0F0BD60
:103AE00020680799825906989047E0E7206806AD5C
:103AF000835907CD9847DAE72068855906A80FC88B
:103B0000A847D4E70A9800902068855906A80FC8EE
:103B1000A847CCE70B990A98019100902068855935
:103B200006A80FC8A847C2E70AAB07CB6B4607C376
:103B30002068855906A80FC8A847B8E70AAD0FCD79
:103B40006D460FC52068855906A80FC8A847AEE77F
:103B50000BAD0FCD01AD0FC50A98009020688559B7
:103B600006A80FC8A847A2E70CAD0FCD02AD0FC540
:103B70000B990A98019100902068855906A80FC8F2
:103B8000A84794E7E07D002804D029005EA0FCF758
:103B9000E0F894E729005FA0F9E7F8B55F4D2868E1
:103BA00001041AD500065E49000E444F00260E544B
:103BB000B9685B488847040010D05948FFF7DEFB1E
:103BC000012801D004000AD0012C09D0022C08D011
:103BD000032C07D0042C02D1ADE0B0E0A2E0ADE0B0
:103BE000A3E0A4E0A5E000002D2D2D2D2D2D2D2DE1
:103BF0002D2D2D2D2D2D2D2D2D2D2D2D2D2D2D2DF5
:103C00002DBAAFCAFD204944202D2D2D2D2D2D2D4F
:103C10002D2D2D2D2D2D2D2D2D2D2D2D2D2D2D2DD4
:103C20002D2D2D2D200D0A00257320696420697328
:103C30003A0D0A3058253038580D0A000D0A000098
:103C40004845583A305825580D0A00003136BDF81D
:103C5000D6C6B2CECAFDCFD4CABE210D0A0000001E
:103C60004445433A256C750D0A0000003130BDF81B
:103C7000D6C6B2CECAFDCFD4CABE210D0A000000FE
:103C8000580C400052756E2054696D652043616C7C
:103C900063756C6174696F6E204F4E0D0A000000F1
:103CA00052756E2054696D652043616C63756C615B
:103CB00074696F6E204F46460D0A000018094000D7
:103CC0000D0A2573280000002563000025730000FD
