:020000040001F9
:10E2000018F09FE518F09FE518F09FE518F09FE5DE
:10E2100018F09FE518F09FE518F09FE518F09FE5CE
:10E2200084E2010040E2010044E2010048E2010012
:10E230004CE2010054E2010050E2010058E201000A
:10E24000820000EA830000EA840000EA850000EA18
:10E25000B20000EA850000EAA80000EAC809400010
:10E260001C0400000CB74000200000001CBC400053
:10E27000F00100002CB74000F00400000CBE40008C
:10E28000F0010000DF00A0E300F021E130001FE515
:10E2900030101FE5003081E00040A0E103D0A0E194
:10E2A00084219FE5030054E104208434FCFFFF3AFD
:10E2B000D700A0E300F021E15C001FE55C101FE542
:10E2C000003081E00040A0E103D0A0E158219FE5AB
:10E2D000030054E104208434FCFFFF3ADB00A0E398
:10E2E00000F021E188001FE588101FE5003081E083
:10E2F0000040A0E103D0A0E12C219FE5030054E100
:10E3000004208434FCFFFF3AD200A0E300F021E1B6
:10E31000AC001FE5AC101FE5003081E00040A0E13B
:10E3200003D0A0E104219FE5030054E104208434DC
:10E33000FCFFFF3AD100A0E300F021E1C8001FE597
:10E34000C8101FE5003081E00040A0E103D0A0E14B
:10E35000DC209FE5030054E104208434FCFFFF3AF5
:10E360000080A0E30090A0E300A0A0E300B0A0E341
:10E3700000C0A0E3D300A0E300F021E110011FE5FD
:10E3800010111FE5003081E00040A0E103D0A0E1C2
:10E39000A0209FE5030054E104208434FCFFFF3AF1
:10E3A0000E0000EB170000EB0000A0E30010A0E35C
:10E3B0000020A0E30030A0E30040A0E30050A0E371
:10E3C0000060A0E30070A0E30080A0E30090A0E361
:10E3D00000A0A0E300B0A0E300C0A0E3250000EA95
:10E3E00054009FE554109FE554209FE50130A0E1C3
:10E3F000023083E0030051E1044090340440813452
:10E40000FBFFFF3A1EFF2FE138009FE538109FE524
:10E41000003081E00040A0E10020A0E3030054E1CF
:10E4200004208434FCFFFF3A1EFF2FE1AAAAAAAA07
:10E43000CCCCCCCCDDDDDDDDBBBBBBBB605B02008F
:10E4400000084000C8010000C80940001C0400008A
:10E4500004F01FE59D21000004F01FE59F2100004E
:10E4600004F01FE5A121000004F01FE5A321000036
:10E4700004F01FE5A521000004F01FE5C7E6010038
:10E48000000000000000000000000000000000008C
:10E49000000000000000000000000000000000007C
:10E4A000000000000000000000000000000000006C
:10E4B000000000000000000000000000000000005C
:10E4C000000000000000000000000000000000004C
:10E4D000000000000000000000000000000000003C
:10E4E000000000000000000000000000000000002C
:10E4F000000000000000000000000000000000001C
:10E500000F502DE9690500FB0F50BDE804F05EE2F5
:10E5100000000000000000000000000000000000FB
:10E520000F502DE9420500FB0F50BDE804F05EE2FC
:10E5300008B500920B000200B749B8A001F0D3FB68
:10E5400008BD1CB501930B00B349009202000B31CA
:10E55000BBA001F0C8FB1CBD1CB501930B00AE496C
:10E56000009202001831B6A001F0BDFB1CBD0B00EB
:10E57000A949020010B52431BEA001F0B4FB10BDC2
:10E5800010B504000100C7A001F0ADFBF9F79CEC49
:10E59000F9F7A4EC01F04DFCC648844206D0C64809
:10E5A000844203D00A2001F003FDFEE710BD1CB534
:10E5B000C2490622684600F09FFF68460078FF289F
:10E5C00013D168464078FF280FD168468078FF282D
:10E5D0000BD16846C078FF2807D168460079FF282C
:10E5E00003D168464079FF2804D0B5480622694621
:10E5F000F9F734FC1CBD00F09BFBFCE7B14E00F0CA
:10E6000097FB05F047F9F9F760EC0500F9F766ECC0
:10E61000040003F079F83078012801D101F0BAFC48
:10E6200000F0A3FB810706D500F083FC002804D18D
:10E6300000F085FC03E0C00701D000F0ACFC00F066
:10E64000C1F8002D01D1F9F754EC002CD7D1F9F71E
:10E6500058ECD4E79C4801780170704710B59B488E
:10E660004C21F9F715FC9A49984801609949416095
:10E67000994981609949C16099490161994941610C
:10E68000994981619949C1619949016299494162F8
:10E69000994981629949C1629949016399494163E4
:10E6A000994981639949C163994941649949816450
:10E6B00010BD994999480160994941609949816023
:10E6C0009949C160704700B501208FB0F9F7BDFBD3
:10E6D000FFF7C0FF00F0FEFB01F022F901F0D0FAD5
:10E6E000FFF7E7FF01F095F9E120400201F050FB50
:10E6F0008E4801F0DCFB02220121132000F0AEFC69
:10E7000002220121122000F0A9FC0121132000F0B7
:10E71000FBFC0121122000F0F7FC8548E3F730FDF7
:10E7200000F056FEFFF743FF82481422089082480B
:10E7300009A9099081480A906846F9F78FFB05A856
:10E740000FC8E3F782FD6148FFF788FF002000F063
:10E7500074FA00F0C9FB00F0A4FE0222012113208C
:10E7600000F07CFC7648016802121143016003212D
:10E770004160F9F7BEEBF9F7C4EB53480078C107E5
:10E7800005D070A001F0AFFA00F0D2FAFCE78107E3
:10E7900006D571A001F0A7FA05F040FC0FB000BD4E
:10E7A000400702D505F0FCFEF8E770A001F09BFAE7
:10E7B000FFF724FF01000020002901D0022900D129
:10E7C000564870476E4810B5006800686D49884229
:10E7D00003D06DA001F076FAFBE777480068006887
:10E7E0007649884203D076A001F06CFAFBE78048B6
:10E7F000006800687F49884203D07FA001F062FA78
:10E80000FBE78948006800688849884203D088A0EF
:10E8100001F058FAFBE710BD1A55020025732C636E
:10E820006F6E646974696F6E2025732C66696C6500
:10E830002025732C6C696E65203D2025640D0A002F
:10E8400025732C706172616D30203D2025642C7021
:10E850006172616D31203D2025642C66696C6520F4
:10E860003D2025732C6C696E65203D2025640D0AC2
:10E870000000000025732C64617461203D20256434
:10E880002C6C656E677468203D2025642C66696C6D
:10E8900065203D2025732C6C696E65203D20256424
:10E8A0000D0A00006572726F72203D2025780D0AF6
:10E8B00000000000C3C3C3C3A5A5A5A5E3000400D1
:10E8C000240040005008400038004000640140002F
:10E8D00075060200A9060200DB040200CD05020055
:10E8E000F90502004B0502007DEA0100F1EC010090
:10E8F00041ED010013EE01008BEE010061EE01001D
:10E900006DEE010081E5010031E5010043E5010004
:10E91000ADFC010015FE01004BFE0100C8094000DE
:10E9200055FE010013FE01002FFE0100FF3E020014
:10E93000E7FC0100EFF601001DF701004BF80100B4
:10E9400040008000445554204D6F6465205374612D
:10E9500072740D0A00000000464343204D6F646549
:10E960002053746172740D0A000000004E4F524D26
:10E97000414C204D6F64652053746172740D0A0020
:10E9800064E20100AAAAAAAA537461636B5F496E8C
:10E99000746567726974795F436865636B2053546B
:10E9A00041434B5F424153455F554E5553454420CB
:10E9B0006661696C210D0A0074E20100BBBBBBBB40
:10E9C000537461636B5F496E746567726974795FD4
:10E9D000436865636B20535441434B5F4241534549
:10E9E0005F535643206661696C210D0A00000000E8
:10E9F0007CE20100DDDDDDDD537461636B5F496E38
:10EA0000746567726974795F436865636B205354FA
:10EA100041434B5F424153455F464951206661691E
:10EA20006C210D0A000000006CE20100CCCCCCCCC3
:10EA3000537461636B5F496E746567726974795F63
:10EA4000436865636B20535441434B5F42415345D8
:10EA50005F495251206661696C210D0A0000000077
:10EA600010B50020F3F77FFB0020EFF7A4F800209B
:10EA7000F6F74BF90020F7F74AFF10BD10B501205B
:10EA8000F3F771FB0120EFF796F80120F6F73DF957
:10EA90000120F7F73CFF10BD10B5E4F787FB00201D
:10EAA000E7F750FFE4F748FC0020EBF7BCF9EBF781
:10EAB0004EFA10BD70B5F9F708EA0500F9F70EEA4D
:10EAC00004000120C00781210904C861C869C00F82
:10EAD000FCD1C8690A6A496A10180818F9F7B5F92B
:10EAE000E7F7DAFF0120E7F72DFFE4F75FFC0120ED
:10EAF000EBF799F9E4F75AFB002D01D1F9F7F8E9A2
:10EB0000002C01D1F9F7FCE970BD414800680028EC
:10EB100001D000207047012070473D49012009685D
:10EB2000002908D13A498968002904D1384909697E
:10EB3000002900D1002070470822C2700422827090
:10EB40000B22427000220270812000044268120EE3
:10EB5000CA704268120C8A704268120A4A70406891
:10EB60000870704770B5022681252D042C69002C91
:10EB70004DD0600703D50420A86100F03EF9E007FE
:10EB800005D00120A86100F059F9EDF70EF9200633
:10EB900003D58020A861EDF708F920070CD50820DF
:10EBA000A861A00702D50220A861B4430020E9F7BC
:10EBB0002BFE184801F00FFAE0050AD5FF200130BE
:10EBC000A861A00702D50220A861B4430120E9F79B
:10EBD0001BFEA00703D50220A861E9F730FEA005BF
:10EBE00004D501204002A861EDF749F9600603D57C
:10EBF0004020A861E9F703FEE00603D51020A861D4
:10EC0000E8F746FBA006B1D52020A861AEE770BDAD
:10EC1000F8044000FF3F00000121C90781200004E3
:10EC2000C161C169C90FFCD1006AFF21D531884299
:10EC300001D301207047002070473EB5002001211C
:10EC4000C9058861994D012469460C702860686087
:10EC5000A860E860E3F742FC57229549D200002003
:10EC6000E3F7F6FC9349A2020120E3F7F1FC5722F7
:10EC7000914912010220E3F7EBFC03228F49520273
:10EC80000320E3F7E5FC8E4801F04BFB0220FFF781
:10EC900091FD01008B4A0020F8F769FFF7F79DFE10
:10ECA000F9F739F8FFF7DCFEFFF7F6FE0020ECF786
:10ECB000C6FE112001AA6946E3F7ECFA002810D13C
:10ECC0006846007900280CD0122002AA69466C73AD
:10ECD000E3F7E0FA002804D16846007A002800D063
:10ECE000AC736C731020AC73287303F009FA3EBD4B
:10ECF00070B5F9F7EAE80500F9F7F0E80400E3F782
:10ED000003FCF7F77BFEFFF7D5FE0120ECF797FE3B
:10ED10006B4800688047002D01D1F9F7EAE8002C24
:10ED200001D1F9F7EEE870BD10B5FFF705FF10BD92
:10ED30005E4810B5807AC00701D1E3F774FC10BDBE
:10ED400070B50500F9F7C0E80600F9F7C8E8040057
:10ED5000564841892943002E418101D1F9F7C8E87D
:10ED6000002C01D1F9F7CCE870BD38B55648002524
:10ED70000090E3F7E9FB00283BD04C4C0125607B79
:10ED8000002836D06089002833D1A07B002802D12A
:10ED90007D20C0010090FFF73FFF0028FBD0217BC2
:10EDA0006846E4F7AEF8002823D0FFF7AEFE00284F
:10EDB00021D0217B6846EDF75CF9002819D0F8F7DF
:10EDC0003DFF002817D001F0B5F8002813D00098B7
:10EDD0006421C002F9F706F8A17B401EEAF71EFD88
:10EDE00001204002FFF7ACFF3548806A80470220CF
:10EDF0000543280038BD0025FBE710B50120FFF7CB
:10EE00009FFFEAF72BFDF8F70CFF304801F0E3F81D
:10EE100010BD70B50500F9F758E80600F9F75EE88F
:10EE2000040022484189A943002E418101D1F9F70C
:10EE300060E8002C01D1F9F764E870BD1B4810B5FB
:10EE4000807AC0070BD0EAF717FD0220E3F798FBA2
:10EE50000120FFF7DEFF01204002FFF7DAFF10BDBF
:10EE600010B51B49C003F8F7BDFF10BD10B5FFF783
:10EE7000F7FF0E49086010BD0C48408970470B48E9
:10EE8000407B70470948807B7047084B10B5596834
:10EE900002028918C20012188A18510A4C02121B69
:10EEA0005A601E225043401810BD0000D80940008F
:10EEB00000508100C4528100D05681004C5C81001A
:10EEC000300140004408400080BB0000FF3F0000CC
:10EED00040420F0058480121017058490978C9077C
:10EEE00001D00021017070475548C168FF2212040B
:10EEF0009143C160C168152212041143C160C16809
:10EF0000090C0904C160C168FF2210321143C160BD
:10EF10004C4A41048A63FF22FA320A60C269022322
:10EF20009A43C26100204860486B40221043486306
:10EF30007047454840787047434948707047424899
:10EF400010B5012101703E48C26990231A43C26185
:10EF5000FF23F93342041360C36902242343C361CE
:10EF6000C3690B43C361C36908242343C361C369F5
:10EF700004242343C361516010BD33480178012943
:10EF800008D1002101702E499020C861FF20FA307D
:10EF90004904086070470120C10548607047F0B51A
:10EFA0002749CA6902239A43CA61284A284C294D35
:10EFB00000264904012810D0244B274F4033022853
:10EFC00011D0042603280ED0042805D162626A629B
:10EFD0004E60FF20FC300860F0BD62626A624E60E5
:10EFE000FF20FA30F7E763626B624E600F60F0BD9E
:10EFF000C9010143164880300161416903221203AF
:10F0000011434161FEE7134910B50A691049803187
:10F010000B6901242405A3430B618B051A430C4B98
:10F020001A610A69C0010F23DB019A430A610A6968
:10F0300002430A6110BD0000320040003800400069
:10F040004000800071070000000840000A3C207466
:10F0500000148000040B4000FB050000F7B5020916
:10F060009700704AD259166896466E4A1432D259A1
:10F0700015680207120F012394461C0008329440C1
:10F08000624693401A04012914D0002916D003299E
:10F0900017D09E4334431100294305072D0F01204B
:10F0A000A840029B0006002B10D0012B12D0022B8F
:10F0B00015D112E03343A3431C0004E033431C4347
:10F0C000E9E733431C4329009143E6E722438243A7
:10F0D000140004E09443044301E0944384437046E5
:10F0E000046050481430C0590160FEBD0109020798
:10F0F00088004C49120F1431085800680004000EB3
:10F10000D040C007C00F704702099300454A10B5B0
:10F110001432D458226800070123000F83400029CD
:10F1200001D01A4300E09A43226010BD704710B529
:10F1300004000121FFF7E8FF00212000FFF7E4FFB2
:10F1400010BD002802D03749091F086070473648B3
:10F1500000218160491E0161344801688213914396
:10F1600001603048001F0068002800D00047704749
:10F1700000B5002202212020FFF770FF00220221AB
:10F180002020FFF76BFF002202212020FFF766FFFF
:10F19000002202212020FFF761FF0022022120200F
:10F1A000FFF75CFF00BD20484038026820490A6034
:10F1B00082684A6002698A608269CA60026A0A617A
:10F1C000426814310A60C2684A6042698A60C26952
:10F1D000CA60426A0A611749016041608160C1608A
:10F1E000016141618161C161016241627047104901
:10F1F0000D480A68403802604A6882608A68026185
:10F20000CA68826109690162094914310A68426069
:10F210004A68C2608A684261CA68C261096941621B
:10F22000704770470808400040658000400080003B
:10F23000E8094000FFFF0000FE4BD969FF22F132D0
:10F240000A400243981308400243FB480840024327
:10F25000580301400A43DA6118680028FCDB704754
:10F26000F44801680029FCDBF449016001680029C9
:10F27000FCDB00214A1E4260491C0829FBD30069BF
:10F280007047EC4801680029FCDBED49016001682A
:10F290000029FCDB40690006000E704770B50E00C7
:10F2A0000400FFF7DDFFE74D0100A868814248D167
:10F2B000E54AE04B811A90421AD008DCE349401835
:10F2C0000ED0E349401810D0012809D10DE00920E3
:10F2D0008002081A04D0DF49401809D0012807D05D
:10F2E000D8690F210903884305E0D869DA4901E0AC
:10F2F000D869DA490840D861002E22D0022C20D8E3
:10F30000D869B1020122520211430843D86118683A
:10F310000028FCDBFFF7A4FFA968884211D1012C6B
:10F3200002D0022C02D003E0CD4900E0CD491960A3
:10F3300018680028FCDB7D2000031860186800288E
:10F34000FCDB70BDBF48C0498068421A884219D0B2
:10F3500008DCC549401813D0C44940180ED0012814
:10F3600009D10BE009208002101A04D0B9494018D5
:10F3700008D0012806D0982101208FE7BC4902E07F
:10F38000AC21F9E7AC210220F7E7AE48AE4980682E
:10F39000421A884219D008DCB349401813D0B34947
:10F3A00040180ED0012809D10BE009208002101A64
:10F3B00004D0A849401808D0012806D09C2101207B
:10F3C0006CE7BC2102E0BC21F9E794210220F7E7B9
:10F3D00000B5FFF745FF9B4A9060FFF752FF916829
:10F3E000994A8B1A914221D008DC9F4A891819D07A
:10F3F0009E4A891812D0012909D10FE009218902FA
:10F40000591A04D0934A891810D001290ED09C288B
:10F4100003D09C210120FFF741FF00BDBC28FCD098
:10F42000BC2106E0BC28F8D0BC21F3E79428F4D036
:10F4300094210220EFE77F4AD06911680029FCDBA4
:10F44000C02101401023194303071B0F0B43012167
:10F45000490201400B43784901400B4301218906D1
:10F4600008400343D36177487F4980684942884216
:10F4700001D1804800E08048106010680028FCDB63
:10F48000704700B5FFF7D7FF6A48C1697022914302
:10F49000C161C16910221143C16101680029FCDB0F
:10F4A00000BD00B5FFF7DCFE66498860FFF7E9FFA5
:10F4B00072480078C00701D0032000E00120FFF768
:10F4C000BBFE00BD704710B504005E480179AB2952
:10F4D00011D14079BC280ED1FFF734FF5549086897
:10F4E0000028FCDB2D20000604430C60086800287F
:10F4F000FCDBFFF74AFF10BDF7B514000D00002636
:10F50000002A8AB039D04B4908680028FCDB601E0D
:10F5100000274009401C089023E025202900000610
:10F5200001434448016001680029FCDB00212035CB
:10F530006A46404883688800491C08291350F8D35C
:10F5400078012030A04203D20A988019202202E0DC
:10F550000A98A21B80196946F8F780FC08982036A3
:10F560007F1CB842D9D833487D21090301600021AE
:10F570004A1E4260491C0829FBD30DB0F0BDF7B507
:10F58000150000268AB0002A089179D00120800455
:10F59000814275D3274C20680028FCDB2948C22112
:10F5A0008170FFF7CFFE681E00274009401C0990BC
:10F5B00069E078012030A84203D20A9881192022FC
:10F5C0000AE00020411E6A468300401C0828D150F2
:10F5D000FAD30A98AA1B81196846F8F73FFC194824
:10F5E000D123C37000202036694682008A586260A9
:10F5F000401C0828F9D313480178A62916D1417870
:10F60000B32913D121680029FCDB8078C2280AD1F4
:10F61000D12B08D10898012189048842ADD30B2150
:10F6200089060843206020680028FCDB0898203009
:10F63000089026E00020800000FCFF0300D0073483
:10F6400000D00723300840001340C800EDBFAEFFD4
:10F65000001D8FFF0024E8FFFF0FDFFFFF0FFEFEFE
:10F6600000D0076400D00767EDCEE3FF000E5AFF1D
:10F670008C08000000D0073600D007373800400063
:10F6800012E009987F1CB84293D8FFF77EFE7D20D8
:10F6900000032060984800218170C1700800491E55
:10F6A0006160401C0828FBD367E7944810B50168E7
:10F6B0000029FCDBC2699049914B8968994215D0B9
:10F6C000904C914BA14202D0641EA14204D1510141
:10F6D00049090122120403E0510149090122D2041F
:10F6E0001143C161036001680029FCDB10BDF8B55E
:10F6F0008F18080A3C0A1E0000022402A04208D00B
:10F70000651A2A001800FFF7F7FE21007A1A70190F
:10F7100000E01800FFF7F0FE0020F8BDFFB516006E
:10F720000B0081B0FFF79CFD734CA168884208D0A4
:10F73000FFF796FD010075A000F0D5FAFF2005B097
:10F74000F0BDA6209F19190A3D0A207009022D025A
:10F75000B320A9420BD019006E1A607004983200D1
:10F76000FFF70DFF049829007A1A801903E06070F2
:10F77000049832001900FFF702FF0020207060702B
:10F78000DDE7F0B5050001200C0016000003814202
:10F7900089B027D8002C25D0290B09030F18380071
:10F7A000FFF791FE3005000D3F1819E0202C01DD18
:10F7B000202600E026000020009058483200007A01
:10F7C000290001ABFFF793FF00200090534832005F
:10F7D000007A390001ABFFF7A1FFA41BAD19BF19D7
:10F7E000002CE3DC09B0F0BDF0B5050001200C00F1
:10F7F00016000003814289B0F4D8002CF2D0290B06
:10F8000009030F1A3800FFF75EFE3005000D3F18A0
:10F81000202C01D9202600E02600002000903F483F
:10F820003200007A290001ABFFF761FF0020009051
:10F830003A483200007A390001ABFFF76FFFA41B92
:10F84000AD19BF19002CE3D1CCE7F8B5080B0F05B3
:10F850000B00000301210903441884460020264EB2
:10F860000090AB2015003F0D3071FFF7F9FCB16837
:10F87000884201D0FF20F8BD002F10D0BC2070714D
:10F88000009A39006046FFF77CFF009A390020009B
:10F89000FFF7AAFF01200003C01B2D1A00E01C0087
:10F8A0001549BC202F130026487107E02000FFF700
:10F8B0000AFE0120000324182D1A761CBE42F5DB37
:10F8C000002D13D00C49BC20012636034871771B4C
:10F8D000601900223900FFF787FFA41B2A003900B6
:10F8E0002000FFF74EFF2000FFF7EDFD024800214A
:10F8F000017141710800F8BD30084000002080000F
:10F9000013311C001423C20000D00727666C6173FA
:10F9100068203D20307825780D0A0000100A40004C
:10F920000020044902007D23DB00401C04C19842F2
:10F93000FBDB70470040810070B504000D00012022
:10F94000C00581684908490081600A218160200062
:10F95000303000060222000E1100FFF77FFBE000AE
:10F9600028438021084321490860214A1043086048
:10F9700008600A68C81302430A601E490A68024305
:10F980000A6070BD19480168C213114301601A4929
:10F99000012048807047F8B5174E144C002575803B
:10F9A00021688322114021602168C000001D0143AD
:10F9B0002160FF272D376D1C2D042D0CBD4205D86D
:10F9C0000A2000F0C0FC70880028F4D0708801285C
:10F9D00006D160688003010C08A0318000F083F933
:10F9E0002068C008C00020603088F8BD0067800033
:10F9F00000061200400080003C084000675F616420
:10FA0000635F76616C75653D25780D0A0000000026
:10FA10007047344841688908890041604168032281
:10FA200011434160304A01681143016070472F481B
:10FA30002C4988607047F8B52A4FBD68FFF79DFADA
:10FA400081200004016B10260904C90F002903D08E
:10FA5000016BB14331430163A80603D52020044361
:10FA600000F031FAA80504D5012040020443FFF755
:10FA70006EFBA80703D50220044300F0DFF86807F7
:10FA800003D50420044300F0D9F8280703D5082043
:10FA9000044300F0D3F8E80602D5344300F0CEF872
:10FAA000E80504D5FF2001300443FFF76BFFBC607D
:10FAB000F8BD70B50B4EB568FFF75FFA280403D5A3
:10FAC00030120443FFF74EF8680502D5012080028A
:10FAD0000443E80703D00120044300F0AFF8B4600A
:10FAE00070BD00004000800020800000FFFF00008B
:10FAF00030B5002861D00378052B5ED8C188828894
:10FB000091425AD8417809078A0F0121012A05D06C
:10FB1000574A94680D009D40AC4394600122D20581
:10FB2000536A04780D006400A540AB4353624378E8
:10FB3000DB0608D5546A03780D005B005B1C9D4012
:10FB40002C43546207E0536A04780D006400641C7F
:10FB5000A540AB435362C28883881204D31802784D
:10FB6000D400444AA418A360136804780F25A400A5
:10FB7000A540AB4345782D072D0FA5402B431360BF
:10FB800042783D4B94073D4A0BD505788468AD001B
:10FB90005C5113680078052800D10D2081400B438B
:10FBA0000AE005780024AD005C5113680078052850
:10FBB00000D10D2081408B43136030BD052806D84D
:10FBC0002C490A6883000120984002430A6070476C
:10FBD00005280AD88200012001009140521C904063
:10FBE0000143244802688A4302607047052807D809
:10FBF00020490A6880000123401C83401A430A60A0
:10FC00007047052807D81B490A6880000123401C5B
:10FC100083409A430A607047052801D90020704745
:10FC20001449C0004018C0680004000C7047052843
:10FC300003D8114A0021800011507047F8B50D4ECD
:10FC40007568002401273800A040284207D00A48E0
:10FC5000A1004158002902D02006000E8847641CEC
:10FC6000052CF0DB7560706828408006FAD1F8BD7D
:10FC700000658000006180001C0A40004000800098
:10FC800070470949886070470748406870470649CF
:10FC900008607047044810B5C0680006000E02D026
:10FCA0000220E2F76DFC10BD00E00010A54AA44858
:10FCB0001178405C491C11707047A348C068000669
:10FCC000000E7047010010B59F4A002007E09468BD
:10FCD000E40204D5D360401C0006000E491C0B78DA
:10FCE000002BF4D110BD0FB410B5954802995430D3
:10FCF00003AA04F0A1FF040091485430FFF7E2FF8B
:10FD0000402C02D991A0FFF7DDFF200010BC08BCF9
:10FD100004B018470020704710B5040086B01422C4
:10FD20008EA16846F8F79AF8220968468549825CF0
:10FD3000491C0A702207120F805C487000208870EE
:10FD4000080006B010BD70B5050089A0FFF7BAFF26
:10FD50000424E00029000838C1400806000EFFF71F
:10FD6000DBFFFFF7AFFF641E2406240EF1D181A054
:10FD7000FFF7A8FF70BD7D2101B5C90003E0022097
:10FD8000401C8842FCD30098421E0092F7D208BD66
:10FD9000012110B5C905CA6852085200CA60E121A4
:10FDA0000902421A88420AD004DC7349401A06D07C
:10FDB000401A04E0501A02D07049C84201D089208C
:10FDC00000E01020010260481B3101606C49416075
:10FDD000C2210161002181616A4AC2616A480268E8
:10FDE0006A4B1A4002600368032212041343036043
:10FDF00003681412234303604368934343605048ED
:10FE000040308160C1606248016820221143016076
:10FE100010BD704710B54C4800E0C1688168890288
:10FE2000C90FFAD146484021F8F732F810BD012039
:10FE30007047454881690122120491431143816151
:10FE400081688903C90FFBD070473D484030C360CB
:10FE500082607047F0B4040039480D0640300CC091
:10FE60002D0E3949083805E08E68F60202D526784D
:10FE7000CE60641C2E006D1E2D062D0E002EF3D1BB
:10FE8000002A05D0002101604160F0BC1800104735
:10FE9000F0BC704710B52C4A06E00378401C94680B
:10FEA000A403E40FFBD0D360491EF6D210BD002896
:10FEB00001D024498860704722488168002901D018
:10FEC000002181607047F8B51F4C666960691D4D5F
:10FED0008007C00F0027002807D160694006C00FC7
:10FEE00003D160690006C00F0ED0154BA0688002D8
:10FEF0000AD5E16868681A18401C68601170686863
:10FF00004028F3D16F60F1E71F48C16804225140D7
:10FF1000C160AA68002A04D0686801060848090E72
:10FF200090476F6061693006000E090A09020143BB
:10FF30006161F8BD044880688003C00F704700000D
:10FF4000300A400044084000006380006275666625
:10FF50002066756C6C200D0A0000000030313233D1
:10FF600034353637383941424344454600000000B5
:10FF7000307800000D0A00008025000000B2F3FF79
:10FF8000011002000100700000658000FCFFFCFF12
:10FF9000400080000120C105C86116482D21490498
:10FFA0000160A521090401601349002048707047D1
:10FFB00000220121C905CA610E4908602D235B0496
:10FFC000C3180B60A5231B04C01808600A48012150
:10FFD00002704170704708494978012908D12D21E4
:10FFE0004904421803490A60A522120480180860D7
:10FFF00070470000006080005008400070470020FB
:020000040002F8
:10000000704781210904086B072210430863704779
:100010004008763800060016704700687047016097
:100020007047DF494A6B52005208C00702434A63D7
:10003000704710B5DB4C002305E022000221491C6B
:100040009142FCDB5B1C8342F7DB10BDF8B5D64C5C
:100050002069012109050843206120690F21C90198
:100060000843206121690120400481432161206906
:10007000C009C00120616069012109030843606172
:100080000A20FFF7D6FF6069012149030843606138
:100090000A20FFF7CEFFC54DE96840208143E960A3
:1000A000E868C14F803FF8600A20FFF7C2FFE868A8
:1000B00080210843E860E868F8600A20FFF7B9FF8C
:1000C00060690121090408436061C820FFF7B1FF9E
:1000D000B54840388068C000C10C7D204002F7F769
:1000E00081FEB14EC00540363168B14A11403160E1
:1000F0003168C00B014331606420FFF79AFF6169EA
:100100000120000381436161606901214903884343
:100110006061E96880208143E960E868F8600A204E
:10012000FFF787FFE86840210843E860E868F86067
:100130006169012000048143616120690121490452
:100140000843206121690120000581432161306855
:10015000012108433060C820FFF76BFF6420FFF7E0
:1001600068FFF8BD00B51420FFF763FF8E49914A80
:1001700080390A608D4802608F4A4A6042608F4A27
:100180008A6082608E4A1278D2071CD08D4ACA607B
:10019000C2608D4A0A6102618C4A4A6142618C4A9E
:1001A0008A6182618B4ACA61C2618B4A0A620262B9
:1001B0008A4A4A6242628A4A8A628262894ACA6278
:1001C000C262894A1CE0894ACA60C260884A0A61E0
:1001D0000261884A4A6142617D4A10328A618261C5
:1001E000854ACA61C261854A0A620262844A4A62D9
:1001F0004262844A8A628262834ACA62C262834AD3
:100200000A630263824A4A634263824A8A63826360
:10021000814ACA63C2631420FFF70BFF00BD10B50B
:100220001420FFF706FFFFF79DFF7C495E48016041
:100230004B21490641600F21C9068160052149070C
:10024000C1605F490A78D10701D0754900E075495E
:10025000016100214161744B8361744BC361744B34
:100260000362744B4362744B83628123DB00C3627D
:100270000163724B43638163C1637148D30701D04B
:10028000704B01E06F4B5B1C036041608160C1609B
:10029000016141618161C161016241622523DB032A
:1002A0008362694BC362D30701D0684B01E0674B9F
:1002B0001E33036341638163C16361480121090601
:1002C0004030016062494160624981606249C160B9
:1002D0006249016162494161624981616249C1616A
:1002E0006249016262494162624981626249C16256
:1002F0006249016362494163624981634916C1638E
:1003000061480169030319430161416999434161EE
:10031000D00702D0FFF79AFE10BDC820FFF789FE74
:1003200010BD5A490C220162594941625949416143
:100330002C210A545849816258490160584941604A
:100340005849C1616BE7002104E00222521C0A2ACD
:10035000FCDB491C8142F8DB7047002104E00222EB
:10036000521C322AFCDB491C8142F8DB70470F48E3
:10037000416A0122920691434162426A0A498039E8
:100380004A62026B01239B039A430263026B0A6376
:10039000026B5B001A430263006B08637047000046
:1003A00040008100BC0C000080148000040B400061
:1003B000FF00FEFF1032A0C300C1958200AF422FA4
:1003C00038004000629C5C6A335F917F007528466C
:1003D000008CD688E59F80180740B82F083C207015
:1003E00025EC071C0C24DDD308D0008062D41C2A25
:1003F000B75E937F40552848C7BF10000540D02DF9
:100400000A3C207427EC073C0C26FDD208900080A3
:10041000233F41845093300078E92631D6BE898E3F
:1004200082001E0082071E000505841000C9080016
:1004300010100101004E103C683D100E44C42C0801
:10044000C01480000000011048103422001CFF017D
:10045000020405070A0C0F12161A1E22262B30352D
:100460003A40454B51575D636970767C83898F961E
:100470009CA2A8AEB4BABFC5CACFD4D9DDE1E5E924
:10048000EDF0F3F5F8FAFBFD400080001B000200E0
:100490001F000200FFFF010003000200FDFF01003A
:1004A0002300020011000200010009060020090ECD
:1004B00010B514290BD024290CD0452904D0472984
:1004C00001D101F00BFC10BD00F03FFF10BD00F0AA
:1004D00042FD10BD00F0CAFA10BDF8B57F4E0025F0
:1004E000FF27002819D00024182060438719F88AB4
:1004F000FFF7DAFF002802D0416838008847FF2064
:10050000F8827D60BD60FD81387DE2F7C6FB641C2A
:100510002406240E0A2CE7D3F8BD0024200018215D
:100520004843220081190B320D618A82CF824D60CF
:100530008D60CD818D813550087DE2F729FB641CEB
:100540002406240E0A2CE9D3F8BDF3B50500408833
:10055000002681B0FFF7A8FF01000AD06A885F4F2C
:10056000002018234343DB19DB8A934203D1422640
:100570002AE0402628E0401C0006000E0A28F0D39E
:10058000002418206043C019C08AFF2807D0641CCB
:100590002406240E0A2CF4D30A2C14D014E02800CC
:1005A00008300090182060430E68C01907006B786F
:1005B000AA88A91DB0470600EED16888F882B98ADA
:1005C00002980180E8E74B263000FEBDF8B5434EA7
:1005D00007000024182060438519E88AFFF764FFAC
:1005E000002803D08268390028009047641C240644
:1005F000240E0A2CEED3F8BDF3B5384E0F000024BC
:1006000081B0182060438519E88AFFF74DFF002864
:1006100004D0C3683A00019928009847641C240656
:10062000240E0A2CEDD3FEBD03002C4A002010B589
:10063000010018244C43A418E48A9C4204D11820D9
:1006400041438818006910BD491C0906090E0A2992
:10065000EFD310BD42885004400CD20B01D00902E8
:100660000843704702885004400CD20B01D00902A5
:100670000843704730B5020A0406184BFF21240EC8
:10068000002018254543ED18AD8AA54204D1182154
:100690004843C018C18A04E0401C0006000E0A2826
:1006A000EFD31002084330BD30B5020A04060B4BED
:1006B000FF21240E002018254543ED18ED8AA542A0
:1006C00004D118214843C018818A04E0401C000668
:1006D000000E0A28EFD31002084330BD440B40003F
:1006E00000281BD000210122D20591624B49012232
:1006F0000A604B4A4A600278437892069B06920E43
:100700001B0D1A438378C078DB06DB0B40071A43C6
:10071000000B02438A600868C007FCD070473F485E
:10072000016801221143016070473C480168490893
:1007300049000160704730B500240125ED05AC6229
:10074000364C002819D0012816D191054909E160DD
:1007500034490B602168C0078907890F000F0143E6
:100760000520014321602E486060002B04D02E48F4
:100770000168C2121143016030BD0029FCD00A7823
:100780004D7889789206AD06920E2D0DC9062A4342
:10079000C90B0A43E260DBE72048016804221143E9
:1007A000016070471D480168042291430160704751
:1007B000002810D00178427889069206890E120D21
:1007C00011438278C078D206D20B40071143000B48
:1007D000014312488160704700280DD00F49896895
:1007E0008A06920E02700A05920E4270CA03D20E59
:1007F0000903490F8270C17070470A4900200860E0
:10080000704710B5054C2069C00704D00548006842
:10081000002800D080470120206110BD00668000C4
:100820007CFF7C005408400040008000FFB50500BC
:100830008BB0149800270078401E012876D801213B
:100840002420E1F79FFF04002421F7F721FB1498EF
:1008500000260078E07761E0072069460876149862
:10086000A17F80190700059040780822B04001431D
:10087000A1771499F00041180019001D091DF7F720
:10088000EDFA7878012805D16946087E08210843E9
:1008900069460876E07F012805D96946087E10215F
:1008A0000843694608760C9809A9028870000790E9
:1008B0000A520E991E221140AB8A039109A94018D1
:1008C000C34F002269468CC1C249052306AAF1F72D
:1008D000E4F807001CD1059A0799527809A8415AF3
:1008E000012A01D0012200E00022891A0C9A491D38
:1008F00011800599497801290AD107990923405A9D
:100900005B020022801C0004000C1900F1F798FB28
:100910000720761C36066946360E0876149800784D
:10092000B04205D9002F97D004E0FFE7812706E009
:10093000002F07D0002C02D02000E1F788FF3800FC
:100940000FB0F0BD68462C61808C0C990880208324
:100950000E98C00702D00121C90300E000210D98C4
:1009600001432180A88A002160802420E8820120A0
:10097000E88199481C34AC606860A88AE2F744F9C1
:10098000DDE770B5056904006869002801D0E1F76A
:100990005EFF002020612800E1F759FF70BD00696B
:1009A00000224018427770470069002240184277C1
:1009B0007047F8B505000C002420FFF735FEC37F13
:1009C00000210A00AB422FD9018B05270BE0867F5F
:1009D000D640F607F617BE1B7118491E0904521CB3
:1009E000090C1206120EAA42F1D3032C01D20819E7
:1009F00016E0032C02D0042C08D014E0807FD040F5
:100A0000C00710D0C91C0904090C0DE0012B0AD93C
:100A1000807FD040C007C0170422101A4018401E23
:100A20000104090C00E000210800F8BD70B50C00BD
:100A3000150006000021FFF70DFE02002102C12073
:100A4000092300010831E1F785FF0400122020701E
:100A500002212800FFF7ADFFA0800120E08070197F
:100A6000807E20722000E1F78EFF70BD584828304C
:100A70007047F8B5040016000D002420FFF7D4FDE0
:100A8000038B01008020002221E09F1CBC4201D882
:100A9000E01A15E08B7F3F043F0CD340DB0706D004
:100AA0007F1C3F043F0CBC4201D1032008E0634699
:100AB000012B08D97F1C3F043F0CBC4203D104200A
:100AC00030700020F8BD7F1C3B041B0C521C2A70A8
:100AD000CF7F1206120EBA42BC46F3D29C42D4D249
:100AE000F8BDF8B52420FFF79FFD0400FF2000901B
:100AF0006069092281889202914220D1027B010023
:100B0000009202000E32964622001A32D71C951D22
:100B10000C3194460FE00E7801239340F65D1E429F
:100B200007D07346D65C6346D35C9E4201D00978F9
:100B300018E0521C2A702A78022AECD31EE0274AB9
:100B400091421BD1210002001D310C32CD1C8C467C
:100B500011E017786346CE5C0123BB401E4208D0EB
:100B60003A06120E2000FFF761FF2878401C28701B
:100B7000F8BD491C297029780029EAD0818809220A
:100B80009202002591420AD1C288018913480223AA
:100B9000401EE1F7DFFE0099017045700AE00F4A40
:100BA000914209D1C28801890C480123401CE1F718
:100BB000D1FE0570E1F7E7FE6069E1F748FE00212C
:100BC00020006561FFF746FD0021E2F71DF8F8BD42
:100BD000485502000F180000B05502000224000022
:100BE000FFB581B003981F000C000226E2F741F820
:100BF00000282FD12420FFF717FD050020780128B9
:100C000004D8EBF745FC9C49884212D19B48039AD3
:100C100002233900E1F79EFE217801702178012935
:100C200001D9402100E089214170E1F7ACFE0026A6
:100C300010E0012603983100E1F7E6FF61782278A1
:100C400028001D3011540C3C6C61002020352870A8
:100C5000FFF747FF300005B0F0BDFFB581B0039846
:100C60001F000D000226E2F704F8002826D12420F8
:100C7000FFF7DAFC04002978C07F814212D268783D
:100C800064280FD822001A328854012603983100B4
:100C9000E1F7BAFF0C3D6561002020342070FFF7BA
:100CA00020FF0BE07548039A01233900801CE1F70F
:100CB00051FE81210170E1F766FE00263000CAE78F
:100CC000FFB583B0002568460571057008881700D8
:100CD0000E006A4601A9FFF7CCFE04006848069999
:100CE00006233A00E1F736FE3188002C018005D159
:100CF00069460978032907D0032445800471E1F788
:100D000042FE002007B0F0BD02214180F6E7FFB5AA
:100D10000F0083B00020694608700871069801AA88
:100D2000040A3888FFF7A5FE060011D12420FFF73A
:100D30007BFCF9790500B87909020843694609790D
:100D4000032904D10121002810D0012816D08026C3
:100D50004B48059A06990423801EE1F7FBFD39886C
:100D600001808670E1F70FFE0020CBE76B461B7811
:100D70002819427F99408A43427706E06B461B78E8
:100D80002A19507F99400843507721002800FFF727
:100D900069FC01003948059A0223C01CE1F7DAFD1D
:100DA00029190470497F4170E1F7EDFDD0E7FFB5E7
:100DB00083B00020694608700871180A02900498F0
:100DC0001C00008801AAFFF754FE0600002524201D
:100DD000FFF72AFC0700002E08D168460079022898
:100DE00014D0032814D0042814D080262448059A4F
:100DF000AB1D2100001FE1F7ADFD04000498002E9B
:100E0000018821802671658006D028E00125EDE764
:100E10000225EBE70725E9E768460079022804D0B8
:100E2000032808D0042812D019E068460078381842
:100E3000807E607113E00298694609783818407F17
:100E4000C840C107C90F6171090AA17107E068466E
:100E50000078C000C119601D091D01F021F92000B2
:100E6000E1F791FD00204DE710B50878122801D177
:100E7000FFF737FE002010BDFFFF00000124000037
:100E8000180C000030B503000120002103241A00D3
:100E9000CA40D20704D04D0022006D1CAA40104366
:100EA000491C0906090E0929F1D330BDFFB585B0EB
:100EB0000E9F040038881D00FFF7E4FF049028000F
:100EC0001E210840A18A4C4A0023019100930292FE
:100ED00003904A490698132304AAF0F7DEFD0600A2
:100EE00022D101211420E1F74DFC206106990988E7
:100EF00081813988C181E90701D00121C903079A9D
:100F000011430180A18A41801421E1820121E18104
:100F100001001231A1603A49001D6160E2F760F8FA
:100F2000A08A0021E1F770FE300009B0F0BD70B575
:100F3000046905006068002805D0201DE2F794F8D8
:100F4000E1F785FCF6E7002028612000E1F77FFC4F
:100F500070BD7047704728489830704730B504001E
:100F6000A289E4890920521C13041B0C00222500CD
:100F7000D540ED0707D05D1C8D4201D1100030BD7A
:100F80009B1C1B041B0C521C1206120E092AEED3CA
:100F900030BD10B503008089DB89401C0004000CC3
:100FA00000221C00D440E40708D0914203D1401C29
:100FB0000004000C07E0801C0004000C521C120608
:100FC0001216092AEDDB092A00D1002010BD02000B
:100FD0000020802901D98D207047062A06D0072AD3
:100FE00007D0082AF8D10729F5D170470829F2D18E
:100FF00070470629EFD37047B85502000A18000061
:1010000078560200FFB50C00142081B0FFF70CFBEE
:1010100021780700092931D2FFF7BBFF00282BD028
:1010200061782078FFF7D3FF060028D17D680DE0B6
:1010300028792178884208D100222900381DE2F75A
:101040001DF82800E1F703FC02E02D68002DEFD128
:10105000607801210830E1F795FB05002078A11C9C
:101060002871607868716278A81DF6F7F7FE29008C
:10107000381DE1F7B9FF02E0822600E081265348DF
:10108000039A04990223E1F765FC21780170467008
:10109000E1F779FC002005B0F0BDFFB5002081B07C
:1010A000009003980E00E1F7E4FD002802D001282B
:1010B0004CD04DE01420FFF7B7FA31880700FFF756
:1010C0004DFF05004248092D36D27C6803E02179A6
:1010D000A94203D02468002CF9D117E0002C15D0C8
:1010E0006379039A04999B1DE1F734FC050030886D
:1010F000A11D288000202871607968806279681DB0
:10110000F6F7ACFE2800E1F73EFC21E03D740498C0
:10111000010A38007974FFF7A5FA01002B48039AF9
:101120000123401CE1F716FC0570E1F72CFC039845
:101130000121E1F769FD0BE0039A04990623E1F729
:1011400009FC3188018080210171DCE702200090D8
:101150000098A0E7F8B517000D001000E1F789FD31
:10116000012831D11420FFF75FFA017C0400FFF75A
:1011700010FF217C2A7806001548914214D1617C29
:101180006B783A00090208319B1DE1F7E3FB04008C
:101190000680002020716878A91C60806A78601D34
:1011A000F6F75CFE200009E0617C06233A000902A4
:1011B0000831E1F7CFFB802106800171E1F7E3FB05
:1011C00000213800E1F720FD0020F8BD01140000E7
:1011D000140C0000FFB50500FF2087B0109F1E0013
:1011E00001211130E1F7CEFAFF2104001131F6F7A9
:1011F0004FFE3F2168460175E01DF930027B7B7888
:101200001A4302737878012801D16846017508985D
:10121000694600885E4A0023088230001E2108408B
:10122000A98A00930292019103905A49062305AAC4
:1012300004A8F0F732FC0028009007D0002C02D060
:101240002000E1F704FB00980BB0F0BD787801288E
:1012500009D16846008A09214902001D0004000CDA
:101260000022F0F7EDFE68462C61008A089908809C
:101270002081F00701D00120C00309990843208094
:10128000A88A002160804520E8820120FF34E8819F
:1012900041480B34AC606860A88AE1F7B5FCD2E73E
:1012A00070B5056904006868002801D0E1F7CFFA3D
:1012B000002020612800E1F7CAFA70BD0069002211
:1012C0004018FF300130C272704700690022401898
:1012D000FF300130C272704710B504004520FFF79F
:1012E000A3F90189052C03D208190004000C10BDD4
:1012F000052C08D1FF300130007BC00703D0491D09
:101300000804000C10BD002010BD70B50D000021B8
:10131000FFF7A0F96B780200C12008210001083313
:10132000E1F718FB0400122020700420FFF7D4FF1F
:10133000A0806878A91CE08020006A780830F6F761
:101340008DFD2000E1F71FFB70BD11483030704764
:1013500070B504000D004520FFF766F90289802171
:10136000131D9C4202D8A11A29700021FF300130C0
:10137000007B1A04120CC00707D0521C1004000C8A
:10138000844202D1052000212870080070BD0000B1
:1013900080560200F0FF0000E856020070B515000C
:1013A0000E0002241000E1F764FC002810D1452053
:1013B000FFF73AF9040001212800E1F725FC31008C
:1013C0002000FFF7A2FF00212800E1F71DFC002408
:1013D000200070BDFFB581B0002668460670088801
:1013E0000D0017006946FFF7B3FF04007348049926
:1013F00006233A00E1F7AEFA2988002C018005D1D6
:1014000069460978052907D0032446800471E1F76D
:10141000BAFA002005B0F0BD02214180F6E7FFB521
:101420000C0081B00020694608700498050A2088E5
:10143000FFF78EFF070013D14520FFF7F5F8E1799C
:101440000600A0790902084369460978052902D0F7
:10145000022932D003E0002828D001280ED08027AE
:101460005648039A04990423801EE1F773FA2188F1
:1014700001808770E1F787FA0020CBE77019FF3011
:101480000130C17A01221143C17229003000FFF7F7
:10149000E9F801004A48039A0223E1F75BFA71195F
:1014A000FF3101310570C97A41701CE07019FF30BD
:1014B0000130C17A49084900E6E729003000FFF70A
:1014C000D1F801003E48039A8223401CE1F742FA1A
:1014D000A2880600A11DF6F7C1FC300080304570DF
:1014E000217901703000E1F74EFAB9E7FFB50F003E
:1014F00083B00020694608700698000A0190388879
:10150000FFF726FF050000244520FFF78DF80600B1
:10151000002D06D168460078042810D0052810D088
:1015200080252648059A0699A31D001FE1F712FAA7
:101530003988002D01800571448004D017E0802493
:10154000EFE70224EDE769460978042902D005296E
:1015500003D00CE0B17A417109E001997118FF31B3
:101560000131C97ACA07D20F4271120A8271E1F7BA
:101570000AFA002007B0F0BD70B5087815000C001D
:10158000122811D11E0A4520FFF74EF83100FFF74F
:1015900069F801000A4801232A00401EE1F7DAF940
:1015A00061780170E1F7EFF92800E1F762FB41088B
:1015B00049002800E1F728FB002070BD180C00004E
:1015C00003450000FFB505000020C04385B00E00B4
:1015D00004901F0001214420E1F7D4F804002861A1
:1015E00038001E210840A98AFB4A0023009302927A
:1015F00001910390F9490923300004AAF0F763FB35
:1016000001000090F6A0FEF76EFB30882081308844
:10161000093030800098002830D10E984078012899
:1016200011D1208907210022801C0004000C8902AE
:10163000F0F706FD208907210022801D0004000C20
:101640008902F0F7FDFC208930800E984178402017
:101650000155F80701D00120C003079908432080F5
:10166000A88A002160804720E8820120E881E248C2
:101670003C34AC606860A88AE1F7C6FA009809B00B
:10168000F0BD70B5056904006868002801D0E1F775
:10169000DEF8002020612800E1F7D9F870BD00696C
:1016A000002243182033490008185A77C287704730
:1016B0000069002243182033490008185A77C2876E
:1016C000704710B5CD4C0100A0691022401CA061EC
:1016D000000100190E30891CF6F7C0FB01202077AD
:1016E00010BD70B50D00BC4904005831C4A0FEF710
:1016F000FAFAC2492804000CC88000228C804A6192
:101700008A6101224A7770BDF8B5BC4F11243800B8
:10171000416903003A7F8069A40309191E3305015A
:101720000024012A02D0022A0DD00AE0B34E2A007A
:1017300000200094FDF7F2FF7069B46140197061F8
:101740003C770020F8BDAD4E2A0000200094FDF744
:10175000E5FF7069B461401900257061AAA0FEF729
:10176000C2FA6D1C0A2DF9DB0A203C77FEF720FC3B
:10177000FEE7A2480021022241770277A7480170C4
:10178000080070477CB50C00934906008C319CA082
:10179000FEF7A9FA4720FEF747FF05006946A0A01B
:1017A000FEF7A1FAA18868460170090A4170A17983
:1017B0008170E088010A6846C170E1890171090AF7
:1017C000417100212800FEF745FF02003002083079
:1017D0000104C120090C12230001E1F7BBF8002825
:1017E00017D0122101702989891C818041800A212A
:1017F000C1806946098801816946498841812189FA
:1018000081816189C181694689880182E1F7BBF8DC
:101810007CBD87A0FEF767FAFBE7F8B506000C0071
:101820004720FEF701FF05006946200A0C7048704A
:1018300000212800FEF70EFF0200300208300104EC
:10184000C120090C0A230001E1F784F8122101707C
:101850002989891D81800221C18069460988018109
:10186000E1F791F8F8BDF7B55B491400783188B01D
:1018700063A0FEF738FA60792179000201436846D7
:101880008180E079A579000205436846C580607AC9
:10189000227AE37A00020243A07A1B02184307046B
:1018A00017430297E07BA67B000206436846C68189
:1018B0006BA0FEF718FA29006EA0FEF714FA3900A3
:1018C00071A0FEF710FA310074A0FEF70CFA794906
:1018D0000298794C01270025884230D177A06770A3
:1018E000FEF701FA7A491022002004AB0095FDF7BB
:1018F000FEFE6846C18B77A0FEF7F5F906997BA03E
:10190000FEF7F1F96846818A7DA0FEF7ECF968469A
:10191000C08881087FA0A180FEF7E5F96846818A2A
:10192000808881424DD0A0887903884249D8002818
:1019300047D06846C08B864243D1277004E17A497C
:10194000884228D10220607078A0FEF7CCF97D494A
:101950001022002004AB0095FDF7C9FE069963A094
:10196000FEF7C1F96846818A65A0FEF7BCF96846B2
:10197000C088810867A0A180FEF7B5F96846C189D3
:10198000C08B81421DD0A0881F214902884218D8EF
:101990000028D2D115E065704D491022002004AB1B
:1019A0000095FDF7A4FE6846C18B4AA0FEF79BF99F
:1019B00006994EA0FEF797F96846818A50A0FEF777
:1019C00092F92078012806D0089804A9FFF7DAFEDA
:1019D00000200BB0F0BDB7E0F0560200C0FF0000E1
:1019E0006372656174655F6462207374617475739A
:1019F000203D2025780D0A00C0570200340C40001D
:101A000025730D0A000000007761697420666F720B
:101A10002072657365742121210D0A003100400098
:101A20006E6F746920203D20307825780D0A000003
:101A30004B455F4D53475F414C4C4F435F44594EBC
:101A40002047415454435F53454E445F4556545FCD
:101A5000434D4420203D3D204E554C4C200D0A0066
:101A600072784864722E766572203D202578200DAC
:101A70000A00000072784864722E6C656E203D206A
:101A80002578200D0A00000072784864722E75696E
:101A900064203D202578200D0A00000072784864FB
:101AA000722E726F6D5F766572203D202578200D55
:101AB0000A00000042424242580840006170702013
:101AC0007061727420757067726164650D0A000040
:101AD00010000200496D674864722E726F6D5F7668
:101AE0006572203D202578200D0A0000496D674869
:101AF00064722E756964203D202578200D0A00004F
:101B0000496D674864722E766572203D20257820E5
:101B10000D0A00006F6164426C6B546F74203D20AD
:101B20002578200D0A000000535353536170702034
:101B3000616E6420737461636B2075706772616499
:101B4000650D0A00E02000006548658007700C21E3
:101B50006846257001800E214180FF212D3185804E
:101B6000C18000F0FDFB08980021FFF756FE2FE72B
:101B7000F3B548780F785B4D0C000002074389B03D
:101B800079D16978012905D002293BD056A0FEF70A
:101B9000AAF86EE000205C49102201AB0090FDF72E
:101BA000A6FDE079A679617C00020643207C09024B
:101BB00008430690E17AA07A627B09020843217B00
:101BC0001202114309040143721C6846028100207D
:101BD000E8804EA0FEF787F80096AB886A8800215F
:101BE0004DA0FEF780F868460189320057A0FEF745
:101BF0007AF8688800283CD16846418A0698814274
:101C000037D139E000205849102201AB0090FDF790
:101C10006EFDE079A679617C00020643207C090212
:101C200008430690E17AA07A627B09020843217B8F
:101C30001202114309040143701C6A4610810020FE
:101C4000E88032A0FEF74FF80096AB886A88002142
:101C500031A0FEF748F86A46118932003BA0FEF732
:101C600042F86888002804D16846418A0698814273
:101C700002D10320ADE608E0A888810030001039C9
:101C8000FFF72FFD2000FFF71CFD6988B94217D12F
:101C9000002911D0E888401CE8802000FFF711FDE2
:101CA000A888E988401E814206D130A0FEF71BF8C3
:101CB00069880998FFF7B1FD6888401C688002E0D8
:101CC0000998FFF7AAFD6888A988884204D12BA04B
:101CD000FEF709F8FFF74DFD00207AE62B48704724
:101CE00031004000580840006F6164496D67426CE4
:101CF0006F636B57726974653A20554E4B4E4F5760
:101D00004E205549440D0A001000020075696420F8
:101D10003D2025780D0A0000626C6B4E756D203DEC
:101D2000202578202C6F6164426C6B4E756D2025E8
:101D3000782C6F6164426C6B546F742025782C761C
:101D40006572202578200D0A00000000496D674863
:101D500064722E766572203D2025782C207665727F
:101D6000203D2025780D0A00E02000006C6173748E
:101D700020626C6F636B200D0A0000007570646157
:101D8000746520646F776E210D0A000038570200D9
:101D9000F8B50C00A0491E001700A0A0FDF7A3FF96
:101DA0003800E0F766FF4720FEF73EFC050020788C
:101DB000012804D8EAF76CFB9A49884212D19A4864
:101DC00002233A003100E0F7C5FD21780170217847
:101DD000012901D9402100E089214170E0F7D3FDBC
:101DE0000020F8BDA17823782A003D32995422784A
:101DF000A1880C3C52005219D187012000216C604F
:101E000040356970F8BD10B588A0FDF75BFF022072
:101E100010BD814910B5183180A0FDF764FF022084
:101E200010BDFFB5002081B00700009003981D0091
:101E30000C001E0AE0F71DFF002805D00398E0F70C
:101E400018FF012871D074E04720FEF7EDFB002851
:101E50000CD0E279A179120211434022125CD20720
:101E60002AD0002906D0012904D025E077A0FDF76B
:101E70003AFFFBE7028923889446D21C93420ED195
:101E8000012906D0811920314A7F520852004A7731
:101E900012E0811920314A7F01231A43F7E7624695
:101EA000D21D934208D12A0A5200012919D01118D3
:101EB000CA8F52085200CA87018922888B1C9A4215
:101EC00014D10A3019210600F5F7E2FFA288A11DFE
:101ED0003000F5F7C3FFA18832000020FFF7C3FCF4
:101EE00015E01118CA8F01231A43E4E7891D8A42BD
:101EF0000DD1233019210600F5F7CAFFA288A11DD4
:101F00003000F5F7ABFF31000020FFF731FE5448F9
:101F1000039A04232900E0F71DFD21880180009920
:101F20008170E0F730FD04E0FFE74EA0FDF7DBFE37
:101F30000227380005B0F0BDFFB500263700472066
:101F400085B0FEF771FB0500002414216846F5F703
:101F50009FFF0798E0F78DFE002805D00798E0F76F
:101F600088FE01284ED051E0069801882889C21CBD
:101F7000914204D10224220029003D3116E0C21D05
:101F8000914204D10224220029003E310EE0821C3D
:101F9000914204D11924220029000A3106E0821D51
:101FA000914207D119242200290023316846F5F710
:101FB00055FF11E0021D914203D10D2422002CA1F6
:101FC00005E00830814206D10A2422002CA168468F
:101FD000F5F744FF00E006262148079A0899A31D5B
:101FE000801EE0F7B7FC050044802200401D6946D2
:101FF000F5F734FF06980088288028002E71E0F756
:10200000C2FC03E021A0FDF76EFE0227380009B0F4
:10201000F0BD002070470000C85702002573200D56
:102020000A000000FFFF0000014700006F616473B9
:102030005F666663315F7570645F7265715F68616A
:102040006E646C6572200D0A000000006F6164739D
:102050005F656E76203D3D206E756C6C0D0A00004C
:10206000160C00004F4144535F425553590D0A006E
:10207000496D67204964656E7469667900000000E7
:10208000496D6720426C6F636B0000006F61647381
:10209000204F4144535F42555359200D0A00000020
:1020A0000A7902704A7942700B8883701B0AC370E8
:1020B0008A79027149884171090A817170470A88D9
:1020C0000270120A42708A788270CA78C2700A79E5
:1020D00002714A794271897981710720704743788A
:1020E00002781B021A430A8082788A70C278CA700A
:1020F00002790A7142794A718079887107207047A4
:10210000F8B5102069460870AA482821F5F7C0FEE6
:10211000A9490520E0F73CFD00210520E0F774FD0A
:10212000A44AA120183216006946E0F7B3F8002847
:102130000FD0A04D0024F5F77FFE2919641C24065A
:10214000240E102C0876F6D332001021A120E0F7DF
:10215000F0F800F00BFA00F079F900F001FBF8BD9F
:1021600010B5944C0020E178042908D088009249E9
:10217000103108588047E078401CE070012010BD05
:102180008C4810B580780223052201028B480A3161
:10219000E0F7E0FB0121017013214170E0F7F3FB50
:1021A00010BDF0B505208BB0E0F763FD02287DD1AE
:1021B0008248522305220921F738E0F7CBFB0400BF
:1021C00000206070072020722021A180E1800D2076
:1021D000207001261F2125002200667220350C3256
:1021E000E172E9721700511E0B20E0F753F8002846
:1021F00018D00220207304206673A073607A01282F
:1022000002D0022804D101E0062000E00520A073DE
:102210000320E072F81C042269A1F5F71FFEE07AA2
:10222000001DE072E07A1D21081A0606360E022E05
:102230002FD9F82069460871022003AA01A9E0F706
:1022400029F8002806D00B22684602715EA103A877
:10225000F5F704FE6846007900281AD0B04200D293
:10226000060069460E71E07A761C0921C655E27AAD
:1022700020000D301154E17A401C081869460A7993
:1022800003A9F5F7EBFD69460879E27A801C10187E
:10229000E07222002C321600511E0C20DFF7FAFFEC
:1022A00000280BD00020E872300000E013E00D227F
:1022B00048A1F5F7D3FDE87A0D30E8722000E0F789
:1022C00062FB48A0FDF70FFD4D48FDF771FE0321AD
:1022D0000520E0F799FC0BB0F0BD10B50520E0F744
:1022E000C8FC032810D102210520E0F78DFC4548E9
:1022F000012305220921E0F72DFB02210170E0F7FF
:1023000042FB41490120087010BDFFB507001D00C8
:102310000E00052081B0E0F7ACFC03281ED11F2E73
:102320001CD81F2D1AD837484123052209210B300C
:10233000E0F710FB04001020207021206670055586
:1023400032003900A01CF5F789FD200003992A000E
:102350002230F5F783FD2000E0F715FB05B0F0BD56
:10236000F8B5050013480E238078052201021348B2
:102370000A310A30E0F7EEFA0400092020702988BB
:10238000224E23A061806A88A280AB88E380ED881A
:1023900025816681A6810095FDF7A5FC2000E0F768
:1023A000F2FAF8BD10B5034C6279A11DF5F756FDA0
:1023B000607910BDF40C4000FC570200040E0000D0
:1023C0000303F0FF00000000424B333433352D6A25
:1023D00061636B000C084C494E5A454A4945000060
:1023E000000000006170706D207374617274206170
:1023F00064766572746973696E670D0A0000000087
:10240000FF3F0000030D000050084000FFFF0000E8
:10241000696E74765F6D696E203D2025642C696E4F
:1024200074765F6D6178203D2025642C6C61746545
:102430006E6379203D2025642C74696D655F6F752E
:1024400074203D2025640D0A00000000254800216D
:10245000017064214170704710B523481C23052288
:102460000921E0F777FA1B21017000212422417035
:102470004280052282800122C18002724272E0F70E
:1024800082FA10BD10B50400164804702420FEF72F
:102490000BF901000920042305228002E0F75AFA13
:1024A00000210470417032218170E0F76CFA10BD98
:1024B00010B504002420FEF7F7F801000B480223B2
:1024C0000522E0F747FA002101704470E0F75BFA5B
:1024D00010BD00207047002070470020704700208A
:1024E00070470000600840001B0D0000022400003F
:1024F000F8B50E0009781800002425000B00F5F748
:1025000008ED0906091215181B0C1E0F20000924DE
:1025100021A516E00A2423A513E0082424A510E031
:10252000072426A50DE00A2426A50AE0052428A5EF
:1025300007E0052428A504E0052429A501E00624D8
:1025400029A501002A48A31CE0F704FA0700307807
:10255000002C38707C7004D022002900B81CF5F7DC
:102560007DFC3800E0F70FFA0020F8BD704710B589
:1025700020480A2305220921E0F7ECF91B2101700C
:102580000021142241704280052282801A4AC180B3
:102590000281E0F7F8F910BD42454B454E2053410A
:1025A00053000000424B2D424C452D312E3000008F
:1025B000123456FFFE9ABCDE00000000025E0440AA
:1025C00000000300312E302E302E302D4C450000FF
:1025D000312E302E30000000362E312E3200000019
:1025E000362E332E30000000FFEEDDCCBBAA0000FB
:1025F000031400001B0D0000FF01000043480021F0
:1026000001704170704710B541480A230522092125
:10261000E0F7A0F91B2101700021452241704280A2
:10262000052282800122C1804272E0F7ACF910BD20
:1026300070B506000D004520FEF736F8010035485C
:1026400082230522E0F786F9040045702A00310054
:10265000801CF5F703FC2000E0F795F970BD70B51C
:102660000C00497815002CA0FDF73DFB6178294846
:10267000001D002905D032222900E0F7A7FB002029
:1026800070BD2900E0F7ECFBF9E700B50878A1B0D0
:10269000002808D1542280216846F5F7F1FB01217A
:1026A0006846FFF7C5FF002021B000BD10B52049E6
:1026B00020A0FDF718FB002010BD70B50D001FA075
:1026C000FDF711FB00242E00803606E0295D21A0D5
:1026D000FDF709FB641C2406240E3078A042F5D8CF
:1026E0001EA0FDF700FB002070BD10B51400A0B0C7
:1026F000892280216846F5F7C3FB06483222210073
:10270000001DE0F763FB002020B010BD6208400010
:102710001B0D000001450000706172616D2D3E6E61
:1027200074665F636667203D2025780D0A0000000F
:102730008458020025730D0A000000004646463208
:1027400020706172616D2D3E76616C7565203D2053
:102750003078200025303278200000000D0A00007B
:102760004E4800210170704710B54DA0FDF7BBFA2F
:1027700050480A2305220921E0F7ECF804001B2049
:10278000207000214720617060800520A080E180DA
:10279000012102006172092147A0FDF7A4FA20007F
:1027A000E0F7F1F810BD10B504003C480470472074
:1027B000FDF77AFF01004720062305220002E0F71B
:1027C000C9F80021047041808180E0F7DCF810BD79
:1027D0000020704770B5040040491D00160040A05D
:1027E000FDF781FA2B00320021003FA0FDF77BFAB4
:1027F000002070BD10B50C00384939A01A31FDF722
:1028000072FA6178A21C0020FFF72DF8002010BD9D
:10281000324910B5363132A0FDF765FA002010BDFF
:102820002E4910B552312EA0FDF75DFA4720FDF775
:102830003BFF010037481B230522E0F78BF81421EA
:10284000417064218170E0F79EF810BD234910B5F6
:10285000633123A0FDF747FA4720FDF725FF01006C
:102860002C481B230522001DE0F774F81421417049
:1028700032218170E0F787F810BD184910B5743126
:1028800017A0FDF730FA002010BD144910B58E31A5
:1028900013A0FDF728FA002010BD000064084000D6
:1028A0006170705F6F61645F6164645F6F616473C6
:1028B0000D0A00001B0D00006170705F6F61645FA6
:1028C0006164645F6F6164732064203D2025782C0F
:1028D00073203D2025780D0A00000000D858020022
:1028E00025730D0A000000006D73676964203D20A8
:1028F0003078253034782C646573746964203D2009
:10290000307825782C7372636964203D20307825F7
:10291000780D0A0004470000FEB515000C0001798F
:10292000EA4E17E00768CA00083ABA1884CA00924B
:102930006A4601971288A24201D0B24207D1019E95
:10294000052229002000B0470006000EFEBD491EEA
:102950000906090E0029E5D10020FEBD10B5DC48AE
:10296000012305220921DFF7F5FF01210170E0F7BE
:102970000AF8002010BD10B54A780C000978D5A0DF
:10298000FDF7B1F920780E2842D008DC01280DD0DF
:10299000032836D00C283BD00D2842D138E00F2830
:1029A00036D0102834D01B283BD125E06078002891
:1029B00037D1C748302305220921801CDFF7CAFF21
:1029C0000400032020700A2060701B206084FF2018
:1029D0004930A0848320E0840120E0762000CA49A9
:1029E00010220A30F5F73AFAC74900201839C870A2
:1029F0002000DFF7C8FF14E0FFF7B2FB00280AD081
:102A00000FE001210520E0F7FFF8FFF7A9FB08E040
:102A10006078452805D102210520E0F7F5F8FFF799
:102A2000C0FB002010BD70B50C000978B7481D0030
:102A3000002904D001290FD0022917D118E01C2346
:102A40002900DFF787FF050020782870281DFFF791
:102A5000A9FC6880280007E00A232900DFF77AFF35
:102A60002178017000214180DFF78DFF002070BDCB
:102A70000A232900DFF76EFF2178017008214180C9
:102A80000A218180B421C1804B21C9000181EBE77B
:102A900010B518000C0001009C480223801CDFF7D1
:102AA00059FF4821417021780170DFF76CFF002049
:102AB00010BD70B50E0096491C00150095A0FDF7DD
:102AC00012F9200A904C183CFF28A07022D03188BF
:102AD0002C230522218001028C480A310938DFF7B6
:102AE00039FF002228210A54DFF74DFF2078FFF735
:102AF000C9FC04212800E0F787F8844864220521F6
:102B0000F630E0F763F9814864220521F930E0F7F7
:102B10005DF901E0FFF745FB002070BD10B50C002A
:102B200009787EA0FDF7DFF82078092806D00A286A
:102B300012D00B2817D00C281DD106E06078002891
:102B400001D080A015E086A013E06078002801D0B5
:102B50008AA00EE090A00CE06078002801D095A03B
:102B600007E099A005E06078002801D09BA000E074
:102B7000A1A0FDF7B8F8002010BD10B58978A5A078
:102B8000FDF7B1F802210520E0F73EF8A949012040
:102B90000870FFF706FB002010BD10B51000E0F72D
:102BA00068F8002010BD5A4910B5203159A0FDF732
:102BB0009AF8002010BD30B40A000100040A002079
:102BC000242C11D007DC0C2C10D00E2C0ED0142C81
:102BD0000CD1994804E0452C04D0472C06D19748E5
:102BE00030BC99E69648FBE79648F9E730BC704759
:102BF0001CB595A0FDF777F81421684601802821BF
:102C00004180002181804B21C900C180FFF7A8FBD2
:102C100000201CBD10B50C003D4993A03931FDF7D3
:102C200062F8A18892A0FDF75EF8E18896A0FDF712
:102C30005AF8218899A0FDF756F861889DA0FDF704
:102C400052F8002010BD10B50C00314986A0563155
:102C5000FDF749F821889CA0FDF745F861889FA001
:102C6000FDF741F8A188A2A0FDF73DF8002010BDB6
:102C700010B50C0026497CA07531FDF734F8628848
:102C800021889FA0FDF72FF8002010BD70B52049C6
:102C90001C001500933174A0FDF725F8E1200623F0
:102CA0002A0021000001DFF755FE0849818041809C
:102CB00001210170DFF767FE002070BD9748C168F1
:102CC00008225140C160002070470000FFFF000053
:102CD000020D0000706172616D2D3E6F7065726152
:102CE00074696F6E203D20307825782C20706172D9
:102CF000616D2D3E737461747573203D20307825AD
:102D000078200D0A000000000C0D40000B0E0000A2
:102D1000085A020025730D0A000000006761706305
:102D20005F636D705F6576745F68616E646C657219
:102D3000206F7065726174696F6E203D2025780D7B
:102D40000A0000006761706320757064617465201B
:102D5000706172616D73206661696C20210D0A00DB
:102D60006761706320757064617465207061726161
:102D70006D73206F6B20210D0A0000006761706386
:102D8000207365637572697479207265712066615C
:102D9000696C20210D0A0000676170632073656310
:102DA000757269747920726571206F6B20210D0A2C
:102DB000000000006761706320626F6E64206661CE
:102DC000696C20210D0A00006761706320626F6EDC
:102DD00064206F6B20210D0A0000000067617063A2
:102DE00020656E63727970742073746172742066EA
:102DF00061696C20210D0A006761706320656E6354
:102E000072797074207374617274206F6B20210D5D
:102E10000A000000646973636F6E6E656374206CF2
:102E2000696E6B20726561736F6E203D203078256E
:102E3000780D0A00500840004C580200D05802009B
:102E40007C5802003C580200736C61766520736503
:102E50006E6420706172616D5F7570646174655F2E
:102E60007265710D0A0000002573200D0A00000034
:102E7000316D61785F72785F6F6374657473203D44
:102E80002025640D0A000000316D61785F72785F63
:102E900074696D65203D2025640D0A00316D6178EF
:102EA0005F74785F6F6374657473203D2025640DD3
:102EB0000A000000316D61785F74785F74696D6538
:102EC000203D2025640D0A00636F6E5F696E746596
:102ED0007276616C203D2025640D0A00636F6E5F81
:102EE0006C6174656E6379203D2025640D0A0000D5
:102EF0007375705F746F203D2025640D0A0000001B
:102F0000696E642D3E6D7475203D2025642C7365BB
:102F100071203D2025640D0A00000000006580003E
:102F20003FB41C4B01005868AA22027042708170A5
:102F3000694649790A22002401716946097941717B
:102F40006946497A81716946097AC1716946497B46
:102F500001726946097B41726946497E8172694600
:102F6000097EC1726946497F01736946097F4173D1
:102F70000E21C2700022855C521C12062C192406F8
:102F8000240E120E8A42F6D344541A6804B030BCA0
:102F9000491C10476808400086B00024684611218B
:102FA00004734173611E01826421418203A8FCF70E
:102FB0009FFD0020FCF702FE01210800FCF7BCFC8D
:102FC000F4F796EFF4F79CEF022201211320FCF7AF
:102FD00045F8022201211220FCF740F800221100DE
:102FE0000520FCF73BF801211320FCF78DF80121A7
:102FF0001220FCF789F800210520FCF785F8122142
:10300000684681721E21417203210472C17202A8B6
:10301000FDF766FBFDF783FB05240520FCF766F84A
:10302000002805D001211320FCF76EF8012104E0EF
:1030300000211320FCF768F800211220FCF764F847
:1030400002A8FDF7C9FB6846C07A01940090684663
:10305000037A427A817AF120FFF762FFDDE70548C3
:10306000C16804225140C160C16808225140C1605A
:10307000704700000065800070B58CB004001E230E
:103080006A4602A900F07AFD0028019071D16846D5
:10309000007826183D4C0025684605706846007883
:1030A0008000215802A800F0E7FC002807D06946FC
:1030B0000878401C0006000E07280870EED368460A
:1030C0000078334C0300F4F724EF0705053A5A6003
:1030D0005F5E54002FA0FCF706FE2FA0FCF703FE56
:1030E0003DA0FCF700FE4CA0FCF7FDFD5AA0FCF74C
:1030F000FAFD69A0FCF7F7FD77A0FCF7F4FD84A0CA
:10310000FCF7F1FD89A0FCF7EEFD8EA0FCF7EBFDCE
:1031100092A0FCF7E8FD97A0FCF7E5FD9CA0FCF76A
:10312000E2FDA2A0FCF7DFFDAEA0FCF7DCFDBBA03A
:10313000FCF7D9FDC6A0FCF7D6FDD2A01AE015A079
:10314000FCF7D1FDDFA0FCF7CEFD684605700AE074
:103150002168C000001D0958EAA0FCF7C4FD6946BB
:103160000878401C08706846217D00788142EFD8BD
:1031700051E252E2FCF7B7FD00200CB070BD05A093
:10318000FCF7B1FDC2E124E202E2E1E17008400097
:103190009C0840000D0A00002D2D2D2D2D2D2D2DCC
:1031A0002D2D2D2D2D2D2D2D2D2D2D2D2D2D2D2D4F
:1031B00055534D4152542056332E312D2D2D2D2D4A
:1031C0002D2D2D2D2D2D2D2D2D2D2D2D2D2D2D2D2F
:1031D0002D2D2D200D0A00002020202055534D417B
:1031E0005254CAC7D3C9414C49454E54454BBFAA56
:1031F000B7A2B5C4D2BBB8F6C1E9C7C9B5C4B4AEAD
:10320000BFDAB5F7CAD4BBA5BDBBD7E9BCFE2CCD90
:10321000A8B9FD200D0A0000CBFC2CC4E3BFC9D225
:10322000D4CDA8B9FDB4AEBFDAD6FACAD6B5F7D3B5
:10323000C3B3CCD0F2C0EFC3E6B5C4C8CEBACEBAE1
:10324000AFCAFD2CB2A2D6B4D0D02ED2F2B4CB2CC1
:10325000C4E3BFC90D0A0000D2D4CBE6D2E2B8FC69
:10326000B8C4BAAFCAFDB5C4CAE4C8EBB2CECAFD91
:1032700028D6A7B3D6CAFDD7D62831302F3136BDD0
:10328000F8D6C629A1A2D7D6B7FBB4AEA1A2BAAFD1
:10329000CAFDC8EB0D0A0000BFDAB5D8D6B7B5C86D
:1032A000D7F7CEAAB2CECAFD292CB5A5B8F6BAAFCB
:1032B000CAFDD7EEB6E0D6A7B3D63130B8F6CAE429
:1032C000C8EBB2CECAFD2CB2A2D6A7B3D6BAAFCA4B
:1032D000FDB7B5200D0A0000BBD8D6B5CFD4CABE05
:1032E0002ED0C2D4F6B2CECAFDCFD4CABEBDF8D657
:1032F000C6C9E8D6C3B9A6C4DC2CD0C2D4F6BDF882
:10330000D6C6D7AABBBBB9A6C4DC2E0D0A000000E6
:10331000BCBCCAF5D6A7B3D63A7777772E6F70655F
:103320006E6564762E636F6D0D0A000055534D4136
:103330005254D3D037B8F6CFB5CDB3C3FCC1EE3AB3
:103340000D0A00003F3A202020202020BBF1C8A118
:10335000B0EFD6FAD0C5CFA20D0A000068656C7038
:103360003A202020BBF1C8A1B0EFD6FAD0C5CFA239
:103370000D0A00006C6973743A202020BFC9D3C3C2
:10338000B5C4BAAFCAFDC1D0B1ED0D0A0A00000044
:1033900069643A2020202020BFC9D3C3BAAFCAFD38
:1033A000B5C44944C1D0B1ED0D0A0A006865783A48
:1033B00020202020B2CECAFD3136BDF8D6C6CFD4EB
:1033C000CABE2CBAF3B8FABFD5B8F12BCAFDD7D60E
:1033D000BCB4D6B4D0D0BDF8D6C6D7AABBBB0D0AF4
:1033E0000A0000006465633A20202020B2CECAFDA6
:1033F0003130BDF8D6C6CFD4CABE2CBAF3B8FABFA6
:10340000D5B8F12BCAFDD7D6BCB4D6B4D0D0BDF850
:10341000D6C6D7AABBBB0D0A0A00000072756E742F
:10342000696D653A312CBFAAC6F4BAAFCAFDD4CBD8
:10343000D0D0BCC6CAB13B302CB9D8B1D5BAAFCA0E
:10344000FDD4CBD0D0BCC6CAB13B0D0A0A000000E7
:10345000C7EBB0B4D5D5B3CCD0F2B1E0D0B4B8F1AD
:10346000CABDCAE4C8EBBAAFCAFDC3FBBCB0B2CE9A
:10347000CAFDB2A2D2D4BBD8B3B5BCFCBDE1CAF878
:103480002E0D0A002D2D2D2D2D2D2D2D2D2D2D2DDB
:103490002D2D2D2D2D2D2D2D2D2D2D2D2D2D414C29
:1034A00049454E54454B2D2D2D2D2D2D2D2D2D2D9A
:1034B0002D2D2D2D2D2D2D2D2D2D2D2D2D2D2D2049
:1034C0000D0A00002D2D2D2D2D2D2D2D2D2D2D2DC9
:1034D0002D2D2D2D2D2D2D2D2D2D2D2D2DBAAFCA70
:1034E000FDC7E5B5A52D2D2D2D2D2D2D2D2D2D2DEA
:1034F0002D2D2D2D2D2D2D2D2D2D2D2D2D2D2D2DFC
:10350000200D0A0025730D0A00000000F5A0FCF74D
:10351000EAFB6846057015E02168C000001D0858E8
:103520000BAB0AAA02A900F04AFB69460978206899
:10353000C900425802A9FBA0FCF7D5FB69460878F0
:10354000401C08706846217D00788142E4D862E022
:10355000F9A0FCF7C8FB30006A4602A900F0F7FBAF
:1035600068460078002848D101A902A800F0B0FA06
:1035700069460028087002D004283ED102E0019973
:10358000EEA01EE0F0A0FCF7AEFB0120E07542E0EB
:10359000E9A0FCF7A8FB30006A4602A900F0D7FBBF
:1035A00068460078002828D101A902A800F090FA06
:1035B00069460028087002D004281ED104E0019951
:1035C000E6A0FCF790FB26E0E7A0FCF78CFBE57596
:1035D00021E0D9A0FCF787FB30006A4602A900F081
:1035E000B6FB68460078002807D101A902A800F0C0
:1035F0006FFA69460028087001D00220BDE50198E5
:10360000DE490006000E0028887301D0DCA000E02F
:10361000E2A0FCF768FBC8A0ACE50120ADE5D74807
:103620000021603801677047D4486038006F7047E8
:1036300070477047D1490120E039C875704730B5EF
:1036400095B0050013AB6A4603A900F0B8FA00284C
:1036500024D1CA4C6946E03C087114E02168C000DE
:10366000001D085813AB02AA0BA900F0A8FA002805
:1036700014D103A90BA800F0FFF9002810D0694667
:103680000879401C08716846217D00798142E5D89F
:103690006946207D097988420DD1042015B030BDDE
:1036A0006846017A0078814201D90220F6E768462F
:1036B0000079A075ECE7280001A900F0B0FB002814
:1036C000ECD16846007960750020E7E7F0B5AB4CB7
:1036D0000025E03CA07D217D9BB081427BD9216803
:1036E000C600301D085811AB10AA12A900F067FAE5
:1036F00012A9B1A0FCF7F7FA002737E00121A06971
:10370000B940084218D02221ADA0FCF7ECFA3800ED
:1037100000F074FB01192631AAA0FCF7E4FA22217B
:10372000A7A0FCF7E0FA380000F068FB0019BA0027
:10373000263006A988500EE0380000F05FFB001923
:10374000801C416ABA0006A88150E07D002823D081
:103750009DA0FCF7C8FA10A80078401E874202D04E
:103760009BA0FCF7C0FA7F1C3F063F0E10A8007814
:103770008742C3D397A0FCF7B6FA804F0020603F82
:103780003867607D0300F4F7C4EB0B090D282E3475
:103790003A424C56606C12008FA0DAE720688059DC
:1037A000804703E02068815906988847050010A8E3
:1037B0000079012863D089A0FCF795FA6F48807BD7
:1037C000002808D0386F0A21F4F70CFB0A0001002A
:1037D00083A0FCF788FA1BB0F0BD206807998259D6
:1037E00006989047E2E7206806AD835907CD9847D1
:1037F000DCE72068855906A80FC8A847D6E70A98CD
:1038000000902068855906A80FC8A847CEE70B99F5
:103810000A98019100902068855906A80FC8A8470A
:10382000C4E70AAB07CB6B4607C32068855906A8D7
:103830000FC8A847BAE70AAD0FCD6D460FC520687F
:10384000855906A80FC8A847B0E70BAD0FCD01AD4D
:103850000FC50A9800902068855906A80FC8A84788
:10386000A4E70CAD0FCD02AD0FC50B990A980191DD
:1038700000902068855906A80FC8A84796E7E07D04
:10388000002804D029005EA0FCF72DFA96E7290055
:103890005EA0F9E7F8B55F4D286801041BD5000666
:1038A0005D49364F000E0026E03F0E54B9685A4875
:1038B0008847040010D05848FFF7DEFB012801D0EC
:1038C00004000AD0012C09D0022C08D0032C07D008
:1038D000042C02D1ABE0AEE0A0E0ABE0A1E0A2E0BE
:1038E000A3E000002D2D2D2D2D2D2D2D2D2D2D2D39
:1038F0002D2D2D2D2D2D2D2D2D2D2D2D2DBAAFCA4C
:10390000FD204944202D2D2D2D2D2D2D2D2D2D2DFE
:103910002D2D2D2D2D2D2D2D2D2D2D2D2D2D2D2DD7
:10392000200D0A0025732069642069733A0D0A305E
:1039300058253038580D0A000D0A00004845583AFD
:10394000305825580D0A00003136BDF8D6C6B2CE23
:10395000CAFDCFD4CABE210D0A0000004445433A37
:10396000256C750D0A0000003130BDF8D6C6B2CE08
:10397000CAFDCFD4CABE210D0A0000007C09400058
:1039800052756E2054696D652043616C63756C617E
:1039900074696F6E204F4E0D0A00000052756E2044
:1039A00054696D652043616C63756C6174696F6EF9
:1039B000204F46460D0A00000D0A2573280000001E
:1039C00025630000257300003058255800000000D2
:1039D0002C00000029000000256C75003B0D0A003A
:1039E00046756E6374696F6E2052756E2054696DF2
:1039F000653A25642E2531646D730D0A00000000C0
:103A00003D305825583B0D0A000000003D256C75DF
:103A10003B0D0A00900940001C0D4000F8688047EB
:103A200008E007A004E009A002E00BA000E00DA060
:103A3000FCF759F92E60F8BD0068704701607047C7
:103A4000BAAFCAFDB4EDCEF3210D0A00B2CECAFD65
:103A5000B4EDCEF3210D0A00B2CECAFDCCABB6E078
:103A6000210D0A00CEB4D5D2B5BDC6A5C5E4B5C4F6
:103A7000BAAFCAFD210D0A0002780B789A4201D034
:103A800001207047002A02D0401C491CF4E70020A6
:103A9000704702780A700278002A02D0401C491C44
:103AA000F7E7704700210278002A04D0491C090674
:103AB000090E401CF7E7080070470200012000E0F3
:103AC00050430B00491E0906090E002BF8D1704720
:103AD000F0B5040000250A200F00844620000D6088
:103AE00001780A00303A092A0CD9113A052A09D975
:103AF000582904D00806000E0DD00120F0BD012D7C
:103B000002D0FAE7412901D310218C466D1C2D0605
:103B10002D0E401CE4E76046102802D0002D11D085
:103B200014E0032D01D20220F0BD2078302802D10C
:103B30006078582801D00320F0BDAD1E2D062D0E53
:103B4000A41C01E00420F0BD002D02D06D1E2D0646
:103B50002D0E207806003038092801D8060000E034
:103B6000373E29006046FFF7A8FF704339684018C8
:103B700038606078641C0028E6D1F0BD30B50025BF
:103B800015700BE00C701478401C491C641C240652
:103B9000240E9C42147001D3012030BD0478202CE7
:103BA00001D0002CEED100200D7030BD401C0178FA
:103BB000202901D10028F9D10806000E7047FFB571
:103BC00000258446012084B02E002F002A00644680
:103BD0000295039017E0202912D05006400E0528C8
:103BE0000ED2002A00D1802253065B0E042B01D195
:103BF0002A290BD1521C12066846120EC15401E04C
:103C0000852A05D0641C21780029E4D1002A0DD032
:103C100051060024490E68464454B5A1FFF72CFF15
:103C2000002806D007980121017000220024634675
:103C300013E007980470F8E75878641C2406240EF3
:103C40005B1C202801D02A2807D11800FFF7AEFFFF
:103C5000282802D02A2800D026001878282801D049
:103C60000028E9D1002E604601D08019401C0024B4
:103C7000A4460178002917D0282904D0292909D081
:103C8000222915D019E06346002B16D16D1C2D0694
:103C90002D0E12E06346002B0FD1002D04D06D1EB7
:103CA0002D062D0E01D010E00124012F3CD046E05E
:103CB0006346002B0CD000239C46002D0AD02C29F3
:103CC00010D0202924D0282922D0002A10D01AE090
