:020000040001F9
:10E2000018F09FE518F09FE518F09FE518F09FE5DE
:10E2100018F09FE518F09FE518F09FE518F09FE5CE
:10E2200084E2010040E2010044E2010048E2010012
:10E230004CE2010054E2010050E2010058E201000A
:10E24000820000EA830000EA840000EA850000EA18
:10E25000B20000EA850000EAA80000EA9408400045
:10E26000000300000CB74000200000001CBC400070
:10E27000F00100002CB74000F00400000CBE40008C
:10E28000F0010000DF00A0E300F021E130001FE515
:10E2900030101FE5003081E00040A0E103D0A0E194
:10E2A00084219FE5030054E104208434FCFFFF3AFD
:10E2B000D700A0E300F021E15C001FE55C101FE542
:10E2C000003081E00040A0E103D0A0E158219FE5AB
:10E2D000030054E104208434FCFFFF3ADB00A0E398
:10E2E00000F021E188001FE588101FE5003081E083
:10E2F0000040A0E103D0A0E12C219FE5030054E100
:10E3000004208434FCFFFF3AD200A0E300F021E1B6
:10E31000AC001FE5AC101FE5003081E00040A0E13B
:10E3200003D0A0E104219FE5030054E104208434DC
:10E33000FCFFFF3AD100A0E300F021E1C8001FE597
:10E34000C8101FE5003081E00040A0E103D0A0E14B
:10E35000DC209FE5030054E104208434FCFFFF3AF5
:10E360000080A0E30090A0E300A0A0E300B0A0E341
:10E3700000C0A0E3D300A0E300F021E110011FE5FD
:10E3800010111FE5003081E00040A0E103D0A0E1C2
:10E39000A0209FE5030054E104208434FCFFFF3AF1
:10E3A0000E0000EB170000EB0000A0E30010A0E35C
:10E3B0000020A0E30030A0E30040A0E30050A0E371
:10E3C0000060A0E30070A0E30080A0E30090A0E361
:10E3D00000A0A0E300B0A0E300C0A0E3250000EA95
:10E3E00054009FE554109FE554209FE50130A0E1C3
:10E3F000023083E0030051E1044090340440813452
:10E40000FBFFFF3A1EFF2FE138009FE538109FE524
:10E41000003081E00040A0E10020A0E3030054E1CF
:10E4200004208434FCFFFF3A1EFF2FE1AAAAAAAA07
:10E43000CCCCCCCCDDDDDDDDBBBBBBBB44480200BE
:10E440000008400094000000940840000003000011
:10E4500004F01FE59D21000004F01FE59F2100004E
:10E4600004F01FE5A121000004F01FE5A321000036
:10E4700004F01FE5A521000004F01FE5E7E6010018
:10E48000000000000000000000000000000000008C
:10E49000000000000000000000000000000000007C
:10E4A000000000000000000000000000000000006C
:10E4B000000000000000000000000000000000005C
:10E4C000000000000000000000000000000000004C
:10E4D000000000000000000000000000000000003C
:10E4E000000000000000000000000000000000002C
:10E4F000000000000000000000000000000000001C
:10E500000F502DE9650500FB0F50BDE804F05EE2F9
:10E5100000000000000000000000000000000000FB
:10E520000F502DE94A0500FB0F50BDE804F05EE2F4
:10E5300008B500920B000200BD49BEA001F0F5FA3B
:10E5400008BD1CB501930B00B949009202000B31C4
:10E55000C1A001F0EAFA1CBD1CB501930B00B4493F
:10E56000009202001831BCA001F0DFFA1CBD0B00C4
:10E57000AF49020010B52431C4A001F0D6FA10BD95
:10E5800010B504000100CDA001F0CFFAF9F79CEC22
:10E59000F9F7A4EC01F06FFBCC48844206D0CC48DC
:10E5A000844203D00A2001F05FFCFEE710BD1CB5D9
:10E5B000C8490622684600F0AFFF68460078FF2889
:10E5C00013D168464078FF280FD168468078FF282D
:10E5D0000BD16846C078FF2807D168460079FF282C
:10E5E00003D168464079FF2804D0BB48062269461B
:10E5F000F9F734FC1CBD00F0ABFBFCE7B74E00F0B4
:10E60000A7FBF9F762EC0500F9F768EC040002F0EB
:10E6100015FE3078012801D101F018FC00F0B5FB9F
:10E62000810706D500F095FC002804D100F097FC86
:10E6300003E0C00701D000F0BEFC00F0CFF8002DD1
:10E6400001D1F9F756EC002CD9D1F9F75AECD6E7FD
:10E65000A34801780170704710B5A2484C21F9F722
:10E6600017FCA1499F480160A0494160A049816011
:10E67000A049C160A0490161A0494161A0498161EF
:10E68000A049C161A0490162A0494162A0498162DB
:10E69000A049C162A0490163A0494163A0498163C7
:10E6A000A049C163A0494164A049816410BD70B50F
:10E6B0000D000600002406E0315D9DA001F035FA52
:10E6C000641C2406240EAC42F6D37BA001F02DFA84
:10E6D00070BD9949994801609949416099498160A3
:10E6E0009949C160704700B501208FB0F9F7ADFBC3
:10E6F000FFF7AEFF00F0FEFB01F022F901F0E2F9B6
:10E70000FFF7E7FF01F095F9E120400201F062FA1E
:10E710008E4801F0EEFA0121080001F01DF9F9F729
:10E72000E8EBF9F7EEEB04F087FA8948E3F728FD08
:10E7300000F05EFEFFF73BFF8648142208908648F3
:10E7400009A9099085480A906846F9F787FB05A84A
:10E750000FC8E3F77AFD6348FFF77EFF002000F063
:10E760007CFA00F0D1FB00F0ACFE02220121102067
:10E7700000F084FC0121102000F0D6FC78480168EC
:10E7800002121143016003214160F9F7B2EBF9F77E
:10E79000B8EB53480078C10705D072A001F0C5F965
:10E7A00000F0D6FAFCE7810706D573A001F0BDF9A9
:10E7B00004F0D2FA0FB000BD400702D504F08EFD80
:10E7C000F8E772A001F0B1F9FFF718FF010000208F
:10E7D000002901D0022900D158487047704810B56F
:10E7E000006800686F49884203D06FA001F08CF97F
:10E7F000FBE77948006800687849884203D078A030
:10E8000001F082F9FBE7824800680068814988428C
:10E8100003D081A001F078F9FBE78B48006800681D
:10E820008A49884203D08AA001F06EF9FBE710BD47
:10E830005642020025732C636F6E646974696F6EB3
:10E840002025732C66696C652025732C6C696E65B8
:10E85000203D2025640D0A0025732C706172616DC6
:10E8600030203D2025642C706172616D31203D2087
:10E8700025642C66696C65203D2025732C6C696EBF
:10E8800065203D2025640D0A0000000025732C64DE
:10E89000617461203D2025642C6C656E677468206E
:10E8A0003D2025642C66696C65203D2025732C6C09
:10E8B000696E65203D2025640D0A00006572726F47
:10E8C00072203D2025780D0A00000000C3C3C3C399
:10E8D000A5A5A5A5E30004002400400050084000C1
:10E8E0003800400064014000A11D0200D51D020057
:10E8F000071C0200F91C0200251D0200771C020003
:10E900009DEA010011ED010061ED010033EE01000F
:10E91000ABEE010081EE01008DEE010081E501000A
:10E9200031E5010043E50100F1FA010059FC010065
:10E9300030782578200000008FFC0100940840000A
:10E9400099FC010057FC010073FC0100AFE60100D7
:10E950002BFB01000FF701003DF701006BF80100F0
:10E9600040008000445554204D6F6465205374610D
:10E9700072740D0A00000000464343204D6F646529
:10E980002053746172740D0A000000004E4F524D06
:10E99000414C204D6F64652053746172740D0A0000
:10E9A00064E20100AAAAAAAA537461636B5F496E6C
:10E9B000746567726974795F436865636B2053544B
:10E9C00041434B5F424153455F554E5553454420AB
:10E9D0006661696C210D0A0074E20100BBBBBBBB20
:10E9E000537461636B5F496E746567726974795FB4
:10E9F000436865636B20535441434B5F4241534529
:10EA00005F535643206661696C210D0A00000000C7
:10EA10007CE20100DDDDDDDD537461636B5F496E17
:10EA2000746567726974795F436865636B205354DA
:10EA300041434B5F424153455F46495120666169FE
:10EA40006C210D0A000000006CE20100CCCCCCCCA3
:10EA5000537461636B5F496E746567726974795F43
:10EA6000436865636B20535441434B5F42415345B8
:10EA70005F495251206661696C210D0A0000000057
:10EA800010B50020F3F76FFB0020EFF794F800209B
:10EA9000F6F73BF90020F7F73AFF10BD10B501205B
:10EAA000F3F761FB0120EFF786F80120F6F72DF967
:10EAB0000120F7F72CFF10BD10B5E4F777FB00201D
:10EAC000E7F740FFE4F738FC0020EBF7ACF9EBF791
:10EAD0003EFA10BD70B5F9F7F8E90500F9F7FEE95F
:10EAE00004000120C00781210904C861C869C00F62
:10EAF000FCD1C8690A6A496A10180818F9F7A5F91B
:10EB0000E7F7CAFF0120E7F71DFFE4F74FFC0120FC
:10EB1000EBF789F9E4F74AFB002D01D1F9F7E8E9B1
:10EB2000002C01D1F9F7ECE970BD414800680028DC
:10EB300001D000207047012070473D49012009683D
:10EB4000002908D13A498968002904D1384909695E
:10EB5000002900D1002070470822C2700422827070
:10EB60000B22427000220270812000044268120EC3
:10EB7000CA704268120C8A704268120A4A70406871
:10EB80000870704770B5022681252D042C69002C71
:10EB90004DD0600703D50420A86100F03EF9E007DE
:10EBA00005D00120A86100F059F9EDF7FEF8200624
:10EBB00003D58020A861EDF7F8F820070CD50820D0
:10EBC000A861A00702D50220A861B4430020E9F79C
:10EBD0001BFE184801F05BF9E0050AD5FF20013063
:10EBE000A861A00702D50220A861B4430120E9F77B
:10EBF0000BFEA00703D50220A861E9F720FEA005BF
:10EC000004D501204002A861EDF739F9600603D56B
:10EC10004020A861E9F7F3FDE00603D51020A861C4
:10EC2000E8F736FBA006B1D52020A861AEE770BD9D
:10EC3000F8044000FF3F00000121C90781200004C3
:10EC4000C161C169C90FFCD1006AFF21D531884279
:10EC500001D301207047002070473EB500200121FC
:10EC6000C9058861994D012469460C702860686067
:10EC7000A860E860E3F732FC57229549D2000020F3
:10EC8000E3F7E6FC9349A2020120E3F7E1FC5722F7
:10EC9000914912010220E3F7DBFC03228F49520263
:10ECA0000320E3F7D5FC8E4801F097FA0220FFF726
:10ECB0008DFD01008B4A0020F8F759FFF7F78DFE14
:10ECC000F9F729F8FFF7DCFEFFF7F6FE0020ECF776
:10ECD000B6FE112001AA6946E3F7DCFA002810D13C
:10ECE0006846007900280CD0122002AA69466C738D
:10ECF000E3F7D0FA002804D16846007A002800D053
:10ED0000AC736C731020AC73287303F0AFF83EBD86
:10ED100070B5F9F7DAE80500F9F7E0E80400E3F781
:10ED2000F3FBF7F76BFEFFF7D5FE0120ECF787FE4C
:10ED30006B4800688047002D01D1F9F7DAE8002C14
:10ED400001D1F9F7DEE870BD10B5FFF705FF10BD82
:10ED50005E4810B5807AC00701D1E3F764FC10BDAE
:10ED600070B50500F9F7B0E80600F9F7B8E8040057
:10ED7000564841892943002E418101D1F9F7B8E86D
:10ED8000002C01D1F9F7BCE870BD38B55648002514
:10ED90000090E3F7D9FB00283BD04C4C0125607B69
:10EDA000002836D06089002833D1A07B002802D10A
:10EDB0007D20C0010090FFF73FFF0028FBD0217BA2
:10EDC0006846E4F79EF8002823D0FFF7AEFE00283F
:10EDD00021D0217B6846EDF74CF9002819D0F8F7CF
:10EDE0002DFF002817D001F000F8002813D000985C
:10EDF0006421C002F8F7F6FFA17B401EEAF70EFD82
:10EE000001204002FFF7ACFF3548806A80470220AE
:10EE10000543280038BD0025FBE710B50120FFF7AA
:10EE20009FFFEAF71BFDF8F7FCFE304801F02FF8D2
:10EE300010BD70B50500F9F748E80600F9F74EE88F
:10EE4000040022484189A943002E418101D1F9F7EC
:10EE500050E8002C01D1F9F754E870BD1B4810B5FB
:10EE6000807AC0070BD0EAF707FD0220E3F788FBA2
:10EE70000120FFF7DEFF01204002FFF7DAFF10BD9F
:10EE800010B51B49C003F8F7ADFF10BD10B5FFF773
:10EE9000F7FF0E49086010BD0C48408970470B48C9
:10EEA000407B70470948807B7047084B10B5596814
:10EEB00002028918C20012188A18510A4C02121B49
:10EEC0005A601E225043401810BD0000A4084000A4
:10EED00000508100C4528100D05681004C5C8100FA
:10EEE000300140004108400080BB0000FF3F0000AF
:10EEF00040420F0058480121017058490978C9075C
:10EF000001D00021017070475548C168FF221204EA
:10EF10009143C160C168152212041143C160C168E8
:10EF2000090C0904C160C168FF2210321143C1609D
:10EF30004C4A41048A63FF22FA320A60C269022302
:10EF40009A43C26100204860486B402210434863E6
:10EF50007047454840787047434948707047424879
:10EF600010B5012101703E48C26990231A43C26165
:10EF7000FF23F93342041360C36902242343C361AE
:10EF8000C3690B43C361C36908242343C361C369D5
:10EF900004242343C361516010BD33480178012923
:10EFA00008D1002101702E499020C861FF20FA305D
:10EFB0004904086070470120C10548607047F0B5FA
:10EFC0002749CA6902239A43CA61284A284C294D15
:10EFD00000264904012810D0244B274F4033022833
:10EFE00011D0042603280ED0042805D162626A627B
:10EFF0004E60FF20FC300860F0BD62626A624E60C5
:10F00000FF20FA30F7E763626B624E600F60F0BD7D
:10F01000C90101431648803001614169032212038E
:10F0200011434161FEE7134910B50A691049803167
:10F030000B6901242405A3430B618B051A430C4B78
:10F040001A610A69C0010F23DB019A430A610A6948
:10F0500002430A6110BD0000320040003800400049
:10F060004000800071070000000840000A3C207446
:10F07000001480007C094000FB050000F7B5020980
:10F080009700704AD259166896466E4A1432D25981
:10F0900015680207120F012394461C0008329440A1
:10F0A000624693401A04012914D0002916D003297E
:10F0B00017D09E4334431100294305072D0F01202B
:10F0C000A840029B0006002B10D0012B12D0022B6F
:10F0D00015D112E03343A3431C0004E033431C4327
:10F0E000E9E733431C4329009143E6E72243824387
:10F0F000140004E09443044301E0944384437046C5
:10F10000046050481430C0590160FEBD0109020777
:10F1100088004C49120F1431085800680004000E92
:10F12000D040C007C00F704702099300454A10B590
:10F130001432D458226800070123000F83400029AD
:10F1400001D01A4300E09A43226010BD704710B509
:10F1500004000121FFF7E8FF00212000FFF7E4FF92
:10F1600010BD002802D03749091F08607047364893
:10F1700000218160491E0161344801688213914376
:10F1800001603048001F0068002800D00047704729
:10F1900000B5002202212020FFF770FF002202218B
:10F1A0002020FFF76BFF002202212020FFF766FFDF
:10F1B000002202212020FFF761FF002202212020EF
:10F1C000FFF75CFF00BD20484038026820490A6014
:10F1D00082684A6002698A608269CA60026A0A615A
:10F1E000426814310A60C2684A6042698A60C26932
:10F1F000CA60426A0A611749016041608160C1606A
:10F20000016141618161C1610162416270471049E0
:10F210000D480A68403802604A6882608A68026164
:10F22000CA68826109690162094914310A68426049
:10F230004A68C2608A684261CA68C26109694162FB
:10F24000704770470808400040658000400080001B
:10F25000B4084000FFFF0000FE4BD969FF22F132E5
:10F260000A400243981308400243FB480840024307
:10F27000580301400A43DA6118680028FCDB704734
:10F28000F44801680029FCDBF449016001680029A9
:10F29000FCDB00214A1E4260491C0829FBD300699F
:10F2A0007047EC4801680029FCDBED49016001680A
:10F2B0000029FCDB40690006000E704770B50E00A7
:10F2C0000400FFF7DDFFE74D0100A868814248D147
:10F2D000E54AE04B811A90421AD008DCE349401815
:10F2E0000ED0E349401810D0012809D10DE00920C3
:10F2F0008002081A04D0DF49401809D0012807D03D
:10F30000D8690F210903884305E0D869DA4901E08B
:10F31000D869DA490840D861002E22D0022C20D8C2
:10F32000D869B1020122520211430843D86118681A
:10F330000028FCDBFFF7A4FFA968884211D1012C4B
:10F3400002D0022C02D003E0CD4900E0CD49196083
:10F3500018680028FCDB7D2000031860186800286E
:10F36000FCDB70BDBF48C0498068421A884219D092
:10F3700008DCC549401813D0C44940180ED00128F4
:10F3800009D10BE009208002101A04D0B9494018B5
:10F3900008D0012806D0982101208FE7BC4902E05F
:10F3A000AC21F9E7AC210220F7E7AE48AE4980680E
:10F3B000421A884219D008DCB349401813D0B34927
:10F3C00040180ED0012809D10BE009208002101A44
:10F3D00004D0A849401808D0012806D09C2101205B
:10F3E0006CE7BC2102E0BC21F9E794210220F7E799
:10F3F00000B5FFF745FF9B4A9060FFF752FF916809
:10F40000994A8B1A914221D008DC9F4A891819D059
:10F410009E4A891812D0012909D10FE009218902D9
:10F42000591A04D0934A891810D001290ED09C286B
:10F4300003D09C210120FFF741FF00BDBC28FCD078
:10F44000BC2106E0BC28F8D0BC21F3E79428F4D016
:10F4500094210220EFE77F4AD06911680029FCDB84
:10F46000C02101401023194303071B0F0B43012147
:10F47000490201400B43784901400B4301218906B1
:10F4800008400343D36177487F49806849428842F6
:10F4900001D1804800E08048106010680028FCDB43
:10F4A000704700B5FFF7D7FF6A48C16970229143E2
:10F4B000C161C16910221143C16101680029FCDBEF
:10F4C00000BD00B5FFF7DCFE66498860FFF7E9FF85
:10F4D00072480078C00701D0032000E00120FFF748
:10F4E000BBFE00BD704710B504005E480179AB2932
:10F4F00011D14079BC280ED1FFF734FF5549086877
:10F500000028FCDB2D20000604430C60086800285E
:10F51000FCDBFFF74AFF10BDF7B514000D00002615
:10F52000002A8AB039D04B4908680028FCDB601EED
:10F5300000274009401C089023E0252029000006F0
:10F5400001434448016001680029FCDB00212035AB
:10F550006A46404883688800491C08291350F8D33C
:10F5600078012030A04203D20A988019202202E0BC
:10F570000A98A21B80196946F8F770FC0898203693
:10F580007F1CB842D9D833487D210903016000218E
:10F590004A1E4260491C0829FBD30DB0F0BDF7B5E7
:10F5A000150000268AB0002A089179D00120800435
:10F5B000814275D3274C20680028FCDB2948C221F2
:10F5C0008170FFF7CFFE681E00274009401C09909C
:10F5D00069E078012030A84203D20A9881192022DC
:10F5E0000AE00020411E6A468300401C0828D150D2
:10F5F000FAD30A98AA1B81196846F8F72FFC194814
:10F60000D123C37000202036694682008A58626088
:10F61000401C0828F9D313480178A62916D141784F
:10F62000B32913D121680029FCDB8078C2280AD1D4
:10F63000D12B08D10898012189048842ADD30B2130
:10F6400089060843206020680028FCDB08982030E9
:10F65000089026E00020800000FCFF0300D0073463
:10F6600000D00723300840001340C800EDBFAEFFB4
:10F67000001D8FFF0024E8FFFF0FDFFFFF0FFEFEDE
:10F6800000D0076400D00767EDCEE3FF000E5AFFFD
:10F690008C08000000D0073600D007373800400043
:10F6A00012E009987F1CB84293D8FFF77EFE7D20B8
:10F6B00000032060984800218170C1700800491E35
:10F6C0006160401C0828FBD367E7944810B50168C7
:10F6D0000029FCDBC2699049914B8968994215D099
:10F6E000904C914BA14202D0641EA14204D1510121
:10F6F00049090122120403E0510149090122D204FF
:10F700001143C161036001680029FCDB10BDF8B53D
:10F710008F18080A3C0A1E0000022402A04208D0EA
:10F72000651A2A001800FFF7F7FE21007A1A7019EF
:10F7300000E01800FFF7F0FE0020F8BDFFB516004E
:10F740000B0081B0FFF79CFD734CA168884208D084
:10F75000FFF796FD010075A000F0E7F9FF2005B066
:10F76000F0BDA6209F19190A3D0A207009022D023A
:10F77000B320A9420BD019006E1A607004983200B1
:10F78000FFF70DFF049829007A1A801903E06070D2
:10F79000049832001900FFF702FF0020207060700B
:10F7A000DDE7F0B5050001200C00160000038142E2
:10F7B00089B027D8002C25D0290B09030F18380051
:10F7C000FFF791FE3005000D3F1819E0202C01DDF8
:10F7D000202600E026000020009058483200007AE1
:10F7E000290001ABFFF793FF00200090534832003F
:10F7F000007A390001ABFFF7A1FFA41BAD19BF19B7
:10F80000002CE3DC09B0F0BDF0B5050001200C00D0
:10F8100016000003814289B0F4D8002CF2D0290BE5
:10F8200009030F1A3800FFF75EFE3005000D3F1880
:10F83000202C01D9202600E02600002000903F481F
:10F840003200007A290001ABFFF761FF0020009031
:10F850003A483200007A390001ABFFF76FFFA41B72
:10F86000AD19BF19002CE3D1CCE7F8B5080B0F0593
:10F870000B00000301210903441884460020264E92
:10F880000090AB2015003F0D3071FFF7F9FCB16817
:10F89000884201D0FF20F8BD002F10D0BC2070712D
:10F8A000009A39006046FFF77CFF009A390020007B
:10F8B000FFF7AAFF01200003C01B2D1A00E01C0067
:10F8C0001549BC202F130026487107E02000FFF7E0
:10F8D0000AFE0120000324182D1A761CBE42F5DB17
:10F8E000002D13D00C49BC20012636034871771B2C
:10F8F000601900223900FFF787FFA41B2A00390096
:10F900002000FFF74EFF2000FFF7EDFD0248002129
:10F91000017141710800F8BD3008400000208000EE
:10F9200013311C001423C20000D00727666C6173DA
:10F9300068203D20307825780D0A0000DC08400062
:10F940000020044902007D23DB00401C04C19842D2
:10F95000FBDB70470040810070B504000D00012002
:10F96000C00581684908490081600A218160200042
:10F97000303000060222000E1100FFF77FFBE0008E
:10F9800028438021084321490860214A1043086028
:10F9900008600A68C81302430A601E490A680243E5
:10F9A0000A6070BD19480168C213114301601A4909
:10F9B000012048807047F8B5174E0025C000134C51
:10F9C0008021401C08437580206020680521084381
:10F9D0002060FF272D376D1C2D042D0CBD4205D84E
:10F9E0000A2000F00CFC70880028F4D070880128F0
:10F9F00006D160688003010C08A0318000F095F802
:10FA00002068C008C00020603088F8BD0067800012
:10FA100000061200400080003C084000675F6164FF
:10FA2000635F76616C75653D25780D0A0000000006
:10FA30007047214841688908890041604168032274
:10FA4000114341601D4A01681143016070471C4821
:10FA500019498860704770B5174EB568FFF79DFA71
:10FA600081200004016B0904C90F04D0016B10222E
:10FA7000914311430163A80603D52020044300F0FD
:10FA800044F9A80504D5012040020443FFF76FFBA9
:10FA9000E80504D5FF2001300443FFF783FFB4607D
:10FAA00070BD70B5044DAC68FFF777FA200401D53E
:10FAB000FFF768F8AC6070BD400080002080000057
:10FAC000FFFF000070470949886070470748406899
:10FAD0007047064908607047044810B5C0680006C2
:10FAE000000E02D00220E2F74BFD10BD00E0001036
:10FAF000C14AC0485178405C491C51707047BF48AA
:10FB0000C0680006000E7047010010B5BB4A002017
:10FB100007E09468E40204D5D360401C0006000EA0
:10FB2000491C0B78002BF4D110BD0FB410B5B148AF
:10FB30000299543003AA03F01DFF0400AD4854306D
:10FB4000FFF7E2FF402C02D9ADA0FFF7DDFF200058
:10FB500010BC08BC04B018470020704710B5040062
:10FB600086B01422AAA16846F8F778F922096846F7
:10FB7000A149825CC91C0A702207120F805C487080
:10FB800000208870080006B010BD70B50500A5A063
:10FB9000FFF7BAFF0424E00029000838C140080636
:10FBA000000EFFF7DBFFFFF7AFFF641E2406240EF5
:10FBB000F1D19DA0FFF7A8FF70BD7D2101B5C9005F
:10FBC00003E00220401C8842FCD30098421E0092B1
:10FBD000F7D208BD012110B5C905CA685208520004
:10FBE000CA60E1210902421A88420AD004DC8F4926
:10FBF000401A06D0401A04E0501A02D08C49C8427C
:10FC000001D0892000E0102001027C481B310160F6
:10FC100088494160C221016100218161864AC26137
:10FC200086480268864B1A40026003680322120469
:10FC30001343036003681412234303604368934330
:10FC400043606C4840308160C1607E48016820227A
:10FC50001143016010BD704710B5684800E0C168ED
:10FC600081688902C90FFAD162484021F8F710F97A
:10FC700010BD01207047614881690122120491433F
:10FC80001143816181688903C90FFBD070475948CE
:10FC90004030C36082607047F0B4040055480D06E0
:10FCA00040300CC02D0E5549083805E08E68F6022C
:10FCB00002D52678CE60641C2E006D1E2D062D0EFA
:10FCC000002EF3D1002A05D0002101604160F0BC74
:10FCD00018001047F0BC704710B5484A06E003789A
:10FCE000401C9468A403E40FFBD0D360491EF6D2F5
:10FCF00010BD002801D04049C86070473E48C16827
:10FD0000002901D00021C1607047F8B53B4D6F69F3
:10FD10006869394C8007C10F36480026002912D186
:10FD200069694906C90F0ED169690906C90F0AD167
:10FD30000CE0EA68A1684318491CA1601A70A16828
:10FD4000402900D1A660A9688902F2D43E490A7808
:10FD50000121D307002B29D06A695206D20F15D092
:10FD60000278012A09D14278E02A02D18078FC2861
:10FD700008D0A068032800D9A170A078002804D07A
:10FD8000217003E00220A070F7E7A660A0780128A8
:10FD90000AD1A660174940318A68C868002A03D092
:10FDA0008E60CE6000219047A67016E0900701D5C6
:10FDB000217012E05007217006D5A06801060D4899
:10FDC000090E03F08CFA07E0E268002A04D0A0686C
:10FDD00001060848090E9047A66069693806000EBA
:10FDE000090A090201436961F8BD0448806880037B
:10FDF000C00F7047E80840004008400000638000E2
:10FE0000627566662066756C6C200D0A0000000045
:10FE10003031323334353637383941424344454640
:10FE200000000000307800000D0A0000802500006E
:10FE300000B2F3FF011002000100700000658000B5
:10FE4000FCFFFCFF40008000380040000120C1059D
:10FE5000C86116482D2149040160A52109040160EB
:10FE6000134900204870704700220121C905CA616A
:10FE70000E4908602D235B04C3180B60A5231B04E7
:10FE8000C01808600A480121027041707047084993
:10FE90004978012908D12D214904421803490A60F3
:10FEA000A5221204801808607047000000608000DE
:10FEB0005008400070470020704781210904086BFA
:10FEC0000722104308637047400876380006001682
:10FED00070470068704701607047DF494A6B520005
:10FEE0005208C00702434A63704710B5DB4C002339
:10FEF00005E022000221491C9142FCDB5B1C83428D
:10FF0000F7DB10BDF8B5D64C20690121090508437F
:10FF1000206120690F21C901084320612169012066
:10FF20004004814321612069C009C00120616069EA
:10FF300001210903084360610A20FFF7D6FF6069C9
:10FF400001214903084360610A20FFF7CEFFC54D38
:10FF5000E96840208143E960E868C14F803FF8606C
:10FF60000A20FFF7C2FFE86880210843E860E868DC
:10FF7000F8600A20FFF7B9FF60690121090408430E
:10FF80006061C820FFF7B1FFB54840388068C00005
:10FF9000C10C7D204002F7F725FFB14EC005403669
:10FFA0003168B14A114031603168C00B01433160A2
:10FFB0006420FFF79AFF61690120000381436161BA
:10FFC00060690121490388436061E96880208143B9
:10FFD000E960E868F8600A20FFF787FFE8684021D9
:10FFE0000843E860E868F860616901200004814323
:10FFF00061612069012149040843206121690120D0
:020000040002F8
:100000000005814321613068012108433060C82028
:10001000FFF76BFF6420FFF768FFF8BD00B5142001
:10002000FFF763FF8E49914A80390A608D4802606C
:100030008F4A4A6042608F4A8A6082608E4A127894
:10004000D2071CD08D4ACA60C2608D4A0A61026123
:100050008C4A4A6142618C4A8A6182618B4ACA61D8
:10006000C2618B4A0A6202628A4A4A6242628A4AD0
:100070008A628262894ACA62C262894A1CE0894AEB
:10008000CA60C260884A0A610261884A4A61426164
:100090007D4A10328A618261854ACA61C261854A9D
:1000A0000A620262844A4A624262844A8A628262C4
:1000B000834ACA62C262834A0A630263824A4A630B
:1000C0004263824A8A638263814ACA63C26314209C
:1000D000FFF70BFF00BD10B51420FFF706FFFFF779
:1000E0009DFF7C495E4801604B21490641600F211C
:1000F000C906816005214907C1605F490A78D107B7
:1001000001D0754900E07549016100214161744BDE
:100110008361744BC361744B0362744B4362744BD1
:1001200083628123DB00C3620163724B436381639B
:10013000C1637148D30701D0704B01E06F4B5B1C6A
:10014000036041608160C160016141618161C161A1
:10015000016241622523DB038362694BC362D307DB
:1001600001D0684B01E0674B1E3303634163816339
:10017000C163614801210906403001606249416064
:10018000624981606249C1606249016162494161BD
:10019000624981616249C1616249016262494162A9
:1001A000624981626249C162624901636249416395
:1001B000624981634916C1636148016903031943B8
:1001C0000161416999434161D00702D0FFF79AFE6E
:1001D00010BDC820FFF789FE10BD5A490C220162EC
:1001E00059494162594941612C210A545849816257
:1001F00058490160584941605849C1616BE7002185
:1002000004E00222521C0A2AFCDB491C8142F8DB72
:100210007047002104E00222521C322AFCDB491CF8
:100220008142F8DB70470F48416A012292069143F0
:100230004162426A0A4980394A62026B01239B0388
:100240009A430263026B0A63026B5B001A43026308
:10025000006B08637047000040008100BC0C000088
:10026000801480007C094000FF00FEFF1032A0C314
:1002700000C1958200AF422F38004000629C5C6A4A
:10028000335F917F00752846008CD688E59F8018E3
:100290000740B82F083C207025EC071C0C24DDD348
:1002A00008D0008062D41C2AB75E937F405528484E
:1002B000C7BF10000540D02D0A3C207427EC073C36
:1002C0000C26FDD208900080233F418450933000DB
:1002D00078E92631D6BE898E82001E0082071E0074
:1002E0000505841000C9080010100101004E103CE3
:1002F000683D100E44C42C08C0148000000001109A
:1003000048103422001CFF01020405070A0C0F12DA
:10031000161A1E22262B30353A40454B51575D6345
:100320006970767C83898F969CA2A8AEB4BABFC54B
:10033000CACFD4D9DDE1E5E9EDF0F3F5F8FAFBFD3C
:1003400040008000D3FE0100D7FE0100B7FE01008F
:10035000BBFE0100B5FE0100DBFE0100C9FE01008D
:10036000FFB505008BB0149800270078401E0128C7
:1003700076D801212420E2F705FA04002421F7F7BA
:1003800087FD149800260078E07761E00720694631
:1003900008761498A17F80190700059040780822FC
:1003A000B0400143A1771499F00041180019001DD5
:1003B000091DF7F753FD7878012805D16946087EB5
:1003C0000821084369460876E07F012805D9694677
:1003D000087E10210843694608760C9809A902880E
:1003E000700007900A520E991E221140AB8A0391A9
:1003F00009A94018C34F002269468CC1C249052390
:1004000006AAF1F74AFB07001CD1059A0799527812
:1004100009A8415A012A01D0012200E00022891ACC
:100420000C9A491D11800599497801290AD107992B
:100430000923405A5B020022801C0004000C1900B2
:10044000F1F7FEFD0720761C36066946360E087663
:1004500014980078B04205D9002F97D004E0FFE748
:10046000812706E0002F07D0002C02D02000E2F701
:10047000EEF938000FB0F0BD68462C61808C0C9905
:10048000088020830E98C00702D00121C90300E034
:1004900000210D9801432180A88A0021608024203A
:1004A000E8820120E88199481C34AC606860A88A21
:1004B000E2F7AAFBDDE770B505690400686900286A
:1004C00001D0E2F7C4F9002020612800E2F7BFF96B
:1004D00070BD006900224018427770470069002211
:1004E000401842777047F8B505000C00242001F051
:1004F00031FCC37F00210A00AB422FD9018B0527B5
:100500000BE0867FD640F607F617BE1B7118491E12
:100510000904521C090C1206120EAA42F1D3032C34
:1005200001D2081916E0032C02D0042C08D014E0E4
:10053000807FD040C00710D0C91C0904090C0DE011
:10054000012B0AD9807FD040C007C0170422101A9F
:100550004018401E0104090C00E000210800F8BD0D
:1005600070B50C0015000600002101F009FC020026
:100570002102C120092300010831E2F7EBF9040050
:100580001220207002212800FFF7ADFFA08001207B
:10059000E0807019807E20722000E2F7F4F970BDCF
:1005A000584828307047F8B5040016000D00242084
:1005B00001F0D0FB038B01008020002221E09F1C72
:1005C000BC4201D8E01A15E08B7F3F043F0CD340BA
:1005D000DB0706D07F1C3F043F0CBC4201D1032047
:1005E00008E06346012B08D97F1C3F043F0CBC4246
:1005F00003D1042030700020F8BD7F1C3B041B0C8D
:10060000521C2A70CF7F1206120EBA42BC46F3D299
:100610009C42D4D2F8BDF8B5242001F09BFB040025
:10062000FF2000906069092281889202914220D1C6
:10063000027B0100009202000E32964622001A321E
:10064000D71C951D0C3194460FE00E780123934082
:10065000F65D1E4207D07346D65C6346D35C9E426D
:1006600001D0097818E0521C2A702A78022AECD3AB
:100670001EE0274A91421BD1210002001D310C329D
:10068000CD1C8C4611E017786346CE5C0123BB403D
:100690001E4208D03A06120E2000FFF761FF2878AC
:1006A000401C2870F8BD491C297029780029EAD01F
:1006B000818809229202002591420AD1C2880189CB
:1006C00013480223401EE2F745F900990170457076
:1006D0000AE00F4A914209D1C28801890C480123DE
:1006E000401CE2F737F90570E2F74DF96069E2F76F
:1006F000AEF800212000656101F042FB0021E2F725
:1007000083FAF8BD844202000F180000EC42020098
:1007100002240000FFB581B003981F000C000226E0
:10072000E2F7A7FA00282FD1242001F013FB0500DF
:100730002078012804D8EBF7ABFE9C49884212D1FF
:100740009B48039A02233900E2F704F921780170EB
:100750002178012901D9402100E089214170E2F787
:1007600012F9002610E0012603983100E2F74CFA56
:100770006178227828001D3011540C3C6C610020F7
:1007800020352870FFF747FF300005B0F0BDFFB5FA
:1007900081B003981F000D000226E2F76AFA0028D4
:1007A00026D1242001F0D6FA04002978C07F8142A6
:1007B00012D2687864280FD822001A328854012691
:1007C00003983100E2F720FA0C3D656100202034E7
:1007D0002070FFF720FF0BE07548039A01233900D2
:1007E000801CE2F7B7F881210170E2F7CCF800260F
:1007F0003000CAE7FFB583B0002568460571057073
:10080000088817000E006A4601A9FFF7CCFE040015
:100810006848069906233A00E2F79CF83188002CD4
:10082000018005D169460978032907D00324458052
:100830000471E2F7A8F8002007B0F0BD0221418062
:10084000F6E7FFB50F0083B0002069460870087115
:10085000069801AA040A3888FFF7A5FE060011D100
:10086000242001F077FAF9790500B87909020843E4
:1008700069460979032904D10121002810D00128F3
:1008800016D080264B48059A06990423801EE2F76D
:1008900061F8398801808670E2F775F80020CBE7AF
:1008A0006B461B782819427F99408A43427706E0BD
:1008B0006B461B782A19507F9940084350772100D6
:1008C000280001F065FA01003948059A0223C01C8E
:1008D000E2F740F829190470497F4170E2F753F8B4
:1008E000D0E7FFB583B00020694608700871180A88
:1008F000029004981C00008801AAFFF754FE06002D
:100900000025242001F026FA0700002E08D16846B1
:100910000079022814D0032814D0042814D080268B
:100920002448059AAB1D2100001FE2F713F80400CC
:100930000498002E018821802671658006D028E069
:100940000125EDE70225EBE70725E9E76846007991
:10095000022804D0032808D0042812D019E06846E1
:1009600000783818807E607113E002986946097833
:100970003818407FC840C107C90F6171090AA171C9
:1009800007E068460078C000C119601D091D01F02C
:100990003DFA2000E1F7F7FF00204DE710B5087899
:1009A000122801D1FFF737FE002010BDFFFF000025
:1009B00001240000180C000030B5030001200021C4
:1009C00003241A00CA40D20704D04D0022006D1C37
:1009D000AA401043491C0906090E0929F1D330BD6C
:1009E000FFB585B00E9F040038881D00FFF7E4FFB7
:1009F000049028001E210840A18A4C4A002301913E
:100A00000093029203904A490698132304AAF1F72F
:100A100044F8060022D101211420E1F7B3FE206141
:100A20000699098881813988C181E90701D00121AE
:100A3000C903079A11430180A18A41801421E182F0
:100A40000121E18101001231A1603A49001D61607C
:100A5000E2F7C6FAA08A0021E2F7D6F8300009B022
:100A6000F0BD70B5046905006068002805D0201D40
:100A7000E2F7FAFAE1F7EBFEF6E700202861200042
:100A8000E1F7E5FE70BD7047704728489830704721
:100A900030B50400A289E4890920521C13041B0C00
:100AA00000222500D540ED0707D05D1C8D4201D105
:100AB000100030BD9B1C1B041B0C521C1206120E96
:100AC000092AEED330BD10B503008089DB89401CB4
:100AD0000004000C00221C00D440E40708D091421E
:100AE00003D1401C0004000C07E0801C0004000C33
:100AF000521C12061216092AEDDB092A00D1002029
:100B000010BD02000020802901D98D207047062ADF
:100B100006D0072A07D0082AF8D10729F5D170474F
:100B20000829F2D170470629EFD37047F44202003A
:100B30000A180000B4430200FFB50C00142081B075
:100B400001F008F921780700092931D2FFF7BBFF2E
:100B500000282BD061782078FFF7D3FF060028D13A
:100B60007D680DE028792178884208D1002229008B
:100B7000381DE2F783FA2800E1F769FE02E02D68EC
:100B8000002DEFD1607801210830E1F7FBFD050071
:100B90002078A11C2871607868716278A81DF7F729
:100BA0005DF92900381DE2F71FFA02E0822600E015
:100BB00081265348039A04990223E1F7CBFE21785A
:100BC00001704670E1F7DFFE002005B0F0BDFFB513
:100BD000002081B0009003980E00E2F74AF8002848
:100BE00002D001284CD04DE0142001F0B3F8318838
:100BF0000700FFF74DFF05004248092D36D27C68FB
:100C000003E02179A94203D02468002CF9D117E030
:100C1000002C15D06379039A04999B1DE1F79AFE85
:100C200005003088A11D2880002028716079688027
:100C30006279681DF7F712F92800E1F7A4FE21E0B8
:100C40003D740498010A3800797401F0A1F801009C
:100C50002B48039A0123401CE1F77CFE0570E1F765
:100C600092FE03980121E1F7CFFF0BE0039A04996C
:100C70000623E1F76FFE3188018080210171DCE7F6
:100C8000022000900098A0E7F8B517000D001000B2
:100C9000E1F7EFFF012831D1142001F05BF8017C6E
:100CA0000400FFF710FF217C2A78060015489142C6
:100CB00014D1617C6B783A00090208319B1DE1F781
:100CC00049FE04000680002020716878A91C60801D
:100CD0006A78601DF7F7C2F8200009E0617C0623FE
:100CE0003A0009020831E1F735FE802106800171E2
:100CF000E1F749FE00213800E1F786FF0020F8BD4A
:100D000001140000140C0000FFB50500FF2087B09F
:100D1000109F1E0001211130E1F734FDFF21040076
:100D20001131F7F7B5F83F2168460175E01DF9303C
:100D3000027B7B781A4302737878012801D16846D8
:100D400001750898694600885E4A002308823000D1
:100D50001E210840A98A00930292019103905A49EA
:100D6000062305AA04A8F0F798FE0028009007D0F3
:100D7000002C02D02000E1F76AFD00980BB0F0BD16
:100D80007878012809D16846008A09214902001DA6
:100D90000004000C0022F1F753F968462C61008A28
:100DA000089908802081F00701D00120C00309992B
:100DB00008432080A88A002160804520E882012025
:100DC000FF34E88141480B34AC606860A88AE1F7E1
:100DD0001BFFD2E770B5056904006868002801D0E0
:100DE000E1F735FD002020612800E1F730FD70BDFE
:100DF000006900224018FF300130C272704700695C
:100E000000224018FF300130C272704710B5040054
:100E1000452000F09FFF0189052C03D2081900042A
:100E2000000C10BD052C08D1FF300130007BC0073D
:100E300003D0491D0804000C10BD002010BD70B582
:100E40000D00002100F09CFF6B780200C1200821FA
:100E500000010833E1F77EFD040012202070042019
:100E6000FFF7D4FFA0806878A91CE08020006A7892
:100E70000830F6F7F3FF2000E1F785FD70BD11485B
:100E80003030704770B504000D00452000F062FF5F
:100E900002898021131D9C4202D8A11A29700021C9
:100EA000FF300130007B1A04120CC00707D0521C1F
:100EB0001004000C844202D1052000212870080093
:100EC00070BD0000BC430200F0FF0000244402009B
:100ED00070B515000E0002241000E1F7CAFE0028CC
:100EE00010D1452000F036FF040001212800E1F771
:100EF0008BFE31002000FFF7A2FF00212800E1F760
:100F000083FE0024200070BDFFB581B00026684636
:100F1000067008880D0017006946FFF7B3FF04004C
:100F20007348049906233A00E1F714FD2988002C40
:100F3000018005D169460978052907D00324468038
:100F40000471E1F720FD002005B0F0BD02214180D1
:100F5000F6E7FFB50C0081B00020694608700498E0
:100F6000050A2088FFF78EFF070013D1452000F007
:100F7000F1FEE1790600A079090208436946097883
:100F8000052902D0022932D003E0002828D0012808
:100F90000ED080275648039A04990423801EE1F757
:100FA000D9FC218801808770E1F7EDFC0020CBE7B8
:100FB0007019FF300130C17A01221143C17229003A
:100FC000300000F0E5FE01004A48039A0223E1F7F1
:100FD000C1FC7119FF3101310570C97A41701CE003
:100FE0007019FF300130C17A49084900E6E729004D
:100FF000300000F0CDFE01003E48039A8223401CE1
:10100000E1F7A8FCA2880600A11DF6F727FF300033
:1010100080304570217901703000E1F7B4FCB9E708
:10102000FFB50F0083B00020694608700698000ADB
:1010300001903888FFF726FF05000024452000F0C6
:1010400089FE0600002D06D168460078042810D0DD
:10105000052810D080252648059A0699A31D001F53
:10106000E1F778FC3988002D01800571448004D0B7
:1010700017E08024EFE70224EDE7694609780429A8
:1010800002D0052903D00CE0B17A417109E0019941
:101090007118FF310131C97ACA07D20F4271120AA1
:1010A0008271E1F770FC002007B0F0BD70B50878E0
:1010B00015000C00122811D11E0A452000F04AFE2E
:1010C000310000F065FE01000A4801232A00401E9D
:1010D000E1F740FC61780170E1F755FC2800E1F789
:1010E000C8FD410849002800E1F78EFD002070BDD1
:1010F000180C000003450000FFB505000020C043A8
:1011000085B00E0004901F0001214420E1F73AFB56
:101110000400286138001E210840A98AFB4A0023E8
:101120000093029201910390F9490923300004AA27
:10113000F0F7C9FD01000090F6A0FEF7F6FC30883C
:1011400020813088093030800098002830D10E98F6
:101150004078012811D1208907210022801C000439
:10116000000C8902F0F76CFF208907210022801D06
:101170000004000C8902F0F763FF208930800E988C
:10118000417840200155F80701D00120C00307999C
:1011900008432080A88A002160804720E88201203F
:1011A000E881E2483C34AC606860A88AE1F72CFD35
:1011B000009809B0F0BD70B50569040068680028A2
:1011C00001D0E1F744FB002020612800E1F73FFB5C
:1011D00070BD0069002243182033490008185A776F
:1011E000C28770470069002243182033490008185D
:1011F0005A77C287704710B5CD4C0100A069102204
:10120000401CA061000100190E30891CF6F726FE73
:101210000120207710BD70B50D00BC490400583185
:10122000C4A0FEF782FCC2492804000CC88000223A
:101230008C804A618A6101224A7770BDF8B5BC4F43
:1012400011243800416903003A7F8069A403091919
:101250001E3305010024012A02D0022A0DD00AE023
:10126000B34E2A0000200094FEF768FA7069B4615A
:10127000401970613C770020F8BDAD4E2A00002077
:101280000094FEF75BFA7069B46140190025706143
:10129000AAA0FEF74AFC6D1C0A2DF9DB0A203C7758
:1012A000FEF7E2FDFEE7A248002102224177027725
:1012B000A7480170080070477CB50C0093490600F0
:1012C0008C319CA0FEF731FC472000F043FD050067
:1012D0006946A0A0FEF729FCA18868460170090AAA
:1012E0004170A1798170E088010A6846C170E18986
:1012F0000171090A41710021280000F041FD02003E
:10130000300208300104C120090C12230001E1F76A
:1013100021FB002817D0122101702989891C8180A6
:1013200041800A21C180694609880181694649884E
:101330004181218981816189C181694689880182D0
:10134000E1F721FB7CBD87A0FEF7EFFBFBE7F8B5DB
:1013500006000C00472000F0FDFC05006946200A4D
:101360000C7048700021280000F00AFD02003002D5
:1013700008300104C120090C0A230001E1F7EAFA50
:10138000122101702989891D81800221C18069464D
:1013900009880181E1F7F7FAF8BDF7B55B49140058
:1013A000783188B063A0FEF7C0FB60792179000234
:1013B000014368468180E079A579000205436846CB
:1013C000C580607A227AE37A00020243A07A1B0287
:1013D0001843070417430297E07BA67B00020643ED
:1013E0006846C6816BA0FEF7A0FB29006EA0FEF741
:1013F0009CFB390071A0FEF798FB310074A0FEF74A
:1014000094FB79490298794C01270025884230D114
:1014100077A06770FEF789FB7A491022002004ABA1
:101420000095FEF774F96846C18B77A0FEF77DFB47
:1014300006997BA0FEF779FB6846818A7DA0FEF7BE
:1014400074FB6846C08881087FA0A180FEF76DFB11
:101450006846818A808881424DD0A088790388427D
:1014600049D8002847D06846C08B864243D12770B0
:1014700004E17A49884228D10220607078A0FEF702
:1014800054FB7D491022002004AB0095FEF73FF984
:10149000069963A0FEF749FB6846818A65A0FEF7BE
:1014A00044FB6846C088810867A0A180FEF73DFB29
:1014B0006846C189C08B81421DD0A0881F21490286
:1014C000884218D80028D2D115E065704D49102205
:1014D000002004AB0095FEF71AF96846C18B4AA0BC
:1014E000FEF723FB06994EA0FEF71FFB6846818A94
:1014F00050A0FEF71AFB2078012806D0089804A90E
:10150000FFF7DAFE00200BB0F0BDB7E02C4402007C
:10151000C0FF00006372656174655F64622073746C
:1015200061747573203D2025780D0A00FC4402008B
:10153000BC09400025730D0A000000007761697442
:1015400020666F722072657365742121210D0A0077
:10155000310040006E6F746920203D20307825787E
:101560000D0A00004B455F4D53475F414C4C4F43C4
:101570005F44594E2047415454435F53454E445FA6
:101580004556545F434D4420203D3D204E554C4C24
:10159000200D0A0072784864722E766572203D2014
:1015A0002578200D0A00000072784864722E6C6560
:1015B0006E203D202578200D0A00000072784864D6
:1015C000722E756964203D202578200D0A000000E8
:1015D00072784864722E726F6D5F766572203D205E
:1015E0002578200D0A000000424242425208400085
:1015F00061707020706172742075706772616465CB
:101600000D0A000010000200496D674864722E72D6
:101610006F6D5F766572203D202578200D0A0000F1
:10162000496D674864722E756964203D20257820D5
:101630000D0A0000496D674864722E766572203D80
:10164000202578200D0A00006F6164426C6B546F96
:1016500074203D202578200D0A0000005353535379
:1016600061707020616E6420737461636B207570AB
:1016700067726164650D0A00E020000065486580BE
:1016800007700C216846257001800E214180FF21E2
:101690002D318580C18000F019FD08980021FFF7E9
:1016A00056FE2FE7F3B548780F785B4D0C0000022B
:1016B000074389B079D16978012905D002293BD047
:1016C00056A0FEF732FA6EE000205C49102201AB12
:1016D0000090FEF71CF8E079A679617C00020643D1
:1016E000207C090208430690E17AA07A627B090215
:1016F0000843217B1202114309040143721C68460E
:1017000002810020E8804EA0FEF70FFA0096AB8819
:101710006A8800214DA0FEF708FA68460189320068
:1017200057A0FEF702FA688800283CD16846418A33
:101730000698814237D139E000205849102201AB88
:101740000090FDF7E4FFE079A679617C0002064392
:10175000207C090208430690E17AA07A627B0902A4
:101760000843217B1202114309040143701C6A469D
:1017700010810020E88032A0FEF7D7F90096AB88F0
:101780006A88002131A0FEF7D0F96A46118932003B
:101790003BA0FEF7CAF96888002804D16846418A50
:1017A0000698814202D10320ADE608E0A8888100B6
:1017B00030001039FFF72FFD2000FFF71CFD69886E
:1017C000B94217D1002911D0E888401CE8802000D8
:1017D000FFF711FDA888E988401E814206D130A09C
:1017E000FEF7A3F969880998FFF7B1FD6888401CE6
:1017F000688002E00998FFF7AAFD6888A9888842F6
:1018000004D12BA0FEF791F9FFF74DFD00207AE6F9
:101810002B48704731004000520840006F61644916
:101820006D67426C6F636B57726974653A20554EF1
:101830004B4E4F574E205549440D0A0010000200F0
:10184000756964203D2025780D0A0000626C6B4E9E
:10185000756D203D202578202C6F6164426C6B4EA5
:10186000756D2025782C6F6164426C6B546F742009
:1018700025782C766572202578200D0A000000005E
:10188000496D674864722E766572203D2025782C5C
:1018900020766572203D2025780D0A00E0200000AA
:1018A0006C61737420626C6F636B200D0A00000022
:1018B00075706461746520646F776E210D0A000095
:1018C00074440200F8B50C00A0491E001700A0A047
:1018D000FEF72BF93800E1F7CCF9472000F03AFA8F
:1018E00005002078012804D8EAF7D2FD9A498842F9
:1018F00012D19A4802233A003100E1F72BF82178FF
:1019000001702178012901D9402100E0892141702D
:10191000E1F739F80020F8BDA17823782A003D329C
:1019200099542278A1880C3C52005219D187012089
:1019300000216C6040356970F8BD10B588A0FEF7D5
:10194000E3F8022010BD814910B5183180A0FEF7E0
:10195000ECF8022010BDFFB5002081B00700009018
:1019600003981D000C001E0AE1F783F9002805D03A
:101970000398E1F77EF9012871D074E0472000F068
:10198000E9F900280CD0E279A17912021143402232
:10199000125CD2072AD0002906D0012904D025E004
:1019A00077A0FEF7C2F8FBE7028923889446D21C91
:1019B00093420ED1012906D0811920314A7F520865
:1019C00052004A7712E0811920314A7F01231A43DD
:1019D000F7E76246D21D934208D12A0A5200012934
:1019E00019D01118CA8F52085200CA87018922885B
:1019F0008B1C9A4214D10A3019210600F6F748FAD6
:101A0000A288A11D3000F6F729FAA1883200002033
:101A1000FFF7C3FC15E01118CA8F01231A43E4E74E
:101A2000891D8A420DD1233019210600F6F730FABC
:101A3000A288A11D3000F6F711FA31000020FFF74F
:101A400031FE5448039A04232900E0F783FF2188DC
:101A5000018000998170E0F796FF04E0FFE74EA057
:101A6000FEF763F80227380005B0F0BDFFB5002689
:101A70003700472085B000F06DF9050000241421DF
:101A80006846F6F705FA0798E1F7F3F8002805D05D
:101A90000798E1F7EEF801284ED051E0069801884A
:101AA0002889C21C914204D10224220029003D3120
:101AB00016E0C21D914204D10224220029003E31C9
:101AC0000EE0821C914204D11924220029000A311F
:101AD00006E0821D914207D11924220029002331FA
:101AE0006846F6F7BBF911E0021D914203D10D24BF
:101AF00022002CA105E00830814206D10A242200F0
:101B00002CA16846F6F7AAF900E006262148079AB4
:101B10000899A31D801EE0F71DFF050044802200E8
:101B2000401D6946F6F79AF9069800882880280033
:101B30002E71E0F728FF03E021A0FDF7F6FF022752
:101B4000380009B0F0BD00207047000004450200D5
:101B50002573200D0A000000FFFF00000147000070
:101B60006F6164735F666663315F7570645F726531
:101B7000715F68616E646C6572200D0A0000000080
:101B80006F6164735F656E76203D3D206E756C6C91
:101B90000D0A0000160C00004F4144535F4255539C
:101BA000590D0A00496D67204964656E746966794C
:101BB00000000000496D6720426C6F636B000000FD
:101BC0006F616473204F4144535F42555359200D58
:101BD0000A000000010009060020090E10B51429B2
:101BE0000BD024290CD0452904D0472901D1FFF777
:101BF0000FFE10BDFFF743F910BDFEF746FF10BD05
:101C0000FEF7CEFC10BDF8B57F4E0025FF2700285B
:101C100019D00024182060438719F88AFFF7DAFFEB
:101C2000002802D0416838008847FF20F8827D6094
:101C3000BD60FD81387DE1F730F8641C2406240E78
:101C40000A2CE7D3F8BD00242000182148432200C5
:101C500081190B320D618A82CF824D608D60CD81FA
:101C60008D813550087DE0F793FF641C2406240E17
:101C70000A2CE9D3F8BDF3B505004088002681B0F1
:101C8000FFF7A8FF01000AD06A885F4F00201823E1
:101C90004343DB19DB8A934203D142262AE04026E4
:101CA00028E0401C0006000E0A28F0D3002418206B
:101CB0006043C019C08AFF2807D0641C2406240E84
:101CC0000A2CF4D30A2C14D014E028000830009019
:101CD000182060430E68C01907006B78AA88A91DF8
:101CE000B0470600EED16888F882B98A0298018070
:101CF000E8E74B263000FEBDF8B5434E0700002450
:101D0000182060438519E88AFFF764FF002803D094
:101D10008268390028009047641C2406240E0A2C8F
:101D2000EED3F8BDF3B5384E0F00002481B0182073
:101D300060438519E88AFFF74DFF002804D0C36887
:101D40003A00019928009847641C2406240E0A2CA6
:101D5000EDD3FEBD03002C4A002010B5010018246D
:101D60004C43A418E48A9C4204D1182041438818AB
:101D7000006910BD491C0906090E0A29EFD310BDE0
:101D800042885004400CD20B01D00902084370472E
:101D900002885004400CD20B01D00902084370475E
:101DA00030B5020A0406184BFF21240E0020182526
:101DB0004543ED18AD8AA54204D118214843C01807
:101DC000C18A04E0401C0006000E0A28EFD310026E
:101DD000084330BD30B5020A04060B4BFF21240E28
:101DE000002018254543ED18ED8AA54204D118219D
:101DF0004843C018818A04E0401C0006000E0A28EF
:101E0000EFD31002084330BD7C0A40000A7902700B
:101E10004A7942700B8883701B0AC3708A790271F9
:101E200049884171090A817170470A880270120A53
:101E300042708A788270CA78C2700A7902714A79CF
:101E400042718979817107207047437802781B02BB
:101E50001A430A8082788A70C278CA7002790A713D
:101E600042794A718079887107207047F8B510204F
:101E700069460870AA482821F6F70AF8A9490520FA
:101E8000E0F786FE00210520E0F7BEFEA44AA1206F
:101E9000183216006946E0F7FDF900280FD0A04D72
:101EA0000024F5F7C9FF2919641C2406240E102C00
:101EB0000876F6D332001021A120E0F73AFA00F0BC
:101EC0000BFA00F079F900F0E7FAF8BD10B5944C80
:101ED0000020E178042908D0880092491031085880
:101EE0008047E078401CE070012010BD8C4810B5A0
:101EF00080780223052201028B480A31E0F72AFD8F
:101F00000121017013214170E0F73DFD10BDF0B5D6
:101F100005208BB0E0F7ADFE02287DD18248522328
:101F200005220921F738E0F715FD04000020607054
:101F3000072020722021A180E1800D202070012641
:101F40001F2125002200667220350C32E172E972F1
:101F50001700511E0B20E0F79DF9002818D0022031
:101F6000207304206673A073607A012802D00228CF
:101F700004D101E0062000E00520A0730320E072F8
:101F8000F81C042269A1F5F769FFE07A001DE072F0
:101F9000E07A1D21081A0606360E022E2FD9F820E7
:101FA00069460871022003AA01A9E0F773F9002825
:101FB00006D00B22684602715EA103A8F5F74EFF1A
:101FC0006846007900281AD0B04200D2060069465F
:101FD0000E71E07A761C0921C655E27A20000D3098
:101FE0001154E17A401C081869460A7903A9F5F7EB
:101FF00035FF69460879E27A801C1018E0722200E9
:102000002C321600511E0C20E0F744F900280BD0AA
:102010000020E872300000E013E00D2248A1F5F73F
:102020001DFFE87A0D30E8722000E0F7ACFC48A014
:10203000FDF77BFD4D48FDF717FF03210520E0F775
:10204000E3FD0BB0F0BD10B50520E0F712FE03284C
:1020500010D102210520E0F7D7FD454801230522D4
:102060000921E0F777FC02210170E0F78CFC41497F
:102070000120087010BDFFB507001D000E000520EF
:1020800081B0E0F7F6FD03281ED11F2E1CD81F2DAE
:102090001AD837484123052209210B30E0F75AFCB2
:1020A0000400102020702120667005553200390090
:1020B000A01CF5F7D3FE200003992A002230F5F783
:1020C000CDFE2000E0F75FFC05B0F0BDF8B50500DF
:1020D00013480E2380780522010213480A310A3082
:1020E000E0F738FC0400092020702988224E23A044
:1020F00061806A88A280AB88E380ED882581668153
:10210000A6810095FDF711FD2000E0F73CFCF8BD2D
:1021100010B5034C6279A11DF5F7A0FE607910BDE2
:102120006C0B400038450200040E00000303F0FF72
:1021300000000000424B333433352D4741545400E6
:102140000C08424B333433352D47415454000000C2
:102150006170706D20737461727420616476657251
:10216000746973696E670D0A00000000FF3F00008C
:10217000030D000050084000FFFF0000696E7476F8
:102180005F6D696E203D2025642C696E74765F6DED
:102190006178203D2025642C6C6174656E63792024
:1021A0003D2025642C74696D655F6F7574203D203A
:1021B00025640D0A000000002548002101706421FB
:1021C0004170704710B523481C2305220921E0F710
:1021D000C1FB1B2101700021242241704280052295
:1021E00082800122C18002724272E0F7CCFB10BDF6
:1021F00010B50400164804702420FFF7EBFD010021
:102200000920042305228002E0F7A4FB00210470CA
:10221000417032218170E0F7B6FB10BD10B50400AB
:102220002420FFF7D7FD01000B4802230522E0F729
:1022300091FB002101704470E0F7A5FB10BD002068
:102240007047002070470020704700207047000052
:102250005A0840001B0D000002240000F8B50E00D3
:1022600009781800002425000B00F5F752EE090646
:10227000091215181B0C1E0F2000092421A516E0B9
:102280000A2423A513E0082424A510E0072426A58A
:102290000DE00A2426A50AE0052428A507E0052468
:1022A00028A504E0052429A501E0062429A50100AC
:1022B0002A48A31CE0F74EFB07003078002C38704A
:1022C0007C7004D022002900B81CF5F7C7FD380047
:1022D000E0F759FB0020F8BD704710B520480A23ED
:1022E00005220921E0F736FB1B2101700021142291
:1022F00041704280052282801A4AC1800281E0F743
:1023000042FB10BD42454B454E2053415300000057
:10231000424B2D424C452D312E300000123456FFD9
:10232000FE9ABCDE00000000025E044000000300D4
:10233000312E302E302E302D4C450000312E302ED7
:1023400030000000362E312E32000000362E332EA3
:1023500030000000FFEEDDCCBBAA0000031400003B
:102360001B0D0000FF010000364800210170417084
:10237000704710B534480A2305220921E0F7EAFA2C
:102380001B2101700021452241704280052282807C
:102390000122C1804272E0F7F6FA10BD70B5060066
:1023A0000D004520FFF716FD010028488223052275
:1023B000E0F7D0FA040045702A003100801CF5F7E0
:1023C0004DFD2000E0F7DFFA70BD10B5497820A080
:1023D000FDF7ABFB002010BD00B50878A1B00028C8
:1023E00004D1CC2280216846F5F74AFD002021B0B7
:1023F00000BD10B51C491DA0FDF797FB002010BDC6
:1024000070B50D001BA0FDF790FB00242E00803658
:1024100006E0295D1DA0FDF788FB641C2406240E40
:102420003078A042F5D81BA0FDF77FFB002070BDDF
:1024300000B5A1B0FF2280216846F5F721FD0020FC
:10244000D5E700005C0840001B0D000001450000BE
:10245000706172616D2D3E6E74665F636667203DCC
:102460002025780D0A000000C045020025730D0AE2
:10247000000000004646463220706172616D2D3EBC
:1024800076616C7565203D203078200025303278EB
:10249000200000000D0A00004E4800210170704726
:1024A00010B54DA0FDF741FB50480A230522092134
:1024B000E0F750FA04001B202070002147206170D3
:1024C00060800520A080E180012102006172092165
:1024D00047A0FDF72AFB2000E0F755FA10BD10B524
:1024E00004003C4804704720FFF774FC01004720BB
:1024F000062305220002E0F72DFA00210470418036
:102500008180E0F740FA10BD0020704770B50400EC
:1025100040491D00160040A0FDF707FB2B003200CC
:1025200021003FA0FDF701FB002070BD10B50C009D
:10253000384939A01A31FDF7F8FA6178A21C002059
:10254000FEF72BFF002010BD324910B5363132A006
:10255000FDF7EBFA002010BD2E4910B552312EA028
:10256000FDF7E3FA4720FFF735FC010037481B234E
:102570000522E0F7EFF91421417064218170E0F742
:1025800002FA10BD234910B5633123A0FDF7CDFA3F
:102590004720FFF71FFC01002C481B230522001DCC
:1025A000E0F7D8F91421417032218170E0F7EBF99E
:1025B00010BD184910B5743117A0FDF7B6FA002008
:1025C00010BD144910B58E3113A0FDF7AEFA0020EE
:1025D00010BD00005E0840006170705F6F61645F55
:1025E0006164645F6F6164730D0A00001B0D00007D
:1025F0006170705F6F61645F6164645F6F61647379
:102600002064203D2025782C73203D2025780D0A5C
:10261000000000001446020025730D0A00000000AF
:102620006D73676964203D203078253034782C64E0
:102630006573746964203D20307825782C7372634B
:102640006964203D20307825780D0A000447000099
:10265000FEB515000C000179E34E17E00768CA00CB
:10266000083ABA1884CA00926A4601971288A242B0
:1026700001D0B24207D1019E052229002000B047B7
:102680000006000EFEBD491E0906090E0029E5D10F
:102690000020FEBD10B5D548012305220921E0F731
:1026A00059F901210170E0F76EF9002010BD10B555
:1026B0004A780C000978CEA0FDF737FA20780E286A
:1026C00042D008DC01280DD0032836D00C283BD09E
:1026D0000D2842D138E00F2836D0102834D01B28DE
:1026E0003BD125E06078002837D1C048302305224F
:1026F0000921801CE0F72EF90400032020700A2035
:1027000060701B206084FF204930A0848320E08417
:102710000120E0762000C34910220A30F5F79EFB25
:10272000C04900201839C8702000E0F72CF914E0E7
:10273000FFF7CCFB00280AD00FE001210520E0F7CD
:1027400063FAFFF7C3FB08E06078452805D1022152
:102750000520E0F759FAFFF7DAFB002010BD70B54D
:102760000C000978B0481D00002904D001290FD0C1
:10277000022917D118E01C232900E0F7EBF8050027
:1027800020782870281DFFF7C3FC6880280007E028
:102790000A232900E0F7DEF821780170002141804A
:1027A000E0F7F1F8002070BD0A232900E0F7D2F825
:1027B00021780170082141800A218180B421C180E3
:1027C0004B21C9000181EBE710B518000C00010096
:1027D00095480223801CE0F7BDF84821417021781C
:1027E0000170E0F7D0F8002010BD70B50E008F49E1
:1027F0001C0015008EA0FDF798F9200A894C183CA2
:10280000FF28A0701CD031882C23052221800102D2
:1028100085480A310938E0F79DF8002228210A543A
:10282000E0F7B1F82078FFF7E3FC04212800E0F797
:10283000EBF97D4864220521F630E0F7C7FA01E0A4
:10284000FFF765FB002070BD10B50C0009787AA079
:10285000FDF76BF92078092806D00A2812D00B283A
:1028600017D00C281DD106E06078002801D07CA08C
:1028700015E082A013E06078002801D086A00EE069
:102880008CA00CE06078002801D091A007E095A012
:1028900005E06078002801D097A000E09DA0FDF73A
:1028A00044F9002010BD10B58978A1A0FDF73DF9CD
:1028B00002210520E0F7A8F9A54901200870FFF7DB
:1028C00026FB002010BD10B51000E0F7D2F9002063
:1028D00010BD564910B5203155A0FDF726F900204E
:1028E00010BD30B40A000100040A0020242C11D0CD
:1028F00007DC0C2C10D00E2C0ED0142C0CD19548CB
:1029000004E0452C04D0472C06D1934830BC9FE608
:102910009248FBE79248F9E730BC70471CB591A09C
:10292000FDF703F914216846018028214180002128
:1029300081804B21C900C180FFF7C8FB00201CBD6E
:1029400010B50C0039498FA03931FDF7EEF8A18898
:102950008EA0FDF7EAF8E18892A0FDF7E6F821885D
:1029600095A0FDF7E2F8618899A0FDF7DEF8002058
:1029700010BD10B50C002D4982A05631FDF7D5F8D9
:10298000218898A0FDF7D1F861889BA0FDF7CDF8CC
:10299000A1889EA0FDF7C9F8002010BD10B50C005D
:1029A000224978A07531FDF7C0F8628821889BA084
:1029B000FDF7BBF8002010BD70B51C491C001500C8
:1029C000933170A0FDF7B1F8E12006232A00210021
:1029D0000001DFF7BFFF04498180418001210170C0
:1029E000DFF7D1FF002070BDFFFF0000020D0000E7
:1029F000706172616D2D3E6F7065726174696F6E8A
:102A0000203D20307825782C20706172616D2D3E3C
:102A1000737461747573203D2030782578200D0A19
:102A200000000000840B40000B0E00003C47020039
:102A300025730D0A00000000676170635F636D70AD
:102A40005F6576745F68616E646C6572206F706537
:102A5000726174696F6E203D2025780D0A000000B8
:102A60006761706320757064617465207061726164
:102A70006D73206661696C20210D0A0067617063C7
:102A80002075706461746520706172616D73206F70
:102A90006B20210D0A00000067617063207365637D
:102AA000757269747920726571206661696C202184
:102AB0000D0A000067617063207365637572697445
:102AC0007920726571206F6B20210D0A00000000D3
:102AD0006761706320626F6E64206661696C20219B
:102AE0000D0A00006761706320626F6E64206F6B77
:102AF00020210D0A000000006761706320656E638D
:102B000072797074207374617274206661696C20CC
:102B1000210D0A006761706320656E6372797074BD
:102B2000207374617274206F6B20210D0A00000005
:102B3000646973636F6E6E656374206C696E6B207D
:102B4000726561736F6E203D20307825780D0A0024
:102B500050084000884502000C460200B8450200BB
:102B600078450200736C6176652073656E64207031
:102B70006172616D5F7570646174655F7265710D1E
:102B80000A0000002573200D0A000000316D6178F5
:102B90005F72785F6F6374657473203D2025640DE8
:102BA0000A000000316D61785F72785F74696D654D
:102BB000203D2025640D0A00316D61785F74785FD7
:102BC0006F6374657473203D2025640D0A00000056
:102BD000316D61785F74785F74696D65203D202583
:102BE000640D0A00636F6E5F696E74657276616C66
:102BF000203D2025640D0A00636F6E5F6C61746573
:102C00006E6379203D2025640D0A00007375705FA6
:102C1000746F203D2025640D0A000000696E642D4C
:102C20003E6D7475203D2025642C736571203D2018
:102C300025640D0A00000000022201211320FCF788
:102C40001DFA022201211220FCF718FA02220121AA
:102C50001020FCF713FA002211000520FCF70EFAF1
:102C600001211320FCF760FA01211220FCF75CFA25
:102C700000210520FCF758FA0520FCF747FA002848
:102C800009D001211320FCF74FFA01211220FCF793
:102C90004BFA002108E000211320FCF745FA00213F
:102CA0001220FCF741FA01211020FCF73DFA012027
:102CB000FCF781FEE0E70000002104E00222521C44
:102CC0000A2AFCDB491C8142F8DB70470200303ADB
:102CD000092A02D81106090E0CE00200613A052A01
:102CE00001D8573804E00200413A052A02D83738A3
:102CF0000106090E0800704730B5040000780D0089
:102D0000FFF7E4FF030060782B280ED00320287023
:102D10006078222807D0FFF7D9FF0A214B43181803
:102D20000006000E30BD180030BD180002212970C9
:102D300030BD032210B5C9015202BF4B8C180443A9
:102D40001869A04206D05869000D000558610A2094
:102D5000FFF7B2FF1C6110BDB84FB94EB94CB64D6C
:102D6000387800282FD0306811282CD9B64801783F
:102D7000432928D1316841182039C97F222922D11D
:102D8000316841182039897F22291CD131684118C6
:102D90002039497F4E2905D0316840182038407FBE
:102DA000452810D1A8481022A8A100F049FB00280E
:102DB00019D0ABA0FCF7B9FE002030603870A248F3
:102DC0008021F5F765F83878002875D030681B2821
:102DD00072D9002038709C48316841182039C97F69
:102DE000222902D005E0A3A0E4E797480078432811
:102DF00001D0A5A071E00020306093481122A7A166
:102E000000F01EFB00286AD11120E0718E488D4928
:102E100011300831FFF770FF2071E079217A4018F6
:102E200000068949000EE071081886490831FFF74D
:102E300063FF6070E079217A401800068249000E35
:102E4000E07108187F490831FFF756FFA070E0795C
:102E5000217A401800067C49000EE0710818794973
:102E60000831FFF749FFE070E079217A4018000649
:102E70007549000EE071081872490831FFF73CFFF0
:102E80006071E079217A4018E0716078C00708D05D
:102E9000012020700320207185A0FCF746FE89A048
:102EA0001BE002202070E178002906D0207901285B
:102EB00005D0002810D012E017E08AA00DE001290B
:102EC00004D0022904D0032904D008E088A004E03B
:102ED0008BA002E08EA000E091A0FCF726FE00206F
:102EE000306059488021F4F7D3FF2078012800D1C1
:102EF00036E7E078002817D02179012922D000296F
:102F0000F6D16079002873D061788A48405CA0715E
:102F1000A178FFF70EFF60784F21401C0006000EDD
:102F2000F4F760FF61707AE069690720C0028143AD
:102F300069618148FFF7C0FE686901218902084381
:102F400068610DE7012816D0022833D00328CFD1BD
:102F5000607900284DD061787648405CA071A178F6
:102F6000FFF7E7FE60784F21401C0006000EF4F7E3
:102F700039FF617041E0607900280FD061786D48B9
:102F8000405CA071A178FFF7D4FE60784F21401C0F
:102F90000006000EF4F726FF617003E0A178607868
:102FA000FFF7C7FE68690721C90208436861FF206F
:102FB000A53028E0607900280FD061785D48405C3A
:102FC000A071A178FFF7B5FE60784F21401C000684
:102FD000000EF4F707FF617003E0A1786078FFF757
:102FE000A8FE68690721C9020843686153480AE0DE
:102FF00011E0A1786078FFF79CFE68690721C9029B
:10300000084368614E48FFF757FE6869000D0005E8
:10301000686149480DE0A1786078FFF78AFE464B69
:103020001800FFF749FE6869032109030843686136
:103030001800FFF741FE93E680148000400840002E
:103040004808400060084000E8084000434D442B19
:1030500053494E574156452B4F50454E00000000F6
:1030600053696E67657761766520436C6F73650D94
:103070000A00000053696E676577617665204F70BE
:10308000656E0D0A000000005541525420436D64E6
:10309000204572726F720D0A00000000434D442BF0
:1030A00053494E574156452B434F4E462B00000087
:1030B000496E76616C696420636F6D6D6D616E64DD
:1030C0002E0A0000506C656173652073656C656342
:1030D0007420646F75626C65206368616E6E656CE8
:1030E0002E0A00005258206D6F6465210A0000000E
:1030F000504E3920444831206D6F6465210A00002C
:10310000504E3920444833206D6F6465210A000019
:10311000504E3920444835206D6F6465210A000007
:1031200053696E676C6577617665206D6F646521A4
:103130000A000000F147020071020000860600004C
:10314000540B000090488F49406801608F494160EE
:103150008F4981608F49C1608F4901618F49416109
:103160008F4981618F49C1618F4901628F494162F5
:103170008F4981628F49C1628F4901638F494163E1
:103180008F4981638F49C1638F4901648F494164CD
:10319000FF210131816453210906C1640121C90461
:1031A0000165002242658265C26589490166426601
:1031B0008266C266026742678267C267854B01000A
:1031C00080310B604B235B064B600F23DB068B606B
:1031D00005235B07CB60804B0B6109239B024B618E
:1031E0007E4B8B617E4BCB617E4B0B627E4B4B6289
:1031F0007E4B8B628123DB00CB627D4B4B638A630A
:10320000CA637C4B0B644A648A64CA640A654A6573
:103210008A65CA650A664A660523DB038B66764BB8
:10322000CB66764B0B674A678A67CA670121090636
:10323000FF3001300160724941607249816072491A
:10324000C16072490161724941617249816172498B
:10325000C161724901627249416272498162724977
:10326000C1627249016372494163724981634916BF
:10327000C16370477049400041184348406880303E
:103280000161012189024161416901225203114317
:1032900041617047C901400009183B4840688030CF
:1032A000891C01610321C90241610721C9024161F1
:1032B0007047354901224968520280310028486927
:1032C00001D0104300E09043486170472E4A536894
:1032D0005B6D03605068806D08607047FEE77CB5E9
:1032E0000400007801282AD1042928D3FFF72AFFF7
:1032F0006078254D31280ED0322815D033281ED1C4
:1033000028782C0000261D34012819D0022835D039
:103310000721E01F11E0012028702079FFF7AAFFA4
:10332000194807210F3008E0022028702079002179
:10333000FFF7B0FF144807210830FCF7CDFC7CBD37
:103340000120FFF7B6FF01A96846FFF7BFFF00990C
:10335000002907D0394A01985043F4F743FDE07142
:10336000000A01E0FE20E0712072074809211D30AB
:10337000FCF7B2FC6868803046617CBDE67126725D
:10338000F3E700001032A0C36C08400000C1958232
:1033900000AF422F629C5C6A335B917F00552848E6
:1033A000008CD688E59F80180540B82F083C207017
:1033B00035ED071C0C24DDD308D00080233F418469
:1033C0005093300078E92631353407002008521731
:1033D000FF010000DCE59502820700400025201077
:1033E00000C9080010100101004E107C6E3B08124D
:1033F00041C42A080100011048300000003CFF01D0
:10340000020405070A0C0F12161A1E22262B30354D
:103410003A40454B51575D636970767C83898F963E
:103420009CA2A8AEB4BABFC5CACFD4D9DDE1E5E944
:10343000EDF0F3F5F8FAFBFD82070000102700001D
:1034400030B505000020030000E05B1C934205D26C
:10345000EC5CC85C201A01D1002CF6D130BDF0B56F
:1034600006001FB4002082B00500402401910090A6
:103470001BE0019922000F00300000F0F7F9049AD8
:10348000059B801A994110D310001900220000F00A
:10349000DDF9361A8F410197009F2200012000219B
:1034A00000F0D4F938184D4100902000641E002827
:1034B000DFDC019B00982900320007B0F0BD00005E
:1034C000F0B50E00070030005840C00F87B00490E0
:1034D0004800590040084908BC1A884105D231000B
:1034E00038001E0017000B0002005800400810436F
:1034F0004CD0300D039040055900400D490D05900A
:10350000401A4028029072DA18030121000B0905C5
:103510000843019004980092002805D00199524276
:103520000020884100920190029840210A1A0199D6
:10353000009800F08BF905000C006B4607CB00F0FB
:10354000A6F9C019039A71410E0D0023D7175640F2
:103550001A007A40164344D0049A002A2DD0029AC9
:10356000012A039A15DC1205C01A9141012636057D
:10357000001C7141059ED20FD207009301922A00D0
:103580002300029600F0A3F907B0F0BD3800310027
:10359000FAE71605224A0F00B218C01AB7410121F6
:1035A0000905001C4F4100187F411100181879418E
:1035B000E30F18436D19644113E0E2076D081543EA
:1035C0006408C2071443039A01261205C01A9141E8
:1035D0003605001C7141CE07400830434908C01829
:1035E00051412A00230000F065F9CDE7FFE7049878
:1035F00001224000C117121A002304988B41C417FE
:103600003100381AA141EEE730B40124E4076340E9
:1036100030BC55E730B40124E407614030BC4FE7CB
:103620000000E0FFF0B51FB488B000240B990998A2
:10363000A64648400999C00F4900490809910B99CD
:10364000C0074900490800900B9109990898084360
:103650001CD00B990A98084318D0099801244000FF
:10366000420D4800410D099824050003000B20433A
:1036700009900B980003000B20430B9050181C4935
:103680000022401814000190100005E00020010005
:103690000DB0F0BD032801DA030000E00323C11AD6
:1036A0009C460AAE0AE05F0008ADED5B4F00F75B99
:1036B0007D430027AA187C41491C5B1E6145F2DD51
:1036C000410004AB5A522104120C0A43240C401C42
:1036D0000828DFDB01980099029070460191009064
:1036E000059B049A0799069800F0F1F8D0E70000CE
:1036F0000DFCFFFFF0B50C005C40E40F85B0E40763
:1037000003944C00002664085900944649080200BE
:103710002243029621D062460A431ED06200570D12
:103720004A000E032303550D2D49012402002405F0
:10373000781B1B0B360B4018234326436146009031
:103740001C00501AB44103D30098401C009002E0C2
:10375000009892185B41002803DA0020010005B0B0
:10376000F0BD0020012109050700864611E06446EE
:103770001D00141BB54106D36546521BB3410743D8
:1037800074460C43A646CD074008490828439218C2
:103790005B4105000D43EAD11000184313D0190016
:1037A000604650407140084306D06046101AB3414D
:1037B00006D20122002306E000220123DB0702E0FB
:1037C0000122D2435310009874460105381C614110
:1037D000029C039D0019694100F06CF8BFE70000EE
:1037E000FD0300004A0009030123090B1B051943CF
:1037F0000A4B520D9A4210B502DA0020010010BDAA
:10380000064B34339A4203DC9A1A00F02FF810BDAD
:10381000034BD21800F01AF810BD0000FF0300009F
:10382000CDFBFFFF002910B504DB0124E407404273
:103830008C412100002B04DB1C000123DB075242DA
:10384000A341994200D1904210BD0000202A10B53A
:1038500004DB0100203A9140002010BD914020235C
:103860009C1A0300E3401943904010BD202A10B574
:1038700004DB0800203AD040002110BD0B00D340EB
:10388000D0402024A21A91400843190010BD202ADC
:1038900010B506DBCB170800203A1041C1170B43C7
:1038A00006E00B001341D0402024A21A91400843A7
:1038B000190010BD002B10B508DA0024401C61412E
:1038C00092185B411A4301D14008400010BDF0B589
:1038D00005001FB482B00C0003D00800F4F7F0EA32
:1038E00002E0F4F7EEEA2030020000902100280008
:1038F000FFF7ACFF049B059A04000F001843114327
:10390000084314D0180010431BD0009840210A1A15
:1039100005991800FFF7AAFF05000E00009A059907
:103920000498FFF793FF084305D0012004E020002E
:10393000390007B0F0BD0020C11705430E432C43EA
:10394000374300990E986305401A7905E40A00226E
:103950000C43FD0A0A3002D500200100E9E7010509
:1039600010190C9C69410D9D00196941FFF7A2FFD8
:10397000DFE7000037B508001400064B21006A4657
:1039800000F0C4F804000020694600F05FFC20004D
:103990003EBD00004D420200F0B51FB486B00021CC
:1039A0000998089A030D024314D05148514A181837
:1039B000504305141198012810981AD0281A401C59
:1039C00000264D4F4D49002800960191049012DACF
:1039D000444211E011980124012849A301D1109813
:1039E000C1430698119A84600360C26041600BB0C5
:1039F000F0BD4042E4E70400210500203F4A001CDE
:103A000051410391029012E0E00707D0019900981C
:103A100032003B00FFF706FE0191009032003B00B0
:103A200010001900FFF7FEFD06000F006410002CC7
:103A3000EAD10498039B0028029A0999089806DAAB
:103A4000FFF7F0FD019B009AFFF7ECFD05E0FFF7A3
:103A500051FE019B009AFFF74DFE2A4B04000E0019
:103A60000022FFF7DFFE03D80020C043010007E07B
:103A7000254B002220003100FFF722FDFFF7B2FEA8
:103A8000102409E0002C0ADB0A220023FFF7E7FCE0
:103A9000079B30321A55641E02000A43F2D1079B7D
:103AA0001122641C121B1C19119B012B03D0012332
:103AB00008430ED10AE0084304D0112010900020E2
:103AC000119077E71098151A6D1E0BE0109882423E
:103AD00002DD00236D1C03E0824201DA00236D1E2B
:103AE000002BEED0069811998260C16030C07EE74D
:103AF00001FCFFFF104D0000000014400000F03FEB
:103B0000300000000000F0430000E03FFFB597B038
:103B1000060000251DE2252877D10024F84927005A
:103B2000049400E00443761C32780120203A90404F
:103B30000842F7D130782A280ED0022230780100CE
:103B40003039092916D804990A23594314433039C6
:103B50004018761C0490F1E7189802C804910029D7
:103B6000189004DA012040030443484204900220E4
:103B70000443761C30782E2814D104200443707836
:103B8000761C2A2809D11898761C80C8189009E05C
:103B90000A214F43303FC719761C30780100303975
:103BA0000929F5D930786C2810D006DC4C281AD0B9
:103BB00068280ED06A2817D104E0742813D07A2818
:103BC00012D110E00120400504430CE00121090559
:103BD00001E0032109050C437178814203D10120E2
:103BE00000052418761C761C3078119066280BD0BE
:103BF00013DC58287ED009DC00287CD04528F6D07C
:103C00004628F4D047281AD1AAE118E0632835D015
:103C1000642871D0652812D1A2E170286DD008DC2B
:103C20006728F1D069287CD06E280DD06F2806D186
:103C3000BDE073282ED0752872D078285AD01A9AF1
:103C4000199990476D1C83E16002400F022809D04A
:103C500003280DD00428189801680DD00D60001DB0
:103C6000189075E11898EA1701680D604A60F6E748
:103C7000189801680D80F2E70D70F0E718986A4611
:103C80000178001D117218900020507202A8009057
:103C9000012005E0189802C818900020C043009148
:103CA00061070ED5002101E00199491CB94201913B
:103CB00013DA8142F8DB019A0099895C0029F3D17B
:103CC0000BE0002101E00199491C81420191FADBDE
